{
  "_format": "hh-sol-artifact-1",
  "contractName": "EmissionController",
  "sourceName": "contracts/EmissionController.sol",
  "abi": [
    {
      "inputs": [
        {
          "internalType": "address",
          "name": "_token",
          "type": "address"
        },
        {
          "internalType": "address",
          "name": "_treasury",
          "type": "address"
        },
        {
          "internalType": "address",
          "name": "_merkleRewards",
          "type": "address"
        },
        {
          "internalType": "uint256",
          "name": "_epochDuration",
          "type": "uint256"
        }
      ],
      "stateMutability": "nonpayable",
      "type": "constructor"
    },
    {
      "inputs": [],
      "name": "AccessControlBadConfirmation",
      "type": "error"
    },
    {
      "inputs": [
        {
          "internalType": "address",
          "name": "account",
          "type": "address"
        },
        {
          "internalType": "bytes32",
          "name": "neededRole",
          "type": "bytes32"
        }
      ],
      "name": "AccessControlUnauthorizedAccount",
      "type": "error"
    },
    {
      "anonymous": false,
      "inputs": [
        {
          "indexed": false,
          "internalType": "uint256",
          "name": "startTimestamp",
          "type": "uint256"
        },
        {
          "indexed": false,
          "internalType": "uint256",
          "name": "E0",
          "type": "uint256"
        },
        {
          "indexed": false,
          "internalType": "uint256",
          "name": "k",
          "type": "uint256"
        }
      ],
      "name": "EmissionsStarted",
      "type": "event"
    },
    {
      "anonymous": false,
      "inputs": [
        {
          "indexed": false,
          "internalType": "uint256",
          "name": "epoch",
          "type": "uint256"
        },
        {
          "indexed": false,
          "internalType": "uint256",
          "name": "totalEmission",
          "type": "uint256"
        },
        {
          "indexed": false,
          "internalType": "uint256",
          "name": "validatorsAmount",
          "type": "uint256"
        },
        {
          "indexed": false,
          "internalType": "uint256",
          "name": "pouwBudget",
          "type": "uint256"
        },
        {
          "indexed": false,
          "internalType": "uint256",
          "name": "treasuryAmount",
          "type": "uint256"
        },
        {
          "indexed": false,
          "internalType": "uint256",
          "name": "governanceAmount",
          "type": "uint256"
        }
      ],
      "name": "EpochProcessed",
      "type": "event"
    },
    {
      "anonymous": false,
      "inputs": [
        {
          "indexed": false,
          "internalType": "address",
          "name": "oldAddress",
          "type": "address"
        },
        {
          "indexed": false,
          "internalType": "address",
          "name": "newAddress",
          "type": "address"
        }
      ],
      "name": "GovernanceIncentivesUpdated",
      "type": "event"
    },
    {
      "anonymous": false,
      "inputs": [
        {
          "indexed": false,
          "internalType": "address",
          "name": "oldAddress",
          "type": "address"
        },
        {
          "indexed": false,
          "internalType": "address",
          "name": "newAddress",
          "type": "address"
        }
      ],
      "name": "MerkleRewardsUpdated",
      "type": "event"
    },
    {
      "anonymous": false,
      "inputs": [
        {
          "indexed": true,
          "internalType": "bytes32",
          "name": "role",
          "type": "bytes32"
        },
        {
          "indexed": true,
          "internalType": "bytes32",
          "name": "previousAdminRole",
          "type": "bytes32"
        },
        {
          "indexed": true,
          "internalType": "bytes32",
          "name": "newAdminRole",
          "type": "bytes32"
        }
      ],
      "name": "RoleAdminChanged",
      "type": "event"
    },
    {
      "anonymous": false,
      "inputs": [
        {
          "indexed": true,
          "internalType": "bytes32",
          "name": "role",
          "type": "bytes32"
        },
        {
          "indexed": true,
          "internalType": "address",
          "name": "account",
          "type": "address"
        },
        {
          "indexed": true,
          "internalType": "address",
          "name": "sender",
          "type": "address"
        }
      ],
      "name": "RoleGranted",
      "type": "event"
    },
    {
      "anonymous": false,
      "inputs": [
        {
          "indexed": true,
          "internalType": "bytes32",
          "name": "role",
          "type": "bytes32"
        },
        {
          "indexed": true,
          "internalType": "address",
          "name": "account",
          "type": "address"
        },
        {
          "indexed": true,
          "internalType": "address",
          "name": "sender",
          "type": "address"
        }
      ],
      "name": "RoleRevoked",
      "type": "event"
    },
    {
      "inputs": [],
      "name": "DEFAULT_ADMIN_ROLE",
      "outputs": [
        {
          "internalType": "bytes32",
          "name": "",
          "type": "bytes32"
        }
      ],
      "stateMutability": "view",
      "type": "function"
    },
    {
      "inputs": [],
      "name": "E0",
      "outputs": [
        {
          "internalType": "uint256",
          "name": "",
          "type": "uint256"
        }
      ],
      "stateMutability": "view",
      "type": "function"
    },
    {
      "inputs": [],
      "name": "EMITTER_ROLE",
      "outputs": [
        {
          "internalType": "bytes32",
          "name": "",
          "type": "bytes32"
        }
      ],
      "stateMutability": "view",
      "type": "function"
    },
    {
      "inputs": [],
      "name": "GOVERNANCE_BPS",
      "outputs": [
        {
          "internalType": "uint256",
          "name": "",
          "type": "uint256"
        }
      ],
      "stateMutability": "view",
      "type": "function"
    },
    {
      "inputs": [],
      "name": "POUW_BPS",
      "outputs": [
        {
          "internalType": "uint256",
          "name": "",
          "type": "uint256"
        }
      ],
      "stateMutability": "view",
      "type": "function"
    },
    {
      "inputs": [],
      "name": "TREASURY_BPS",
      "outputs": [
        {
          "internalType": "uint256",
          "name": "",
          "type": "uint256"
        }
      ],
      "stateMutability": "view",
      "type": "function"
    },
    {
      "inputs": [],
      "name": "VALIDATORS_BPS",
      "outputs": [
        {
          "internalType": "uint256",
          "name": "",
          "type": "uint256"
        }
      ],
      "stateMutability": "view",
      "type": "function"
    },
    {
      "inputs": [
        {
          "internalType": "uint256",
          "name": "epoch",
          "type": "uint256"
        }
      ],
      "name": "calculateEmission",
      "outputs": [
        {
          "internalType": "uint256",
          "name": "",
          "type": "uint256"
        }
      ],
      "stateMutability": "view",
      "type": "function"
    },
    {
      "inputs": [],
      "name": "emissionsStarted",
      "outputs": [
        {
          "internalType": "bool",
          "name": "",
          "type": "bool"
        }
      ],
      "stateMutability": "view",
      "type": "function"
    },
    {
      "inputs": [],
      "name": "epochDuration",
      "outputs": [
        {
          "internalType": "uint256",
          "name": "",
          "type": "uint256"
        }
      ],
      "stateMutability": "view",
      "type": "function"
    },
    {
      "inputs": [
        {
          "internalType": "uint256",
          "name": "",
          "type": "uint256"
        }
      ],
      "name": "epochProcessed",
      "outputs": [
        {
          "internalType": "bool",
          "name": "",
          "type": "bool"
        }
      ],
      "stateMutability": "view",
      "type": "function"
    },
    {
      "inputs": [],
      "name": "getCurrentEpoch",
      "outputs": [
        {
          "internalType": "uint256",
          "name": "",
          "type": "uint256"
        }
      ],
      "stateMutability": "view",
      "type": "function"
    },
    {
      "inputs": [
        {
          "internalType": "uint256",
          "name": "epoch",
          "type": "uint256"
        }
      ],
      "name": "getPouwBudget",
      "outputs": [
        {
          "internalType": "uint256",
          "name": "",
          "type": "uint256"
        }
      ],
      "stateMutability": "view",
      "type": "function"
    },
    {
      "inputs": [
        {
          "internalType": "bytes32",
          "name": "role",
          "type": "bytes32"
        }
      ],
      "name": "getRoleAdmin",
      "outputs": [
        {
          "internalType": "bytes32",
          "name": "",
          "type": "bytes32"
        }
      ],
      "stateMutability": "view",
      "type": "function"
    },
    {
      "inputs": [],
      "name": "governanceIncentives",
      "outputs": [
        {
          "internalType": "address",
          "name": "",
          "type": "address"
        }
      ],
      "stateMutability": "view",
      "type": "function"
    },
    {
      "inputs": [
        {
          "internalType": "bytes32",
          "name": "role",
          "type": "bytes32"
        },
        {
          "internalType": "address",
          "name": "account",
          "type": "address"
        }
      ],
      "name": "grantRole",
      "outputs": [],
      "stateMutability": "nonpayable",
      "type": "function"
    },
    {
      "inputs": [
        {
          "internalType": "bytes32",
          "name": "role",
          "type": "bytes32"
        },
        {
          "internalType": "address",
          "name": "account",
          "type": "address"
        }
      ],
      "name": "hasRole",
      "outputs": [
        {
          "internalType": "bool",
          "name": "",
          "type": "bool"
        }
      ],
      "stateMutability": "view",
      "type": "function"
    },
    {
      "inputs": [],
      "name": "k",
      "outputs": [
        {
          "internalType": "uint256",
          "name": "",
          "type": "uint256"
        }
      ],
      "stateMutability": "view",
      "type": "function"
    },
    {
      "inputs": [],
      "name": "merkleRewards",
      "outputs": [
        {
          "internalType": "contract MerkleRewardsPoUW",
          "name": "",
          "type": "address"
        }
      ],
      "stateMutability": "view",
      "type": "function"
    },
    {
      "inputs": [
        {
          "internalType": "uint256",
          "name": "",
          "type": "uint256"
        }
      ],
      "name": "pouwBudget",
      "outputs": [
        {
          "internalType": "uint256",
          "name": "",
          "type": "uint256"
        }
      ],
      "stateMutability": "view",
      "type": "function"
    },
    {
      "inputs": [],
      "name": "processCurrentEpoch",
      "outputs": [],
      "stateMutability": "nonpayable",
      "type": "function"
    },
    {
      "inputs": [
        {
          "internalType": "uint256",
          "name": "epoch",
          "type": "uint256"
        }
      ],
      "name": "processEpoch",
      "outputs": [],
      "stateMutability": "nonpayable",
      "type": "function"
    },
    {
      "inputs": [
        {
          "internalType": "bytes32",
          "name": "role",
          "type": "bytes32"
        },
        {
          "internalType": "address",
          "name": "callerConfirmation",
          "type": "address"
        }
      ],
      "name": "renounceRole",
      "outputs": [],
      "stateMutability": "nonpayable",
      "type": "function"
    },
    {
      "inputs": [
        {
          "internalType": "bytes32",
          "name": "role",
          "type": "bytes32"
        },
        {
          "internalType": "address",
          "name": "account",
          "type": "address"
        }
      ],
      "name": "revokeRole",
      "outputs": [],
      "stateMutability": "nonpayable",
      "type": "function"
    },
    {
      "inputs": [
        {
          "internalType": "uint256",
          "name": "_k",
          "type": "uint256"
        }
      ],
      "name": "setDecayConstant",
      "outputs": [],
      "stateMutability": "nonpayable",
      "type": "function"
    },
    {
      "inputs": [
        {
          "internalType": "address",
          "name": "_governanceIncentives",
          "type": "address"
        }
      ],
      "name": "setGovernanceIncentives",
      "outputs": [],
      "stateMutability": "nonpayable",
      "type": "function"
    },
    {
      "inputs": [
        {
          "internalType": "address",
          "name": "_merkleRewards",
          "type": "address"
        }
      ],
      "name": "setMerkleRewards",
      "outputs": [],
      "stateMutability": "nonpayable",
      "type": "function"
    },
    {
      "inputs": [
        {
          "internalType": "uint256",
          "name": "_E0",
          "type": "uint256"
        }
      ],
      "name": "startEmissions",
      "outputs": [],
      "stateMutability": "nonpayable",
      "type": "function"
    },
    {
      "inputs": [],
      "name": "startTimestamp",
      "outputs": [
        {
          "internalType": "uint256",
          "name": "",
          "type": "uint256"
        }
      ],
      "stateMutability": "view",
      "type": "function"
    },
    {
      "inputs": [
        {
          "internalType": "bytes4",
          "name": "interfaceId",
          "type": "bytes4"
        }
      ],
      "name": "supportsInterface",
      "outputs": [
        {
          "internalType": "bool",
          "name": "",
          "type": "bool"
        }
      ],
      "stateMutability": "view",
      "type": "function"
    },
    {
      "inputs": [],
      "name": "token",
      "outputs": [
        {
          "internalType": "contract CLDToken",
          "name": "",
          "type": "address"
        }
      ],
      "stateMutability": "view",
      "type": "function"
    },
    {
      "inputs": [],
      "name": "treasury",
      "outputs": [
        {
          "internalType": "contract Treasury",
          "name": "",
          "type": "address"
        }
      ],
      "stateMutability": "view",
      "type": "function"
    }
  ],
  "bytecode": "0x60c060405234801561001057600080fd5b5060405161172438038061172483398101604081905261002f916102a9565b6001600160a01b0384166100945760405162461bcd60e51b815260206004820152602160248201527f456d697373696f6e436f6e74726f6c6c65723a20496e76616c696420746f6b656044820152603760f91b60648201526084015b60405180910390fd5b6001600160a01b0383166100f65760405162461bcd60e51b8152602060048201526024808201527f456d697373696f6e436f6e74726f6c6c65723a20496e76616c696420747265616044820152637375727960e01b606482015260840161008b565b600081116101595760405162461bcd60e51b815260206004820152602a60248201527f456d697373696f6e436f6e74726f6c6c65723a20496e76616c69642065706f636044820152693410323ab930ba34b7b760b11b606482015260840161008b565b6001600160a01b0380851660805283811660a052600482905582161561019557600180546001600160a01b0319166001600160a01b0384161790555b6101a06000336101e1565b506101cb7f4b0ad04e4cfd06668c08542d3af105a3fa4b1a2813040bbb694bfecf2e5f5240336101e1565b5050660aa87bee538000600755506102f4915050565b6000828152602081815260408083206001600160a01b038516845290915281205460ff16610283576000838152602081815260408083206001600160a01b03861684529091529020805460ff1916600117905561023b3390565b6001600160a01b0316826001600160a01b0316847f2f8788117e7eff1d82e926ec794901d17c78024a50270940304540a733656f0d60405160405180910390a4506001610287565b5060005b92915050565b80516001600160a01b03811681146102a457600080fd5b919050565b600080600080608085870312156102bf57600080fd5b6102c88561028d565b93506102d66020860161028d565b92506102e46040860161028d565b6060959095015193969295505050565b60805160a0516113da61034a6000396000818161035501528181610bd601528181610c8d0152610dcf01526000818161049301528181610c0801528181610cbc01528181610d550152610dfe01526113da6000f3fe608060405234801561001057600080fd5b50600436106101f05760003560e01c806361d027b31161010f578063a217fddf116100a2578063d98aa23d11610071578063d98aa23d1461045c578063e6fd48bc14610465578063f7f3ea811461046e578063fc0c546a1461048e57600080fd5b8063a217fddf14610430578063b4f40c6114610438578063b97dd9e214610441578063d547741f1461044957600080fd5b80638b9f9af8116100de5780638b9f9af8146103b05780638f22374f146103c357806391d14854146103d657806395ddabfa1461040d57600080fd5b806361d027b314610350578063621485d91461037757806362ec17c21461038a578063899f62351461039d57600080fd5b8063426d021c116101875780634ff0876a116101565780634ff0876a1461031e57806358161a29146103275780635adf00211461033a5780636031a8d61461034757600080fd5b8063426d021c146102e457806345e7519f14610304578063492393af1461030c5780634c25d1971461031557600080fd5b8063248a9ca3116101c3578063248a9ca3146102705780632d88bf98146102935780632f2ff15d146102be57806336568abe146102d157600080fd5b806301ffc9a7146101f557806318004b391461021d5780631f9c204d1461025257806323ec8d5714610267575b600080fd5b61020861020336600461126a565b6104b5565b60405190151581526020015b60405180910390f35b6102447f4b0ad04e4cfd06668c08542d3af105a3fa4b1a2813040bbb694bfecf2e5f524081565b604051908152602001610214565b6102656102603660046112cf565b61054e565b005b610244610dac81565b61024461027e3660046112ea565b60009081526020819052604090206001015490565b6002546102a6906001600160a01b031681565b6040516001600160a01b039091168152602001610214565b6102656102cc366004611303565b6106c9565b6102656102df366004611303565b6106f4565b6102446102f23660046112ea565b60096020526000908152604090205481565b610265610745565b610244610fa081565b61024461070881565b61024460045481565b6102656103353660046112ea565b610788565b6005546102089060ff1681565b61024460065481565b6102a67f000000000000000000000000000000000000000000000000000000000000000081565b6102446103853660046112ea565b610812565b6102656103983660046112cf565b610957565b6102656103ab3660046112ea565b6109c9565b6102656103be3660046112ea565b610ed4565b6001546102a6906001600160a01b031681565b6102086103e4366004611303565b6000918252602082815260408084206001600160a01b0393909316845291905290205460ff1690565b61020861041b3660046112ea565b60086020526000908152604090205460ff1681565b610244600081565b61024460075481565b61024461102b565b610265610457366004611303565b61109f565b6102446102bc81565b61024460035481565b61024461047c3660046112ea565b60009081526009602052604090205490565b6102a67f000000000000000000000000000000000000000000000000000000000000000081565b60007fffffffff0000000000000000000000000000000000000000000000000000000082167f7965db0b00000000000000000000000000000000000000000000000000000000148061054857507f01ffc9a7000000000000000000000000000000000000000000000000000000007fffffffff000000000000000000000000000000000000000000000000000000008316145b92915050565b6000610559816110c4565b6001600160a01b0382166105da5760405162461bcd60e51b815260206004820152602960248201527f456d697373696f6e436f6e74726f6c6c65723a20496e76616c6964206d65726b60448201527f6c6552657761726473000000000000000000000000000000000000000000000060648201526084015b60405180910390fd5b6001546001600160a01b0316156106595760405162461bcd60e51b815260206004820152602d60248201527f456d697373696f6e436f6e74726f6c6c65723a204d65726b6c6552657761726460448201527f7320616c7265616479207365740000000000000000000000000000000000000060648201526084016105d1565b600180546001600160a01b0384811673ffffffffffffffffffffffffffffffffffffffff1983168117909355604080519190921680825260208201939093527fcfe2ef902b6065d8db93aecb1db9d0bdbd762266a120f21e83952d09e4b961b791015b60405180910390a1505050565b6000828152602081905260409020600101546106e4816110c4565b6106ee83836110d1565b50505050565b6001600160a01b0381163314610736576040517f6697b23200000000000000000000000000000000000000000000000000000000815260040160405180910390fd5b610740828261117b565b505050565b7f4b0ad04e4cfd06668c08542d3af105a3fa4b1a2813040bbb694bfecf2e5f524061076f816110c4565b600061077961102b565b9050610784816109c9565b5050565b6000610793816110c4565b60055460ff161561080c5760405162461bcd60e51b815260206004820152602f60248201527f456d697373696f6e436f6e74726f6c6c65723a2043616e6e6f74206368616e6760448201527f65206b206166746572207374617274000000000000000000000000000000000060648201526084016105d1565b50600755565b60055460009060ff166108675760405162461bcd60e51b815260206004820152601f60248201527f456d697373696f6e436f6e74726f6c6c65723a204e6f7420737461727465640060448201526064016105d1565b6000620151806004548461087b9190611345565b610885919061135c565b905080600003610899575050600654919050565b6000670de0b6b3a7640000826007546108b29190611345565b6108bc919061135c565b9050670de0b6b3a764000081106108d7575060009392505050565b60006108eb82670de0b6b3a764000061137e565b9050811561092d576000670de0b6b3a76400006109088480611345565b610912919061135c565b905061091f60028261135c565b6109299083611391565b9150505b670de0b6b3a7640000816006546109449190611345565b61094e919061135c565b95945050505050565b6000610962816110c4565b600280546001600160a01b0384811673ffffffffffffffffffffffffffffffffffffffff1983168117909355604080519190921680825260208201939093527fc431a12aa1787fe0c47dab44c6bda485c7375b649776516db5da84215b65b34691016106bc565b7f4b0ad04e4cfd06668c08542d3af105a3fa4b1a2813040bbb694bfecf2e5f52406109f3816110c4565b60055460ff16610a455760405162461bcd60e51b815260206004820152601f60248201527f456d697373696f6e436f6e74726f6c6c65723a204e6f7420737461727465640060448201526064016105d1565b60008281526008602052604090205460ff1615610aca5760405162461bcd60e51b815260206004820152602b60248201527f456d697373696f6e436f6e74726f6c6c65723a2045706f636820616c7265616460448201527f792070726f63657373656400000000000000000000000000000000000000000060648201526084016105d1565b6000610ad583610812565b905060008111610b4d5760405162461bcd60e51b815260206004820152602160248201527f456d697373696f6e436f6e74726f6c6c65723a205a65726f20656d697373696f60448201527f6e0000000000000000000000000000000000000000000000000000000000000060648201526084016105d1565b6000612710610b5e610dac84611345565b610b68919061135c565b90506000612710610b7b610fa085611345565b610b85919061135c565b90506000612710610b9861070886611345565b610ba2919061135c565b90506000612710610bb56102bc87611345565b610bbf919061135c565b6040516340c10f1960e01b81526001600160a01b037f000000000000000000000000000000000000000000000000000000000000000081166004830152602482018790529192507f0000000000000000000000000000000000000000000000000000000000000000909116906340c10f1990604401600060405180830381600087803b158015610c4e57600080fd5b505af1158015610c62573d6000803e3d6000fd5b50505060008881526009602052604090819020859055516340c10f1960e01b81526001600160a01b037f000000000000000000000000000000000000000000000000000000000000000081166004830152602482018590527f00000000000000000000000000000000000000000000000000000000000000001691506340c10f1990604401600060405180830381600087803b158015610d0157600080fd5b505af1158015610d15573d6000803e3d6000fd5b50506002546001600160a01b0316159150610db89050576002546040516340c10f1960e01b81526001600160a01b039182166004820152602481018390527f0000000000000000000000000000000000000000000000000000000000000000909116906340c10f1990604401600060405180830381600087803b158015610d9b57600080fd5b505af1158015610daf573d6000803e3d6000fd5b50505050610e5b565b6040516340c10f1960e01b81526001600160a01b037f000000000000000000000000000000000000000000000000000000000000000081166004830152602482018390527f000000000000000000000000000000000000000000000000000000000000000016906340c10f1990604401600060405180830381600087803b158015610e4257600080fd5b505af1158015610e56573d6000803e3d6000fd5b505050505b600087815260086020908152604091829020805460ff191660011790558151898152908101879052908101859052606081018490526080810183905260a081018290527f2518caa0216d93d1101233ff8f841886ad4828028040ef048948016b1d8f45e99060c00160405180910390a150505050505050565b6000610edf816110c4565b60055460ff1615610f585760405162461bcd60e51b815260206004820152602360248201527f456d697373696f6e436f6e74726f6c6c65723a20416c7265616479207374617260448201527f746564000000000000000000000000000000000000000000000000000000000060648201526084016105d1565b60008211610fce5760405162461bcd60e51b815260206004820152603060248201527f456d697373696f6e436f6e74726f6c6c65723a204530206d757374206265206760448201527f726561746572207468616e207a65726f0000000000000000000000000000000060648201526084016105d1565b60068290554260038190556005805460ff1916600117905560075460408051928352602083018590528201527fa5070e99edd98e4038d988d53032ab30c5ab97ca9dbe3f4e1dc5013e9eb16cf49060600160405180910390a15050565b60055460009060ff166110805760405162461bcd60e51b815260206004820152601f60248201527f456d697373696f6e436f6e74726f6c6c65723a204e6f7420737461727465640060448201526064016105d1565b600454600354611090904261137e565b61109a919061135c565b905090565b6000828152602081905260409020600101546110ba816110c4565b6106ee838361117b565b6110ce81336111fe565b50565b6000828152602081815260408083206001600160a01b038516845290915281205460ff16611173576000838152602081815260408083206001600160a01b03861684529091529020805460ff1916600117905561112b3390565b6001600160a01b0316826001600160a01b0316847f2f8788117e7eff1d82e926ec794901d17c78024a50270940304540a733656f0d60405160405180910390a4506001610548565b506000610548565b6000828152602081815260408083206001600160a01b038516845290915281205460ff1615611173576000838152602081815260408083206001600160a01b0386168085529252808320805460ff1916905551339286917ff6391f5c32d9c69d2a47ea670b442974b53935d1edc7fd64eb21e047a839171b9190a4506001610548565b6000828152602081815260408083206001600160a01b038516845290915290205460ff16610784576040517fe2517d3f0000000000000000000000000000000000000000000000000000000081526001600160a01b0382166004820152602481018390526044016105d1565b60006020828403121561127c57600080fd5b81357fffffffff00000000000000000000000000000000000000000000000000000000811681146112ac57600080fd5b9392505050565b80356001600160a01b03811681146112ca57600080fd5b919050565b6000602082840312156112e157600080fd5b6112ac826112b3565b6000602082840312156112fc57600080fd5b5035919050565b6000806040838503121561131657600080fd5b82359150611326602084016112b3565b90509250929050565b634e487b7160e01b600052601160045260246000fd5b80820281158282048414176105485761054861132f565b60008261137957634e487b7160e01b600052601260045260246000fd5b500490565b818103818111156105485761054861132f565b808201808211156105485761054861132f56fea26469706673582212208e1584ea82327914ed93fc897f368f99a5da734558c7bd80370539cd5792938064736f6c634300081c0033",
  "linkReferences": {},
  "deployedLinkReferences": {}
}