{
  "_format": "hh-sol-artifact-1",
  "contractName": "EmissionController",
  "sourceName": "contracts/EmissionController.sol",
  "abi": [
    {
      "inputs": [
        {
          "internalType": "address",
          "name": "_token",
          "type": "address"
        },
        {
          "internalType": "address",
          "name": "_treasury",
          "type": "address"
        },
        {
          "internalType": "address",
          "name": "_merkleRewards",
          "type": "address"
        },
        {
          "internalType": "uint256",
          "name": "_epochDuration",
          "type": "uint256"
        }
      ],
      "stateMutability": "nonpayable",
      "type": "constructor"
    },
    {
      "inputs": [],
      "name": "AccessControlBadConfirmation",
      "type": "error"
    },
    {
      "inputs": [
        {
          "internalType": "address",
          "name": "account",
          "type": "address"
        },
        {
          "internalType": "bytes32",
          "name": "neededRole",
          "type": "bytes32"
        }
      ],
      "name": "AccessControlUnauthorizedAccount",
      "type": "error"
    },
    {
      "anonymous": false,
      "inputs": [
        {
          "indexed": false,
          "internalType": "uint256",
          "name": "startTimestamp",
          "type": "uint256"
        },
        {
          "indexed": false,
          "internalType": "uint256",
          "name": "E0",
          "type": "uint256"
        },
        {
          "indexed": false,
          "internalType": "uint256",
          "name": "k",
          "type": "uint256"
        }
      ],
      "name": "EmissionsStarted",
      "type": "event"
    },
    {
      "anonymous": false,
      "inputs": [
        {
          "indexed": false,
          "internalType": "uint256",
          "name": "epoch",
          "type": "uint256"
        },
        {
          "indexed": false,
          "internalType": "uint256",
          "name": "totalEmission",
          "type": "uint256"
        },
        {
          "indexed": false,
          "internalType": "uint256",
          "name": "validatorsAmount",
          "type": "uint256"
        },
        {
          "indexed": false,
          "internalType": "uint256",
          "name": "pouwBudget",
          "type": "uint256"
        },
        {
          "indexed": false,
          "internalType": "uint256",
          "name": "treasuryAmount",
          "type": "uint256"
        },
        {
          "indexed": false,
          "internalType": "uint256",
          "name": "governanceAmount",
          "type": "uint256"
        }
      ],
      "name": "EpochProcessed",
      "type": "event"
    },
    {
      "anonymous": false,
      "inputs": [
        {
          "indexed": false,
          "internalType": "address",
          "name": "oldAddress",
          "type": "address"
        },
        {
          "indexed": false,
          "internalType": "address",
          "name": "newAddress",
          "type": "address"
        }
      ],
      "name": "GovernanceIncentivesUpdated",
      "type": "event"
    },
    {
      "anonymous": false,
      "inputs": [
        {
          "indexed": false,
          "internalType": "address",
          "name": "oldAddress",
          "type": "address"
        },
        {
          "indexed": false,
          "internalType": "address",
          "name": "newAddress",
          "type": "address"
        }
      ],
      "name": "MerkleRewardsUpdated",
      "type": "event"
    },
    {
      "anonymous": false,
      "inputs": [
        {
          "indexed": true,
          "internalType": "bytes32",
          "name": "role",
          "type": "bytes32"
        },
        {
          "indexed": true,
          "internalType": "bytes32",
          "name": "previousAdminRole",
          "type": "bytes32"
        },
        {
          "indexed": true,
          "internalType": "bytes32",
          "name": "newAdminRole",
          "type": "bytes32"
        }
      ],
      "name": "RoleAdminChanged",
      "type": "event"
    },
    {
      "anonymous": false,
      "inputs": [
        {
          "indexed": true,
          "internalType": "bytes32",
          "name": "role",
          "type": "bytes32"
        },
        {
          "indexed": true,
          "internalType": "address",
          "name": "account",
          "type": "address"
        },
        {
          "indexed": true,
          "internalType": "address",
          "name": "sender",
          "type": "address"
        }
      ],
      "name": "RoleGranted",
      "type": "event"
    },
    {
      "anonymous": false,
      "inputs": [
        {
          "indexed": true,
          "internalType": "bytes32",
          "name": "role",
          "type": "bytes32"
        },
        {
          "indexed": true,
          "internalType": "address",
          "name": "account",
          "type": "address"
        },
        {
          "indexed": true,
          "internalType": "address",
          "name": "sender",
          "type": "address"
        }
      ],
      "name": "RoleRevoked",
      "type": "event"
    },
    {
      "inputs": [],
      "name": "DEFAULT_ADMIN_ROLE",
      "outputs": [
        {
          "internalType": "bytes32",
          "name": "",
          "type": "bytes32"
        }
      ],
      "stateMutability": "view",
      "type": "function"
    },
    {
      "inputs": [],
      "name": "E0",
      "outputs": [
        {
          "internalType": "uint256",
          "name": "",
          "type": "uint256"
        }
      ],
      "stateMutability": "view",
      "type": "function"
    },
    {
      "inputs": [],
      "name": "EMITTER_ROLE",
      "outputs": [
        {
          "internalType": "bytes32",
          "name": "",
          "type": "bytes32"
        }
      ],
      "stateMutability": "view",
      "type": "function"
    },
    {
      "inputs": [],
      "name": "GOVERNANCE_BPS",
      "outputs": [
        {
          "internalType": "uint256",
          "name": "",
          "type": "uint256"
        }
      ],
      "stateMutability": "view",
      "type": "function"
    },
    {
      "inputs": [],
      "name": "POUW_BPS",
      "outputs": [
        {
          "internalType": "uint256",
          "name": "",
          "type": "uint256"
        }
      ],
      "stateMutability": "view",
      "type": "function"
    },
    {
      "inputs": [],
      "name": "TREASURY_BPS",
      "outputs": [
        {
          "internalType": "uint256",
          "name": "",
          "type": "uint256"
        }
      ],
      "stateMutability": "view",
      "type": "function"
    },
    {
      "inputs": [],
      "name": "VALIDATORS_BPS",
      "outputs": [
        {
          "internalType": "uint256",
          "name": "",
          "type": "uint256"
        }
      ],
      "stateMutability": "view",
      "type": "function"
    },
    {
      "inputs": [
        {
          "internalType": "uint256",
          "name": "epoch",
          "type": "uint256"
        }
      ],
      "name": "calculateEmission",
      "outputs": [
        {
          "internalType": "uint256",
          "name": "",
          "type": "uint256"
        }
      ],
      "stateMutability": "view",
      "type": "function"
    },
    {
      "inputs": [],
      "name": "emissionsStarted",
      "outputs": [
        {
          "internalType": "bool",
          "name": "",
          "type": "bool"
        }
      ],
      "stateMutability": "view",
      "type": "function"
    },
    {
      "inputs": [],
      "name": "epochDuration",
      "outputs": [
        {
          "internalType": "uint256",
          "name": "",
          "type": "uint256"
        }
      ],
      "stateMutability": "view",
      "type": "function"
    },
    {
      "inputs": [
        {
          "internalType": "uint256",
          "name": "",
          "type": "uint256"
        }
      ],
      "name": "epochProcessed",
      "outputs": [
        {
          "internalType": "bool",
          "name": "",
          "type": "bool"
        }
      ],
      "stateMutability": "view",
      "type": "function"
    },
    {
      "inputs": [],
      "name": "getCurrentEpoch",
      "outputs": [
        {
          "internalType": "uint256",
          "name": "",
          "type": "uint256"
        }
      ],
      "stateMutability": "view",
      "type": "function"
    },
    {
      "inputs": [
        {
          "internalType": "uint256",
          "name": "epoch",
          "type": "uint256"
        }
      ],
      "name": "getEpochInfo",
      "outputs": [
        {
          "internalType": "bool",
          "name": "processed",
          "type": "bool"
        },
        {
          "internalType": "uint256",
          "name": "budget",
          "type": "uint256"
        }
      ],
      "stateMutability": "view",
      "type": "function"
    },
    {
      "inputs": [
        {
          "internalType": "uint256",
          "name": "epoch",
          "type": "uint256"
        }
      ],
      "name": "getPouwBudget",
      "outputs": [
        {
          "internalType": "uint256",
          "name": "",
          "type": "uint256"
        }
      ],
      "stateMutability": "view",
      "type": "function"
    },
    {
      "inputs": [
        {
          "internalType": "bytes32",
          "name": "role",
          "type": "bytes32"
        }
      ],
      "name": "getRoleAdmin",
      "outputs": [
        {
          "internalType": "bytes32",
          "name": "",
          "type": "bytes32"
        }
      ],
      "stateMutability": "view",
      "type": "function"
    },
    {
      "inputs": [],
      "name": "governanceIncentives",
      "outputs": [
        {
          "internalType": "address",
          "name": "",
          "type": "address"
        }
      ],
      "stateMutability": "view",
      "type": "function"
    },
    {
      "inputs": [
        {
          "internalType": "bytes32",
          "name": "role",
          "type": "bytes32"
        },
        {
          "internalType": "address",
          "name": "account",
          "type": "address"
        }
      ],
      "name": "grantRole",
      "outputs": [],
      "stateMutability": "nonpayable",
      "type": "function"
    },
    {
      "inputs": [
        {
          "internalType": "bytes32",
          "name": "role",
          "type": "bytes32"
        },
        {
          "internalType": "address",
          "name": "account",
          "type": "address"
        }
      ],
      "name": "hasRole",
      "outputs": [
        {
          "internalType": "bool",
          "name": "",
          "type": "bool"
        }
      ],
      "stateMutability": "view",
      "type": "function"
    },
    {
      "inputs": [],
      "name": "k",
      "outputs": [
        {
          "internalType": "uint256",
          "name": "",
          "type": "uint256"
        }
      ],
      "stateMutability": "view",
      "type": "function"
    },
    {
      "inputs": [],
      "name": "merkleRewards",
      "outputs": [
        {
          "internalType": "contract MerkleRewardsPoUW",
          "name": "",
          "type": "address"
        }
      ],
      "stateMutability": "view",
      "type": "function"
    },
    {
      "inputs": [
        {
          "internalType": "uint256",
          "name": "",
          "type": "uint256"
        }
      ],
      "name": "pouwBudget",
      "outputs": [
        {
          "internalType": "uint256",
          "name": "",
          "type": "uint256"
        }
      ],
      "stateMutability": "view",
      "type": "function"
    },
    {
      "inputs": [],
      "name": "processCurrentEpoch",
      "outputs": [],
      "stateMutability": "nonpayable",
      "type": "function"
    },
    {
      "inputs": [
        {
          "internalType": "uint256",
          "name": "epoch",
          "type": "uint256"
        }
      ],
      "name": "processEpoch",
      "outputs": [],
      "stateMutability": "nonpayable",
      "type": "function"
    },
    {
      "inputs": [
        {
          "internalType": "bytes32",
          "name": "role",
          "type": "bytes32"
        },
        {
          "internalType": "address",
          "name": "callerConfirmation",
          "type": "address"
        }
      ],
      "name": "renounceRole",
      "outputs": [],
      "stateMutability": "nonpayable",
      "type": "function"
    },
    {
      "inputs": [
        {
          "internalType": "bytes32",
          "name": "role",
          "type": "bytes32"
        },
        {
          "internalType": "address",
          "name": "account",
          "type": "address"
        }
      ],
      "name": "revokeRole",
      "outputs": [],
      "stateMutability": "nonpayable",
      "type": "function"
    },
    {
      "inputs": [
        {
          "internalType": "uint256",
          "name": "_k",
          "type": "uint256"
        }
      ],
      "name": "setDecayConstant",
      "outputs": [],
      "stateMutability": "nonpayable",
      "type": "function"
    },
    {
      "inputs": [
        {
          "internalType": "address",
          "name": "_governanceIncentives",
          "type": "address"
        }
      ],
      "name": "setGovernanceIncentives",
      "outputs": [],
      "stateMutability": "nonpayable",
      "type": "function"
    },
    {
      "inputs": [
        {
          "internalType": "address",
          "name": "_merkleRewards",
          "type": "address"
        }
      ],
      "name": "setMerkleRewards",
      "outputs": [],
      "stateMutability": "nonpayable",
      "type": "function"
    },
    {
      "inputs": [
        {
          "internalType": "uint256",
          "name": "_E0",
          "type": "uint256"
        }
      ],
      "name": "startEmissions",
      "outputs": [],
      "stateMutability": "nonpayable",
      "type": "function"
    },
    {
      "inputs": [],
      "name": "startTimestamp",
      "outputs": [
        {
          "internalType": "uint256",
          "name": "",
          "type": "uint256"
        }
      ],
      "stateMutability": "view",
      "type": "function"
    },
    {
      "inputs": [
        {
          "internalType": "bytes4",
          "name": "interfaceId",
          "type": "bytes4"
        }
      ],
      "name": "supportsInterface",
      "outputs": [
        {
          "internalType": "bool",
          "name": "",
          "type": "bool"
        }
      ],
      "stateMutability": "view",
      "type": "function"
    },
    {
      "inputs": [],
      "name": "token",
      "outputs": [
        {
          "internalType": "contract CLDToken",
          "name": "",
          "type": "address"
        }
      ],
      "stateMutability": "view",
      "type": "function"
    },
    {
      "inputs": [],
      "name": "treasury",
      "outputs": [
        {
          "internalType": "contract Treasury",
          "name": "",
          "type": "address"
        }
      ],
      "stateMutability": "view",
      "type": "function"
    }
  ],
  "bytecode": "0x60c060405234801561001057600080fd5b5060405161177638038061177683398101604081905261002f916102a9565b6001600160a01b0384166100945760405162461bcd60e51b815260206004820152602160248201527f456d697373696f6e436f6e74726f6c6c65723a20496e76616c696420746f6b656044820152603760f91b60648201526084015b60405180910390fd5b6001600160a01b0383166100f65760405162461bcd60e51b8152602060048201526024808201527f456d697373696f6e436f6e74726f6c6c65723a20496e76616c696420747265616044820152637375727960e01b606482015260840161008b565b600081116101595760405162461bcd60e51b815260206004820152602a60248201527f456d697373696f6e436f6e74726f6c6c65723a20496e76616c69642065706f636044820152693410323ab930ba34b7b760b11b606482015260840161008b565b6001600160a01b0380851660805283811660a052600482905582161561019557600180546001600160a01b0319166001600160a01b0384161790555b6101a06000336101e1565b506101cb7f4b0ad04e4cfd06668c08542d3af105a3fa4b1a2813040bbb694bfecf2e5f5240336101e1565b5050660aa87bee538000600755506102f4915050565b6000828152602081815260408083206001600160a01b038516845290915281205460ff16610283576000838152602081815260408083206001600160a01b03861684529091529020805460ff1916600117905561023b3390565b6001600160a01b0316826001600160a01b0316847f2f8788117e7eff1d82e926ec794901d17c78024a50270940304540a733656f0d60405160405180910390a4506001610287565b5060005b92915050565b80516001600160a01b03811681146102a457600080fd5b919050565b600080600080608085870312156102bf57600080fd5b6102c88561028d565b93506102d66020860161028d565b92506102e46040860161028d565b6060959095015193969295505050565b60805160a05161144861032e600039600081816103b801528181610c490152610cc60152600081816104f60152610dbc01526114486000f3fe608060405234801561001057600080fd5b506004361061020b5760003560e01c80636031a8d61161012a57806395ddabfa116100bd578063d547741f1161008c578063e6fd48bc11610071578063e6fd48bc146104c8578063f7f3ea81146104d1578063fc0c546a146104f157600080fd5b8063d547741f146104ac578063d98aa23d146104bf57600080fd5b806395ddabfa14610470578063a217fddf14610493578063b4f40c611461049b578063b97dd9e2146104a457600080fd5b8063899f6235116100f9578063899f6235146104005780638b9f9af8146104135780638f22374f1461042657806391d148541461043957600080fd5b80636031a8d6146103aa57806361d027b3146103b3578063621485d9146103da57806362ec17c2146103ed57600080fd5b806336568abe116101a25780634c25d197116101715780634c25d197146103785780634ff0876a1461038157806358161a291461038a5780635adf00211461039d57600080fd5b806336568abe14610334578063426d021c1461034757806345e7519f14610367578063492393af1461036f57600080fd5b806323ec8d57116101de57806323ec8d57146102ca578063248a9ca3146102d35780632d88bf98146102f65780632f2ff15d1461032157600080fd5b806301ffc9a714610210578063135022c21461023857806318004b39146102805780631f9c204d146102b5575b600080fd5b61022361021e366004611237565b610518565b60405190151581526020015b60405180910390f35b610269610246366004611280565b60009081526008602090815260408083205460099092529091205460ff90911691565b60408051921515835260208301919091520161022f565b6102a77f4b0ad04e4cfd06668c08542d3af105a3fa4b1a2813040bbb694bfecf2e5f524081565b60405190815260200161022f565b6102c86102c33660046112b5565b6105b1565b005b6102a7610dac81565b6102a76102e1366004611280565b60009081526020819052604090206001015490565b600254610309906001600160a01b031681565b6040516001600160a01b03909116815260200161022f565b6102c861032f3660046112d0565b61072c565b6102c86103423660046112d0565b610757565b6102a7610355366004611280565b60096020526000908152604090205481565b6102c86107a8565b6102a7610fa081565b6102a761070881565b6102a760045481565b6102c8610398366004611280565b6107eb565b6005546102239060ff1681565b6102a760065481565b6103097f000000000000000000000000000000000000000000000000000000000000000081565b6102a76103e8366004611280565b610875565b6102c86103fb3660046112b5565b6109ba565b6102c861040e366004611280565b610a2c565b6102c8610421366004611280565b610ea1565b600154610309906001600160a01b031681565b6102236104473660046112d0565b6000918252602082815260408084206001600160a01b0393909316845291905290205460ff1690565b61022361047e366004611280565b60086020526000908152604090205460ff1681565b6102a7600081565b6102a760075481565b6102a7610ff8565b6102c86104ba3660046112d0565b61106c565b6102a76102bc81565b6102a760035481565b6102a76104df366004611280565b60009081526009602052604090205490565b6103097f000000000000000000000000000000000000000000000000000000000000000081565b60007fffffffff0000000000000000000000000000000000000000000000000000000082167f7965db0b0000000000000000000000000000000000000000000000000000000014806105ab57507f01ffc9a7000000000000000000000000000000000000000000000000000000007fffffffff000000000000000000000000000000000000000000000000000000008316145b92915050565b60006105bc81611091565b6001600160a01b03821661063d5760405162461bcd60e51b815260206004820152602960248201527f456d697373696f6e436f6e74726f6c6c65723a20496e76616c6964206d65726b60448201527f6c6552657761726473000000000000000000000000000000000000000000000060648201526084015b60405180910390fd5b6001546001600160a01b0316156106bc5760405162461bcd60e51b815260206004820152602d60248201527f456d697373696f6e436f6e74726f6c6c65723a204d65726b6c6552657761726460448201527f7320616c726561647920736574000000000000000000000000000000000000006064820152608401610634565b600180546001600160a01b0384811673ffffffffffffffffffffffffffffffffffffffff1983168117909355604080519190921680825260208201939093527fcfe2ef902b6065d8db93aecb1db9d0bdbd762266a120f21e83952d09e4b961b791015b60405180910390a1505050565b60008281526020819052604090206001015461074781611091565b610751838361109e565b50505050565b6001600160a01b0381163314610799576040517f6697b23200000000000000000000000000000000000000000000000000000000815260040160405180910390fd5b6107a38282611148565b505050565b7f4b0ad04e4cfd06668c08542d3af105a3fa4b1a2813040bbb694bfecf2e5f52406107d281611091565b60006107dc610ff8565b90506107e781610a2c565b5050565b60006107f681611091565b60055460ff161561086f5760405162461bcd60e51b815260206004820152602f60248201527f456d697373696f6e436f6e74726f6c6c65723a2043616e6e6f74206368616e6760448201527f65206b20616674657220737461727400000000000000000000000000000000006064820152608401610634565b50600755565b60055460009060ff166108ca5760405162461bcd60e51b815260206004820152601f60248201527f456d697373696f6e436f6e74726f6c6c65723a204e6f742073746172746564006044820152606401610634565b600062015180600454846108de9190611312565b6108e89190611329565b9050806000036108fc575050600654919050565b6000670de0b6b3a7640000826007546109159190611312565b61091f9190611329565b9050670de0b6b3a7640000811061093a575060009392505050565b600061094e82670de0b6b3a764000061134b565b90508115610990576000670de0b6b3a764000061096b8480611312565b6109759190611329565b9050610982600282611329565b61098c908361135e565b9150505b670de0b6b3a7640000816006546109a79190611312565b6109b19190611329565b95945050505050565b60006109c581611091565b600280546001600160a01b0384811673ffffffffffffffffffffffffffffffffffffffff1983168117909355604080519190921680825260208201939093527fc431a12aa1787fe0c47dab44c6bda485c7375b649776516db5da84215b65b346910161071f565b7f4b0ad04e4cfd06668c08542d3af105a3fa4b1a2813040bbb694bfecf2e5f5240610a5681611091565b60055460ff16610aa85760405162461bcd60e51b815260206004820152601f60248201527f456d697373696f6e436f6e74726f6c6c65723a204e6f742073746172746564006044820152606401610634565b60008281526008602052604090205460ff1615610b2d5760405162461bcd60e51b815260206004820152602b60248201527f456d697373696f6e436f6e74726f6c6c65723a2045706f636820616c7265616460448201527f792070726f6365737365640000000000000000000000000000000000000000006064820152608401610634565b6000610b3883610875565b905060008111610bb05760405162461bcd60e51b815260206004820152602160248201527f456d697373696f6e436f6e74726f6c6c65723a205a65726f20656d697373696f60448201527f6e000000000000000000000000000000000000000000000000000000000000006064820152608401610634565b6000612710610bc1610dac84611312565b610bcb9190611329565b90506000612710610bde610fa085611312565b610be89190611329565b90506000612710610bfb61070886611312565b610c059190611329565b90506000612710610c186102bc87611312565b610c229190611329565b6000888152600960205260408120859055600254919250906001600160a01b0316610c6d577f0000000000000000000000000000000000000000000000000000000000000000610c7a565b6002546001600160a01b03165b60408051600280825260608201835292935060009290916020830190803683375050604080516002808252606082018352939450600093909250906020830190803683370190505090507f000000000000000000000000000000000000000000000000000000000000000082600081518110610cf857610cf8611371565b6001600160a01b0390921660209283029190910190910152610d1a858861135e565b81600081518110610d2d57610d2d611371565b6020026020010181815250508282600181518110610d4d57610d4d611371565b60200260200101906001600160a01b031690816001600160a01b0316815250508381600181518110610d8157610d81611371565b60209081029190910101526040517f685731070000000000000000000000000000000000000000000000000000000081526001600160a01b037f00000000000000000000000000000000000000000000000000000000000000001690636857310790610df39085908590600401611387565b600060405180830381600087803b158015610e0d57600080fd5b505af1158015610e21573d6000803e3d6000fd5b50505060008b815260086020908152604091829020805460ff1916600117905581518d81529081018b9052908101899052606081018890526080810187905260a081018690527f2518caa0216d93d1101233ff8f841886ad4828028040ef048948016b1d8f45e9915060c00160405180910390a150505050505050505050565b6000610eac81611091565b60055460ff1615610f255760405162461bcd60e51b815260206004820152602360248201527f456d697373696f6e436f6e74726f6c6c65723a20416c7265616479207374617260448201527f74656400000000000000000000000000000000000000000000000000000000006064820152608401610634565b60008211610f9b5760405162461bcd60e51b815260206004820152603060248201527f456d697373696f6e436f6e74726f6c6c65723a204530206d757374206265206760448201527f726561746572207468616e207a65726f000000000000000000000000000000006064820152608401610634565b60068290554260038190556005805460ff1916600117905560075460408051928352602083018590528201527fa5070e99edd98e4038d988d53032ab30c5ab97ca9dbe3f4e1dc5013e9eb16cf49060600160405180910390a15050565b60055460009060ff1661104d5760405162461bcd60e51b815260206004820152601f60248201527f456d697373696f6e436f6e74726f6c6c65723a204e6f742073746172746564006044820152606401610634565b60045460035461105d904261134b565b6110679190611329565b905090565b60008281526020819052604090206001015461108781611091565b6107518383611148565b61109b81336111cb565b50565b6000828152602081815260408083206001600160a01b038516845290915281205460ff16611140576000838152602081815260408083206001600160a01b03861684529091529020805460ff191660011790556110f83390565b6001600160a01b0316826001600160a01b0316847f2f8788117e7eff1d82e926ec794901d17c78024a50270940304540a733656f0d60405160405180910390a45060016105ab565b5060006105ab565b6000828152602081815260408083206001600160a01b038516845290915281205460ff1615611140576000838152602081815260408083206001600160a01b0386168085529252808320805460ff1916905551339286917ff6391f5c32d9c69d2a47ea670b442974b53935d1edc7fd64eb21e047a839171b9190a45060016105ab565b6000828152602081815260408083206001600160a01b038516845290915290205460ff166107e7576040517fe2517d3f0000000000000000000000000000000000000000000000000000000081526001600160a01b038216600482015260248101839052604401610634565b60006020828403121561124957600080fd5b81357fffffffff000000000000000000000000000000000000000000000000000000008116811461127957600080fd5b9392505050565b60006020828403121561129257600080fd5b5035919050565b80356001600160a01b03811681146112b057600080fd5b919050565b6000602082840312156112c757600080fd5b61127982611299565b600080604083850312156112e357600080fd5b823591506112f360208401611299565b90509250929050565b634e487b7160e01b600052601160045260246000fd5b80820281158282048414176105ab576105ab6112fc565b60008261134657634e487b7160e01b600052601260045260246000fd5b500490565b818103818111156105ab576105ab6112fc565b808201808211156105ab576105ab6112fc565b634e487b7160e01b600052603260045260246000fd5b6040808252835190820181905260009060208501906060840190835b818110156113ca5783516001600160a01b03168352602093840193909201916001016113a3565b50508381036020808601919091528551808352918101925085019060005b818110156114065782518452602093840193909201916001016113e8565b5091969550505050505056fea26469706673582212203962558941d9317de47649630b0f829d835195cee7f5f8ddaedd4efe9f6b142d64736f6c634300081c0033",
  "linkReferences": {},
  "deployedLinkReferences": {}
}