{
  "_format": "hh-sol-artifact-1",
  "contractName": "MockCapOracle",
  "sourceName": "contracts/MockCapOracle.sol",
  "abi": [
    {
      "inputs": [
        {
          "internalType": "address",
          "name": "_token",
          "type": "address"
        }
      ],
      "stateMutability": "nonpayable",
      "type": "constructor"
    },
    {
      "inputs": [],
      "name": "AccessControlBadConfirmation",
      "type": "error"
    },
    {
      "inputs": [
        {
          "internalType": "address",
          "name": "account",
          "type": "address"
        },
        {
          "internalType": "bytes32",
          "name": "neededRole",
          "type": "bytes32"
        }
      ],
      "name": "AccessControlUnauthorizedAccount",
      "type": "error"
    },
    {
      "anonymous": false,
      "inputs": [
        {
          "indexed": false,
          "internalType": "uint256",
          "name": "randomValue",
          "type": "uint256"
        },
        {
          "indexed": false,
          "internalType": "uint256",
          "name": "finalCap",
          "type": "uint256"
        }
      ],
      "name": "CapFinalized",
      "type": "event"
    },
    {
      "anonymous": false,
      "inputs": [
        {
          "indexed": true,
          "internalType": "bytes32",
          "name": "role",
          "type": "bytes32"
        },
        {
          "indexed": true,
          "internalType": "bytes32",
          "name": "previousAdminRole",
          "type": "bytes32"
        },
        {
          "indexed": true,
          "internalType": "bytes32",
          "name": "newAdminRole",
          "type": "bytes32"
        }
      ],
      "name": "RoleAdminChanged",
      "type": "event"
    },
    {
      "anonymous": false,
      "inputs": [
        {
          "indexed": true,
          "internalType": "bytes32",
          "name": "role",
          "type": "bytes32"
        },
        {
          "indexed": true,
          "internalType": "address",
          "name": "account",
          "type": "address"
        },
        {
          "indexed": true,
          "internalType": "address",
          "name": "sender",
          "type": "address"
        }
      ],
      "name": "RoleGranted",
      "type": "event"
    },
    {
      "anonymous": false,
      "inputs": [
        {
          "indexed": true,
          "internalType": "bytes32",
          "name": "role",
          "type": "bytes32"
        },
        {
          "indexed": true,
          "internalType": "address",
          "name": "account",
          "type": "address"
        },
        {
          "indexed": true,
          "internalType": "address",
          "name": "sender",
          "type": "address"
        }
      ],
      "name": "RoleRevoked",
      "type": "event"
    },
    {
      "inputs": [],
      "name": "BASE_CAP",
      "outputs": [
        {
          "internalType": "uint256",
          "name": "",
          "type": "uint256"
        }
      ],
      "stateMutability": "view",
      "type": "function"
    },
    {
      "inputs": [],
      "name": "DEFAULT_ADMIN_ROLE",
      "outputs": [
        {
          "internalType": "bytes32",
          "name": "",
          "type": "bytes32"
        }
      ],
      "stateMutability": "view",
      "type": "function"
    },
    {
      "inputs": [],
      "name": "MAX_RANDOM",
      "outputs": [
        {
          "internalType": "uint256",
          "name": "",
          "type": "uint256"
        }
      ],
      "stateMutability": "view",
      "type": "function"
    },
    {
      "inputs": [],
      "name": "ORACLE_ROLE",
      "outputs": [
        {
          "internalType": "bytes32",
          "name": "",
          "type": "bytes32"
        }
      ],
      "stateMutability": "view",
      "type": "function"
    },
    {
      "inputs": [],
      "name": "TEMPORARY_CAP",
      "outputs": [
        {
          "internalType": "uint256",
          "name": "",
          "type": "uint256"
        }
      ],
      "stateMutability": "view",
      "type": "function"
    },
    {
      "inputs": [],
      "name": "capFinalized",
      "outputs": [
        {
          "internalType": "bool",
          "name": "",
          "type": "bool"
        }
      ],
      "stateMutability": "view",
      "type": "function"
    },
    {
      "inputs": [],
      "name": "finalCap",
      "outputs": [
        {
          "internalType": "uint256",
          "name": "",
          "type": "uint256"
        }
      ],
      "stateMutability": "view",
      "type": "function"
    },
    {
      "inputs": [
        {
          "internalType": "uint256",
          "name": "randomValue",
          "type": "uint256"
        }
      ],
      "name": "finalizeCap",
      "outputs": [],
      "stateMutability": "nonpayable",
      "type": "function"
    },
    {
      "inputs": [],
      "name": "getFinalCap",
      "outputs": [
        {
          "internalType": "uint256",
          "name": "",
          "type": "uint256"
        }
      ],
      "stateMutability": "view",
      "type": "function"
    },
    {
      "inputs": [
        {
          "internalType": "bytes32",
          "name": "role",
          "type": "bytes32"
        }
      ],
      "name": "getRoleAdmin",
      "outputs": [
        {
          "internalType": "bytes32",
          "name": "",
          "type": "bytes32"
        }
      ],
      "stateMutability": "view",
      "type": "function"
    },
    {
      "inputs": [
        {
          "internalType": "bytes32",
          "name": "role",
          "type": "bytes32"
        },
        {
          "internalType": "address",
          "name": "account",
          "type": "address"
        }
      ],
      "name": "grantRole",
      "outputs": [],
      "stateMutability": "nonpayable",
      "type": "function"
    },
    {
      "inputs": [
        {
          "internalType": "bytes32",
          "name": "role",
          "type": "bytes32"
        },
        {
          "internalType": "address",
          "name": "account",
          "type": "address"
        }
      ],
      "name": "hasRole",
      "outputs": [
        {
          "internalType": "bool",
          "name": "",
          "type": "bool"
        }
      ],
      "stateMutability": "view",
      "type": "function"
    },
    {
      "inputs": [
        {
          "internalType": "bytes32",
          "name": "role",
          "type": "bytes32"
        },
        {
          "internalType": "address",
          "name": "callerConfirmation",
          "type": "address"
        }
      ],
      "name": "renounceRole",
      "outputs": [],
      "stateMutability": "nonpayable",
      "type": "function"
    },
    {
      "inputs": [
        {
          "internalType": "bytes32",
          "name": "role",
          "type": "bytes32"
        },
        {
          "internalType": "address",
          "name": "account",
          "type": "address"
        }
      ],
      "name": "revokeRole",
      "outputs": [],
      "stateMutability": "nonpayable",
      "type": "function"
    },
    {
      "inputs": [
        {
          "internalType": "bytes4",
          "name": "interfaceId",
          "type": "bytes4"
        }
      ],
      "name": "supportsInterface",
      "outputs": [
        {
          "internalType": "bool",
          "name": "",
          "type": "bool"
        }
      ],
      "stateMutability": "view",
      "type": "function"
    },
    {
      "inputs": [],
      "name": "token",
      "outputs": [
        {
          "internalType": "contract CLDToken",
          "name": "",
          "type": "address"
        }
      ],
      "stateMutability": "view",
      "type": "function"
    }
  ],
  "bytecode": "0x60a060405234801561001057600080fd5b50604051610aed380380610aed83398101604081905261002f9161018b565b6001600160a01b0381166100955760405162461bcd60e51b8152602060048201526024808201527f4d6f636b4361704f7261636c653a20496e76616c696420746f6b656e206164646044820152637265737360e01b606482015260840160405180910390fd5b6001600160a01b0381166080526100ad6000336100df565b506100d87f68e79a7bf1e0bc45d0a330c573bc367f9cf464fd326078812f301165fbda4ef1336100df565b50506101bb565b6000828152602081815260408083206001600160a01b038516845290915281205460ff16610181576000838152602081815260408083206001600160a01b03861684529091529020805460ff191660011790556101393390565b6001600160a01b0316826001600160a01b0316847f2f8788117e7eff1d82e926ec794901d17c78024a50270940304540a733656f0d60405160405180910390a4506001610185565b5060005b92915050565b60006020828403121561019d57600080fd5b81516001600160a01b03811681146101b457600080fd5b9392505050565b6080516109106101dd6000396000818161026b015261051f01526109106000f3fe608060405234801561001057600080fd5b50600436106101005760003560e01c80635216219a11610097578063a8df090c11610066578063a8df090c14610234578063d547741f14610246578063ead0f75a14610259578063fc0c546a1461026657600080fd5b80635216219a146101da5780635f3a8f2f146101ed57806391d14854146101f5578063a217fddf1461022c57600080fd5b80632c0b125b116100d35780632c0b125b146101975780632f2ff15d146101a957806335fb337c146101be57806336568abe146101c757600080fd5b806301ffc9a71461010557806307e2cea51461012d5780630a9fa5c714610162578063248a9ca314610174575b600080fd5b610118610113366004610802565b6102a5565b60405190151581526020015b60405180910390f35b6101547f68e79a7bf1e0bc45d0a330c573bc367f9cf464fd326078812f301165fbda4ef181565b604051908152602001610124565b6101546a23919aabbc6bea0b00000081565b61015461018236600461084b565b60009081526020819052604090206001015490565b6101546a34f086f3b33b684000000081565b6101bc6101b7366004610864565b61033e565b005b61015460025481565b6101bc6101d5366004610864565b610369565b6101bc6101e836600461084b565b6103ba565b6101546105cb565b610118610203366004610864565b6000918252602082815260408084206001600160a01b0393909316845291905290205460ff1690565b610154600081565b6101546a115eec47f6cf7e3500000081565b6101bc610254366004610864565b610633565b6001546101189060ff1681565b61028d7f000000000000000000000000000000000000000000000000000000000000000081565b6040516001600160a01b039091168152602001610124565b60007fffffffff0000000000000000000000000000000000000000000000000000000082167f7965db0b00000000000000000000000000000000000000000000000000000000148061033857507f01ffc9a7000000000000000000000000000000000000000000000000000000007fffffffff000000000000000000000000000000000000000000000000000000008316145b92915050565b60008281526020819052604090206001015461035981610658565b6103638383610665565b50505050565b6001600160a01b03811633146103ab576040517f6697b23200000000000000000000000000000000000000000000000000000000815260040160405180910390fd5b6103b5828261070f565b505050565b7f68e79a7bf1e0bc45d0a330c573bc367f9cf464fd326078812f301165fbda4ef16103e481610658565b60015460ff16156104485760405162461bcd60e51b8152602060048201526024808201527f4d6f636b4361704f7261636c653a2043617020616c72656164792066696e616c6044820152631a5e995960e21b60648201526084015b60405180910390fd5b6a23919aabbc6bea0b0000008211156104c95760405162461bcd60e51b815260206004820152602760248201527f4d6f636b4361704f7261636c653a2052616e646f6d2076616c7565206578636560448201527f656473206d617800000000000000000000000000000000000000000000000000606482015260840161043f565b6104de826a115eec47f6cf7e350000006108a0565b60028190556001805460ff1916811790556040517f7e8fab5900000000000000000000000000000000000000000000000000000000815260048101919091527f00000000000000000000000000000000000000000000000000000000000000006001600160a01b031690637e8fab5990602401600060405180830381600087803b15801561056b57600080fd5b505af115801561057f573d6000803e3d6000fd5b505050507fc84ee19d6df1b73ef4feed4030e5af962258eda2c46be2f2daa29aef0e8d5ada826002546040516105bf929190918252602082015260400190565b60405180910390a15050565b60015460009060ff1661062c5760405162461bcd60e51b8152602060048201526024808201527f4d6f636b4361704f7261636c653a20436170206e6f74207965742066696e616c6044820152631a5e995960e21b606482015260840161043f565b5060025490565b60008281526020819052604090206001015461064e81610658565b610363838361070f565b6106628133610792565b50565b6000828152602081815260408083206001600160a01b038516845290915281205460ff16610707576000838152602081815260408083206001600160a01b03861684529091529020805460ff191660011790556106bf3390565b6001600160a01b0316826001600160a01b0316847f2f8788117e7eff1d82e926ec794901d17c78024a50270940304540a733656f0d60405160405180910390a4506001610338565b506000610338565b6000828152602081815260408083206001600160a01b038516845290915281205460ff1615610707576000838152602081815260408083206001600160a01b0386168085529252808320805460ff1916905551339286917ff6391f5c32d9c69d2a47ea670b442974b53935d1edc7fd64eb21e047a839171b9190a4506001610338565b6000828152602081815260408083206001600160a01b038516845290915290205460ff166107fe576040517fe2517d3f0000000000000000000000000000000000000000000000000000000081526001600160a01b03821660048201526024810183905260440161043f565b5050565b60006020828403121561081457600080fd5b81357fffffffff000000000000000000000000000000000000000000000000000000008116811461084457600080fd5b9392505050565b60006020828403121561085d57600080fd5b5035919050565b6000806040838503121561087757600080fd5b8235915060208301356001600160a01b038116811461089557600080fd5b809150509250929050565b80820180821115610338577f4e487b7100000000000000000000000000000000000000000000000000000000600052601160045260246000fdfea264697066735822122021d46c98d60224fce5e5a7d9ae0b827763c004a1738030bfe1289b9b6cb5b57b64736f6c634300081c0033",
  "linkReferences": {},
  "deployedLinkReferences": {}
}