{
  "_format": "hh-sol-artifact-1",
  "contractName": "Config",
  "sourceName": "contracts/Config.sol",
  "abi": [
    {
      "inputs": [],
      "stateMutability": "nonpayable",
      "type": "constructor"
    },
    {
      "inputs": [],
      "name": "AccessControlBadConfirmation",
      "type": "error"
    },
    {
      "inputs": [
        {
          "internalType": "address",
          "name": "account",
          "type": "address"
        },
        {
          "internalType": "bytes32",
          "name": "neededRole",
          "type": "bytes32"
        }
      ],
      "name": "AccessControlUnauthorizedAccount",
      "type": "error"
    },
    {
      "anonymous": false,
      "inputs": [
        {
          "indexed": false,
          "internalType": "uint256",
          "name": "oldDuration",
          "type": "uint256"
        },
        {
          "indexed": false,
          "internalType": "uint256",
          "name": "newDuration",
          "type": "uint256"
        }
      ],
      "name": "EpochDurationUpdated",
      "type": "event"
    },
    {
      "anonymous": false,
      "inputs": [
        {
          "indexed": false,
          "internalType": "uint256",
          "name": "oldThreshold",
          "type": "uint256"
        },
        {
          "indexed": false,
          "internalType": "uint256",
          "name": "newThreshold",
          "type": "uint256"
        }
      ],
      "name": "EpochRewardThresholdUpdated",
      "type": "event"
    },
    {
      "anonymous": false,
      "inputs": [
        {
          "indexed": false,
          "internalType": "uint256",
          "name": "oldLimit",
          "type": "uint256"
        },
        {
          "indexed": false,
          "internalType": "uint256",
          "name": "newLimit",
          "type": "uint256"
        }
      ],
      "name": "GasBankDailyLimitUpdated",
      "type": "event"
    },
    {
      "anonymous": false,
      "inputs": [
        {
          "indexed": false,
          "internalType": "uint256",
          "name": "oldBps",
          "type": "uint256"
        },
        {
          "indexed": false,
          "internalType": "uint256",
          "name": "newBps",
          "type": "uint256"
        }
      ],
      "name": "JobRefundFeeBpsUpdated",
      "type": "event"
    },
    {
      "anonymous": false,
      "inputs": [
        {
          "indexed": false,
          "internalType": "uint256",
          "name": "oldThreshold",
          "type": "uint256"
        },
        {
          "indexed": false,
          "internalType": "uint256",
          "name": "newThreshold",
          "type": "uint256"
        }
      ],
      "name": "JobRewardThresholdUpdated",
      "type": "event"
    },
    {
      "anonymous": false,
      "inputs": [
        {
          "indexed": false,
          "internalType": "uint256",
          "name": "oldAmount",
          "type": "uint256"
        },
        {
          "indexed": false,
          "internalType": "uint256",
          "name": "newAmount",
          "type": "uint256"
        }
      ],
      "name": "MinJobDepositUpdated",
      "type": "event"
    },
    {
      "anonymous": false,
      "inputs": [
        {
          "indexed": false,
          "internalType": "uint256",
          "name": "oldAmount",
          "type": "uint256"
        },
        {
          "indexed": false,
          "internalType": "uint256",
          "name": "newAmount",
          "type": "uint256"
        }
      ],
      "name": "ProviderDepositAmountUpdated",
      "type": "event"
    },
    {
      "anonymous": false,
      "inputs": [
        {
          "indexed": true,
          "internalType": "bytes32",
          "name": "role",
          "type": "bytes32"
        },
        {
          "indexed": true,
          "internalType": "bytes32",
          "name": "previousAdminRole",
          "type": "bytes32"
        },
        {
          "indexed": true,
          "internalType": "bytes32",
          "name": "newAdminRole",
          "type": "bytes32"
        }
      ],
      "name": "RoleAdminChanged",
      "type": "event"
    },
    {
      "anonymous": false,
      "inputs": [
        {
          "indexed": true,
          "internalType": "bytes32",
          "name": "role",
          "type": "bytes32"
        },
        {
          "indexed": true,
          "internalType": "address",
          "name": "account",
          "type": "address"
        },
        {
          "indexed": true,
          "internalType": "address",
          "name": "sender",
          "type": "address"
        }
      ],
      "name": "RoleGranted",
      "type": "event"
    },
    {
      "anonymous": false,
      "inputs": [
        {
          "indexed": true,
          "internalType": "bytes32",
          "name": "role",
          "type": "bytes32"
        },
        {
          "indexed": true,
          "internalType": "address",
          "name": "account",
          "type": "address"
        },
        {
          "indexed": true,
          "internalType": "address",
          "name": "sender",
          "type": "address"
        }
      ],
      "name": "RoleRevoked",
      "type": "event"
    },
    {
      "inputs": [],
      "name": "DEFAULT_ADMIN_ROLE",
      "outputs": [
        {
          "internalType": "bytes32",
          "name": "",
          "type": "bytes32"
        }
      ],
      "stateMutability": "view",
      "type": "function"
    },
    {
      "inputs": [],
      "name": "GOVERNANCE_ROLE",
      "outputs": [
        {
          "internalType": "bytes32",
          "name": "",
          "type": "bytes32"
        }
      ],
      "stateMutability": "view",
      "type": "function"
    },
    {
      "inputs": [],
      "name": "epochDuration",
      "outputs": [
        {
          "internalType": "uint256",
          "name": "",
          "type": "uint256"
        }
      ],
      "stateMutability": "view",
      "type": "function"
    },
    {
      "inputs": [],
      "name": "epochRewardThreshold",
      "outputs": [
        {
          "internalType": "uint256",
          "name": "",
          "type": "uint256"
        }
      ],
      "stateMutability": "view",
      "type": "function"
    },
    {
      "inputs": [],
      "name": "gasBankDailyLimit",
      "outputs": [
        {
          "internalType": "uint256",
          "name": "",
          "type": "uint256"
        }
      ],
      "stateMutability": "view",
      "type": "function"
    },
    {
      "inputs": [
        {
          "internalType": "bytes32",
          "name": "role",
          "type": "bytes32"
        }
      ],
      "name": "getRoleAdmin",
      "outputs": [
        {
          "internalType": "bytes32",
          "name": "",
          "type": "bytes32"
        }
      ],
      "stateMutability": "view",
      "type": "function"
    },
    {
      "inputs": [
        {
          "internalType": "bytes32",
          "name": "role",
          "type": "bytes32"
        },
        {
          "internalType": "address",
          "name": "account",
          "type": "address"
        }
      ],
      "name": "grantRole",
      "outputs": [],
      "stateMutability": "nonpayable",
      "type": "function"
    },
    {
      "inputs": [
        {
          "internalType": "bytes32",
          "name": "role",
          "type": "bytes32"
        },
        {
          "internalType": "address",
          "name": "account",
          "type": "address"
        }
      ],
      "name": "hasRole",
      "outputs": [
        {
          "internalType": "bool",
          "name": "",
          "type": "bool"
        }
      ],
      "stateMutability": "view",
      "type": "function"
    },
    {
      "inputs": [],
      "name": "jobRefundFeeBps",
      "outputs": [
        {
          "internalType": "uint256",
          "name": "",
          "type": "uint256"
        }
      ],
      "stateMutability": "view",
      "type": "function"
    },
    {
      "inputs": [],
      "name": "jobRewardThreshold",
      "outputs": [
        {
          "internalType": "uint256",
          "name": "",
          "type": "uint256"
        }
      ],
      "stateMutability": "view",
      "type": "function"
    },
    {
      "inputs": [],
      "name": "minJobDeposit",
      "outputs": [
        {
          "internalType": "uint256",
          "name": "",
          "type": "uint256"
        }
      ],
      "stateMutability": "view",
      "type": "function"
    },
    {
      "inputs": [],
      "name": "providerDepositAmount",
      "outputs": [
        {
          "internalType": "uint256",
          "name": "",
          "type": "uint256"
        }
      ],
      "stateMutability": "view",
      "type": "function"
    },
    {
      "inputs": [
        {
          "internalType": "bytes32",
          "name": "role",
          "type": "bytes32"
        },
        {
          "internalType": "address",
          "name": "callerConfirmation",
          "type": "address"
        }
      ],
      "name": "renounceRole",
      "outputs": [],
      "stateMutability": "nonpayable",
      "type": "function"
    },
    {
      "inputs": [
        {
          "internalType": "bytes32",
          "name": "role",
          "type": "bytes32"
        },
        {
          "internalType": "address",
          "name": "account",
          "type": "address"
        }
      ],
      "name": "revokeRole",
      "outputs": [],
      "stateMutability": "nonpayable",
      "type": "function"
    },
    {
      "inputs": [
        {
          "internalType": "uint256",
          "name": "_duration",
          "type": "uint256"
        }
      ],
      "name": "setEpochDuration",
      "outputs": [],
      "stateMutability": "nonpayable",
      "type": "function"
    },
    {
      "inputs": [
        {
          "internalType": "uint256",
          "name": "_threshold",
          "type": "uint256"
        }
      ],
      "name": "setEpochRewardThreshold",
      "outputs": [],
      "stateMutability": "nonpayable",
      "type": "function"
    },
    {
      "inputs": [
        {
          "internalType": "uint256",
          "name": "_limit",
          "type": "uint256"
        }
      ],
      "name": "setGasBankDailyLimit",
      "outputs": [],
      "stateMutability": "nonpayable",
      "type": "function"
    },
    {
      "inputs": [
        {
          "internalType": "uint256",
          "name": "_bps",
          "type": "uint256"
        }
      ],
      "name": "setJobRefundFeeBps",
      "outputs": [],
      "stateMutability": "nonpayable",
      "type": "function"
    },
    {
      "inputs": [
        {
          "internalType": "uint256",
          "name": "_threshold",
          "type": "uint256"
        }
      ],
      "name": "setJobRewardThreshold",
      "outputs": [],
      "stateMutability": "nonpayable",
      "type": "function"
    },
    {
      "inputs": [
        {
          "internalType": "uint256",
          "name": "_amount",
          "type": "uint256"
        }
      ],
      "name": "setMinJobDeposit",
      "outputs": [],
      "stateMutability": "nonpayable",
      "type": "function"
    },
    {
      "inputs": [
        {
          "internalType": "uint256",
          "name": "_amount",
          "type": "uint256"
        }
      ],
      "name": "setProviderDepositAmount",
      "outputs": [],
      "stateMutability": "nonpayable",
      "type": "function"
    },
    {
      "inputs": [
        {
          "internalType": "bytes4",
          "name": "interfaceId",
          "type": "bytes4"
        }
      ],
      "name": "supportsInterface",
      "outputs": [
        {
          "internalType": "bool",
          "name": "",
          "type": "bool"
        }
      ],
      "stateMutability": "view",
      "type": "function"
    }
  ],
  "bytecode": "0x608060405234801561001057600080fd5b5061001c60003361008d565b506100477f71840dc4906352362b0cdaf79870196c8e42acafade72d5d5a6d59291253ceb13361008d565b50670de0b6b3a7640000600155662386f26fc10000600255603260035568056bc75e2d63100000600455678ac7230489e80000600581905561012c600655600755610139565b6000828152602081815260408083206001600160a01b038516845290915281205460ff1661012f576000838152602081815260408083206001600160a01b03861684529091529020805460ff191660011790556100e73390565b6001600160a01b0316826001600160a01b0316847f2f8788117e7eff1d82e926ec794901d17c78024a50270940304540a733656f0d60405160405180910390a4506001610133565b5060005b92915050565b610aab806101486000396000f3fe608060405234801561001057600080fd5b50600436106101825760003560e01c806377a950cf116100d8578063acb5ae9c1161008c578063d547741f11610066578063d547741f14610302578063da3b4b4914610315578063f36c8f5c1461031e57600080fd5b8063acb5ae9c146102dd578063ae09c5b3146102f0578063cedb6062146102f957600080fd5b806391d14854116100bd57806391d148541461028b5780639b2b27b2146102c2578063a217fddf146102d557600080fd5b806377a950cf1461026f57806383f770011461028257600080fd5b806330024dfe1161013a57806349e118851161011457806349e11885146102545780634ff0876a1461025d578063568952e11461026657600080fd5b806330024dfe1461021b57806336568abe1461022e5780633e7db62e1461024157600080fd5b8063248a9ca31161016b578063248a9ca3146101c45780632a694a2d146101f55780632f2ff15d1461020857600080fd5b806301ffc9a7146101875780631bce6902146101af575b600080fd5b61019a6101953660046109d7565b610345565b60405190151581526020015b60405180910390f35b6101c26101bd366004610a20565b6103de565b005b6101e76101d2366004610a20565b60009081526020819052604090206001015490565b6040519081526020016101a6565b6101c2610203366004610a20565b6104a6565b6101c2610216366004610a39565b61050e565b6101c2610229366004610a20565b610539565b6101c261023c366004610a39565b610617565b6101c261024f366004610a20565b610668565b6101e760055481565b6101e760065481565b6101e760035481565b6101c261027d366004610a20565b6106d0565b6101e760025481565b61019a610299366004610a39565b6000918252602082815260408084206001600160a01b0393909316845291905290205460ff1690565b6101c26102d0366004610a20565b610738565b6101e7600081565b6101c26102eb366004610a20565b6107a0565b6101e760045481565b6101e760015481565b6101c2610310366004610a39565b610808565b6101e760075481565b6101e77f71840dc4906352362b0cdaf79870196c8e42acafade72d5d5a6d59291253ceb181565b60007fffffffff0000000000000000000000000000000000000000000000000000000082167f7965db0b0000000000000000000000000000000000000000000000000000000014806103d857507f01ffc9a7000000000000000000000000000000000000000000000000000000007fffffffff000000000000000000000000000000000000000000000000000000008316145b92915050565b7f71840dc4906352362b0cdaf79870196c8e42acafade72d5d5a6d59291253ceb16104088161082d565b61271082111561045f5760405162461bcd60e51b815260206004820152601f60248201527f436f6e6669673a204250532063616e6e6f74206578636565642031303030300060448201526064015b60405180910390fd5b600380549083905560408051828152602081018590527f25673181f8f1970915982b86cf9851fa05f479578b59913a65d966606dee8ad791015b60405180910390a1505050565b7f71840dc4906352362b0cdaf79870196c8e42acafade72d5d5a6d59291253ceb16104d08161082d565b600580549083905560408051828152602081018590527f2e8c3457b93951471dd35a650b0bfaf7868f3d778fc48c6860c7647375586d3d9101610499565b6000828152602081905260409020600101546105298161082d565b610533838361083a565b50505050565b7f71840dc4906352362b0cdaf79870196c8e42acafade72d5d5a6d59291253ceb16105638161082d565b600082116105d95760405162461bcd60e51b815260206004820152602a60248201527f436f6e6669673a204475726174696f6e206d757374206265206772656174657260448201527f207468616e207a65726f000000000000000000000000000000000000000000006064820152608401610456565b600680549083905560408051828152602081018590527fda8ff87475657c76bff7b4e017c535d5fbf29958aedc8095a45c56d9fab528f69101610499565b6001600160a01b0381163314610659576040517f6697b23200000000000000000000000000000000000000000000000000000000815260040160405180910390fd5b61066382826108e4565b505050565b7f71840dc4906352362b0cdaf79870196c8e42acafade72d5d5a6d59291253ceb16106928161082d565b600780549083905560408051828152602081018590527fab9d00884d9a01191f0936cca13b2def83bddb144e785af17dc0c32db1e237319101610499565b7f71840dc4906352362b0cdaf79870196c8e42acafade72d5d5a6d59291253ceb16106fa8161082d565b600480549083905560408051828152602081018590527fc9994b1197c2ad488bf099645032ee435e5d688200a80c416f00b07105f2f06c9101610499565b7f71840dc4906352362b0cdaf79870196c8e42acafade72d5d5a6d59291253ceb16107628161082d565b600280549083905560408051828152602081018590527f34995b313b6dcd7c4ed3f26d12e6174cfff2c8cdf8e2f4e588fe624f252eaaed9101610499565b7f71840dc4906352362b0cdaf79870196c8e42acafade72d5d5a6d59291253ceb16107ca8161082d565b600180549083905560408051828152602081018590527f38cc79ce6663adee465ba607521b336d68977893685ef0895667c2272363fc479101610499565b6000828152602081905260409020600101546108238161082d565b61053383836108e4565b6108378133610967565b50565b6000828152602081815260408083206001600160a01b038516845290915281205460ff166108dc576000838152602081815260408083206001600160a01b03861684529091529020805460ff191660011790556108943390565b6001600160a01b0316826001600160a01b0316847f2f8788117e7eff1d82e926ec794901d17c78024a50270940304540a733656f0d60405160405180910390a45060016103d8565b5060006103d8565b6000828152602081815260408083206001600160a01b038516845290915281205460ff16156108dc576000838152602081815260408083206001600160a01b0386168085529252808320805460ff1916905551339286917ff6391f5c32d9c69d2a47ea670b442974b53935d1edc7fd64eb21e047a839171b9190a45060016103d8565b6000828152602081815260408083206001600160a01b038516845290915290205460ff166109d3576040517fe2517d3f0000000000000000000000000000000000000000000000000000000081526001600160a01b038216600482015260248101839052604401610456565b5050565b6000602082840312156109e957600080fd5b81357fffffffff0000000000000000000000000000000000000000000000000000000081168114610a1957600080fd5b9392505050565b600060208284031215610a3257600080fd5b5035919050565b60008060408385031215610a4c57600080fd5b8235915060208301356001600160a01b0381168114610a6a57600080fd5b80915050925092905056fea2646970667358221220ae13399764a1ed9636ad4b44c6b51f0814957cfd46beed94c5011e486eb8a88764736f6c634300081c0033",
  "linkReferences": {},
  "deployedLinkReferences": {}
}