{
  "_format": "hh-sol-artifact-1",
  "contractName": "CLDToken",
  "sourceName": "contracts/CLDToken.sol",
  "abi": [
    {
      "inputs": [
        {
          "internalType": "string",
          "name": "name",
          "type": "string"
        },
        {
          "internalType": "string",
          "name": "symbol",
          "type": "string"
        },
        {
          "internalType": "uint256",
          "name": "temporaryCap",
          "type": "uint256"
        }
      ],
      "stateMutability": "nonpayable",
      "type": "constructor"
    },
    {
      "inputs": [],
      "name": "AccessControlBadConfirmation",
      "type": "error"
    },
    {
      "inputs": [
        {
          "internalType": "address",
          "name": "account",
          "type": "address"
        },
        {
          "internalType": "bytes32",
          "name": "neededRole",
          "type": "bytes32"
        }
      ],
      "name": "AccessControlUnauthorizedAccount",
      "type": "error"
    },
    {
      "inputs": [
        {
          "internalType": "uint256",
          "name": "increasedSupply",
          "type": "uint256"
        },
        {
          "internalType": "uint256",
          "name": "cap",
          "type": "uint256"
        }
      ],
      "name": "ERC20ExceededCap",
      "type": "error"
    },
    {
      "inputs": [
        {
          "internalType": "address",
          "name": "spender",
          "type": "address"
        },
        {
          "internalType": "uint256",
          "name": "allowance",
          "type": "uint256"
        },
        {
          "internalType": "uint256",
          "name": "needed",
          "type": "uint256"
        }
      ],
      "name": "ERC20InsufficientAllowance",
      "type": "error"
    },
    {
      "inputs": [
        {
          "internalType": "address",
          "name": "sender",
          "type": "address"
        },
        {
          "internalType": "uint256",
          "name": "balance",
          "type": "uint256"
        },
        {
          "internalType": "uint256",
          "name": "needed",
          "type": "uint256"
        }
      ],
      "name": "ERC20InsufficientBalance",
      "type": "error"
    },
    {
      "inputs": [
        {
          "internalType": "address",
          "name": "approver",
          "type": "address"
        }
      ],
      "name": "ERC20InvalidApprover",
      "type": "error"
    },
    {
      "inputs": [
        {
          "internalType": "uint256",
          "name": "cap",
          "type": "uint256"
        }
      ],
      "name": "ERC20InvalidCap",
      "type": "error"
    },
    {
      "inputs": [
        {
          "internalType": "address",
          "name": "receiver",
          "type": "address"
        }
      ],
      "name": "ERC20InvalidReceiver",
      "type": "error"
    },
    {
      "inputs": [
        {
          "internalType": "address",
          "name": "sender",
          "type": "address"
        }
      ],
      "name": "ERC20InvalidSender",
      "type": "error"
    },
    {
      "inputs": [
        {
          "internalType": "address",
          "name": "spender",
          "type": "address"
        }
      ],
      "name": "ERC20InvalidSpender",
      "type": "error"
    },
    {
      "anonymous": false,
      "inputs": [
        {
          "indexed": true,
          "internalType": "address",
          "name": "owner",
          "type": "address"
        },
        {
          "indexed": true,
          "internalType": "address",
          "name": "spender",
          "type": "address"
        },
        {
          "indexed": false,
          "internalType": "uint256",
          "name": "value",
          "type": "uint256"
        }
      ],
      "name": "Approval",
      "type": "event"
    },
    {
      "anonymous": false,
      "inputs": [
        {
          "indexed": false,
          "internalType": "uint256",
          "name": "finalCap",
          "type": "uint256"
        }
      ],
      "name": "CapFinalized",
      "type": "event"
    },
    {
      "anonymous": false,
      "inputs": [
        {
          "indexed": false,
          "internalType": "uint256",
          "name": "newCap",
          "type": "uint256"
        }
      ],
      "name": "CapSet",
      "type": "event"
    },
    {
      "anonymous": false,
      "inputs": [
        {
          "indexed": true,
          "internalType": "bytes32",
          "name": "role",
          "type": "bytes32"
        },
        {
          "indexed": true,
          "internalType": "bytes32",
          "name": "previousAdminRole",
          "type": "bytes32"
        },
        {
          "indexed": true,
          "internalType": "bytes32",
          "name": "newAdminRole",
          "type": "bytes32"
        }
      ],
      "name": "RoleAdminChanged",
      "type": "event"
    },
    {
      "anonymous": false,
      "inputs": [
        {
          "indexed": true,
          "internalType": "bytes32",
          "name": "role",
          "type": "bytes32"
        },
        {
          "indexed": true,
          "internalType": "address",
          "name": "account",
          "type": "address"
        },
        {
          "indexed": true,
          "internalType": "address",
          "name": "sender",
          "type": "address"
        }
      ],
      "name": "RoleGranted",
      "type": "event"
    },
    {
      "anonymous": false,
      "inputs": [
        {
          "indexed": true,
          "internalType": "bytes32",
          "name": "role",
          "type": "bytes32"
        },
        {
          "indexed": true,
          "internalType": "address",
          "name": "account",
          "type": "address"
        },
        {
          "indexed": true,
          "internalType": "address",
          "name": "sender",
          "type": "address"
        }
      ],
      "name": "RoleRevoked",
      "type": "event"
    },
    {
      "anonymous": false,
      "inputs": [
        {
          "indexed": true,
          "internalType": "address",
          "name": "from",
          "type": "address"
        },
        {
          "indexed": true,
          "internalType": "address",
          "name": "to",
          "type": "address"
        },
        {
          "indexed": false,
          "internalType": "uint256",
          "name": "value",
          "type": "uint256"
        }
      ],
      "name": "Transfer",
      "type": "event"
    },
    {
      "inputs": [],
      "name": "CAP_SETTER_ROLE",
      "outputs": [
        {
          "internalType": "bytes32",
          "name": "",
          "type": "bytes32"
        }
      ],
      "stateMutability": "view",
      "type": "function"
    },
    {
      "inputs": [],
      "name": "DEFAULT_ADMIN_ROLE",
      "outputs": [
        {
          "internalType": "bytes32",
          "name": "",
          "type": "bytes32"
        }
      ],
      "stateMutability": "view",
      "type": "function"
    },
    {
      "inputs": [],
      "name": "MINTER_ROLE",
      "outputs": [
        {
          "internalType": "bytes32",
          "name": "",
          "type": "bytes32"
        }
      ],
      "stateMutability": "view",
      "type": "function"
    },
    {
      "inputs": [
        {
          "internalType": "address",
          "name": "owner",
          "type": "address"
        },
        {
          "internalType": "address",
          "name": "spender",
          "type": "address"
        }
      ],
      "name": "allowance",
      "outputs": [
        {
          "internalType": "uint256",
          "name": "",
          "type": "uint256"
        }
      ],
      "stateMutability": "view",
      "type": "function"
    },
    {
      "inputs": [
        {
          "internalType": "address",
          "name": "spender",
          "type": "address"
        },
        {
          "internalType": "uint256",
          "name": "value",
          "type": "uint256"
        }
      ],
      "name": "approve",
      "outputs": [
        {
          "internalType": "bool",
          "name": "",
          "type": "bool"
        }
      ],
      "stateMutability": "nonpayable",
      "type": "function"
    },
    {
      "inputs": [
        {
          "internalType": "address",
          "name": "account",
          "type": "address"
        }
      ],
      "name": "balanceOf",
      "outputs": [
        {
          "internalType": "uint256",
          "name": "",
          "type": "uint256"
        }
      ],
      "stateMutability": "view",
      "type": "function"
    },
    {
      "inputs": [],
      "name": "cap",
      "outputs": [
        {
          "internalType": "uint256",
          "name": "",
          "type": "uint256"
        }
      ],
      "stateMutability": "view",
      "type": "function"
    },
    {
      "inputs": [],
      "name": "capFinalized",
      "outputs": [
        {
          "internalType": "bool",
          "name": "",
          "type": "bool"
        }
      ],
      "stateMutability": "view",
      "type": "function"
    },
    {
      "inputs": [],
      "name": "decimals",
      "outputs": [
        {
          "internalType": "uint8",
          "name": "",
          "type": "uint8"
        }
      ],
      "stateMutability": "view",
      "type": "function"
    },
    {
      "inputs": [],
      "name": "finalCap",
      "outputs": [
        {
          "internalType": "uint256",
          "name": "",
          "type": "uint256"
        }
      ],
      "stateMutability": "view",
      "type": "function"
    },
    {
      "inputs": [
        {
          "internalType": "bytes32",
          "name": "role",
          "type": "bytes32"
        }
      ],
      "name": "getRoleAdmin",
      "outputs": [
        {
          "internalType": "bytes32",
          "name": "",
          "type": "bytes32"
        }
      ],
      "stateMutability": "view",
      "type": "function"
    },
    {
      "inputs": [
        {
          "internalType": "bytes32",
          "name": "role",
          "type": "bytes32"
        },
        {
          "internalType": "address",
          "name": "account",
          "type": "address"
        }
      ],
      "name": "grantRole",
      "outputs": [],
      "stateMutability": "nonpayable",
      "type": "function"
    },
    {
      "inputs": [
        {
          "internalType": "bytes32",
          "name": "role",
          "type": "bytes32"
        },
        {
          "internalType": "address",
          "name": "account",
          "type": "address"
        }
      ],
      "name": "hasRole",
      "outputs": [
        {
          "internalType": "bool",
          "name": "",
          "type": "bool"
        }
      ],
      "stateMutability": "view",
      "type": "function"
    },
    {
      "inputs": [
        {
          "internalType": "address",
          "name": "to",
          "type": "address"
        },
        {
          "internalType": "uint256",
          "name": "amount",
          "type": "uint256"
        }
      ],
      "name": "mint",
      "outputs": [],
      "stateMutability": "nonpayable",
      "type": "function"
    },
    {
      "inputs": [],
      "name": "name",
      "outputs": [
        {
          "internalType": "string",
          "name": "",
          "type": "string"
        }
      ],
      "stateMutability": "view",
      "type": "function"
    },
    {
      "inputs": [
        {
          "internalType": "bytes32",
          "name": "role",
          "type": "bytes32"
        },
        {
          "internalType": "address",
          "name": "callerConfirmation",
          "type": "address"
        }
      ],
      "name": "renounceRole",
      "outputs": [],
      "stateMutability": "nonpayable",
      "type": "function"
    },
    {
      "inputs": [
        {
          "internalType": "bytes32",
          "name": "role",
          "type": "bytes32"
        },
        {
          "internalType": "address",
          "name": "account",
          "type": "address"
        }
      ],
      "name": "revokeRole",
      "outputs": [],
      "stateMutability": "nonpayable",
      "type": "function"
    },
    {
      "inputs": [
        {
          "internalType": "uint256",
          "name": "newCap",
          "type": "uint256"
        }
      ],
      "name": "setFinalCap",
      "outputs": [],
      "stateMutability": "nonpayable",
      "type": "function"
    },
    {
      "inputs": [
        {
          "internalType": "bytes4",
          "name": "interfaceId",
          "type": "bytes4"
        }
      ],
      "name": "supportsInterface",
      "outputs": [
        {
          "internalType": "bool",
          "name": "",
          "type": "bool"
        }
      ],
      "stateMutability": "view",
      "type": "function"
    },
    {
      "inputs": [],
      "name": "symbol",
      "outputs": [
        {
          "internalType": "string",
          "name": "",
          "type": "string"
        }
      ],
      "stateMutability": "view",
      "type": "function"
    },
    {
      "inputs": [],
      "name": "totalSupply",
      "outputs": [
        {
          "internalType": "uint256",
          "name": "",
          "type": "uint256"
        }
      ],
      "stateMutability": "view",
      "type": "function"
    },
    {
      "inputs": [
        {
          "internalType": "address",
          "name": "to",
          "type": "address"
        },
        {
          "internalType": "uint256",
          "name": "value",
          "type": "uint256"
        }
      ],
      "name": "transfer",
      "outputs": [
        {
          "internalType": "bool",
          "name": "",
          "type": "bool"
        }
      ],
      "stateMutability": "nonpayable",
      "type": "function"
    },
    {
      "inputs": [
        {
          "internalType": "address",
          "name": "from",
          "type": "address"
        },
        {
          "internalType": "address",
          "name": "to",
          "type": "address"
        },
        {
          "internalType": "uint256",
          "name": "value",
          "type": "uint256"
        }
      ],
      "name": "transferFrom",
      "outputs": [
        {
          "internalType": "bool",
          "name": "",
          "type": "bool"
        }
      ],
      "stateMutability": "nonpayable",
      "type": "function"
    }
  ],
  "bytecode": "0x60a060405234801561001057600080fd5b5060405161148f38038061148f83398101604081905261002f91610230565b808383600361003e838261032b565b50600461004b828261032b565b505050806000036100765760405163392e1e2760e01b81526000600482015260240160405180910390fd5b6080526100846000336100c7565b506100af7f1274f5ba296ef8f0b6bf00056f3691bb6d3053e061d99a0e9b0a263c419810e8336100c7565b5050600060065550506007805460ff191690556103e9565b60008281526005602090815260408083206001600160a01b038516845290915281205460ff1661016d5760008381526005602090815260408083206001600160a01b03861684529091529020805460ff191660011790556101253390565b6001600160a01b0316826001600160a01b0316847f2f8788117e7eff1d82e926ec794901d17c78024a50270940304540a733656f0d60405160405180910390a4506001610171565b5060005b92915050565b634e487b7160e01b600052604160045260246000fd5b600082601f83011261019e57600080fd5b81516001600160401b038111156101b7576101b7610177565b604051601f8201601f19908116603f011681016001600160401b03811182821017156101e5576101e5610177565b6040528181528382016020018510156101fd57600080fd5b60005b8281101561021c57602081860181015183830182015201610200565b506000918101602001919091529392505050565b60008060006060848603121561024557600080fd5b83516001600160401b0381111561025b57600080fd5b6102678682870161018d565b602086015190945090506001600160401b0381111561028557600080fd5b6102918682870161018d565b925050604084015190509250925092565b600181811c908216806102b657607f821691505b6020821081036102d657634e487b7160e01b600052602260045260246000fd5b50919050565b601f82111561032657806000526020600020601f840160051c810160208510156103035750805b601f840160051c820191505b81811015610323576000815560010161030f565b50505b505050565b81516001600160401b0381111561034457610344610177565b6103588161035284546102a2565b846102dc565b6020601f82116001811461038c57600083156103745750848201515b600019600385901b1c1916600184901b178455610323565b600084815260208120601f198516915b828110156103bc578785015182556020948501946001909201910161039c565b50848210156103da5786840151600019600387901b60f8161c191681555b50505050600190811b01905550565b60805161108b610404600039600061056b015261108b6000f3fe608060405234801561001057600080fd5b506004361061018d5760003560e01c806340c10f19116100e3578063a9059cbb1161008c578063dd62ed3e11610066578063dd62ed3e14610356578063ead0f75a1461038f578063f58bfed31461039a57600080fd5b8063a9059cbb14610309578063d53913931461031c578063d547741f1461034357600080fd5b806391d14854116100bd57806391d14854146102c057806395d89b41146102f9578063a217fddf1461030157600080fd5b806340c10f191461027157806370a08231146102845780637e8fab59146102ad57600080fd5b8063248a9ca311610145578063355274ea1161011f578063355274ea1461024e57806335fb337c1461025657806336568abe1461025e57600080fd5b8063248a9ca3146102075780632f2ff15d1461022a578063313ce5671461023f57600080fd5b8063095ea7b311610176578063095ea7b3146101cf57806318160ddd146101e257806323b872dd146101f457600080fd5b806301ffc9a71461019257806306fdde03146101ba575b600080fd5b6101a56101a0366004610e56565b6103c1565b60405190151581526020015b60405180910390f35b6101c261045a565b6040516101b19190610e9f565b6101a56101dd366004610f09565b6104ec565b6002545b6040519081526020016101b1565b6101a5610202366004610f33565b610504565b6101e6610215366004610f70565b60009081526005602052604090206001015490565b61023d610238366004610f89565b610528565b005b604051601281526020016101b1565b6101e6610553565b6006546101e6565b61023d61026c366004610f89565b61058d565b61023d61027f366004610f09565b6105de565b6101e6610292366004610fb5565b6001600160a01b031660009081526020819052604090205490565b61023d6102bb366004610f70565b610681565b6101a56102ce366004610f89565b60009182526005602090815260408084206001600160a01b0393909316845291905290205460ff1690565b6101c2610841565b6101e6600081565b6101a5610317366004610f09565b610850565b6101e67f9f2df0fed2c77648de5860a4cc508cd0818c85b8b8a1ab4ceeef8d981c8956a681565b61023d610351366004610f89565b61085e565b6101e6610364366004610fd0565b6001600160a01b03918216600090815260016020908152604080832093909416825291909152205490565b60075460ff166101a5565b6101e67f1274f5ba296ef8f0b6bf00056f3691bb6d3053e061d99a0e9b0a263c419810e881565b60007fffffffff0000000000000000000000000000000000000000000000000000000082167f7965db0b00000000000000000000000000000000000000000000000000000000148061045457507f01ffc9a7000000000000000000000000000000000000000000000000000000007fffffffff000000000000000000000000000000000000000000000000000000008316145b92915050565b60606003805461046990610ffa565b80601f016020809104026020016040519081016040528092919081815260200182805461049590610ffa565b80156104e25780601f106104b7576101008083540402835291602001916104e2565b820191906000526020600020905b8154815290600101906020018083116104c557829003601f168201915b5050505050905090565b6000336104fa818585610883565b5060019392505050565b600033610512858285610890565b61051d858585610922565b506001949350505050565b6000828152600560205260409020600101546105438161099a565b61054d83836109a7565b50505050565b60075460009060ff1615610568575060065490565b507f000000000000000000000000000000000000000000000000000000000000000090565b6001600160a01b03811633146105cf576040517f6697b23200000000000000000000000000000000000000000000000000000000815260040160405180910390fd5b6105d98282610a55565b505050565b7f9f2df0fed2c77648de5860a4cc508cd0818c85b8b8a1ab4ceeef8d981c8956a66106088161099a565b610610610553565b8261061a60025490565b6106249190611034565b11156106775760405162461bcd60e51b815260206004820152601660248201527f434c44546f6b656e3a204361702065786365656465640000000000000000000060448201526064015b60405180910390fd5b6105d98383610adc565b7f1274f5ba296ef8f0b6bf00056f3691bb6d3053e061d99a0e9b0a263c419810e86106ab8161099a565b60075460ff16156106fe5760405162461bcd60e51b815260206004820152601f60248201527f434c44546f6b656e3a2043617020616c72656164792066696e616c697a656400604482015260640161066e565b600082116107745760405162461bcd60e51b815260206004820152602760248201527f434c44546f6b656e3a20436170206d757374206265206772656174657220746860448201527f616e207a65726f00000000000000000000000000000000000000000000000000606482015260840161066e565b61077c610553565b8211156107f15760405162461bcd60e51b815260206004820152602f60248201527f434c44546f6b656e3a2046696e616c206361702063616e6e6f7420657863656560448201527f642074656d706f72617279206361700000000000000000000000000000000000606482015260840161066e565b60068290556007805460ff191660011790556040517febb8c49a6d23fb9852b542c4cacc498f2cc1c7e54e54b1d896116a337ca9c18d906108359084815260200190565b60405180910390a15050565b60606004805461046990610ffa565b6000336104fa818585610922565b6000828152600560205260409020600101546108798161099a565b61054d8383610a55565b6105d98383836001610b16565b6001600160a01b0383811660009081526001602090815260408083209386168352929052205460001981101561054d5781811015610913576040517ffb8f41b20000000000000000000000000000000000000000000000000000000081526001600160a01b0384166004820152602481018290526044810183905260640161066e565b61054d84848484036000610b16565b6001600160a01b038316610965576040517f96c6fd1e0000000000000000000000000000000000000000000000000000000081526000600482015260240161066e565b6001600160a01b03821661098f5760405163ec442f0560e01b81526000600482015260240161066e565b6105d9838383610c1d565b6109a48133610c28565b50565b60008281526005602090815260408083206001600160a01b038516845290915281205460ff16610a4d5760008381526005602090815260408083206001600160a01b03861684529091529020805460ff19166001179055610a053390565b6001600160a01b0316826001600160a01b0316847f2f8788117e7eff1d82e926ec794901d17c78024a50270940304540a733656f0d60405160405180910390a4506001610454565b506000610454565b60008281526005602090815260408083206001600160a01b038516845290915281205460ff1615610a4d5760008381526005602090815260408083206001600160a01b0386168085529252808320805460ff1916905551339286917ff6391f5c32d9c69d2a47ea670b442974b53935d1edc7fd64eb21e047a839171b9190a4506001610454565b6001600160a01b038216610b065760405163ec442f0560e01b81526000600482015260240161066e565b610b1260008383610c1d565b5050565b6001600160a01b038416610b59576040517fe602df050000000000000000000000000000000000000000000000000000000081526000600482015260240161066e565b6001600160a01b038316610b9c576040517f94280d620000000000000000000000000000000000000000000000000000000081526000600482015260240161066e565b6001600160a01b038085166000908152600160209081526040808320938716835292905220829055801561054d57826001600160a01b0316846001600160a01b03167f8c5be1e5ebec7d5bd14f71427d1e84f3dd0314c0f7b2291e5b200ac8c7c3b92584604051610c0f91815260200190565b60405180910390a350505050565b6105d9838383610c96565b60008281526005602090815260408083206001600160a01b038516845290915290205460ff16610b12576040517fe2517d3f0000000000000000000000000000000000000000000000000000000081526001600160a01b03821660048201526024810183905260440161066e565b610ca1838383610d13565b6001600160a01b0383166105d9576000610cb9610553565b90506000610cc660025490565b905081811115610d0c576040517f9e79f854000000000000000000000000000000000000000000000000000000008152600481018290526024810183905260440161066e565b5050505050565b6001600160a01b038316610d3e578060026000828254610d339190611034565b90915550610dc99050565b6001600160a01b03831660009081526020819052604090205481811015610daa576040517fe450d38c0000000000000000000000000000000000000000000000000000000081526001600160a01b0385166004820152602481018290526044810183905260640161066e565b6001600160a01b03841660009081526020819052604090209082900390555b6001600160a01b038216610de557600280548290039055610e04565b6001600160a01b03821660009081526020819052604090208054820190555b816001600160a01b0316836001600160a01b03167fddf252ad1be2c89b69c2b068fc378daa952ba7f163c4a11628f55a4df523b3ef83604051610e4991815260200190565b60405180910390a3505050565b600060208284031215610e6857600080fd5b81357fffffffff0000000000000000000000000000000000000000000000000000000081168114610e9857600080fd5b9392505050565b602081526000825180602084015260005b81811015610ecd5760208186018101516040868401015201610eb0565b506000604082850101526040601f19601f83011684010191505092915050565b80356001600160a01b0381168114610f0457600080fd5b919050565b60008060408385031215610f1c57600080fd5b610f2583610eed565b946020939093013593505050565b600080600060608486031215610f4857600080fd5b610f5184610eed565b9250610f5f60208501610eed565b929592945050506040919091013590565b600060208284031215610f8257600080fd5b5035919050565b60008060408385031215610f9c57600080fd5b82359150610fac60208401610eed565b90509250929050565b600060208284031215610fc757600080fd5b610e9882610eed565b60008060408385031215610fe357600080fd5b610fec83610eed565b9150610fac60208401610eed565b600181811c9082168061100e57607f821691505b60208210810361102e57634e487b7160e01b600052602260045260246000fd5b50919050565b8082018082111561045457634e487b7160e01b600052601160045260246000fdfea2646970667358221220ea139053372cec77b561aa2230958b6d8a285476e4fcb9d5d3bdce26311d442a64736f6c634300081c0033",
  "linkReferences": {},
  "deployedLinkReferences": {}
}