{
  "_format": "hh-sol-artifact-1",
  "contractName": "CLDToken",
  "sourceName": "contracts/CLDToken.sol",
  "abi": [
    {
      "inputs": [],
      "stateMutability": "nonpayable",
      "type": "constructor"
    },
    {
      "inputs": [],
      "name": "AccessControlBadConfirmation",
      "type": "error"
    },
    {
      "inputs": [
        {
          "internalType": "address",
          "name": "account",
          "type": "address"
        },
        {
          "internalType": "bytes32",
          "name": "neededRole",
          "type": "bytes32"
        }
      ],
      "name": "AccessControlUnauthorizedAccount",
      "type": "error"
    },
    {
      "inputs": [
        {
          "internalType": "address",
          "name": "spender",
          "type": "address"
        },
        {
          "internalType": "uint256",
          "name": "allowance",
          "type": "uint256"
        },
        {
          "internalType": "uint256",
          "name": "needed",
          "type": "uint256"
        }
      ],
      "name": "ERC20InsufficientAllowance",
      "type": "error"
    },
    {
      "inputs": [
        {
          "internalType": "address",
          "name": "sender",
          "type": "address"
        },
        {
          "internalType": "uint256",
          "name": "balance",
          "type": "uint256"
        },
        {
          "internalType": "uint256",
          "name": "needed",
          "type": "uint256"
        }
      ],
      "name": "ERC20InsufficientBalance",
      "type": "error"
    },
    {
      "inputs": [
        {
          "internalType": "address",
          "name": "approver",
          "type": "address"
        }
      ],
      "name": "ERC20InvalidApprover",
      "type": "error"
    },
    {
      "inputs": [
        {
          "internalType": "address",
          "name": "receiver",
          "type": "address"
        }
      ],
      "name": "ERC20InvalidReceiver",
      "type": "error"
    },
    {
      "inputs": [
        {
          "internalType": "address",
          "name": "sender",
          "type": "address"
        }
      ],
      "name": "ERC20InvalidSender",
      "type": "error"
    },
    {
      "inputs": [
        {
          "internalType": "address",
          "name": "spender",
          "type": "address"
        }
      ],
      "name": "ERC20InvalidSpender",
      "type": "error"
    },
    {
      "inputs": [
        {
          "internalType": "uint256",
          "name": "requested",
          "type": "uint256"
        },
        {
          "internalType": "uint256",
          "name": "allowance",
          "type": "uint256"
        }
      ],
      "name": "InsufficientAllowance",
      "type": "error"
    },
    {
      "inputs": [
        {
          "internalType": "uint256",
          "name": "requested",
          "type": "uint256"
        },
        {
          "internalType": "uint256",
          "name": "available",
          "type": "uint256"
        }
      ],
      "name": "InsufficientBalance",
      "type": "error"
    },
    {
      "anonymous": false,
      "inputs": [
        {
          "indexed": true,
          "internalType": "address",
          "name": "owner",
          "type": "address"
        },
        {
          "indexed": true,
          "internalType": "address",
          "name": "spender",
          "type": "address"
        },
        {
          "indexed": false,
          "internalType": "uint256",
          "name": "value",
          "type": "uint256"
        }
      ],
      "name": "Approval",
      "type": "event"
    },
    {
      "anonymous": false,
      "inputs": [
        {
          "indexed": true,
          "internalType": "bytes32",
          "name": "role",
          "type": "bytes32"
        },
        {
          "indexed": true,
          "internalType": "bytes32",
          "name": "previousAdminRole",
          "type": "bytes32"
        },
        {
          "indexed": true,
          "internalType": "bytes32",
          "name": "newAdminRole",
          "type": "bytes32"
        }
      ],
      "name": "RoleAdminChanged",
      "type": "event"
    },
    {
      "anonymous": false,
      "inputs": [
        {
          "indexed": true,
          "internalType": "bytes32",
          "name": "role",
          "type": "bytes32"
        },
        {
          "indexed": true,
          "internalType": "address",
          "name": "account",
          "type": "address"
        },
        {
          "indexed": true,
          "internalType": "address",
          "name": "sender",
          "type": "address"
        }
      ],
      "name": "RoleGranted",
      "type": "event"
    },
    {
      "anonymous": false,
      "inputs": [
        {
          "indexed": true,
          "internalType": "bytes32",
          "name": "role",
          "type": "bytes32"
        },
        {
          "indexed": true,
          "internalType": "address",
          "name": "account",
          "type": "address"
        },
        {
          "indexed": true,
          "internalType": "address",
          "name": "sender",
          "type": "address"
        }
      ],
      "name": "RoleRevoked",
      "type": "event"
    },
    {
      "anonymous": false,
      "inputs": [
        {
          "indexed": true,
          "internalType": "address",
          "name": "from",
          "type": "address"
        },
        {
          "indexed": true,
          "internalType": "address",
          "name": "to",
          "type": "address"
        },
        {
          "indexed": false,
          "internalType": "uint256",
          "name": "value",
          "type": "uint256"
        }
      ],
      "name": "Transfer",
      "type": "event"
    },
    {
      "inputs": [],
      "name": "DEFAULT_ADMIN_ROLE",
      "outputs": [
        {
          "internalType": "bytes32",
          "name": "",
          "type": "bytes32"
        }
      ],
      "stateMutability": "view",
      "type": "function"
    },
    {
      "inputs": [],
      "name": "MINTER_ROLE",
      "outputs": [
        {
          "internalType": "bytes32",
          "name": "",
          "type": "bytes32"
        }
      ],
      "stateMutability": "view",
      "type": "function"
    },
    {
      "inputs": [
        {
          "internalType": "address",
          "name": "owner",
          "type": "address"
        },
        {
          "internalType": "address",
          "name": "spender",
          "type": "address"
        }
      ],
      "name": "allowance",
      "outputs": [
        {
          "internalType": "uint256",
          "name": "",
          "type": "uint256"
        }
      ],
      "stateMutability": "view",
      "type": "function"
    },
    {
      "inputs": [
        {
          "internalType": "address",
          "name": "spender",
          "type": "address"
        },
        {
          "internalType": "uint256",
          "name": "value",
          "type": "uint256"
        }
      ],
      "name": "approve",
      "outputs": [
        {
          "internalType": "bool",
          "name": "",
          "type": "bool"
        }
      ],
      "stateMutability": "nonpayable",
      "type": "function"
    },
    {
      "inputs": [
        {
          "internalType": "address",
          "name": "account",
          "type": "address"
        }
      ],
      "name": "balanceOf",
      "outputs": [
        {
          "internalType": "uint256",
          "name": "",
          "type": "uint256"
        }
      ],
      "stateMutability": "view",
      "type": "function"
    },
    {
      "inputs": [
        {
          "internalType": "uint256",
          "name": "amount",
          "type": "uint256"
        }
      ],
      "name": "burn",
      "outputs": [],
      "stateMutability": "nonpayable",
      "type": "function"
    },
    {
      "inputs": [
        {
          "internalType": "address",
          "name": "from",
          "type": "address"
        },
        {
          "internalType": "uint256",
          "name": "amount",
          "type": "uint256"
        }
      ],
      "name": "burnFrom",
      "outputs": [],
      "stateMutability": "nonpayable",
      "type": "function"
    },
    {
      "inputs": [],
      "name": "decimals",
      "outputs": [
        {
          "internalType": "uint8",
          "name": "",
          "type": "uint8"
        }
      ],
      "stateMutability": "view",
      "type": "function"
    },
    {
      "inputs": [
        {
          "internalType": "bytes32",
          "name": "role",
          "type": "bytes32"
        }
      ],
      "name": "getRoleAdmin",
      "outputs": [
        {
          "internalType": "bytes32",
          "name": "",
          "type": "bytes32"
        }
      ],
      "stateMutability": "view",
      "type": "function"
    },
    {
      "inputs": [
        {
          "internalType": "bytes32",
          "name": "role",
          "type": "bytes32"
        },
        {
          "internalType": "address",
          "name": "account",
          "type": "address"
        }
      ],
      "name": "grantRole",
      "outputs": [],
      "stateMutability": "nonpayable",
      "type": "function"
    },
    {
      "inputs": [
        {
          "internalType": "bytes32",
          "name": "role",
          "type": "bytes32"
        },
        {
          "internalType": "address",
          "name": "account",
          "type": "address"
        }
      ],
      "name": "hasRole",
      "outputs": [
        {
          "internalType": "bool",
          "name": "",
          "type": "bool"
        }
      ],
      "stateMutability": "view",
      "type": "function"
    },
    {
      "inputs": [
        {
          "internalType": "address",
          "name": "to",
          "type": "address"
        },
        {
          "internalType": "uint256",
          "name": "amount",
          "type": "uint256"
        }
      ],
      "name": "mint",
      "outputs": [],
      "stateMutability": "nonpayable",
      "type": "function"
    },
    {
      "inputs": [],
      "name": "name",
      "outputs": [
        {
          "internalType": "string",
          "name": "",
          "type": "string"
        }
      ],
      "stateMutability": "view",
      "type": "function"
    },
    {
      "inputs": [
        {
          "internalType": "bytes32",
          "name": "role",
          "type": "bytes32"
        },
        {
          "internalType": "address",
          "name": "callerConfirmation",
          "type": "address"
        }
      ],
      "name": "renounceRole",
      "outputs": [],
      "stateMutability": "nonpayable",
      "type": "function"
    },
    {
      "inputs": [
        {
          "internalType": "bytes32",
          "name": "role",
          "type": "bytes32"
        },
        {
          "internalType": "address",
          "name": "account",
          "type": "address"
        }
      ],
      "name": "revokeRole",
      "outputs": [],
      "stateMutability": "nonpayable",
      "type": "function"
    },
    {
      "inputs": [
        {
          "internalType": "bytes4",
          "name": "interfaceId",
          "type": "bytes4"
        }
      ],
      "name": "supportsInterface",
      "outputs": [
        {
          "internalType": "bool",
          "name": "",
          "type": "bool"
        }
      ],
      "stateMutability": "view",
      "type": "function"
    },
    {
      "inputs": [],
      "name": "symbol",
      "outputs": [
        {
          "internalType": "string",
          "name": "",
          "type": "string"
        }
      ],
      "stateMutability": "view",
      "type": "function"
    },
    {
      "inputs": [],
      "name": "totalSupply",
      "outputs": [
        {
          "internalType": "uint256",
          "name": "",
          "type": "uint256"
        }
      ],
      "stateMutability": "view",
      "type": "function"
    },
    {
      "inputs": [
        {
          "internalType": "address",
          "name": "to",
          "type": "address"
        },
        {
          "internalType": "uint256",
          "name": "value",
          "type": "uint256"
        }
      ],
      "name": "transfer",
      "outputs": [
        {
          "internalType": "bool",
          "name": "",
          "type": "bool"
        }
      ],
      "stateMutability": "nonpayable",
      "type": "function"
    },
    {
      "inputs": [
        {
          "internalType": "address",
          "name": "from",
          "type": "address"
        },
        {
          "internalType": "address",
          "name": "to",
          "type": "address"
        },
        {
          "internalType": "uint256",
          "name": "value",
          "type": "uint256"
        }
      ],
      "name": "transferFrom",
      "outputs": [
        {
          "internalType": "bool",
          "name": "",
          "type": "bool"
        }
      ],
      "stateMutability": "nonpayable",
      "type": "function"
    }
  ],
  "bytecode": "0x60806040523480156200001157600080fd5b506040518060400160405280600e81526020016d21b637bab230b730902a37b5b2b760911b8152506040518060400160405280600381526020016210d31160ea1b8152508160039081620000669190620001e6565b506004620000758282620001e6565b5062000087915060009050336200008e565b50620002b2565b60008281526005602090815260408083206001600160a01b038516845290915281205460ff16620001375760008381526005602090815260408083206001600160a01b03861684529091529020805460ff19166001179055620000ee3390565b6001600160a01b0316826001600160a01b0316847f2f8788117e7eff1d82e926ec794901d17c78024a50270940304540a733656f0d60405160405180910390a45060016200013b565b5060005b92915050565b634e487b7160e01b600052604160045260246000fd5b600181811c908216806200016c57607f821691505b6020821081036200018d57634e487b7160e01b600052602260045260246000fd5b50919050565b601f821115620001e157600081815260208120601f850160051c81016020861015620001bc5750805b601f850160051c820191505b81811015620001dd57828155600101620001c8565b5050505b505050565b81516001600160401b0381111562000202576200020262000141565b6200021a8162000213845462000157565b8462000193565b602080601f831160018114620002525760008415620002395750858301515b600019600386901b1c1916600185901b178555620001dd565b600085815260208120601f198616915b82811015620002835788860151825594840194600190910190840162000262565b5085821015620002a25787850151600019600388901b60f8161c191681555b5050505050600190811b01905550565b610c1580620002c26000396000f3fe608060405234801561001057600080fd5b506004361061012c5760003560e01c806342966c68116100ad578063a217fddf11610071578063a217fddf1461027d578063a9059cbb14610285578063d539139314610298578063d547741f146102bf578063dd62ed3e146102d257600080fd5b806342966c681461021357806370a082311461022657806379cc67901461024f57806391d148541461026257806395d89b411461027557600080fd5b8063248a9ca3116100f4578063248a9ca3146101a65780632f2ff15d146101c9578063313ce567146101de57806336568abe146101ed57806340c10f191461020057600080fd5b806301ffc9a71461013157806306fdde0314610159578063095ea7b31461016e57806318160ddd1461018157806323b872dd14610193575b600080fd5b61014461013f3660046109f9565b6102e5565b60405190151581526020015b60405180910390f35b61016161031c565b6040516101509190610a2a565b61014461017c366004610a94565b6103ae565b6002545b604051908152602001610150565b6101446101a1366004610abe565b6103c6565b6101856101b4366004610afa565b60009081526005602052604090206001015490565b6101dc6101d7366004610b13565b6103ea565b005b60405160128152602001610150565b6101dc6101fb366004610b13565b610415565b6101dc61020e366004610a94565b61044d565b6101dc610221366004610afa565b610481565b610185610234366004610b3f565b6001600160a01b031660009081526020819052604090205490565b6101dc61025d366004610a94565b61048e565b610144610270366004610b13565b6104e1565b61016161050c565b610185600081565b610144610293366004610a94565b61051b565b6101857f9f2df0fed2c77648de5860a4cc508cd0818c85b8b8a1ab4ceeef8d981c8956a681565b6101dc6102cd366004610b13565b610529565b6101856102e0366004610b5a565b61054e565b60006001600160e01b03198216637965db0b60e01b148061031657506301ffc9a760e01b6001600160e01b03198316145b92915050565b60606003805461032b90610b84565b80601f016020809104026020016040519081016040528092919081815260200182805461035790610b84565b80156103a45780601f10610379576101008083540402835291602001916103a4565b820191906000526020600020905b81548152906001019060200180831161038757829003601f168201915b5050505050905090565b6000336103bc818585610579565b5060019392505050565b6000336103d4858285610586565b6103df8585856105e7565b506001949350505050565b60008281526005602052604090206001015461040581610646565b61040f8383610650565b50505050565b6001600160a01b038116331461043e5760405163334bd91960e11b815260040160405180910390fd5b61044882826106e4565b505050565b7f9f2df0fed2c77648de5860a4cc508cd0818c85b8b8a1ab4ceeef8d981c8956a661047781610646565b6104488383610751565b61048b338261078b565b50565b600061049a833361054e565b9050818110156104cc5760405163054365bb60e31b815260048101839052602481018290526044015b60405180910390fd5b6104d7833384610586565b610448838361078b565b60009182526005602090815260408084206001600160a01b0393909316845291905290205460ff1690565b60606004805461032b90610b84565b6000336103bc8185856105e7565b60008281526005602052604090206001015461054481610646565b61040f83836106e4565b6001600160a01b03918216600090815260016020908152604080832093909416825291909152205490565b61044883838360016107c1565b6000610592848461054e565b905060001981101561040f57818110156105d857604051637dc7a0d960e11b81526001600160a01b038416600482015260248101829052604481018390526064016104c3565b61040f848484840360006107c1565b6001600160a01b03831661061157604051634b637e8f60e11b8152600060048201526024016104c3565b6001600160a01b03821661063b5760405163ec442f0560e01b8152600060048201526024016104c3565b610448838383610896565b61048b81336109c0565b600061065c83836104e1565b6106dc5760008381526005602090815260408083206001600160a01b03861684529091529020805460ff191660011790556106943390565b6001600160a01b0316826001600160a01b0316847f2f8788117e7eff1d82e926ec794901d17c78024a50270940304540a733656f0d60405160405180910390a4506001610316565b506000610316565b60006106f083836104e1565b156106dc5760008381526005602090815260408083206001600160a01b0386168085529252808320805460ff1916905551339286917ff6391f5c32d9c69d2a47ea670b442974b53935d1edc7fd64eb21e047a839171b9190a4506001610316565b6001600160a01b03821661077b5760405163ec442f0560e01b8152600060048201526024016104c3565b61078760008383610896565b5050565b6001600160a01b0382166107b557604051634b637e8f60e11b8152600060048201526024016104c3565b61078782600083610896565b6001600160a01b0384166107eb5760405163e602df0560e01b8152600060048201526024016104c3565b6001600160a01b03831661081557604051634a1406b160e11b8152600060048201526024016104c3565b6001600160a01b038085166000908152600160209081526040808320938716835292905220829055801561040f57826001600160a01b0316846001600160a01b03167f8c5be1e5ebec7d5bd14f71427d1e84f3dd0314c0f7b2291e5b200ac8c7c3b9258460405161088891815260200190565b60405180910390a350505050565b6001600160a01b0383166108c15780600260008282546108b69190610bbe565b909155506109339050565b6001600160a01b038316600090815260208190526040902054818110156109145760405163391434e360e21b81526001600160a01b038516600482015260248101829052604481018390526064016104c3565b6001600160a01b03841660009081526020819052604090209082900390555b6001600160a01b03821661094f5760028054829003905561096e565b6001600160a01b03821660009081526020819052604090208054820190555b816001600160a01b0316836001600160a01b03167fddf252ad1be2c89b69c2b068fc378daa952ba7f163c4a11628f55a4df523b3ef836040516109b391815260200190565b60405180910390a3505050565b6109ca82826104e1565b6107875760405163e2517d3f60e01b81526001600160a01b0382166004820152602481018390526044016104c3565b600060208284031215610a0b57600080fd5b81356001600160e01b031981168114610a2357600080fd5b9392505050565b600060208083528351808285015260005b81811015610a5757858101830151858201604001528201610a3b565b506000604082860101526040601f19601f8301168501019250505092915050565b80356001600160a01b0381168114610a8f57600080fd5b919050565b60008060408385031215610aa757600080fd5b610ab083610a78565b946020939093013593505050565b600080600060608486031215610ad357600080fd5b610adc84610a78565b9250610aea60208501610a78565b9150604084013590509250925092565b600060208284031215610b0c57600080fd5b5035919050565b60008060408385031215610b2657600080fd5b82359150610b3660208401610a78565b90509250929050565b600060208284031215610b5157600080fd5b610a2382610a78565b60008060408385031215610b6d57600080fd5b610b7683610a78565b9150610b3660208401610a78565b600181811c90821680610b9857607f821691505b602082108103610bb857634e487b7160e01b600052602260045260246000fd5b50919050565b8082018082111561031657634e487b7160e01b600052601160045260246000fdfea26469706673582212200d0df444bbf8a2a2dc686406dedcc94a13756f9fa044aaf8fc028c22e0fa7ce264736f6c63430008140033",
  "linkReferences": {},
  "deployedLinkReferences": {}
}