{
  "_format": "hh-sol-artifact-1",
  "contractName": "CLDToken",
  "sourceName": "contracts/CLDToken.sol",
  "abi": [
    {
      "inputs": [
        {
          "internalType": "address",
          "name": "_treasuryWallet",
          "type": "address"
        },
        {
          "internalType": "address",
          "name": "_teamWallet",
          "type": "address"
        }
      ],
      "stateMutability": "nonpayable",
      "type": "constructor"
    },
    {
      "inputs": [],
      "name": "AccessControlBadConfirmation",
      "type": "error"
    },
    {
      "inputs": [
        {
          "internalType": "address",
          "name": "account",
          "type": "address"
        },
        {
          "internalType": "bytes32",
          "name": "neededRole",
          "type": "bytes32"
        }
      ],
      "name": "AccessControlUnauthorizedAccount",
      "type": "error"
    },
    {
      "inputs": [
        {
          "internalType": "address",
          "name": "spender",
          "type": "address"
        },
        {
          "internalType": "uint256",
          "name": "allowance",
          "type": "uint256"
        },
        {
          "internalType": "uint256",
          "name": "needed",
          "type": "uint256"
        }
      ],
      "name": "ERC20InsufficientAllowance",
      "type": "error"
    },
    {
      "inputs": [
        {
          "internalType": "address",
          "name": "sender",
          "type": "address"
        },
        {
          "internalType": "uint256",
          "name": "balance",
          "type": "uint256"
        },
        {
          "internalType": "uint256",
          "name": "needed",
          "type": "uint256"
        }
      ],
      "name": "ERC20InsufficientBalance",
      "type": "error"
    },
    {
      "inputs": [
        {
          "internalType": "address",
          "name": "approver",
          "type": "address"
        }
      ],
      "name": "ERC20InvalidApprover",
      "type": "error"
    },
    {
      "inputs": [
        {
          "internalType": "address",
          "name": "receiver",
          "type": "address"
        }
      ],
      "name": "ERC20InvalidReceiver",
      "type": "error"
    },
    {
      "inputs": [
        {
          "internalType": "address",
          "name": "sender",
          "type": "address"
        }
      ],
      "name": "ERC20InvalidSender",
      "type": "error"
    },
    {
      "inputs": [
        {
          "internalType": "address",
          "name": "spender",
          "type": "address"
        }
      ],
      "name": "ERC20InvalidSpender",
      "type": "error"
    },
    {
      "inputs": [
        {
          "internalType": "uint256",
          "name": "requested",
          "type": "uint256"
        },
        {
          "internalType": "uint256",
          "name": "allowance",
          "type": "uint256"
        }
      ],
      "name": "InsufficientAllowance",
      "type": "error"
    },
    {
      "inputs": [
        {
          "internalType": "uint256",
          "name": "requested",
          "type": "uint256"
        },
        {
          "internalType": "uint256",
          "name": "available",
          "type": "uint256"
        }
      ],
      "name": "InsufficientBalance",
      "type": "error"
    },
    {
      "anonymous": false,
      "inputs": [
        {
          "indexed": true,
          "internalType": "address",
          "name": "owner",
          "type": "address"
        },
        {
          "indexed": true,
          "internalType": "address",
          "name": "spender",
          "type": "address"
        },
        {
          "indexed": false,
          "internalType": "uint256",
          "name": "value",
          "type": "uint256"
        }
      ],
      "name": "Approval",
      "type": "event"
    },
    {
      "anonymous": false,
      "inputs": [
        {
          "indexed": true,
          "internalType": "bytes32",
          "name": "role",
          "type": "bytes32"
        },
        {
          "indexed": true,
          "internalType": "bytes32",
          "name": "previousAdminRole",
          "type": "bytes32"
        },
        {
          "indexed": true,
          "internalType": "bytes32",
          "name": "newAdminRole",
          "type": "bytes32"
        }
      ],
      "name": "RoleAdminChanged",
      "type": "event"
    },
    {
      "anonymous": false,
      "inputs": [
        {
          "indexed": true,
          "internalType": "bytes32",
          "name": "role",
          "type": "bytes32"
        },
        {
          "indexed": true,
          "internalType": "address",
          "name": "account",
          "type": "address"
        },
        {
          "indexed": true,
          "internalType": "address",
          "name": "sender",
          "type": "address"
        }
      ],
      "name": "RoleGranted",
      "type": "event"
    },
    {
      "anonymous": false,
      "inputs": [
        {
          "indexed": true,
          "internalType": "bytes32",
          "name": "role",
          "type": "bytes32"
        },
        {
          "indexed": true,
          "internalType": "address",
          "name": "account",
          "type": "address"
        },
        {
          "indexed": true,
          "internalType": "address",
          "name": "sender",
          "type": "address"
        }
      ],
      "name": "RoleRevoked",
      "type": "event"
    },
    {
      "anonymous": false,
      "inputs": [
        {
          "indexed": true,
          "internalType": "address",
          "name": "from",
          "type": "address"
        },
        {
          "indexed": true,
          "internalType": "address",
          "name": "to",
          "type": "address"
        },
        {
          "indexed": false,
          "internalType": "uint256",
          "name": "value",
          "type": "uint256"
        }
      ],
      "name": "Transfer",
      "type": "event"
    },
    {
      "inputs": [],
      "name": "DEFAULT_ADMIN_ROLE",
      "outputs": [
        {
          "internalType": "bytes32",
          "name": "",
          "type": "bytes32"
        }
      ],
      "stateMutability": "view",
      "type": "function"
    },
    {
      "inputs": [],
      "name": "INITIAL_SUPPLY",
      "outputs": [
        {
          "internalType": "uint256",
          "name": "",
          "type": "uint256"
        }
      ],
      "stateMutability": "view",
      "type": "function"
    },
    {
      "inputs": [],
      "name": "MINTER_ROLE",
      "outputs": [
        {
          "internalType": "bytes32",
          "name": "",
          "type": "bytes32"
        }
      ],
      "stateMutability": "view",
      "type": "function"
    },
    {
      "inputs": [
        {
          "internalType": "address",
          "name": "owner",
          "type": "address"
        },
        {
          "internalType": "address",
          "name": "spender",
          "type": "address"
        }
      ],
      "name": "allowance",
      "outputs": [
        {
          "internalType": "uint256",
          "name": "",
          "type": "uint256"
        }
      ],
      "stateMutability": "view",
      "type": "function"
    },
    {
      "inputs": [
        {
          "internalType": "address",
          "name": "spender",
          "type": "address"
        },
        {
          "internalType": "uint256",
          "name": "value",
          "type": "uint256"
        }
      ],
      "name": "approve",
      "outputs": [
        {
          "internalType": "bool",
          "name": "",
          "type": "bool"
        }
      ],
      "stateMutability": "nonpayable",
      "type": "function"
    },
    {
      "inputs": [
        {
          "internalType": "address",
          "name": "account",
          "type": "address"
        }
      ],
      "name": "balanceOf",
      "outputs": [
        {
          "internalType": "uint256",
          "name": "",
          "type": "uint256"
        }
      ],
      "stateMutability": "view",
      "type": "function"
    },
    {
      "inputs": [
        {
          "internalType": "uint256",
          "name": "amount",
          "type": "uint256"
        }
      ],
      "name": "burn",
      "outputs": [],
      "stateMutability": "nonpayable",
      "type": "function"
    },
    {
      "inputs": [
        {
          "internalType": "address",
          "name": "from",
          "type": "address"
        },
        {
          "internalType": "uint256",
          "name": "amount",
          "type": "uint256"
        }
      ],
      "name": "burnFrom",
      "outputs": [],
      "stateMutability": "nonpayable",
      "type": "function"
    },
    {
      "inputs": [],
      "name": "decimals",
      "outputs": [
        {
          "internalType": "uint8",
          "name": "",
          "type": "uint8"
        }
      ],
      "stateMutability": "view",
      "type": "function"
    },
    {
      "inputs": [
        {
          "internalType": "bytes32",
          "name": "role",
          "type": "bytes32"
        }
      ],
      "name": "getRoleAdmin",
      "outputs": [
        {
          "internalType": "bytes32",
          "name": "",
          "type": "bytes32"
        }
      ],
      "stateMutability": "view",
      "type": "function"
    },
    {
      "inputs": [
        {
          "internalType": "bytes32",
          "name": "role",
          "type": "bytes32"
        },
        {
          "internalType": "address",
          "name": "account",
          "type": "address"
        }
      ],
      "name": "grantRole",
      "outputs": [],
      "stateMutability": "nonpayable",
      "type": "function"
    },
    {
      "inputs": [
        {
          "internalType": "bytes32",
          "name": "role",
          "type": "bytes32"
        },
        {
          "internalType": "address",
          "name": "account",
          "type": "address"
        }
      ],
      "name": "hasRole",
      "outputs": [
        {
          "internalType": "bool",
          "name": "",
          "type": "bool"
        }
      ],
      "stateMutability": "view",
      "type": "function"
    },
    {
      "inputs": [
        {
          "internalType": "address",
          "name": "to",
          "type": "address"
        },
        {
          "internalType": "uint256",
          "name": "amount",
          "type": "uint256"
        }
      ],
      "name": "mint",
      "outputs": [],
      "stateMutability": "nonpayable",
      "type": "function"
    },
    {
      "inputs": [],
      "name": "name",
      "outputs": [
        {
          "internalType": "string",
          "name": "",
          "type": "string"
        }
      ],
      "stateMutability": "view",
      "type": "function"
    },
    {
      "inputs": [
        {
          "internalType": "bytes32",
          "name": "role",
          "type": "bytes32"
        },
        {
          "internalType": "address",
          "name": "callerConfirmation",
          "type": "address"
        }
      ],
      "name": "renounceRole",
      "outputs": [],
      "stateMutability": "nonpayable",
      "type": "function"
    },
    {
      "inputs": [
        {
          "internalType": "bytes32",
          "name": "role",
          "type": "bytes32"
        },
        {
          "internalType": "address",
          "name": "account",
          "type": "address"
        }
      ],
      "name": "revokeRole",
      "outputs": [],
      "stateMutability": "nonpayable",
      "type": "function"
    },
    {
      "inputs": [
        {
          "internalType": "bytes4",
          "name": "interfaceId",
          "type": "bytes4"
        }
      ],
      "name": "supportsInterface",
      "outputs": [
        {
          "internalType": "bool",
          "name": "",
          "type": "bool"
        }
      ],
      "stateMutability": "view",
      "type": "function"
    },
    {
      "inputs": [],
      "name": "symbol",
      "outputs": [
        {
          "internalType": "string",
          "name": "",
          "type": "string"
        }
      ],
      "stateMutability": "view",
      "type": "function"
    },
    {
      "inputs": [],
      "name": "teamWallet",
      "outputs": [
        {
          "internalType": "address",
          "name": "",
          "type": "address"
        }
      ],
      "stateMutability": "view",
      "type": "function"
    },
    {
      "inputs": [],
      "name": "totalSupply",
      "outputs": [
        {
          "internalType": "uint256",
          "name": "",
          "type": "uint256"
        }
      ],
      "stateMutability": "view",
      "type": "function"
    },
    {
      "inputs": [
        {
          "internalType": "address",
          "name": "to",
          "type": "address"
        },
        {
          "internalType": "uint256",
          "name": "value",
          "type": "uint256"
        }
      ],
      "name": "transfer",
      "outputs": [
        {
          "internalType": "bool",
          "name": "",
          "type": "bool"
        }
      ],
      "stateMutability": "nonpayable",
      "type": "function"
    },
    {
      "inputs": [
        {
          "internalType": "address",
          "name": "from",
          "type": "address"
        },
        {
          "internalType": "address",
          "name": "to",
          "type": "address"
        },
        {
          "internalType": "uint256",
          "name": "value",
          "type": "uint256"
        }
      ],
      "name": "transferFrom",
      "outputs": [
        {
          "internalType": "bool",
          "name": "",
          "type": "bool"
        }
      ],
      "stateMutability": "nonpayable",
      "type": "function"
    },
    {
      "inputs": [],
      "name": "treasuryWallet",
      "outputs": [
        {
          "internalType": "address",
          "name": "",
          "type": "address"
        }
      ],
      "stateMutability": "view",
      "type": "function"
    }
  ],
  "bytecode": "0x60c06040523480156200001157600080fd5b50604051620012703803806200127083398101604081905262000034916200038b565b6040518060400160405280600e81526020016d21b637bab230b730902a37b5b2b760911b8152506040518060400160405280600381526020016210d31160ea1b815250816003908162000088919062000468565b50600462000097828262000468565b50620000a99150600090503362000146565b50620000d67f9f2df0fed2c77648de5860a4cc508cd0818c85b8b8a1ab4ceeef8d981c8956a63362000146565b506001600160a01b03808316608081905290821660a0526200011d9060646200010b69d3c21bcecceda100000060506200054a565b62000117919062000564565b620001f9565b60a0516200013e9060646200010b69d3c21bcecceda100000060146200054a565b50506200059d565b60008281526005602090815260408083206001600160a01b038516845290915281205460ff16620001ef5760008381526005602090815260408083206001600160a01b03861684529091529020805460ff19166001179055620001a63390565b6001600160a01b0316826001600160a01b0316847f2f8788117e7eff1d82e926ec794901d17c78024a50270940304540a733656f0d60405160405180910390a4506001620001f3565b5060005b92915050565b6001600160a01b038216620002295760405163ec442f0560e01b8152600060048201526024015b60405180910390fd5b62000237600083836200023b565b5050565b6001600160a01b0383166200026a5780600260008282546200025e919062000587565b90915550620002de9050565b6001600160a01b03831660009081526020819052604090205481811015620002bf5760405163391434e360e21b81526001600160a01b0385166004820152602481018290526044810183905260640162000220565b6001600160a01b03841660009081526020819052604090209082900390555b6001600160a01b038216620002fc576002805482900390556200031b565b6001600160a01b03821660009081526020819052604090208054820190555b816001600160a01b0316836001600160a01b03167fddf252ad1be2c89b69c2b068fc378daa952ba7f163c4a11628f55a4df523b3ef836040516200036191815260200190565b60405180910390a3505050565b80516001600160a01b03811681146200038657600080fd5b919050565b600080604083850312156200039f57600080fd5b620003aa836200036e565b9150620003ba602084016200036e565b90509250929050565b634e487b7160e01b600052604160045260246000fd5b600181811c90821680620003ee57607f821691505b6020821081036200040f57634e487b7160e01b600052602260045260246000fd5b50919050565b601f8211156200046357600081815260208120601f850160051c810160208610156200043e5750805b601f850160051c820191505b818110156200045f578281556001016200044a565b5050505b505050565b81516001600160401b03811115620004845762000484620003c3565b6200049c81620004958454620003d9565b8462000415565b602080601f831160018114620004d45760008415620004bb5750858301515b600019600386901b1c1916600185901b1785556200045f565b600085815260208120601f198616915b828110156200050557888601518255948401946001909101908401620004e4565b5085821015620005245787850151600019600388901b60f8161c191681555b5050505050600190811b01905550565b634e487b7160e01b600052601160045260246000fd5b8082028115828204841417620001f357620001f362000534565b6000826200058257634e487b7160e01b600052601260045260246000fd5b500490565b80820180821115620001f357620001f362000534565b60805160a051610cad620005c3600039600061029c0152600061025d0152610cad6000f3fe608060405234801561001057600080fd5b506004361061014d5760003560e01c806342966c68116100c357806395d89b411161007c57806395d89b411461030d578063a217fddf14610315578063a9059cbb1461031d578063d539139314610330578063d547741f14610357578063dd62ed3e1461036a57600080fd5b806342966c68146102455780634626402b14610258578063599270441461029757806370a08231146102be57806379cc6790146102e757806391d14854146102fa57600080fd5b8063248a9ca311610115578063248a9ca3146101c75780632f2ff15d146101ea5780632ff2e9dc146101ff578063313ce5671461021057806336568abe1461021f57806340c10f191461023257600080fd5b806301ffc9a71461015257806306fdde031461017a578063095ea7b31461018f57806318160ddd146101a257806323b872dd146101b4575b600080fd5b610165610160366004610a91565b61037d565b60405190151581526020015b60405180910390f35b6101826103b4565b6040516101719190610ac2565b61016561019d366004610b2c565b610446565b6002545b604051908152602001610171565b6101656101c2366004610b56565b61045e565b6101a66101d5366004610b92565b60009081526005602052604090206001015490565b6101fd6101f8366004610bab565b610482565b005b6101a669d3c21bcecceda100000081565b60405160128152602001610171565b6101fd61022d366004610bab565b6104ad565b6101fd610240366004610b2c565b6104e5565b6101fd610253366004610b92565b610519565b61027f7f000000000000000000000000000000000000000000000000000000000000000081565b6040516001600160a01b039091168152602001610171565b61027f7f000000000000000000000000000000000000000000000000000000000000000081565b6101a66102cc366004610bd7565b6001600160a01b031660009081526020819052604090205490565b6101fd6102f5366004610b2c565b610526565b610165610308366004610bab565b610579565b6101826105a4565b6101a6600081565b61016561032b366004610b2c565b6105b3565b6101a67f9f2df0fed2c77648de5860a4cc508cd0818c85b8b8a1ab4ceeef8d981c8956a681565b6101fd610365366004610bab565b6105c1565b6101a6610378366004610bf2565b6105e6565b60006001600160e01b03198216637965db0b60e01b14806103ae57506301ffc9a760e01b6001600160e01b03198316145b92915050565b6060600380546103c390610c1c565b80601f01602080910402602001604051908101604052809291908181526020018280546103ef90610c1c565b801561043c5780601f106104115761010080835404028352916020019161043c565b820191906000526020600020905b81548152906001019060200180831161041f57829003601f168201915b5050505050905090565b600033610454818585610611565b5060019392505050565b60003361046c85828561061e565b61047785858561067f565b506001949350505050565b60008281526005602052604090206001015461049d816106de565b6104a783836106e8565b50505050565b6001600160a01b03811633146104d65760405163334bd91960e11b815260040160405180910390fd5b6104e0828261077c565b505050565b7f9f2df0fed2c77648de5860a4cc508cd0818c85b8b8a1ab4ceeef8d981c8956a661050f816106de565b6104e083836107e9565b6105233382610823565b50565b600061053283336105e6565b9050818110156105645760405163054365bb60e31b815260048101839052602481018290526044015b60405180910390fd5b61056f83338461061e565b6104e08383610823565b60009182526005602090815260408084206001600160a01b0393909316845291905290205460ff1690565b6060600480546103c390610c1c565b60003361045481858561067f565b6000828152600560205260409020600101546105dc816106de565b6104a7838361077c565b6001600160a01b03918216600090815260016020908152604080832093909416825291909152205490565b6104e08383836001610859565b600061062a84846105e6565b90506000198110156104a7578181101561067057604051637dc7a0d960e11b81526001600160a01b0384166004820152602481018290526044810183905260640161055b565b6104a784848484036000610859565b6001600160a01b0383166106a957604051634b637e8f60e11b81526000600482015260240161055b565b6001600160a01b0382166106d35760405163ec442f0560e01b81526000600482015260240161055b565b6104e083838361092e565b6105238133610a58565b60006106f48383610579565b6107745760008381526005602090815260408083206001600160a01b03861684529091529020805460ff1916600117905561072c3390565b6001600160a01b0316826001600160a01b0316847f2f8788117e7eff1d82e926ec794901d17c78024a50270940304540a733656f0d60405160405180910390a45060016103ae565b5060006103ae565b60006107888383610579565b156107745760008381526005602090815260408083206001600160a01b0386168085529252808320805460ff1916905551339286917ff6391f5c32d9c69d2a47ea670b442974b53935d1edc7fd64eb21e047a839171b9190a45060016103ae565b6001600160a01b0382166108135760405163ec442f0560e01b81526000600482015260240161055b565b61081f6000838361092e565b5050565b6001600160a01b03821661084d57604051634b637e8f60e11b81526000600482015260240161055b565b61081f8260008361092e565b6001600160a01b0384166108835760405163e602df0560e01b81526000600482015260240161055b565b6001600160a01b0383166108ad57604051634a1406b160e11b81526000600482015260240161055b565b6001600160a01b03808516600090815260016020908152604080832093871683529290522082905580156104a757826001600160a01b0316846001600160a01b03167f8c5be1e5ebec7d5bd14f71427d1e84f3dd0314c0f7b2291e5b200ac8c7c3b9258460405161092091815260200190565b60405180910390a350505050565b6001600160a01b03831661095957806002600082825461094e9190610c56565b909155506109cb9050565b6001600160a01b038316600090815260208190526040902054818110156109ac5760405163391434e360e21b81526001600160a01b0385166004820152602481018290526044810183905260640161055b565b6001600160a01b03841660009081526020819052604090209082900390555b6001600160a01b0382166109e757600280548290039055610a06565b6001600160a01b03821660009081526020819052604090208054820190555b816001600160a01b0316836001600160a01b03167fddf252ad1be2c89b69c2b068fc378daa952ba7f163c4a11628f55a4df523b3ef83604051610a4b91815260200190565b60405180910390a3505050565b610a628282610579565b61081f5760405163e2517d3f60e01b81526001600160a01b03821660048201526024810183905260440161055b565b600060208284031215610aa357600080fd5b81356001600160e01b031981168114610abb57600080fd5b9392505050565b600060208083528351808285015260005b81811015610aef57858101830151858201604001528201610ad3565b506000604082860101526040601f19601f8301168501019250505092915050565b80356001600160a01b0381168114610b2757600080fd5b919050565b60008060408385031215610b3f57600080fd5b610b4883610b10565b946020939093013593505050565b600080600060608486031215610b6b57600080fd5b610b7484610b10565b9250610b8260208501610b10565b9150604084013590509250925092565b600060208284031215610ba457600080fd5b5035919050565b60008060408385031215610bbe57600080fd5b82359150610bce60208401610b10565b90509250929050565b600060208284031215610be957600080fd5b610abb82610b10565b60008060408385031215610c0557600080fd5b610c0e83610b10565b9150610bce60208401610b10565b600181811c90821680610c3057607f821691505b602082108103610c5057634e487b7160e01b600052602260045260246000fd5b50919050565b808201808211156103ae57634e487b7160e01b600052601160045260246000fdfea2646970667358221220294902694c69b3f7e0fa476e8e74106fb5a185191a88a237686147bdb0f7522964736f6c63430008140033",
  "linkReferences": {},
  "deployedLinkReferences": {}
}