{
  "_format": "hh-sol-artifact-1",
  "contractName": "CLDToken",
  "sourceName": "contracts/CLDToken.sol",
  "abi": [
    {
      "inputs": [
        {
          "internalType": "string",
          "name": "name",
          "type": "string"
        },
        {
          "internalType": "string",
          "name": "symbol",
          "type": "string"
        },
        {
          "internalType": "uint256",
          "name": "temporaryCap",
          "type": "uint256"
        }
      ],
      "stateMutability": "nonpayable",
      "type": "constructor"
    },
    {
      "inputs": [],
      "name": "AccessControlBadConfirmation",
      "type": "error"
    },
    {
      "inputs": [
        {
          "internalType": "address",
          "name": "account",
          "type": "address"
        },
        {
          "internalType": "bytes32",
          "name": "neededRole",
          "type": "bytes32"
        }
      ],
      "name": "AccessControlUnauthorizedAccount",
      "type": "error"
    },
    {
      "inputs": [
        {
          "internalType": "uint256",
          "name": "increasedSupply",
          "type": "uint256"
        },
        {
          "internalType": "uint256",
          "name": "cap",
          "type": "uint256"
        }
      ],
      "name": "ERC20ExceededCap",
      "type": "error"
    },
    {
      "inputs": [
        {
          "internalType": "address",
          "name": "spender",
          "type": "address"
        },
        {
          "internalType": "uint256",
          "name": "allowance",
          "type": "uint256"
        },
        {
          "internalType": "uint256",
          "name": "needed",
          "type": "uint256"
        }
      ],
      "name": "ERC20InsufficientAllowance",
      "type": "error"
    },
    {
      "inputs": [
        {
          "internalType": "address",
          "name": "sender",
          "type": "address"
        },
        {
          "internalType": "uint256",
          "name": "balance",
          "type": "uint256"
        },
        {
          "internalType": "uint256",
          "name": "needed",
          "type": "uint256"
        }
      ],
      "name": "ERC20InsufficientBalance",
      "type": "error"
    },
    {
      "inputs": [
        {
          "internalType": "address",
          "name": "approver",
          "type": "address"
        }
      ],
      "name": "ERC20InvalidApprover",
      "type": "error"
    },
    {
      "inputs": [
        {
          "internalType": "uint256",
          "name": "cap",
          "type": "uint256"
        }
      ],
      "name": "ERC20InvalidCap",
      "type": "error"
    },
    {
      "inputs": [
        {
          "internalType": "address",
          "name": "receiver",
          "type": "address"
        }
      ],
      "name": "ERC20InvalidReceiver",
      "type": "error"
    },
    {
      "inputs": [
        {
          "internalType": "address",
          "name": "sender",
          "type": "address"
        }
      ],
      "name": "ERC20InvalidSender",
      "type": "error"
    },
    {
      "inputs": [
        {
          "internalType": "address",
          "name": "spender",
          "type": "address"
        }
      ],
      "name": "ERC20InvalidSpender",
      "type": "error"
    },
    {
      "anonymous": false,
      "inputs": [
        {
          "indexed": true,
          "internalType": "address",
          "name": "owner",
          "type": "address"
        },
        {
          "indexed": true,
          "internalType": "address",
          "name": "spender",
          "type": "address"
        },
        {
          "indexed": false,
          "internalType": "uint256",
          "name": "value",
          "type": "uint256"
        }
      ],
      "name": "Approval",
      "type": "event"
    },
    {
      "anonymous": false,
      "inputs": [
        {
          "indexed": false,
          "internalType": "uint256",
          "name": "finalCap",
          "type": "uint256"
        }
      ],
      "name": "CapFinalized",
      "type": "event"
    },
    {
      "anonymous": false,
      "inputs": [
        {
          "indexed": false,
          "internalType": "uint256",
          "name": "newCap",
          "type": "uint256"
        }
      ],
      "name": "CapSet",
      "type": "event"
    },
    {
      "anonymous": false,
      "inputs": [
        {
          "indexed": true,
          "internalType": "bytes32",
          "name": "role",
          "type": "bytes32"
        },
        {
          "indexed": true,
          "internalType": "bytes32",
          "name": "previousAdminRole",
          "type": "bytes32"
        },
        {
          "indexed": true,
          "internalType": "bytes32",
          "name": "newAdminRole",
          "type": "bytes32"
        }
      ],
      "name": "RoleAdminChanged",
      "type": "event"
    },
    {
      "anonymous": false,
      "inputs": [
        {
          "indexed": true,
          "internalType": "bytes32",
          "name": "role",
          "type": "bytes32"
        },
        {
          "indexed": true,
          "internalType": "address",
          "name": "account",
          "type": "address"
        },
        {
          "indexed": true,
          "internalType": "address",
          "name": "sender",
          "type": "address"
        }
      ],
      "name": "RoleGranted",
      "type": "event"
    },
    {
      "anonymous": false,
      "inputs": [
        {
          "indexed": true,
          "internalType": "bytes32",
          "name": "role",
          "type": "bytes32"
        },
        {
          "indexed": true,
          "internalType": "address",
          "name": "account",
          "type": "address"
        },
        {
          "indexed": true,
          "internalType": "address",
          "name": "sender",
          "type": "address"
        }
      ],
      "name": "RoleRevoked",
      "type": "event"
    },
    {
      "anonymous": false,
      "inputs": [
        {
          "indexed": true,
          "internalType": "address",
          "name": "from",
          "type": "address"
        },
        {
          "indexed": true,
          "internalType": "address",
          "name": "to",
          "type": "address"
        },
        {
          "indexed": false,
          "internalType": "uint256",
          "name": "value",
          "type": "uint256"
        }
      ],
      "name": "Transfer",
      "type": "event"
    },
    {
      "inputs": [],
      "name": "CAP_SETTER_ROLE",
      "outputs": [
        {
          "internalType": "bytes32",
          "name": "",
          "type": "bytes32"
        }
      ],
      "stateMutability": "view",
      "type": "function"
    },
    {
      "inputs": [],
      "name": "DEFAULT_ADMIN_ROLE",
      "outputs": [
        {
          "internalType": "bytes32",
          "name": "",
          "type": "bytes32"
        }
      ],
      "stateMutability": "view",
      "type": "function"
    },
    {
      "inputs": [],
      "name": "MINTER_ROLE",
      "outputs": [
        {
          "internalType": "bytes32",
          "name": "",
          "type": "bytes32"
        }
      ],
      "stateMutability": "view",
      "type": "function"
    },
    {
      "inputs": [
        {
          "internalType": "address",
          "name": "owner",
          "type": "address"
        },
        {
          "internalType": "address",
          "name": "spender",
          "type": "address"
        }
      ],
      "name": "allowance",
      "outputs": [
        {
          "internalType": "uint256",
          "name": "",
          "type": "uint256"
        }
      ],
      "stateMutability": "view",
      "type": "function"
    },
    {
      "inputs": [
        {
          "internalType": "address",
          "name": "spender",
          "type": "address"
        },
        {
          "internalType": "uint256",
          "name": "value",
          "type": "uint256"
        }
      ],
      "name": "approve",
      "outputs": [
        {
          "internalType": "bool",
          "name": "",
          "type": "bool"
        }
      ],
      "stateMutability": "nonpayable",
      "type": "function"
    },
    {
      "inputs": [
        {
          "internalType": "address",
          "name": "account",
          "type": "address"
        }
      ],
      "name": "balanceOf",
      "outputs": [
        {
          "internalType": "uint256",
          "name": "",
          "type": "uint256"
        }
      ],
      "stateMutability": "view",
      "type": "function"
    },
    {
      "inputs": [
        {
          "internalType": "address[]",
          "name": "recipients",
          "type": "address[]"
        },
        {
          "internalType": "uint256[]",
          "name": "amounts",
          "type": "uint256[]"
        }
      ],
      "name": "batchMint",
      "outputs": [],
      "stateMutability": "nonpayable",
      "type": "function"
    },
    {
      "inputs": [],
      "name": "cap",
      "outputs": [
        {
          "internalType": "uint256",
          "name": "",
          "type": "uint256"
        }
      ],
      "stateMutability": "view",
      "type": "function"
    },
    {
      "inputs": [],
      "name": "capFinalized",
      "outputs": [
        {
          "internalType": "bool",
          "name": "",
          "type": "bool"
        }
      ],
      "stateMutability": "view",
      "type": "function"
    },
    {
      "inputs": [],
      "name": "decimals",
      "outputs": [
        {
          "internalType": "uint8",
          "name": "",
          "type": "uint8"
        }
      ],
      "stateMutability": "view",
      "type": "function"
    },
    {
      "inputs": [],
      "name": "finalCap",
      "outputs": [
        {
          "internalType": "uint256",
          "name": "",
          "type": "uint256"
        }
      ],
      "stateMutability": "view",
      "type": "function"
    },
    {
      "inputs": [
        {
          "internalType": "bytes32",
          "name": "role",
          "type": "bytes32"
        }
      ],
      "name": "getRoleAdmin",
      "outputs": [
        {
          "internalType": "bytes32",
          "name": "",
          "type": "bytes32"
        }
      ],
      "stateMutability": "view",
      "type": "function"
    },
    {
      "inputs": [
        {
          "internalType": "bytes32",
          "name": "role",
          "type": "bytes32"
        },
        {
          "internalType": "address",
          "name": "account",
          "type": "address"
        }
      ],
      "name": "grantRole",
      "outputs": [],
      "stateMutability": "nonpayable",
      "type": "function"
    },
    {
      "inputs": [
        {
          "internalType": "bytes32",
          "name": "role",
          "type": "bytes32"
        },
        {
          "internalType": "address",
          "name": "account",
          "type": "address"
        }
      ],
      "name": "hasRole",
      "outputs": [
        {
          "internalType": "bool",
          "name": "",
          "type": "bool"
        }
      ],
      "stateMutability": "view",
      "type": "function"
    },
    {
      "inputs": [
        {
          "internalType": "address",
          "name": "to",
          "type": "address"
        },
        {
          "internalType": "uint256",
          "name": "amount",
          "type": "uint256"
        }
      ],
      "name": "mint",
      "outputs": [],
      "stateMutability": "nonpayable",
      "type": "function"
    },
    {
      "inputs": [],
      "name": "name",
      "outputs": [
        {
          "internalType": "string",
          "name": "",
          "type": "string"
        }
      ],
      "stateMutability": "view",
      "type": "function"
    },
    {
      "inputs": [
        {
          "internalType": "bytes32",
          "name": "role",
          "type": "bytes32"
        },
        {
          "internalType": "address",
          "name": "callerConfirmation",
          "type": "address"
        }
      ],
      "name": "renounceRole",
      "outputs": [],
      "stateMutability": "nonpayable",
      "type": "function"
    },
    {
      "inputs": [
        {
          "internalType": "bytes32",
          "name": "role",
          "type": "bytes32"
        },
        {
          "internalType": "address",
          "name": "account",
          "type": "address"
        }
      ],
      "name": "revokeRole",
      "outputs": [],
      "stateMutability": "nonpayable",
      "type": "function"
    },
    {
      "inputs": [
        {
          "internalType": "uint256",
          "name": "newCap",
          "type": "uint256"
        }
      ],
      "name": "setFinalCap",
      "outputs": [],
      "stateMutability": "nonpayable",
      "type": "function"
    },
    {
      "inputs": [
        {
          "internalType": "bytes4",
          "name": "interfaceId",
          "type": "bytes4"
        }
      ],
      "name": "supportsInterface",
      "outputs": [
        {
          "internalType": "bool",
          "name": "",
          "type": "bool"
        }
      ],
      "stateMutability": "view",
      "type": "function"
    },
    {
      "inputs": [],
      "name": "symbol",
      "outputs": [
        {
          "internalType": "string",
          "name": "",
          "type": "string"
        }
      ],
      "stateMutability": "view",
      "type": "function"
    },
    {
      "inputs": [],
      "name": "totalSupply",
      "outputs": [
        {
          "internalType": "uint256",
          "name": "",
          "type": "uint256"
        }
      ],
      "stateMutability": "view",
      "type": "function"
    },
    {
      "inputs": [
        {
          "internalType": "address",
          "name": "to",
          "type": "address"
        },
        {
          "internalType": "uint256",
          "name": "value",
          "type": "uint256"
        }
      ],
      "name": "transfer",
      "outputs": [
        {
          "internalType": "bool",
          "name": "",
          "type": "bool"
        }
      ],
      "stateMutability": "nonpayable",
      "type": "function"
    },
    {
      "inputs": [
        {
          "internalType": "address",
          "name": "from",
          "type": "address"
        },
        {
          "internalType": "address",
          "name": "to",
          "type": "address"
        },
        {
          "internalType": "uint256",
          "name": "value",
          "type": "uint256"
        }
      ],
      "name": "transferFrom",
      "outputs": [
        {
          "internalType": "bool",
          "name": "",
          "type": "bool"
        }
      ],
      "stateMutability": "nonpayable",
      "type": "function"
    }
  ],
  "bytecode": "0x60a060405234801561001057600080fd5b5060405161170238038061170283398101604081905261002f91610230565b808383600361003e838261032b565b50600461004b828261032b565b505050806000036100765760405163392e1e2760e01b81526000600482015260240160405180910390fd5b6080526100846000336100c7565b506100af7f1274f5ba296ef8f0b6bf00056f3691bb6d3053e061d99a0e9b0a263c419810e8336100c7565b5050600060065550506007805460ff191690556103e9565b60008281526005602090815260408083206001600160a01b038516845290915281205460ff1661016d5760008381526005602090815260408083206001600160a01b03861684529091529020805460ff191660011790556101253390565b6001600160a01b0316826001600160a01b0316847f2f8788117e7eff1d82e926ec794901d17c78024a50270940304540a733656f0d60405160405180910390a4506001610171565b5060005b92915050565b634e487b7160e01b600052604160045260246000fd5b600082601f83011261019e57600080fd5b81516001600160401b038111156101b7576101b7610177565b604051601f8201601f19908116603f011681016001600160401b03811182821017156101e5576101e5610177565b6040528181528382016020018510156101fd57600080fd5b60005b8281101561021c57602081860181015183830182015201610200565b506000918101602001919091529392505050565b60008060006060848603121561024557600080fd5b83516001600160401b0381111561025b57600080fd5b6102678682870161018d565b602086015190945090506001600160401b0381111561028557600080fd5b6102918682870161018d565b925050604084015190509250925092565b600181811c908216806102b657607f821691505b6020821081036102d657634e487b7160e01b600052602260045260246000fd5b50919050565b601f82111561032657806000526020600020601f840160051c810160208510156103035750805b601f840160051c820191505b81811015610323576000815560010161030f565b50505b505050565b81516001600160401b0381111561034457610344610177565b6103588161035284546102a2565b846102dc565b6020601f82116001811461038c57600083156103745750848201515b600019600385901b1c1916600184901b178455610323565b600084815260208120601f198516915b828110156103bc578785015182556020948501946001909201910161039c565b50848210156103da5786840151600019600387901b60f8161c191681555b50505050600190811b01905550565b6080516112fe610404600039600061058901526112fe6000f3fe608060405234801561001057600080fd5b50600436106101985760003560e01c806368573107116100e3578063a9059cbb1161008c578063dd62ed3e11610066578063dd62ed3e14610374578063ead0f75a146103ad578063f58bfed3146103b857600080fd5b8063a9059cbb14610327578063d53913931461033a578063d547741f1461036157600080fd5b806391d14854116100bd57806391d14854146102de57806395d89b4114610317578063a217fddf1461031f57600080fd5b8063685731071461028f57806370a08231146102a25780637e8fab59146102cb57600080fd5b80632f2ff15d1161014557806335fb337c1161011f57806335fb337c1461026157806336568abe1461026957806340c10f191461027c57600080fd5b80632f2ff15d14610235578063313ce5671461024a578063355274ea1461025957600080fd5b806318160ddd1161017657806318160ddd146101ed57806323b872dd146101ff578063248a9ca31461021257600080fd5b806301ffc9a71461019d57806306fdde03146101c5578063095ea7b3146101da575b600080fd5b6101b06101ab366004610ff6565b6103df565b60405190151581526020015b60405180910390f35b6101cd610478565b6040516101bc919061103f565b6101b06101e83660046110a9565b61050a565b6002545b6040519081526020016101bc565b6101b061020d3660046110d3565b610522565b6101f1610220366004611110565b60009081526005602052604090206001015490565b610248610243366004611129565b610546565b005b604051601281526020016101bc565b6101f1610571565b6006546101f1565b610248610277366004611129565b6105ab565b61024861028a3660046110a9565b6105fc565b61024861029d3660046111a1565b61069f565b6101f16102b0366004611212565b6001600160a01b031660009081526020819052604090205490565b6102486102d9366004611110565b610821565b6101b06102ec366004611129565b60009182526005602090815260408084206001600160a01b0393909316845291905290205460ff1690565b6101cd6109e1565b6101f1600081565b6101b06103353660046110a9565b6109f0565b6101f17f9f2df0fed2c77648de5860a4cc508cd0818c85b8b8a1ab4ceeef8d981c8956a681565b61024861036f366004611129565b6109fe565b6101f161038236600461122d565b6001600160a01b03918216600090815260016020908152604080832093909416825291909152205490565b60075460ff166101b0565b6101f17f1274f5ba296ef8f0b6bf00056f3691bb6d3053e061d99a0e9b0a263c419810e881565b60007fffffffff0000000000000000000000000000000000000000000000000000000082167f7965db0b00000000000000000000000000000000000000000000000000000000148061047257507f01ffc9a7000000000000000000000000000000000000000000000000000000007fffffffff000000000000000000000000000000000000000000000000000000008316145b92915050565b60606003805461048790611257565b80601f01602080910402602001604051908101604052809291908181526020018280546104b390611257565b80156105005780601f106104d557610100808354040283529160200191610500565b820191906000526020600020905b8154815290600101906020018083116104e357829003601f168201915b5050505050905090565b600033610518818585610a23565b5060019392505050565b600033610530858285610a30565b61053b858585610ac2565b506001949350505050565b60008281526005602052604090206001015461056181610b3a565b61056b8383610b47565b50505050565b60075460009060ff1615610586575060065490565b507f000000000000000000000000000000000000000000000000000000000000000090565b6001600160a01b03811633146105ed576040517f6697b23200000000000000000000000000000000000000000000000000000000815260040160405180910390fd5b6105f78282610bf5565b505050565b7f9f2df0fed2c77648de5860a4cc508cd0818c85b8b8a1ab4ceeef8d981c8956a661062681610b3a565b61062e610571565b8261063860025490565b6106429190611291565b11156106955760405162461bcd60e51b815260206004820152601660248201527f434c44546f6b656e3a204361702065786365656465640000000000000000000060448201526064015b60405180910390fd5b6105f78383610c7c565b7f9f2df0fed2c77648de5860a4cc508cd0818c85b8b8a1ab4ceeef8d981c8956a66106c981610b3a565b8382146107185760405162461bcd60e51b815260206004820152601f60248201527f434c44546f6b656e3a204172726179206c656e677468206d69736d6174636800604482015260640161068c565b6000805b8381101561075257848482818110610736576107366112b2565b90506020020135826107489190611291565b915060010161071c565b5061075b610571565b8161076560025490565b61076f9190611291565b11156107bd5760405162461bcd60e51b815260206004820152601660248201527f434c44546f6b656e3a2043617020657863656564656400000000000000000000604482015260640161068c565b60005b85811015610818576108108787838181106107dd576107dd6112b2565b90506020020160208101906107f29190611212565b868684818110610804576108046112b2565b90506020020135610c7c565b6001016107c0565b50505050505050565b7f1274f5ba296ef8f0b6bf00056f3691bb6d3053e061d99a0e9b0a263c419810e861084b81610b3a565b60075460ff161561089e5760405162461bcd60e51b815260206004820152601f60248201527f434c44546f6b656e3a2043617020616c72656164792066696e616c697a656400604482015260640161068c565b600082116109145760405162461bcd60e51b815260206004820152602760248201527f434c44546f6b656e3a20436170206d757374206265206772656174657220746860448201527f616e207a65726f00000000000000000000000000000000000000000000000000606482015260840161068c565b61091c610571565b8211156109915760405162461bcd60e51b815260206004820152602f60248201527f434c44546f6b656e3a2046696e616c206361702063616e6e6f7420657863656560448201527f642074656d706f72617279206361700000000000000000000000000000000000606482015260840161068c565b60068290556007805460ff191660011790556040517febb8c49a6d23fb9852b542c4cacc498f2cc1c7e54e54b1d896116a337ca9c18d906109d59084815260200190565b60405180910390a15050565b60606004805461048790611257565b600033610518818585610ac2565b600082815260056020526040902060010154610a1981610b3a565b61056b8383610bf5565b6105f78383836001610cb6565b6001600160a01b0383811660009081526001602090815260408083209386168352929052205460001981101561056b5781811015610ab3576040517ffb8f41b20000000000000000000000000000000000000000000000000000000081526001600160a01b0384166004820152602481018290526044810183905260640161068c565b61056b84848484036000610cb6565b6001600160a01b038316610b05576040517f96c6fd1e0000000000000000000000000000000000000000000000000000000081526000600482015260240161068c565b6001600160a01b038216610b2f5760405163ec442f0560e01b81526000600482015260240161068c565b6105f7838383610dbd565b610b448133610dc8565b50565b60008281526005602090815260408083206001600160a01b038516845290915281205460ff16610bed5760008381526005602090815260408083206001600160a01b03861684529091529020805460ff19166001179055610ba53390565b6001600160a01b0316826001600160a01b0316847f2f8788117e7eff1d82e926ec794901d17c78024a50270940304540a733656f0d60405160405180910390a4506001610472565b506000610472565b60008281526005602090815260408083206001600160a01b038516845290915281205460ff1615610bed5760008381526005602090815260408083206001600160a01b0386168085529252808320805460ff1916905551339286917ff6391f5c32d9c69d2a47ea670b442974b53935d1edc7fd64eb21e047a839171b9190a4506001610472565b6001600160a01b038216610ca65760405163ec442f0560e01b81526000600482015260240161068c565b610cb260008383610dbd565b5050565b6001600160a01b038416610cf9576040517fe602df050000000000000000000000000000000000000000000000000000000081526000600482015260240161068c565b6001600160a01b038316610d3c576040517f94280d620000000000000000000000000000000000000000000000000000000081526000600482015260240161068c565b6001600160a01b038085166000908152600160209081526040808320938716835292905220829055801561056b57826001600160a01b0316846001600160a01b03167f8c5be1e5ebec7d5bd14f71427d1e84f3dd0314c0f7b2291e5b200ac8c7c3b92584604051610daf91815260200190565b60405180910390a350505050565b6105f7838383610e36565b60008281526005602090815260408083206001600160a01b038516845290915290205460ff16610cb2576040517fe2517d3f0000000000000000000000000000000000000000000000000000000081526001600160a01b03821660048201526024810183905260440161068c565b610e41838383610eb3565b6001600160a01b0383166105f7576000610e59610571565b90506000610e6660025490565b905081811115610eac576040517f9e79f854000000000000000000000000000000000000000000000000000000008152600481018290526024810183905260440161068c565b5050505050565b6001600160a01b038316610ede578060026000828254610ed39190611291565b90915550610f699050565b6001600160a01b03831660009081526020819052604090205481811015610f4a576040517fe450d38c0000000000000000000000000000000000000000000000000000000081526001600160a01b0385166004820152602481018290526044810183905260640161068c565b6001600160a01b03841660009081526020819052604090209082900390555b6001600160a01b038216610f8557600280548290039055610fa4565b6001600160a01b03821660009081526020819052604090208054820190555b816001600160a01b0316836001600160a01b03167fddf252ad1be2c89b69c2b068fc378daa952ba7f163c4a11628f55a4df523b3ef83604051610fe991815260200190565b60405180910390a3505050565b60006020828403121561100857600080fd5b81357fffffffff000000000000000000000000000000000000000000000000000000008116811461103857600080fd5b9392505050565b602081526000825180602084015260005b8181101561106d5760208186018101516040868401015201611050565b506000604082850101526040601f19601f83011684010191505092915050565b80356001600160a01b03811681146110a457600080fd5b919050565b600080604083850312156110bc57600080fd5b6110c58361108d565b946020939093013593505050565b6000806000606084860312156110e857600080fd5b6110f18461108d565b92506110ff6020850161108d565b929592945050506040919091013590565b60006020828403121561112257600080fd5b5035919050565b6000806040838503121561113c57600080fd5b8235915061114c6020840161108d565b90509250929050565b60008083601f84011261116757600080fd5b50813567ffffffffffffffff81111561117f57600080fd5b6020830191508360208260051b850101111561119a57600080fd5b9250929050565b600080600080604085870312156111b757600080fd5b843567ffffffffffffffff8111156111ce57600080fd5b6111da87828801611155565b909550935050602085013567ffffffffffffffff8111156111fa57600080fd5b61120687828801611155565b95989497509550505050565b60006020828403121561122457600080fd5b6110388261108d565b6000806040838503121561124057600080fd5b6112498361108d565b915061114c6020840161108d565b600181811c9082168061126b57607f821691505b60208210810361128b57634e487b7160e01b600052602260045260246000fd5b50919050565b8082018082111561047257634e487b7160e01b600052601160045260246000fd5b634e487b7160e01b600052603260045260246000fdfea264697066735822122068fea37bed008432722ed1e55a04637cc1e7c72b5ecc82c88e0fdf9b36ae516064736f6c634300081c0033",
  "linkReferences": {},
  "deployedLinkReferences": {}
}