{
  "_format": "hh-sol-artifact-1",
  "contractName": "GasBank",
  "sourceName": "contracts/GasBank.sol",
  "abi": [
    {
      "inputs": [
        {
          "internalType": "address",
          "name": "_config",
          "type": "address"
        }
      ],
      "stateMutability": "nonpayable",
      "type": "constructor"
    },
    {
      "inputs": [],
      "name": "AccessControlBadConfirmation",
      "type": "error"
    },
    {
      "inputs": [
        {
          "internalType": "address",
          "name": "account",
          "type": "address"
        },
        {
          "internalType": "bytes32",
          "name": "neededRole",
          "type": "bytes32"
        }
      ],
      "name": "AccessControlUnauthorizedAccount",
      "type": "error"
    },
    {
      "anonymous": false,
      "inputs": [
        {
          "indexed": false,
          "internalType": "uint256",
          "name": "day",
          "type": "uint256"
        },
        {
          "indexed": false,
          "internalType": "uint256",
          "name": "newLimit",
          "type": "uint256"
        }
      ],
      "name": "DailyLimitReset",
      "type": "event"
    },
    {
      "anonymous": false,
      "inputs": [
        {
          "indexed": true,
          "internalType": "address",
          "name": "from",
          "type": "address"
        },
        {
          "indexed": false,
          "internalType": "uint256",
          "name": "amount",
          "type": "uint256"
        }
      ],
      "name": "ETHDeposited",
      "type": "event"
    },
    {
      "anonymous": false,
      "inputs": [
        {
          "indexed": true,
          "internalType": "address",
          "name": "to",
          "type": "address"
        },
        {
          "indexed": false,
          "internalType": "uint256",
          "name": "amount",
          "type": "uint256"
        },
        {
          "indexed": true,
          "internalType": "address",
          "name": "relayer",
          "type": "address"
        }
      ],
      "name": "ETHWithdrawn",
      "type": "event"
    },
    {
      "anonymous": false,
      "inputs": [
        {
          "indexed": true,
          "internalType": "address",
          "name": "relayer",
          "type": "address"
        },
        {
          "indexed": false,
          "internalType": "bool",
          "name": "whitelisted",
          "type": "bool"
        }
      ],
      "name": "RelayerWhitelisted",
      "type": "event"
    },
    {
      "anonymous": false,
      "inputs": [
        {
          "indexed": true,
          "internalType": "bytes32",
          "name": "role",
          "type": "bytes32"
        },
        {
          "indexed": true,
          "internalType": "bytes32",
          "name": "previousAdminRole",
          "type": "bytes32"
        },
        {
          "indexed": true,
          "internalType": "bytes32",
          "name": "newAdminRole",
          "type": "bytes32"
        }
      ],
      "name": "RoleAdminChanged",
      "type": "event"
    },
    {
      "anonymous": false,
      "inputs": [
        {
          "indexed": true,
          "internalType": "bytes32",
          "name": "role",
          "type": "bytes32"
        },
        {
          "indexed": true,
          "internalType": "address",
          "name": "account",
          "type": "address"
        },
        {
          "indexed": true,
          "internalType": "address",
          "name": "sender",
          "type": "address"
        }
      ],
      "name": "RoleGranted",
      "type": "event"
    },
    {
      "anonymous": false,
      "inputs": [
        {
          "indexed": true,
          "internalType": "bytes32",
          "name": "role",
          "type": "bytes32"
        },
        {
          "indexed": true,
          "internalType": "address",
          "name": "account",
          "type": "address"
        },
        {
          "indexed": true,
          "internalType": "address",
          "name": "sender",
          "type": "address"
        }
      ],
      "name": "RoleRevoked",
      "type": "event"
    },
    {
      "inputs": [],
      "name": "DEFAULT_ADMIN_ROLE",
      "outputs": [
        {
          "internalType": "bytes32",
          "name": "",
          "type": "bytes32"
        }
      ],
      "stateMutability": "view",
      "type": "function"
    },
    {
      "inputs": [],
      "name": "FUNDER_ROLE",
      "outputs": [
        {
          "internalType": "bytes32",
          "name": "",
          "type": "bytes32"
        }
      ],
      "stateMutability": "view",
      "type": "function"
    },
    {
      "inputs": [],
      "name": "RELAYER_ROLE",
      "outputs": [
        {
          "internalType": "bytes32",
          "name": "",
          "type": "bytes32"
        }
      ],
      "stateMutability": "view",
      "type": "function"
    },
    {
      "inputs": [],
      "name": "config",
      "outputs": [
        {
          "internalType": "contract Config",
          "name": "",
          "type": "address"
        }
      ],
      "stateMutability": "view",
      "type": "function"
    },
    {
      "inputs": [],
      "name": "depositETH",
      "outputs": [],
      "stateMutability": "payable",
      "type": "function"
    },
    {
      "inputs": [],
      "name": "getETHBalance",
      "outputs": [
        {
          "internalType": "uint256",
          "name": "",
          "type": "uint256"
        }
      ],
      "stateMutability": "view",
      "type": "function"
    },
    {
      "inputs": [],
      "name": "getRemainingDailyLimit",
      "outputs": [
        {
          "internalType": "uint256",
          "name": "",
          "type": "uint256"
        }
      ],
      "stateMutability": "view",
      "type": "function"
    },
    {
      "inputs": [
        {
          "internalType": "bytes32",
          "name": "role",
          "type": "bytes32"
        }
      ],
      "name": "getRoleAdmin",
      "outputs": [
        {
          "internalType": "bytes32",
          "name": "",
          "type": "bytes32"
        }
      ],
      "stateMutability": "view",
      "type": "function"
    },
    {
      "inputs": [
        {
          "internalType": "bytes32",
          "name": "role",
          "type": "bytes32"
        },
        {
          "internalType": "address",
          "name": "account",
          "type": "address"
        }
      ],
      "name": "grantRole",
      "outputs": [],
      "stateMutability": "nonpayable",
      "type": "function"
    },
    {
      "inputs": [
        {
          "internalType": "bytes32",
          "name": "role",
          "type": "bytes32"
        },
        {
          "internalType": "address",
          "name": "account",
          "type": "address"
        }
      ],
      "name": "hasRole",
      "outputs": [
        {
          "internalType": "bool",
          "name": "",
          "type": "bool"
        }
      ],
      "stateMutability": "view",
      "type": "function"
    },
    {
      "inputs": [],
      "name": "lastResetDay",
      "outputs": [
        {
          "internalType": "uint256",
          "name": "",
          "type": "uint256"
        }
      ],
      "stateMutability": "view",
      "type": "function"
    },
    {
      "inputs": [
        {
          "internalType": "bytes32",
          "name": "role",
          "type": "bytes32"
        },
        {
          "internalType": "address",
          "name": "callerConfirmation",
          "type": "address"
        }
      ],
      "name": "renounceRole",
      "outputs": [],
      "stateMutability": "nonpayable",
      "type": "function"
    },
    {
      "inputs": [
        {
          "internalType": "bytes32",
          "name": "role",
          "type": "bytes32"
        },
        {
          "internalType": "address",
          "name": "account",
          "type": "address"
        }
      ],
      "name": "revokeRole",
      "outputs": [],
      "stateMutability": "nonpayable",
      "type": "function"
    },
    {
      "inputs": [],
      "name": "spentToday",
      "outputs": [
        {
          "internalType": "uint256",
          "name": "",
          "type": "uint256"
        }
      ],
      "stateMutability": "view",
      "type": "function"
    },
    {
      "inputs": [
        {
          "internalType": "bytes4",
          "name": "interfaceId",
          "type": "bytes4"
        }
      ],
      "name": "supportsInterface",
      "outputs": [
        {
          "internalType": "bool",
          "name": "",
          "type": "bool"
        }
      ],
      "stateMutability": "view",
      "type": "function"
    },
    {
      "inputs": [
        {
          "internalType": "address",
          "name": "relayer",
          "type": "address"
        },
        {
          "internalType": "bool",
          "name": "whitelisted",
          "type": "bool"
        }
      ],
      "name": "whitelistRelayer",
      "outputs": [],
      "stateMutability": "nonpayable",
      "type": "function"
    },
    {
      "inputs": [
        {
          "internalType": "address",
          "name": "",
          "type": "address"
        }
      ],
      "name": "whitelistedRelayers",
      "outputs": [
        {
          "internalType": "bool",
          "name": "",
          "type": "bool"
        }
      ],
      "stateMutability": "view",
      "type": "function"
    },
    {
      "inputs": [
        {
          "internalType": "address payable",
          "name": "to",
          "type": "address"
        },
        {
          "internalType": "uint256",
          "name": "amount",
          "type": "uint256"
        }
      ],
      "name": "withdrawForRelay",
      "outputs": [],
      "stateMutability": "nonpayable",
      "type": "function"
    },
    {
      "stateMutability": "payable",
      "type": "receive"
    }
  ],
  "bytecode": "0x60a060405234801561001057600080fd5b5060405161115538038061115583398101604081905261002f916101ba565b6001600160a01b0381166100895760405162461bcd60e51b815260206004820152601f60248201527f47617342616e6b3a20496e76616c696420636f6e666967206164647265737300604482015260640160405180910390fd5b6001600160a01b0381166080526100a160003361010e565b506100cc7f0914bb97ca83e85ef385857d9d418f187ff630589e0c9f44db92976d8e4519cb3361010e565b506100f77fe2b7fb3b832174769106daebcfd6d1970523240dda11281102db9363b83b0dc43361010e565b5061010562015180426101ea565b6003555061020c565b6000828152602081815260408083206001600160a01b038516845290915281205460ff166101b0576000838152602081815260408083206001600160a01b03861684529091529020805460ff191660011790556101683390565b6001600160a01b0316826001600160a01b0316847f2f8788117e7eff1d82e926ec794901d17c78024a50270940304540a733656f0d60405160405180910390a45060016101b4565b5060005b92915050565b6000602082840312156101cc57600080fd5b81516001600160a01b03811681146101e357600080fd5b9392505050565b60008261020757634e487b7160e01b600052601260045260246000fd5b500490565b608051610f12610243600039600081816102d2015281816105f001528181610923015281816109ad0152610b0a0152610f126000f3fe60806040526004361061012d5760003560e01c806379502c55116100a5578063a15f39e811610074578063d547741f11610059578063d547741f146103de578063f059cf2b146103fe578063f6326fb31461041457600080fd5b8063a15f39e8146103b4578063a217fddf146103c957600080fd5b806379502c55146102c057806391d148541461030c578063926d7d7f14610350578063928dbe851461038457600080fd5b8063248a9ca3116100fc57806334aedecd116100e157806334aedecd1461025957806336568abe1461028d5780636e947298146102ad57600080fd5b8063248a9ca3146102095780632f2ff15d1461023957600080fd5b806301ffc9a71461016e5780631259a5c8146101a3578063126ccd2d146101c75780632384fc74146101e957600080fd5b366101695760405134815233907f6c703791f399558807424f489ccd811c72b4ff0b74af547264fad7c646776df09060200160405180910390a2005b600080fd5b34801561017a57600080fd5b5061018e610189366004610d42565b61041c565b60405190151581526020015b60405180910390f35b3480156101af57600080fd5b506101b960035481565b60405190815260200161019a565b3480156101d357600080fd5b506101e76101e2366004610da0565b6104b5565b005b3480156101f557600080fd5b506101e7610204366004610dcc565b61081e565b34801561021557600080fd5b506101b9610224366004610e0a565b60009081526020819052604090206001015490565b34801561024557600080fd5b506101e7610254366004610e23565b610889565b34801561026557600080fd5b506101b97f0914bb97ca83e85ef385857d9d418f187ff630589e0c9f44db92976d8e4519cb81565b34801561029957600080fd5b506101e76102a8366004610e23565b6108b4565b3480156102b957600080fd5b50476101b9565b3480156102cc57600080fd5b506102f47f000000000000000000000000000000000000000000000000000000000000000081565b6040516001600160a01b03909116815260200161019a565b34801561031857600080fd5b5061018e610327366004610e23565b6000918252602082815260408084206001600160a01b0393909316845291905290205460ff1690565b34801561035c57600080fd5b506101b97fe2b7fb3b832174769106daebcfd6d1970523240dda11281102db9363b83b0dc481565b34801561039057600080fd5b5061018e61039f366004610e48565b60016020526000908152604090205460ff1681565b3480156103c057600080fd5b506101b9610905565b3480156103d557600080fd5b506101b9600081565b3480156103ea57600080fd5b506101e76103f9366004610e23565b610a53565b34801561040a57600080fd5b506101b960025481565b6101e7610a78565b60007fffffffff0000000000000000000000000000000000000000000000000000000082167f7965db0b0000000000000000000000000000000000000000000000000000000014806104af57507f01ffc9a7000000000000000000000000000000000000000000000000000000007fffffffff000000000000000000000000000000000000000000000000000000008316145b92915050565b7fe2b7fb3b832174769106daebcfd6d1970523240dda11281102db9363b83b0dc46104df81610aaf565b6001600160a01b03831661053a5760405162461bcd60e51b815260206004820152601a60248201527f47617342616e6b3a20496e76616c696420726563697069656e7400000000000060448201526064015b60405180910390fd5b6001600160a01b03831660009081526001602052604090205460ff168061059857506001600160a01b03831660009081527ffaf93c3d007e112089dc8351e013e6685ef67703975d0224b26fc45941d4f1f5602052604090205460ff165b6105e45760405162461bcd60e51b815260206004820181905260248201527f47617342616e6b3a2052656c61796572206e6f742077686974656c69737465646044820152606401610531565b6105ec610abc565b60007f00000000000000000000000000000000000000000000000000000000000000006001600160a01b031663da3b4b496040518163ffffffff1660e01b8152600401602060405180830381865afa15801561064c573d6000803e3d6000fd5b505050506040513d601f19601f820116820180604052508101906106709190610e65565b905080836002546106819190610e94565b11156106cf5760405162461bcd60e51b815260206004820152601d60248201527f47617342616e6b3a204461696c79206c696d69742065786365656465640000006044820152606401610531565b8247101561071f5760405162461bcd60e51b815260206004820152601d60248201527f47617342616e6b3a20496e73756666696369656e742062616c616e63650000006044820152606401610531565b82600260008282546107319190610e94565b90915550506040516000906001600160a01b0386169085908381818185875af1925050503d8060008114610781576040519150601f19603f3d011682016040523d82523d6000602084013e610786565b606091505b50509050806107d75760405162461bcd60e51b815260206004820152601c60248201527f47617342616e6b3a20455448207472616e73666572206661696c6564000000006044820152606401610531565b60405184815233906001600160a01b038716907f134d6e96840903022b8e4b57aa0644e9eb6ca6fe65a25205b0857fe918c2bcc69060200160405180910390a35050505050565b600061082981610aaf565b6001600160a01b038316600081815260016020908152604091829020805460ff191686151590811790915591519182527f863009ae39995caa23b32eba163146345d3539356dc4bdaf3c6ae3b96468642d910160405180910390a2505050565b6000828152602081905260409020600101546108a481610aaf565b6108ae8383610ba5565b50505050565b6001600160a01b03811633146108f6576040517f6697b23200000000000000000000000000000000000000000000000000000000815260040160405180910390fd5b6109008282610c4f565b505050565b6000806109156201518042610ea7565b90506003548111156109a9577f00000000000000000000000000000000000000000000000000000000000000006001600160a01b031663da3b4b496040518163ffffffff1660e01b8152600401602060405180830381865afa15801561097f573d6000803e3d6000fd5b505050506040513d601f19601f820116820180604052508101906109a39190610e65565b91505090565b60007f00000000000000000000000000000000000000000000000000000000000000006001600160a01b031663da3b4b496040518163ffffffff1660e01b8152600401602060405180830381865afa158015610a09573d6000803e3d6000fd5b505050506040513d601f19601f82011682018060405250810190610a2d9190610e65565b90506002548111610a3f576000610a4c565b600254610a4c9082610ec9565b9250505090565b600082815260208190526040902060010154610a6e81610aaf565b6108ae8383610c4f565b60405134815233907f6c703791f399558807424f489ccd811c72b4ff0b74af547264fad7c646776df09060200160405180910390a2565b610ab98133610cd2565b50565b6000610acb6201518042610ea7565b9050600354811115610ab9576000600281905550806003819055507fda4e39dd56d72c2ee3d132e0146bc39e905e78e3bc64c40190421c7b2bcef2ab817f00000000000000000000000000000000000000000000000000000000000000006001600160a01b031663da3b4b496040518163ffffffff1660e01b8152600401602060405180830381865afa158015610b66573d6000803e3d6000fd5b505050506040513d601f19601f82011682018060405250810190610b8a9190610e65565b6040805192835260208301919091520160405180910390a150565b6000828152602081815260408083206001600160a01b038516845290915281205460ff16610c47576000838152602081815260408083206001600160a01b03861684529091529020805460ff19166001179055610bff3390565b6001600160a01b0316826001600160a01b0316847f2f8788117e7eff1d82e926ec794901d17c78024a50270940304540a733656f0d60405160405180910390a45060016104af565b5060006104af565b6000828152602081815260408083206001600160a01b038516845290915281205460ff1615610c47576000838152602081815260408083206001600160a01b0386168085529252808320805460ff1916905551339286917ff6391f5c32d9c69d2a47ea670b442974b53935d1edc7fd64eb21e047a839171b9190a45060016104af565b6000828152602081815260408083206001600160a01b038516845290915290205460ff16610d3e576040517fe2517d3f0000000000000000000000000000000000000000000000000000000081526001600160a01b038216600482015260248101839052604401610531565b5050565b600060208284031215610d5457600080fd5b81357fffffffff0000000000000000000000000000000000000000000000000000000081168114610d8457600080fd5b9392505050565b6001600160a01b0381168114610ab957600080fd5b60008060408385031215610db357600080fd5b8235610dbe81610d8b565b946020939093013593505050565b60008060408385031215610ddf57600080fd5b8235610dea81610d8b565b915060208301358015158114610dff57600080fd5b809150509250929050565b600060208284031215610e1c57600080fd5b5035919050565b60008060408385031215610e3657600080fd5b823591506020830135610dff81610d8b565b600060208284031215610e5a57600080fd5b8135610d8481610d8b565b600060208284031215610e7757600080fd5b5051919050565b634e487b7160e01b600052601160045260246000fd5b808201808211156104af576104af610e7e565b600082610ec457634e487b7160e01b600052601260045260246000fd5b500490565b818103818111156104af576104af610e7e56fea2646970667358221220b6799bd082d1e64ebabd0f78dcdf8adcf82d3fefdb400367b2971e065a5c281464736f6c634300081c0033",
  "linkReferences": {},
  "deployedLinkReferences": {}
}