{
  "_format": "hh-sol-artifact-1",
  "contractName": "Treasury",
  "sourceName": "contracts/Treasury.sol",
  "abi": [
    {
      "inputs": [
        {
          "internalType": "address",
          "name": "_token",
          "type": "address"
        }
      ],
      "stateMutability": "nonpayable",
      "type": "constructor"
    },
    {
      "inputs": [],
      "name": "AccessControlBadConfirmation",
      "type": "error"
    },
    {
      "inputs": [
        {
          "internalType": "address",
          "name": "account",
          "type": "address"
        },
        {
          "internalType": "bytes32",
          "name": "neededRole",
          "type": "bytes32"
        }
      ],
      "name": "AccessControlUnauthorizedAccount",
      "type": "error"
    },
    {
      "anonymous": false,
      "inputs": [
        {
          "indexed": true,
          "internalType": "address",
          "name": "from",
          "type": "address"
        },
        {
          "indexed": false,
          "internalType": "uint256",
          "name": "amount",
          "type": "uint256"
        }
      ],
      "name": "ETHDeposited",
      "type": "event"
    },
    {
      "anonymous": false,
      "inputs": [
        {
          "indexed": true,
          "internalType": "address",
          "name": "to",
          "type": "address"
        },
        {
          "indexed": false,
          "internalType": "uint256",
          "name": "amount",
          "type": "uint256"
        }
      ],
      "name": "ETHWithdrawn",
      "type": "event"
    },
    {
      "anonymous": false,
      "inputs": [
        {
          "indexed": true,
          "internalType": "bytes32",
          "name": "role",
          "type": "bytes32"
        },
        {
          "indexed": true,
          "internalType": "bytes32",
          "name": "previousAdminRole",
          "type": "bytes32"
        },
        {
          "indexed": true,
          "internalType": "bytes32",
          "name": "newAdminRole",
          "type": "bytes32"
        }
      ],
      "name": "RoleAdminChanged",
      "type": "event"
    },
    {
      "anonymous": false,
      "inputs": [
        {
          "indexed": true,
          "internalType": "bytes32",
          "name": "role",
          "type": "bytes32"
        },
        {
          "indexed": true,
          "internalType": "address",
          "name": "account",
          "type": "address"
        },
        {
          "indexed": true,
          "internalType": "address",
          "name": "sender",
          "type": "address"
        }
      ],
      "name": "RoleGranted",
      "type": "event"
    },
    {
      "anonymous": false,
      "inputs": [
        {
          "indexed": true,
          "internalType": "bytes32",
          "name": "role",
          "type": "bytes32"
        },
        {
          "indexed": true,
          "internalType": "address",
          "name": "account",
          "type": "address"
        },
        {
          "indexed": true,
          "internalType": "address",
          "name": "sender",
          "type": "address"
        }
      ],
      "name": "RoleRevoked",
      "type": "event"
    },
    {
      "anonymous": false,
      "inputs": [
        {
          "indexed": true,
          "internalType": "address",
          "name": "token",
          "type": "address"
        },
        {
          "indexed": true,
          "internalType": "address",
          "name": "to",
          "type": "address"
        },
        {
          "indexed": false,
          "internalType": "uint256",
          "name": "amount",
          "type": "uint256"
        }
      ],
      "name": "TokenWithdrawn",
      "type": "event"
    },
    {
      "inputs": [],
      "name": "DEFAULT_ADMIN_ROLE",
      "outputs": [
        {
          "internalType": "bytes32",
          "name": "",
          "type": "bytes32"
        }
      ],
      "stateMutability": "view",
      "type": "function"
    },
    {
      "inputs": [],
      "name": "TREASURY_ROLE",
      "outputs": [
        {
          "internalType": "bytes32",
          "name": "",
          "type": "bytes32"
        }
      ],
      "stateMutability": "view",
      "type": "function"
    },
    {
      "inputs": [],
      "name": "depositETH",
      "outputs": [],
      "stateMutability": "payable",
      "type": "function"
    },
    {
      "inputs": [],
      "name": "getETHBalance",
      "outputs": [
        {
          "internalType": "uint256",
          "name": "",
          "type": "uint256"
        }
      ],
      "stateMutability": "view",
      "type": "function"
    },
    {
      "inputs": [
        {
          "internalType": "bytes32",
          "name": "role",
          "type": "bytes32"
        }
      ],
      "name": "getRoleAdmin",
      "outputs": [
        {
          "internalType": "bytes32",
          "name": "",
          "type": "bytes32"
        }
      ],
      "stateMutability": "view",
      "type": "function"
    },
    {
      "inputs": [],
      "name": "getTokenBalance",
      "outputs": [
        {
          "internalType": "uint256",
          "name": "",
          "type": "uint256"
        }
      ],
      "stateMutability": "view",
      "type": "function"
    },
    {
      "inputs": [
        {
          "internalType": "bytes32",
          "name": "role",
          "type": "bytes32"
        },
        {
          "internalType": "address",
          "name": "account",
          "type": "address"
        }
      ],
      "name": "grantRole",
      "outputs": [],
      "stateMutability": "nonpayable",
      "type": "function"
    },
    {
      "inputs": [
        {
          "internalType": "bytes32",
          "name": "role",
          "type": "bytes32"
        },
        {
          "internalType": "address",
          "name": "account",
          "type": "address"
        }
      ],
      "name": "hasRole",
      "outputs": [
        {
          "internalType": "bool",
          "name": "",
          "type": "bool"
        }
      ],
      "stateMutability": "view",
      "type": "function"
    },
    {
      "inputs": [
        {
          "internalType": "bytes32",
          "name": "role",
          "type": "bytes32"
        },
        {
          "internalType": "address",
          "name": "callerConfirmation",
          "type": "address"
        }
      ],
      "name": "renounceRole",
      "outputs": [],
      "stateMutability": "nonpayable",
      "type": "function"
    },
    {
      "inputs": [
        {
          "internalType": "bytes32",
          "name": "role",
          "type": "bytes32"
        },
        {
          "internalType": "address",
          "name": "account",
          "type": "address"
        }
      ],
      "name": "revokeRole",
      "outputs": [],
      "stateMutability": "nonpayable",
      "type": "function"
    },
    {
      "inputs": [
        {
          "internalType": "bytes4",
          "name": "interfaceId",
          "type": "bytes4"
        }
      ],
      "name": "supportsInterface",
      "outputs": [
        {
          "internalType": "bool",
          "name": "",
          "type": "bool"
        }
      ],
      "stateMutability": "view",
      "type": "function"
    },
    {
      "inputs": [],
      "name": "token",
      "outputs": [
        {
          "internalType": "contract CLDToken",
          "name": "",
          "type": "address"
        }
      ],
      "stateMutability": "view",
      "type": "function"
    },
    {
      "inputs": [
        {
          "internalType": "address payable",
          "name": "to",
          "type": "address"
        },
        {
          "internalType": "uint256",
          "name": "amount",
          "type": "uint256"
        }
      ],
      "name": "withdrawETH",
      "outputs": [],
      "stateMutability": "nonpayable",
      "type": "function"
    },
    {
      "inputs": [
        {
          "internalType": "address",
          "name": "tokenAddress",
          "type": "address"
        },
        {
          "internalType": "address",
          "name": "to",
          "type": "address"
        },
        {
          "internalType": "uint256",
          "name": "amount",
          "type": "uint256"
        }
      ],
      "name": "withdrawToken",
      "outputs": [],
      "stateMutability": "nonpayable",
      "type": "function"
    },
    {
      "stateMutability": "payable",
      "type": "receive"
    }
  ],
  "bytecode": "0x60a060405234801561001057600080fd5b50604051610dd1380380610dd183398101604081905261002f9161017f565b6001600160a01b0381166100895760405162461bcd60e51b815260206004820152601f60248201527f54726561737572793a20496e76616c696420746f6b656e206164647265737300604482015260640160405180910390fd5b6001600160a01b0381166080526100a16000336100d3565b506100cc7fe1dcbdb91df27212a29bc27177c840cf2f819ecf2187432e1fac86c2dd5dfca9336100d3565b50506101af565b6000828152602081815260408083206001600160a01b038516845290915281205460ff16610175576000838152602081815260408083206001600160a01b03861684529091529020805460ff1916600117905561012d3390565b6001600160a01b0316826001600160a01b0316847f2f8788117e7eff1d82e926ec794901d17c78024a50270940304540a733656f0d60405160405180910390a4506001610179565b5060005b92915050565b60006020828403121561019157600080fd5b81516001600160a01b03811681146101a857600080fd5b9392505050565b608051610c006101d16000396000818161030601526107fd0152610c006000f3fe6080604052600436106100e15760003560e01c806382b2e2571161007f578063d11a57ec11610059578063d11a57ec14610298578063d547741f146102cc578063f6326fb3146102ec578063fc0c546a146102f457600080fd5b806382b2e2571461022a57806391d148541461023f578063a217fddf1461028357600080fd5b80632f2ff15d116100bb5780632f2ff15d146101b757806336568abe146101d75780634782f779146101f75780636e9472981461021757600080fd5b806301e336671461012257806301ffc9a714610144578063248a9ca31461017957600080fd5b3661011d5760405134815233907f6c703791f399558807424f489ccd811c72b4ff0b74af547264fad7c646776df09060200160405180910390a2005b600080fd5b34801561012e57600080fd5b5061014261013d366004610a90565b610340565b005b34801561015057600080fd5b5061016461015f366004610ad1565b6104fb565b60405190151581526020015b60405180910390f35b34801561018557600080fd5b506101a9610194366004610b1a565b60009081526020819052604090206001015490565b604051908152602001610170565b3480156101c357600080fd5b506101426101d2366004610b33565b610594565b3480156101e357600080fd5b506101426101f2366004610b33565b6105bf565b34801561020357600080fd5b50610142610212366004610b63565b610610565b34801561022357600080fd5b50476101a9565b34801561023657600080fd5b506101a96107cc565b34801561024b57600080fd5b5061016461025a366004610b33565b6000918252602082815260408084206001600160a01b0393909316845291905290205460ff1690565b34801561028f57600080fd5b506101a9600081565b3480156102a457600080fd5b506101a97fe1dcbdb91df27212a29bc27177c840cf2f819ecf2187432e1fac86c2dd5dfca981565b3480156102d857600080fd5b506101426102e7366004610b33565b610875565b61014261089a565b34801561030057600080fd5b506103287f000000000000000000000000000000000000000000000000000000000000000081565b6040516001600160a01b039091168152602001610170565b7fe1dcbdb91df27212a29bc27177c840cf2f819ecf2187432e1fac86c2dd5dfca961036a816108d1565b6001600160a01b0383166103c55760405162461bcd60e51b815260206004820152601b60248201527f54726561737572793a20496e76616c696420726563697069656e74000000000060448201526064015b60405180910390fd5b6001600160a01b03841661041b5760405162461bcd60e51b815260206004820152601f60248201527f54726561737572793a20496e76616c696420746f6b656e20616464726573730060448201526064016103bc565b6040517fa9059cbb0000000000000000000000000000000000000000000000000000000081526001600160a01b0384811660048301526024820184905285169063a9059cbb906044016020604051808303816000875af1158015610483573d6000803e3d6000fd5b505050506040513d601f19601f820116820180604052508101906104a79190610b8f565b50826001600160a01b0316846001600160a01b03167f8210728e7c071f615b840ee026032693858fbcd5e5359e67e438c890f59e5620846040516104ed91815260200190565b60405180910390a350505050565b60007fffffffff0000000000000000000000000000000000000000000000000000000082167f7965db0b00000000000000000000000000000000000000000000000000000000148061058e57507f01ffc9a7000000000000000000000000000000000000000000000000000000007fffffffff000000000000000000000000000000000000000000000000000000008316145b92915050565b6000828152602081905260409020600101546105af816108d1565b6105b983836108de565b50505050565b6001600160a01b0381163314610601576040517f6697b23200000000000000000000000000000000000000000000000000000000815260040160405180910390fd5b61060b8282610988565b505050565b7fe1dcbdb91df27212a29bc27177c840cf2f819ecf2187432e1fac86c2dd5dfca961063a816108d1565b6001600160a01b0383166106905760405162461bcd60e51b815260206004820152601b60248201527f54726561737572793a20496e76616c696420726563697069656e74000000000060448201526064016103bc565b814710156106e05760405162461bcd60e51b815260206004820152601e60248201527f54726561737572793a20496e73756666696369656e742062616c616e6365000060448201526064016103bc565b6000836001600160a01b03168360405160006040518083038185875af1925050503d806000811461072d576040519150601f19603f3d011682016040523d82523d6000602084013e610732565b606091505b50509050806107835760405162461bcd60e51b815260206004820152601d60248201527f54726561737572793a20455448207472616e73666572206661696c656400000060448201526064016103bc565b836001600160a01b03167f94b2de810873337ed265c5f8cf98c9cffefa06b8607f9a2f1fbaebdfbcfbef1c846040516107be91815260200190565b60405180910390a250505050565b6040517f70a082310000000000000000000000000000000000000000000000000000000081523060048201526000907f00000000000000000000000000000000000000000000000000000000000000006001600160a01b0316906370a0823190602401602060405180830381865afa15801561084c573d6000803e3d6000fd5b505050506040513d601f19601f820116820180604052508101906108709190610bb1565b905090565b600082815260208190526040902060010154610890816108d1565b6105b98383610988565b60405134815233907f6c703791f399558807424f489ccd811c72b4ff0b74af547264fad7c646776df09060200160405180910390a2565b6108db8133610a0b565b50565b6000828152602081815260408083206001600160a01b038516845290915281205460ff16610980576000838152602081815260408083206001600160a01b03861684529091529020805460ff191660011790556109383390565b6001600160a01b0316826001600160a01b0316847f2f8788117e7eff1d82e926ec794901d17c78024a50270940304540a733656f0d60405160405180910390a450600161058e565b50600061058e565b6000828152602081815260408083206001600160a01b038516845290915281205460ff1615610980576000838152602081815260408083206001600160a01b0386168085529252808320805460ff1916905551339286917ff6391f5c32d9c69d2a47ea670b442974b53935d1edc7fd64eb21e047a839171b9190a450600161058e565b6000828152602081815260408083206001600160a01b038516845290915290205460ff16610a77576040517fe2517d3f0000000000000000000000000000000000000000000000000000000081526001600160a01b0382166004820152602481018390526044016103bc565b5050565b6001600160a01b03811681146108db57600080fd5b600080600060608486031215610aa557600080fd5b8335610ab081610a7b565b92506020840135610ac081610a7b565b929592945050506040919091013590565b600060208284031215610ae357600080fd5b81357fffffffff0000000000000000000000000000000000000000000000000000000081168114610b1357600080fd5b9392505050565b600060208284031215610b2c57600080fd5b5035919050565b60008060408385031215610b4657600080fd5b823591506020830135610b5881610a7b565b809150509250929050565b60008060408385031215610b7657600080fd5b8235610b8181610a7b565b946020939093013593505050565b600060208284031215610ba157600080fd5b81518015158114610b1357600080fd5b600060208284031215610bc357600080fd5b505191905056fea26469706673582212209100a5130cb738e2f579cfb204e5dd0b77ba4f30eabb43bfbfa0aa026967ac2964736f6c634300081c0033",
  "linkReferences": {},
  "deployedLinkReferences": {}
}