{
  "_format": "hh-sol-artifact-1",
  "contractName": "MerkleRewardsPoUW",
  "sourceName": "contracts/MerkleRewardsPoUW.sol",
  "abi": [
    {
      "inputs": [
        {
          "internalType": "address",
          "name": "_token",
          "type": "address"
        },
        {
          "internalType": "address",
          "name": "_emissionController",
          "type": "address"
        }
      ],
      "stateMutability": "nonpayable",
      "type": "constructor"
    },
    {
      "inputs": [],
      "name": "AccessControlBadConfirmation",
      "type": "error"
    },
    {
      "inputs": [
        {
          "internalType": "address",
          "name": "account",
          "type": "address"
        },
        {
          "internalType": "bytes32",
          "name": "neededRole",
          "type": "bytes32"
        }
      ],
      "name": "AccessControlUnauthorizedAccount",
      "type": "error"
    },
    {
      "anonymous": false,
      "inputs": [
        {
          "indexed": true,
          "internalType": "uint256",
          "name": "epoch",
          "type": "uint256"
        },
        {
          "indexed": true,
          "internalType": "address",
          "name": "provider",
          "type": "address"
        },
        {
          "indexed": false,
          "internalType": "uint256",
          "name": "amount",
          "type": "uint256"
        }
      ],
      "name": "RewardClaimed",
      "type": "event"
    },
    {
      "anonymous": false,
      "inputs": [
        {
          "indexed": true,
          "internalType": "bytes32",
          "name": "role",
          "type": "bytes32"
        },
        {
          "indexed": true,
          "internalType": "bytes32",
          "name": "previousAdminRole",
          "type": "bytes32"
        },
        {
          "indexed": true,
          "internalType": "bytes32",
          "name": "newAdminRole",
          "type": "bytes32"
        }
      ],
      "name": "RoleAdminChanged",
      "type": "event"
    },
    {
      "anonymous": false,
      "inputs": [
        {
          "indexed": true,
          "internalType": "bytes32",
          "name": "role",
          "type": "bytes32"
        },
        {
          "indexed": true,
          "internalType": "address",
          "name": "account",
          "type": "address"
        },
        {
          "indexed": true,
          "internalType": "address",
          "name": "sender",
          "type": "address"
        }
      ],
      "name": "RoleGranted",
      "type": "event"
    },
    {
      "anonymous": false,
      "inputs": [
        {
          "indexed": true,
          "internalType": "bytes32",
          "name": "role",
          "type": "bytes32"
        },
        {
          "indexed": true,
          "internalType": "address",
          "name": "account",
          "type": "address"
        },
        {
          "indexed": true,
          "internalType": "address",
          "name": "sender",
          "type": "address"
        }
      ],
      "name": "RoleRevoked",
      "type": "event"
    },
    {
      "anonymous": false,
      "inputs": [
        {
          "indexed": true,
          "internalType": "uint256",
          "name": "epoch",
          "type": "uint256"
        },
        {
          "indexed": false,
          "internalType": "bytes32",
          "name": "root",
          "type": "bytes32"
        },
        {
          "indexed": false,
          "internalType": "uint256",
          "name": "totalAmount",
          "type": "uint256"
        }
      ],
      "name": "RootPublished",
      "type": "event"
    },
    {
      "inputs": [],
      "name": "DEFAULT_ADMIN_ROLE",
      "outputs": [
        {
          "internalType": "bytes32",
          "name": "",
          "type": "bytes32"
        }
      ],
      "stateMutability": "view",
      "type": "function"
    },
    {
      "inputs": [],
      "name": "SETTLER_ROLE",
      "outputs": [
        {
          "internalType": "bytes32",
          "name": "",
          "type": "bytes32"
        }
      ],
      "stateMutability": "view",
      "type": "function"
    },
    {
      "inputs": [
        {
          "internalType": "uint256",
          "name": "epoch",
          "type": "uint256"
        },
        {
          "internalType": "uint256",
          "name": "amount",
          "type": "uint256"
        },
        {
          "internalType": "bytes32[]",
          "name": "proof",
          "type": "bytes32[]"
        }
      ],
      "name": "claim",
      "outputs": [],
      "stateMutability": "nonpayable",
      "type": "function"
    },
    {
      "inputs": [
        {
          "internalType": "uint256",
          "name": "",
          "type": "uint256"
        },
        {
          "internalType": "address",
          "name": "",
          "type": "address"
        }
      ],
      "name": "claimed",
      "outputs": [
        {
          "internalType": "bool",
          "name": "",
          "type": "bool"
        }
      ],
      "stateMutability": "view",
      "type": "function"
    },
    {
      "inputs": [
        {
          "internalType": "uint256",
          "name": "",
          "type": "uint256"
        }
      ],
      "name": "claimedTotal",
      "outputs": [
        {
          "internalType": "uint256",
          "name": "",
          "type": "uint256"
        }
      ],
      "stateMutability": "view",
      "type": "function"
    },
    {
      "inputs": [],
      "name": "emissionController",
      "outputs": [
        {
          "internalType": "contract EmissionController",
          "name": "",
          "type": "address"
        }
      ],
      "stateMutability": "view",
      "type": "function"
    },
    {
      "inputs": [
        {
          "internalType": "uint256",
          "name": "epoch",
          "type": "uint256"
        }
      ],
      "name": "getRemainingClaimable",
      "outputs": [
        {
          "internalType": "uint256",
          "name": "",
          "type": "uint256"
        }
      ],
      "stateMutability": "view",
      "type": "function"
    },
    {
      "inputs": [
        {
          "internalType": "bytes32",
          "name": "role",
          "type": "bytes32"
        }
      ],
      "name": "getRoleAdmin",
      "outputs": [
        {
          "internalType": "bytes32",
          "name": "",
          "type": "bytes32"
        }
      ],
      "stateMutability": "view",
      "type": "function"
    },
    {
      "inputs": [
        {
          "internalType": "bytes32",
          "name": "role",
          "type": "bytes32"
        },
        {
          "internalType": "address",
          "name": "account",
          "type": "address"
        }
      ],
      "name": "grantRole",
      "outputs": [],
      "stateMutability": "nonpayable",
      "type": "function"
    },
    {
      "inputs": [
        {
          "internalType": "uint256",
          "name": "epoch",
          "type": "uint256"
        },
        {
          "internalType": "address",
          "name": "provider",
          "type": "address"
        }
      ],
      "name": "hasClaimed",
      "outputs": [
        {
          "internalType": "bool",
          "name": "",
          "type": "bool"
        }
      ],
      "stateMutability": "view",
      "type": "function"
    },
    {
      "inputs": [
        {
          "internalType": "bytes32",
          "name": "role",
          "type": "bytes32"
        },
        {
          "internalType": "address",
          "name": "account",
          "type": "address"
        }
      ],
      "name": "hasRole",
      "outputs": [
        {
          "internalType": "bool",
          "name": "",
          "type": "bool"
        }
      ],
      "stateMutability": "view",
      "type": "function"
    },
    {
      "inputs": [
        {
          "internalType": "uint256",
          "name": "epoch",
          "type": "uint256"
        }
      ],
      "name": "isRootValid",
      "outputs": [
        {
          "internalType": "bool",
          "name": "",
          "type": "bool"
        }
      ],
      "stateMutability": "view",
      "type": "function"
    },
    {
      "inputs": [
        {
          "internalType": "uint256",
          "name": "",
          "type": "uint256"
        }
      ],
      "name": "merkleRoots",
      "outputs": [
        {
          "internalType": "bytes32",
          "name": "",
          "type": "bytes32"
        }
      ],
      "stateMutability": "view",
      "type": "function"
    },
    {
      "inputs": [
        {
          "internalType": "bytes32",
          "name": "role",
          "type": "bytes32"
        },
        {
          "internalType": "address",
          "name": "callerConfirmation",
          "type": "address"
        }
      ],
      "name": "renounceRole",
      "outputs": [],
      "stateMutability": "nonpayable",
      "type": "function"
    },
    {
      "inputs": [
        {
          "internalType": "bytes32",
          "name": "role",
          "type": "bytes32"
        },
        {
          "internalType": "address",
          "name": "account",
          "type": "address"
        }
      ],
      "name": "revokeRole",
      "outputs": [],
      "stateMutability": "nonpayable",
      "type": "function"
    },
    {
      "inputs": [
        {
          "internalType": "uint256",
          "name": "",
          "type": "uint256"
        }
      ],
      "name": "rootTotalAmounts",
      "outputs": [
        {
          "internalType": "uint256",
          "name": "",
          "type": "uint256"
        }
      ],
      "stateMutability": "view",
      "type": "function"
    },
    {
      "inputs": [
        {
          "internalType": "uint256",
          "name": "epoch",
          "type": "uint256"
        },
        {
          "internalType": "bytes32",
          "name": "root",
          "type": "bytes32"
        },
        {
          "internalType": "uint256",
          "name": "totalAmount",
          "type": "uint256"
        }
      ],
      "name": "setRoot",
      "outputs": [],
      "stateMutability": "nonpayable",
      "type": "function"
    },
    {
      "inputs": [
        {
          "internalType": "bytes4",
          "name": "interfaceId",
          "type": "bytes4"
        }
      ],
      "name": "supportsInterface",
      "outputs": [
        {
          "internalType": "bool",
          "name": "",
          "type": "bool"
        }
      ],
      "stateMutability": "view",
      "type": "function"
    },
    {
      "inputs": [],
      "name": "token",
      "outputs": [
        {
          "internalType": "contract CLDToken",
          "name": "",
          "type": "address"
        }
      ],
      "stateMutability": "view",
      "type": "function"
    }
  ],
  "bytecode": "0x60c060405234801561001057600080fd5b5060405161142c38038061142c83398101604081905261002f91610210565b6001600160a01b03821661008a5760405162461bcd60e51b815260206004820181905260248201527f4d65726b6c6552657761726473506f55573a20496e76616c696420746f6b656e60448201526064015b60405180910390fd5b6001600160a01b0381166100f75760405162461bcd60e51b815260206004820152602e60248201527f4d65726b6c6552657761726473506f55573a20496e76616c696420656d69737360448201526d34b7b71031b7b73a3937b63632b960911b6064820152608401610081565b6001600160a01b03808316608052811660a052610115600033610148565b506101407f6666bf5bfee463d10a7fc50448047f8a53b7762d7e28fbc5c643182785f3fd3f33610148565b505050610243565b6000828152602081815260408083206001600160a01b038516845290915281205460ff166101ea576000838152602081815260408083206001600160a01b03861684529091529020805460ff191660011790556101a23390565b6001600160a01b0316826001600160a01b0316847f2f8788117e7eff1d82e926ec794901d17c78024a50270940304540a733656f0d60405160405180910390a45060016101ee565b5060005b92915050565b80516001600160a01b038116811461020b57600080fd5b919050565b6000806040838503121561022357600080fd5b61022c836101f4565b915061023a602084016101f4565b90509250929050565b60805160a0516111af61027d6000396000818161021d015281816106a10152610add01526000818161038701526109fb01526111af6000f3fe608060405234801561001057600080fd5b50600436106101515760003560e01c8063873f6f9e116100cd578063c6ab7b2e11610081578063e77a0cb011610066578063e77a0cb014610362578063fc0c546a14610382578063ff6ad927146103a957600080fd5b8063c6ab7b2e1461033c578063d547741f1461034f57600080fd5b8063a217fddf116100b2578063a217fddf1461030e578063ae0b51df14610316578063bec4ebe81461032957600080fd5b8063873f6f9e1461029e57806391d14854146102d757600080fd5b8063344f4ddd116101245780636dee2012116101095780636dee20121461021857806371c5ecb1146102575780637445e85c1461027757600080fd5b8063344f4ddd146101f257806336568abe1461020557600080fd5b806301ffc9a714610156578063120aa8771461017e578063248a9ca3146101ac5780632f2ff15d146101dd575b600080fd5b610169610164366004610f9f565b6103c9565b60405190151581526020015b60405180910390f35b61016961018c366004610ffd565b600460209081526000928352604080842090915290825290205460ff1681565b6101cf6101ba366004611029565b60009081526020819052604090206001015490565b604051908152602001610175565b6101f06101eb366004610ffd565b610462565b005b6101cf610200366004611029565b61048d565b6101f0610213366004610ffd565b6104c7565b61023f7f000000000000000000000000000000000000000000000000000000000000000081565b6040516001600160a01b039091168152602001610175565b6101cf610265366004611029565b60016020526000908152604090205481565b6101cf7f6666bf5bfee463d10a7fc50448047f8a53b7762d7e28fbc5c643182785f3fd3f81565b6101696102ac366004610ffd565b60009182526004602090815260408084206001600160a01b0393909316845291905290205460ff1690565b6101696102e5366004610ffd565b6000918252602082815260408084206001600160a01b0393909316845291905290205460ff1690565b6101cf600081565b6101f0610324366004611042565b610518565b610169610337366004611029565b610a9f565b6101f061034a3660046110c8565b610b79565b6101f061035d366004610ffd565b610d45565b6101cf610370366004611029565b60026020526000908152604090205481565b61023f7f000000000000000000000000000000000000000000000000000000000000000081565b6101cf6103b7366004611029565b60036020526000908152604090205481565b60007fffffffff0000000000000000000000000000000000000000000000000000000082167f7965db0b00000000000000000000000000000000000000000000000000000000148061045c57507f01ffc9a7000000000000000000000000000000000000000000000000000000007fffffffff000000000000000000000000000000000000000000000000000000008316145b92915050565b60008281526020819052604090206001015461047d81610d6a565b6104878383610d77565b50505050565b60008181526002602090815260408083205460039092528220548082116104b55760006104bf565b6104bf818361110a565b949350505050565b6001600160a01b0381163314610509576040517f6697b23200000000000000000000000000000000000000000000000000000000815260040160405180910390fd5b6105138282610e21565b505050565b6000848152600160205260409020546105785760405162461bcd60e51b815260206004820152601f60248201527f4d65726b6c6552657761726473506f55573a20526f6f74206e6f74207365740060448201526064015b60405180910390fd5b600084815260046020908152604080832033845290915290205460ff16156106085760405162461bcd60e51b815260206004820152602260248201527f4d65726b6c6552657761726473506f55573a20416c726561647920636c61696d60448201527f6564000000000000000000000000000000000000000000000000000000000000606482015260840161056f565b6000831161067e5760405162461bcd60e51b815260206004820152602160248201527f4d65726b6c6552657761726473506f55573a20496e76616c696420616d6f756e60448201527f7400000000000000000000000000000000000000000000000000000000000000606482015260840161056f565b6040516309a8116160e11b81526004810185905260009081906001600160a01b037f0000000000000000000000000000000000000000000000000000000000000000169063135022c2906024016040805180830381865afa1580156106e7573d6000803e3d6000fd5b505050506040513d601f19601f8201168201806040525081019061070b919061111d565b91509150816107825760405162461bcd60e51b815260206004820152602a60248201527f4d65726b6c6552657761726473506f55573a2045706f6368206e6f742070726f60448201527f6365737365642079657400000000000000000000000000000000000000000000606482015260840161056f565b6000811180156107a057506000868152600260205260409020548110155b6108125760405162461bcd60e51b815260206004820152602660248201527f4d65726b6c6552657761726473506f55573a2042756467657420696e7375666660448201527f696369656e740000000000000000000000000000000000000000000000000000606482015260840161056f565b6040516bffffffffffffffffffffffff193360601b1660208201526034810186905260009060540160405160208183030381529060405280519060200120905061089d85858080602002602001604051908101604052809392919081815260200183836020028082843760009201829052508c8152600160205260409020549250859150610ea49050565b6108e95760405162461bcd60e51b815260206004820181905260248201527f4d65726b6c6552657761726473506f55573a20496e76616c69642070726f6f66604482015260640161056f565b60008781526002602090815260408083205460039092529091205461090f908890611150565b11156109835760405162461bcd60e51b815260206004820152602b60248201527f4d65726b6c6552657761726473506f55573a20436c61696d206578636565647360448201527f20726f6f7420746f74616c000000000000000000000000000000000000000000606482015260840161056f565b60008781526004602090815260408083203384528252808320805460ff191660011790558983526003909152812080548892906109c1908490611150565b90915550506040517f40c10f19000000000000000000000000000000000000000000000000000000008152336004820152602481018790527f00000000000000000000000000000000000000000000000000000000000000006001600160a01b0316906340c10f1990604401600060405180830381600087803b158015610a4757600080fd5b505af1158015610a5b573d6000803e3d6000fd5b50506040518881523392508991507f24b5efa61dd1cfc659205a97fb8ed868f3cb8c81922bab2b96423e5de1de2cb79060200160405180910390a350505050505050565b600081815260016020526040812054610aba57506000919050565b6040516309a8116160e11b81526004810183905260009081906001600160a01b037f0000000000000000000000000000000000000000000000000000000000000000169063135022c2906024016040805180830381865afa158015610b23573d6000803e3d6000fd5b505050506040513d601f19601f82011682018060405250810190610b47919061111d565b91509150818015610b585750600081115b80156104bf5750600084815260026020526040902054811015949350505050565b7f6666bf5bfee463d10a7fc50448047f8a53b7762d7e28fbc5c643182785f3fd3f610ba381610d6a565b82610bf05760405162461bcd60e51b815260206004820152601f60248201527f4d65726b6c6552657761726473506f55573a20496e76616c696420726f6f7400604482015260640161056f565b60008481526001602052604090205415610c725760405162461bcd60e51b815260206004820152602360248201527f4d65726b6c6552657761726473506f55573a20526f6f7420616c72656164792060448201527f7365740000000000000000000000000000000000000000000000000000000000606482015260840161056f565b60008211610ce85760405162461bcd60e51b815260206004820152602760248201527f4d65726b6c6552657761726473506f55573a20496e76616c696420746f74616c60448201527f20616d6f756e7400000000000000000000000000000000000000000000000000606482015260840161056f565b60008481526001602090815260408083208690556002825291829020849055815185815290810184905285917fc4adc49c6b7a1599e47ed40f650a2b605de153c5958e4d750ff166338828c535910160405180910390a250505050565b600082815260208190526040902060010154610d6081610d6a565b6104878383610e21565b610d748133610eba565b50565b6000828152602081815260408083206001600160a01b038516845290915281205460ff16610e19576000838152602081815260408083206001600160a01b03861684529091529020805460ff19166001179055610dd13390565b6001600160a01b0316826001600160a01b0316847f2f8788117e7eff1d82e926ec794901d17c78024a50270940304540a733656f0d60405160405180910390a450600161045c565b50600061045c565b6000828152602081815260408083206001600160a01b038516845290915281205460ff1615610e19576000838152602081815260408083206001600160a01b0386168085529252808320805460ff1916905551339286917ff6391f5c32d9c69d2a47ea670b442974b53935d1edc7fd64eb21e047a839171b9190a450600161045c565b600082610eb18584610f2a565b14949350505050565b6000828152602081815260408083206001600160a01b038516845290915290205460ff16610f26576040517fe2517d3f0000000000000000000000000000000000000000000000000000000081526001600160a01b03821660048201526024810183905260440161056f565b5050565b600081815b8451811015610f6557610f5b82868381518110610f4e57610f4e611163565b6020026020010151610f6d565b9150600101610f2f565b509392505050565b6000818310610f89576000828152602084905260409020610f98565b60008381526020839052604090205b9392505050565b600060208284031215610fb157600080fd5b81357fffffffff0000000000000000000000000000000000000000000000000000000081168114610f9857600080fd5b80356001600160a01b0381168114610ff857600080fd5b919050565b6000806040838503121561101057600080fd5b8235915061102060208401610fe1565b90509250929050565b60006020828403121561103b57600080fd5b5035919050565b6000806000806060858703121561105857600080fd5b8435935060208501359250604085013567ffffffffffffffff81111561107d57600080fd5b8501601f8101871361108e57600080fd5b803567ffffffffffffffff8111156110a557600080fd5b8760208260051b84010111156110ba57600080fd5b949793965060200194505050565b6000806000606084860312156110dd57600080fd5b505081359360208301359350604090920135919050565b634e487b7160e01b600052601160045260246000fd5b8181038181111561045c5761045c6110f4565b6000806040838503121561113057600080fd5b8251801515811461114057600080fd5b6020939093015192949293505050565b8082018082111561045c5761045c6110f4565b634e487b7160e01b600052603260045260246000fdfea26469706673582212201ab94971b3e7b7a6e2a9906a527560c11ac4af98eaacd5e5dbc00f982bea8b2364736f6c634300081c0033",
  "linkReferences": {},
  "deployedLinkReferences": {}
}