{
  "_format": "hh-sol-artifact-1",
  "contractName": "MerkleRewardsPoUW",
  "sourceName": "contracts/MerkleRewardsPoUW.sol",
  "abi": [
    {
      "inputs": [
        {
          "internalType": "address",
          "name": "_token",
          "type": "address"
        },
        {
          "internalType": "address",
          "name": "_emissionController",
          "type": "address"
        }
      ],
      "stateMutability": "nonpayable",
      "type": "constructor"
    },
    {
      "inputs": [],
      "name": "AccessControlBadConfirmation",
      "type": "error"
    },
    {
      "inputs": [
        {
          "internalType": "address",
          "name": "account",
          "type": "address"
        },
        {
          "internalType": "bytes32",
          "name": "neededRole",
          "type": "bytes32"
        }
      ],
      "name": "AccessControlUnauthorizedAccount",
      "type": "error"
    },
    {
      "anonymous": false,
      "inputs": [
        {
          "indexed": true,
          "internalType": "uint256",
          "name": "epoch",
          "type": "uint256"
        },
        {
          "indexed": true,
          "internalType": "address",
          "name": "provider",
          "type": "address"
        },
        {
          "indexed": false,
          "internalType": "uint256",
          "name": "amount",
          "type": "uint256"
        }
      ],
      "name": "RewardClaimed",
      "type": "event"
    },
    {
      "anonymous": false,
      "inputs": [
        {
          "indexed": true,
          "internalType": "bytes32",
          "name": "role",
          "type": "bytes32"
        },
        {
          "indexed": true,
          "internalType": "bytes32",
          "name": "previousAdminRole",
          "type": "bytes32"
        },
        {
          "indexed": true,
          "internalType": "bytes32",
          "name": "newAdminRole",
          "type": "bytes32"
        }
      ],
      "name": "RoleAdminChanged",
      "type": "event"
    },
    {
      "anonymous": false,
      "inputs": [
        {
          "indexed": true,
          "internalType": "bytes32",
          "name": "role",
          "type": "bytes32"
        },
        {
          "indexed": true,
          "internalType": "address",
          "name": "account",
          "type": "address"
        },
        {
          "indexed": true,
          "internalType": "address",
          "name": "sender",
          "type": "address"
        }
      ],
      "name": "RoleGranted",
      "type": "event"
    },
    {
      "anonymous": false,
      "inputs": [
        {
          "indexed": true,
          "internalType": "bytes32",
          "name": "role",
          "type": "bytes32"
        },
        {
          "indexed": true,
          "internalType": "address",
          "name": "account",
          "type": "address"
        },
        {
          "indexed": true,
          "internalType": "address",
          "name": "sender",
          "type": "address"
        }
      ],
      "name": "RoleRevoked",
      "type": "event"
    },
    {
      "anonymous": false,
      "inputs": [
        {
          "indexed": true,
          "internalType": "uint256",
          "name": "epoch",
          "type": "uint256"
        },
        {
          "indexed": false,
          "internalType": "bytes32",
          "name": "root",
          "type": "bytes32"
        },
        {
          "indexed": false,
          "internalType": "uint256",
          "name": "totalAmount",
          "type": "uint256"
        }
      ],
      "name": "RootPublished",
      "type": "event"
    },
    {
      "inputs": [],
      "name": "DEFAULT_ADMIN_ROLE",
      "outputs": [
        {
          "internalType": "bytes32",
          "name": "",
          "type": "bytes32"
        }
      ],
      "stateMutability": "view",
      "type": "function"
    },
    {
      "inputs": [],
      "name": "SETTLER_ROLE",
      "outputs": [
        {
          "internalType": "bytes32",
          "name": "",
          "type": "bytes32"
        }
      ],
      "stateMutability": "view",
      "type": "function"
    },
    {
      "inputs": [
        {
          "internalType": "uint256",
          "name": "epoch",
          "type": "uint256"
        },
        {
          "internalType": "uint256",
          "name": "amount",
          "type": "uint256"
        },
        {
          "internalType": "bytes32[]",
          "name": "proof",
          "type": "bytes32[]"
        }
      ],
      "name": "claim",
      "outputs": [],
      "stateMutability": "nonpayable",
      "type": "function"
    },
    {
      "inputs": [
        {
          "internalType": "uint256",
          "name": "",
          "type": "uint256"
        },
        {
          "internalType": "address",
          "name": "",
          "type": "address"
        }
      ],
      "name": "claimed",
      "outputs": [
        {
          "internalType": "bool",
          "name": "",
          "type": "bool"
        }
      ],
      "stateMutability": "view",
      "type": "function"
    },
    {
      "inputs": [
        {
          "internalType": "uint256",
          "name": "",
          "type": "uint256"
        }
      ],
      "name": "claimedTotal",
      "outputs": [
        {
          "internalType": "uint256",
          "name": "",
          "type": "uint256"
        }
      ],
      "stateMutability": "view",
      "type": "function"
    },
    {
      "inputs": [],
      "name": "emissionController",
      "outputs": [
        {
          "internalType": "contract EmissionController",
          "name": "",
          "type": "address"
        }
      ],
      "stateMutability": "view",
      "type": "function"
    },
    {
      "inputs": [
        {
          "internalType": "uint256",
          "name": "epoch",
          "type": "uint256"
        }
      ],
      "name": "getRemainingClaimable",
      "outputs": [
        {
          "internalType": "uint256",
          "name": "",
          "type": "uint256"
        }
      ],
      "stateMutability": "view",
      "type": "function"
    },
    {
      "inputs": [
        {
          "internalType": "bytes32",
          "name": "role",
          "type": "bytes32"
        }
      ],
      "name": "getRoleAdmin",
      "outputs": [
        {
          "internalType": "bytes32",
          "name": "",
          "type": "bytes32"
        }
      ],
      "stateMutability": "view",
      "type": "function"
    },
    {
      "inputs": [
        {
          "internalType": "bytes32",
          "name": "role",
          "type": "bytes32"
        },
        {
          "internalType": "address",
          "name": "account",
          "type": "address"
        }
      ],
      "name": "grantRole",
      "outputs": [],
      "stateMutability": "nonpayable",
      "type": "function"
    },
    {
      "inputs": [
        {
          "internalType": "uint256",
          "name": "epoch",
          "type": "uint256"
        },
        {
          "internalType": "address",
          "name": "provider",
          "type": "address"
        }
      ],
      "name": "hasClaimed",
      "outputs": [
        {
          "internalType": "bool",
          "name": "",
          "type": "bool"
        }
      ],
      "stateMutability": "view",
      "type": "function"
    },
    {
      "inputs": [
        {
          "internalType": "bytes32",
          "name": "role",
          "type": "bytes32"
        },
        {
          "internalType": "address",
          "name": "account",
          "type": "address"
        }
      ],
      "name": "hasRole",
      "outputs": [
        {
          "internalType": "bool",
          "name": "",
          "type": "bool"
        }
      ],
      "stateMutability": "view",
      "type": "function"
    },
    {
      "inputs": [
        {
          "internalType": "uint256",
          "name": "",
          "type": "uint256"
        }
      ],
      "name": "merkleRoots",
      "outputs": [
        {
          "internalType": "bytes32",
          "name": "",
          "type": "bytes32"
        }
      ],
      "stateMutability": "view",
      "type": "function"
    },
    {
      "inputs": [
        {
          "internalType": "bytes32",
          "name": "role",
          "type": "bytes32"
        },
        {
          "internalType": "address",
          "name": "callerConfirmation",
          "type": "address"
        }
      ],
      "name": "renounceRole",
      "outputs": [],
      "stateMutability": "nonpayable",
      "type": "function"
    },
    {
      "inputs": [
        {
          "internalType": "bytes32",
          "name": "role",
          "type": "bytes32"
        },
        {
          "internalType": "address",
          "name": "account",
          "type": "address"
        }
      ],
      "name": "revokeRole",
      "outputs": [],
      "stateMutability": "nonpayable",
      "type": "function"
    },
    {
      "inputs": [
        {
          "internalType": "uint256",
          "name": "",
          "type": "uint256"
        }
      ],
      "name": "rootTotalAmounts",
      "outputs": [
        {
          "internalType": "uint256",
          "name": "",
          "type": "uint256"
        }
      ],
      "stateMutability": "view",
      "type": "function"
    },
    {
      "inputs": [
        {
          "internalType": "uint256",
          "name": "epoch",
          "type": "uint256"
        },
        {
          "internalType": "bytes32",
          "name": "root",
          "type": "bytes32"
        },
        {
          "internalType": "uint256",
          "name": "totalAmount",
          "type": "uint256"
        }
      ],
      "name": "setRoot",
      "outputs": [],
      "stateMutability": "nonpayable",
      "type": "function"
    },
    {
      "inputs": [
        {
          "internalType": "bytes4",
          "name": "interfaceId",
          "type": "bytes4"
        }
      ],
      "name": "supportsInterface",
      "outputs": [
        {
          "internalType": "bool",
          "name": "",
          "type": "bool"
        }
      ],
      "stateMutability": "view",
      "type": "function"
    },
    {
      "inputs": [],
      "name": "token",
      "outputs": [
        {
          "internalType": "contract CLDToken",
          "name": "",
          "type": "address"
        }
      ],
      "stateMutability": "view",
      "type": "function"
    }
  ],
  "bytecode": "0x60c060405234801561001057600080fd5b5060405161121538038061121583398101604081905261002f91610210565b6001600160a01b03821661008a5760405162461bcd60e51b815260206004820181905260248201527f4d65726b6c6552657761726473506f55573a20496e76616c696420746f6b656e60448201526064015b60405180910390fd5b6001600160a01b0381166100f75760405162461bcd60e51b815260206004820152602e60248201527f4d65726b6c6552657761726473506f55573a20496e76616c696420656d69737360448201526d34b7b71031b7b73a3937b63632b960911b6064820152608401610081565b6001600160a01b03808316608052811660a052610115600033610148565b506101407f6666bf5bfee463d10a7fc50448047f8a53b7762d7e28fbc5c643182785f3fd3f33610148565b505050610243565b6000828152602081815260408083206001600160a01b038516845290915281205460ff166101ea576000838152602081815260408083206001600160a01b03861684529091529020805460ff191660011790556101a23390565b6001600160a01b0316826001600160a01b0316847f2f8788117e7eff1d82e926ec794901d17c78024a50270940304540a733656f0d60405160405180910390a45060016101ee565b5060005b92915050565b80516001600160a01b038116811461020b57600080fd5b919050565b6000806040838503121561022357600080fd5b61022c836101f4565b915061023a602084016101f4565b90509250929050565b60805160a051610f9f610276600039600081816102020152610a0601526000818161035901526108390152610f9f6000f3fe608060405234801561001057600080fd5b50600436106101365760003560e01c8063873f6f9e116100b2578063c6ab7b2e11610081578063e77a0cb011610066578063e77a0cb014610334578063fc0c546a14610354578063ff6ad9271461037b57600080fd5b8063c6ab7b2e1461030e578063d547741f1461032157600080fd5b8063873f6f9e1461028357806391d14854146102bc578063a217fddf146102f3578063ae0b51df146102fb57600080fd5b8063344f4ddd116101095780636dee2012116100ee5780636dee2012146101fd57806371c5ecb11461023c5780637445e85c1461025c57600080fd5b8063344f4ddd146101d757806336568abe146101ea57600080fd5b806301ffc9a71461013b578063120aa87714610163578063248a9ca3146101915780632f2ff15d146101c2575b600080fd5b61014e610149366004610da9565b61039b565b60405190151581526020015b60405180910390f35b61014e610171366004610e07565b600460209081526000928352604080842090915290825290205460ff1681565b6101b461019f366004610e33565b60009081526020819052604090206001015490565b60405190815260200161015a565b6101d56101d0366004610e07565b610434565b005b6101b46101e5366004610e33565b61045f565b6101d56101f8366004610e07565b610499565b6102247f000000000000000000000000000000000000000000000000000000000000000081565b6040516001600160a01b03909116815260200161015a565b6101b461024a366004610e33565b60016020526000908152604090205481565b6101b47f6666bf5bfee463d10a7fc50448047f8a53b7762d7e28fbc5c643182785f3fd3f81565b61014e610291366004610e07565b60009182526004602090815260408084206001600160a01b0393909316845291905290205460ff1690565b61014e6102ca366004610e07565b6000918252602082815260408084206001600160a01b0393909316845291905290205460ff1690565b6101b4600081565b6101d5610309366004610e4c565b6104ea565b6101d561031c366004610ed2565b6108db565b6101d561032f366004610e07565b610b4f565b6101b4610342366004610e33565b60026020526000908152604090205481565b6102247f000000000000000000000000000000000000000000000000000000000000000081565b6101b4610389366004610e33565b60036020526000908152604090205481565b60007fffffffff0000000000000000000000000000000000000000000000000000000082167f7965db0b00000000000000000000000000000000000000000000000000000000148061042e57507f01ffc9a7000000000000000000000000000000000000000000000000000000007fffffffff000000000000000000000000000000000000000000000000000000008316145b92915050565b60008281526020819052604090206001015461044f81610b74565b6104598383610b81565b50505050565b6000818152600260209081526040808320546003909252822054808211610487576000610491565b6104918183610f14565b949350505050565b6001600160a01b03811633146104db576040517f6697b23200000000000000000000000000000000000000000000000000000000815260040160405180910390fd5b6104e58282610c2b565b505050565b60008481526001602052604090205461054a5760405162461bcd60e51b815260206004820152601f60248201527f4d65726b6c6552657761726473506f55573a20526f6f74206e6f74207365740060448201526064015b60405180910390fd5b600084815260046020908152604080832033845290915290205460ff16156105da5760405162461bcd60e51b815260206004820152602260248201527f4d65726b6c6552657761726473506f55573a20416c726561647920636c61696d60448201527f65640000000000000000000000000000000000000000000000000000000000006064820152608401610541565b600083116106505760405162461bcd60e51b815260206004820152602160248201527f4d65726b6c6552657761726473506f55573a20496e76616c696420616d6f756e60448201527f74000000000000000000000000000000000000000000000000000000000000006064820152608401610541565b6040516bffffffffffffffffffffffff193360601b166020820152603481018490526000906054016040516020818303038152906040528051906020012090506106db83838080602002602001604051908101604052809392919081815260200183836020028082843760009201829052508a8152600160205260409020549250859150610cae9050565b6107275760405162461bcd60e51b815260206004820181905260248201527f4d65726b6c6552657761726473506f55573a20496e76616c69642070726f6f666044820152606401610541565b60008581526002602090815260408083205460039092529091205461074d908690610f27565b11156107c15760405162461bcd60e51b815260206004820152602b60248201527f4d65726b6c6552657761726473506f55573a20436c61696d206578636565647360448201527f20726f6f7420746f74616c0000000000000000000000000000000000000000006064820152608401610541565b60008581526004602090815260408083203384528252808320805460ff191660011790558783526003909152812080548692906107ff908490610f27565b90915550506040517f40c10f19000000000000000000000000000000000000000000000000000000008152336004820152602481018590527f00000000000000000000000000000000000000000000000000000000000000006001600160a01b0316906340c10f1990604401600060405180830381600087803b15801561088557600080fd5b505af1158015610899573d6000803e3d6000fd5b50506040518681523392508791507f24b5efa61dd1cfc659205a97fb8ed868f3cb8c81922bab2b96423e5de1de2cb79060200160405180910390a35050505050565b7f6666bf5bfee463d10a7fc50448047f8a53b7762d7e28fbc5c643182785f3fd3f61090581610b74565b826109525760405162461bcd60e51b815260206004820152601f60248201527f4d65726b6c6552657761726473506f55573a20496e76616c696420726f6f74006044820152606401610541565b600084815260016020526040902054156109d45760405162461bcd60e51b815260206004820152602360248201527f4d65726b6c6552657761726473506f55573a20526f6f7420616c72656164792060448201527f73657400000000000000000000000000000000000000000000000000000000006064820152608401610541565b6040517ff7f3ea81000000000000000000000000000000000000000000000000000000008152600481018590526000907f00000000000000000000000000000000000000000000000000000000000000006001600160a01b03169063f7f3ea8190602401602060405180830381865afa158015610a55573d6000803e3d6000fd5b505050506040513d601f19601f82011682018060405250810190610a799190610f3a565b905080831115610af15760405162461bcd60e51b815260206004820152602e60248201527f4d65726b6c6552657761726473506f55573a20546f74616c20616d6f756e742060448201527f65786365656473206275646765740000000000000000000000000000000000006064820152608401610541565b60008581526001602090815260408083208790556002825291829020859055815186815290810185905286917fc4adc49c6b7a1599e47ed40f650a2b605de153c5958e4d750ff166338828c535910160405180910390a25050505050565b600082815260208190526040902060010154610b6a81610b74565b6104598383610c2b565b610b7e8133610cc4565b50565b6000828152602081815260408083206001600160a01b038516845290915281205460ff16610c23576000838152602081815260408083206001600160a01b03861684529091529020805460ff19166001179055610bdb3390565b6001600160a01b0316826001600160a01b0316847f2f8788117e7eff1d82e926ec794901d17c78024a50270940304540a733656f0d60405160405180910390a450600161042e565b50600061042e565b6000828152602081815260408083206001600160a01b038516845290915281205460ff1615610c23576000838152602081815260408083206001600160a01b0386168085529252808320805460ff1916905551339286917ff6391f5c32d9c69d2a47ea670b442974b53935d1edc7fd64eb21e047a839171b9190a450600161042e565b600082610cbb8584610d34565b14949350505050565b6000828152602081815260408083206001600160a01b038516845290915290205460ff16610d30576040517fe2517d3f0000000000000000000000000000000000000000000000000000000081526001600160a01b038216600482015260248101839052604401610541565b5050565b600081815b8451811015610d6f57610d6582868381518110610d5857610d58610f53565b6020026020010151610d77565b9150600101610d39565b509392505050565b6000818310610d93576000828152602084905260409020610da2565b60008381526020839052604090205b9392505050565b600060208284031215610dbb57600080fd5b81357fffffffff0000000000000000000000000000000000000000000000000000000081168114610da257600080fd5b80356001600160a01b0381168114610e0257600080fd5b919050565b60008060408385031215610e1a57600080fd5b82359150610e2a60208401610deb565b90509250929050565b600060208284031215610e4557600080fd5b5035919050565b60008060008060608587031215610e6257600080fd5b8435935060208501359250604085013567ffffffffffffffff811115610e8757600080fd5b8501601f81018713610e9857600080fd5b803567ffffffffffffffff811115610eaf57600080fd5b8760208260051b8401011115610ec457600080fd5b949793965060200194505050565b600080600060608486031215610ee757600080fd5b505081359360208301359350604090920135919050565b634e487b7160e01b600052601160045260246000fd5b8181038181111561042e5761042e610efe565b8082018082111561042e5761042e610efe565b600060208284031215610f4c57600080fd5b5051919050565b634e487b7160e01b600052603260045260246000fdfea264697066735822122020c9e721e95e2503993e224d81f0a24a7cac65da736b1c6ede8a898673766c0c64736f6c634300081c0033",
  "linkReferences": {},
  "deployedLinkReferences": {}
}