{"contracts/EmissionController.sol":{"EmissionController":{"abi":[{"inputs":[{"internalType":"address","name":"_token","type":"address"},{"internalType":"address","name":"_treasury","type":"address"},{"internalType":"address","name":"_merkleRewards","type":"address"},{"internalType":"uint256","name":"_epochDuration","type":"uint256"}],"stateMutability":"nonpayable","type":"constructor"},{"inputs":[],"name":"AccessControlBadConfirmation","type":"error"},{"inputs":[{"internalType":"address","name":"account","type":"address"},{"internalType":"bytes32","name":"neededRole","type":"bytes32"}],"name":"AccessControlUnauthorizedAccount","type":"error"},{"anonymous":false,"inputs":[{"indexed":false,"internalType":"uint256","name":"startTimestamp","type":"uint256"},{"indexed":false,"internalType":"uint256","name":"E0","type":"uint256"},{"indexed":false,"internalType":"uint256","name":"k","type":"uint256"}],"name":"EmissionsStarted","type":"event"},{"anonymous":false,"inputs":[{"indexed":false,"internalType":"uint256","name":"epoch","type":"uint256"},{"indexed":false,"internalType":"uint256","name":"totalEmission","type":"uint256"},{"indexed":false,"internalType":"uint256","name":"validatorsAmount","type":"uint256"},{"indexed":false,"internalType":"uint256","name":"pouwBudget","type":"uint256"},{"indexed":false,"internalType":"uint256","name":"treasuryAmount","type":"uint256"},{"indexed":false,"internalType":"uint256","name":"governanceAmount","type":"uint256"}],"name":"EpochProcessed","type":"event"},{"anonymous":false,"inputs":[{"indexed":false,"internalType":"address","name":"oldAddress","type":"address"},{"indexed":false,"internalType":"address","name":"newAddress","type":"address"}],"name":"GovernanceIncentivesUpdated","type":"event"},{"anonymous":false,"inputs":[{"indexed":false,"internalType":"address","name":"oldAddress","type":"address"},{"indexed":false,"internalType":"address","name":"newAddress","type":"address"}],"name":"MerkleRewardsUpdated","type":"event"},{"anonymous":false,"inputs":[{"indexed":true,"internalType":"bytes32","name":"role","type":"bytes32"},{"indexed":true,"internalType":"bytes32","name":"previousAdminRole","type":"bytes32"},{"indexed":true,"internalType":"bytes32","name":"newAdminRole","type":"bytes32"}],"name":"RoleAdminChanged","type":"event"},{"anonymous":false,"inputs":[{"indexed":true,"internalType":"bytes32","name":"role","type":"bytes32"},{"indexed":true,"internalType":"address","name":"account","type":"address"},{"indexed":true,"internalType":"address","name":"sender","type":"address"}],"name":"RoleGranted","type":"event"},{"anonymous":false,"inputs":[{"indexed":true,"internalType":"bytes32","name":"role","type":"bytes32"},{"indexed":true,"internalType":"address","name":"account","type":"address"},{"indexed":true,"internalType":"address","name":"sender","type":"address"}],"name":"RoleRevoked","type":"event"},{"inputs":[],"name":"DEFAULT_ADMIN_ROLE","outputs":[{"internalType":"bytes32","name":"","type":"bytes32"}],"stateMutability":"view","type":"function"},{"inputs":[],"name":"E0","outputs":[{"internalType":"uint256","name":"","type":"uint256"}],"stateMutability":"view","type":"function"},{"inputs":[],"name":"EMITTER_ROLE","outputs":[{"internalType":"bytes32","name":"","type":"bytes32"}],"stateMutability":"view","type":"function"},{"inputs":[],"name":"GOVERNANCE_BPS","outputs":[{"internalType":"uint256","name":"","type":"uint256"}],"stateMutability":"view","type":"function"},{"inputs":[],"name":"POUW_BPS","outputs":[{"internalType":"uint256","name":"","type":"uint256"}],"stateMutability":"view","type":"function"},{"inputs":[],"name":"TREASURY_BPS","outputs":[{"internalType":"uint256","name":"","type":"uint256"}],"stateMutability":"view","type":"function"},{"inputs":[],"name":"VALIDATORS_BPS","outputs":[{"internalType":"uint256","name":"","type":"uint256"}],"stateMutability":"view","type":"function"},{"inputs":[{"internalType":"uint256","name":"epoch","type":"uint256"}],"name":"calculateEmission","outputs":[{"internalType":"uint256","name":"","type":"uint256"}],"stateMutability":"view","type":"function"},{"inputs":[],"name":"emissionsStarted","outputs":[{"internalType":"bool","name":"","type":"bool"}],"stateMutability":"view","type":"function"},{"inputs":[],"name":"epochDuration","outputs":[{"internalType":"uint256","name":"","type":"uint256"}],"stateMutability":"view","type":"function"},{"inputs":[{"internalType":"uint256","name":"","type":"uint256"}],"name":"epochProcessed","outputs":[{"internalType":"bool","name":"","type":"bool"}],"stateMutability":"view","type":"function"},{"inputs":[],"name":"getCurrentEpoch","outputs":[{"internalType":"uint256","name":"","type":"uint256"}],"stateMutability":"view","type":"function"},{"inputs":[{"internalType":"uint256","name":"epoch","type":"uint256"}],"name":"getEpochInfo","outputs":[{"internalType":"bool","name":"processed","type":"bool"},{"internalType":"uint256","name":"budget","type":"uint256"}],"stateMutability":"view","type":"function"},{"inputs":[{"internalType":"uint256","name":"epoch","type":"uint256"}],"name":"getPouwBudget","outputs":[{"internalType":"uint256","name":"","type":"uint256"}],"stateMutability":"view","type":"function"},{"inputs":[{"internalType":"bytes32","name":"role","type":"bytes32"}],"name":"getRoleAdmin","outputs":[{"internalType":"bytes32","name":"","type":"bytes32"}],"stateMutability":"view","type":"function"},{"inputs":[],"name":"governanceIncentives","outputs":[{"internalType":"address","name":"","type":"address"}],"stateMutability":"view","type":"function"},{"inputs":[{"internalType":"bytes32","name":"role","type":"bytes32"},{"internalType":"address","name":"account","type":"address"}],"name":"grantRole","outputs":[],"stateMutability":"nonpayable","type":"function"},{"inputs":[{"internalType":"bytes32","name":"role","type":"bytes32"},{"internalType":"address","name":"account","type":"address"}],"name":"hasRole","outputs":[{"internalType":"bool","name":"","type":"bool"}],"stateMutability":"view","type":"function"},{"inputs":[],"name":"k","outputs":[{"internalType":"uint256","name":"","type":"uint256"}],"stateMutability":"view","type":"function"},{"inputs":[],"name":"merkleRewards","outputs":[{"internalType":"contract MerkleRewardsPoUW","name":"","type":"address"}],"stateMutability":"view","type":"function"},{"inputs":[{"internalType":"uint256","name":"","type":"uint256"}],"name":"pouwBudget","outputs":[{"internalType":"uint256","name":"","type":"uint256"}],"stateMutability":"view","type":"function"},{"inputs":[],"name":"processCurrentEpoch","outputs":[],"stateMutability":"nonpayable","type":"function"},{"inputs":[{"internalType":"uint256","name":"epoch","type":"uint256"}],"name":"processEpoch","outputs":[],"stateMutability":"nonpayable","type":"function"},{"inputs":[{"internalType":"bytes32","name":"role","type":"bytes32"},{"internalType":"address","name":"callerConfirmation","type":"address"}],"name":"renounceRole","outputs":[],"stateMutability":"nonpayable","type":"function"},{"inputs":[{"internalType":"bytes32","name":"role","type":"bytes32"},{"internalType":"address","name":"account","type":"address"}],"name":"revokeRole","outputs":[],"stateMutability":"nonpayable","type":"function"},{"inputs":[{"internalType":"uint256","name":"_k","type":"uint256"}],"name":"setDecayConstant","outputs":[],"stateMutability":"nonpayable","type":"function"},{"inputs":[{"internalType":"address","name":"_governanceIncentives","type":"address"}],"name":"setGovernanceIncentives","outputs":[],"stateMutability":"nonpayable","type":"function"},{"inputs":[{"internalType":"address","name":"_merkleRewards","type":"address"}],"name":"setMerkleRewards","outputs":[],"stateMutability":"nonpayable","type":"function"},{"inputs":[{"internalType":"uint256","name":"_E0","type":"uint256"}],"name":"startEmissions","outputs":[],"stateMutability":"nonpayable","type":"function"},{"inputs":[],"name":"startTimestamp","outputs":[{"internalType":"uint256","name":"","type":"uint256"}],"stateMutability":"view","type":"function"},{"inputs":[{"internalType":"bytes4","name":"interfaceId","type":"bytes4"}],"name":"supportsInterface","outputs":[{"internalType":"bool","name":"","type":"bool"}],"stateMutability":"view","type":"function"},{"inputs":[],"name":"token","outputs":[{"internalType":"contract CLDToken","name":"","type":"address"}],"stateMutability":"view","type":"function"},{"inputs":[],"name":"treasury","outputs":[{"internalType":"contract Treasury","name":"","type":"address"}],"stateMutability":"view","type":"function"}],"evm":{"bytecode":{"linkReferences":{},"object":"60c060405234801561001057600080fd5b5060405161177638038061177683398101604081905261002f916102a9565b6001600160a01b0384166100945760405162461bcd60e51b815260206004820152602160248201527f456d697373696f6e436f6e74726f6c6c65723a20496e76616c696420746f6b656044820152603760f91b60648201526084015b60405180910390fd5b6001600160a01b0383166100f65760405162461bcd60e51b8152602060048201526024808201527f456d697373696f6e436f6e74726f6c6c65723a20496e76616c696420747265616044820152637375727960e01b606482015260840161008b565b600081116101595760405162461bcd60e51b815260206004820152602a60248201527f456d697373696f6e436f6e74726f6c6c65723a20496e76616c69642065706f636044820152693410323ab930ba34b7b760b11b606482015260840161008b565b6001600160a01b0380851660805283811660a052600482905582161561019557600180546001600160a01b0319166001600160a01b0384161790555b6101a06000336101e1565b506101cb7f4b0ad04e4cfd06668c08542d3af105a3fa4b1a2813040bbb694bfecf2e5f5240336101e1565b5050660aa87bee538000600755506102f4915050565b6000828152602081815260408083206001600160a01b038516845290915281205460ff16610283576000838152602081815260408083206001600160a01b03861684529091529020805460ff1916600117905561023b3390565b6001600160a01b0316826001600160a01b0316847f2f8788117e7eff1d82e926ec794901d17c78024a50270940304540a733656f0d60405160405180910390a4506001610287565b5060005b92915050565b80516001600160a01b03811681146102a457600080fd5b919050565b600080600080608085870312156102bf57600080fd5b6102c88561028d565b93506102d66020860161028d565b92506102e46040860161028d565b6060959095015193969295505050565b60805160a05161144861032e600039600081816103b801528181610c490152610cc60152600081816104f60152610dbc01526114486000f3fe608060405234801561001057600080fd5b506004361061020b5760003560e01c80636031a8d61161012a57806395ddabfa116100bd578063d547741f1161008c578063e6fd48bc11610071578063e6fd48bc146104c8578063f7f3ea81146104d1578063fc0c546a146104f157600080fd5b8063d547741f146104ac578063d98aa23d146104bf57600080fd5b806395ddabfa14610470578063a217fddf14610493578063b4f40c611461049b578063b97dd9e2146104a457600080fd5b8063899f6235116100f9578063899f6235146104005780638b9f9af8146104135780638f22374f1461042657806391d148541461043957600080fd5b80636031a8d6146103aa57806361d027b3146103b3578063621485d9146103da57806362ec17c2146103ed57600080fd5b806336568abe116101a25780634c25d197116101715780634c25d197146103785780634ff0876a1461038157806358161a291461038a5780635adf00211461039d57600080fd5b806336568abe14610334578063426d021c1461034757806345e7519f14610367578063492393af1461036f57600080fd5b806323ec8d57116101de57806323ec8d57146102ca578063248a9ca3146102d35780632d88bf98146102f65780632f2ff15d1461032157600080fd5b806301ffc9a714610210578063135022c21461023857806318004b39146102805780631f9c204d146102b5575b600080fd5b61022361021e366004611237565b610518565b60405190151581526020015b60405180910390f35b610269610246366004611280565b60009081526008602090815260408083205460099092529091205460ff90911691565b60408051921515835260208301919091520161022f565b6102a77f4b0ad04e4cfd06668c08542d3af105a3fa4b1a2813040bbb694bfecf2e5f524081565b60405190815260200161022f565b6102c86102c33660046112b5565b6105b1565b005b6102a7610dac81565b6102a76102e1366004611280565b60009081526020819052604090206001015490565b600254610309906001600160a01b031681565b6040516001600160a01b03909116815260200161022f565b6102c861032f3660046112d0565b61072c565b6102c86103423660046112d0565b610757565b6102a7610355366004611280565b60096020526000908152604090205481565b6102c86107a8565b6102a7610fa081565b6102a761070881565b6102a760045481565b6102c8610398366004611280565b6107eb565b6005546102239060ff1681565b6102a760065481565b6103097f000000000000000000000000000000000000000000000000000000000000000081565b6102a76103e8366004611280565b610875565b6102c86103fb3660046112b5565b6109ba565b6102c861040e366004611280565b610a2c565b6102c8610421366004611280565b610ea1565b600154610309906001600160a01b031681565b6102236104473660046112d0565b6000918252602082815260408084206001600160a01b0393909316845291905290205460ff1690565b61022361047e366004611280565b60086020526000908152604090205460ff1681565b6102a7600081565b6102a760075481565b6102a7610ff8565b6102c86104ba3660046112d0565b61106c565b6102a76102bc81565b6102a760035481565b6102a76104df366004611280565b60009081526009602052604090205490565b6103097f000000000000000000000000000000000000000000000000000000000000000081565b60007fffffffff0000000000000000000000000000000000000000000000000000000082167f7965db0b0000000000000000000000000000000000000000000000000000000014806105ab57507f01ffc9a7000000000000000000000000000000000000000000000000000000007fffffffff000000000000000000000000000000000000000000000000000000008316145b92915050565b60006105bc81611091565b6001600160a01b03821661063d5760405162461bcd60e51b815260206004820152602960248201527f456d697373696f6e436f6e74726f6c6c65723a20496e76616c6964206d65726b60448201527f6c6552657761726473000000000000000000000000000000000000000000000060648201526084015b60405180910390fd5b6001546001600160a01b0316156106bc5760405162461bcd60e51b815260206004820152602d60248201527f456d697373696f6e436f6e74726f6c6c65723a204d65726b6c6552657761726460448201527f7320616c726561647920736574000000000000000000000000000000000000006064820152608401610634565b600180546001600160a01b0384811673ffffffffffffffffffffffffffffffffffffffff1983168117909355604080519190921680825260208201939093527fcfe2ef902b6065d8db93aecb1db9d0bdbd762266a120f21e83952d09e4b961b791015b60405180910390a1505050565b60008281526020819052604090206001015461074781611091565b610751838361109e565b50505050565b6001600160a01b0381163314610799576040517f6697b23200000000000000000000000000000000000000000000000000000000815260040160405180910390fd5b6107a38282611148565b505050565b7f4b0ad04e4cfd06668c08542d3af105a3fa4b1a2813040bbb694bfecf2e5f52406107d281611091565b60006107dc610ff8565b90506107e781610a2c565b5050565b60006107f681611091565b60055460ff161561086f5760405162461bcd60e51b815260206004820152602f60248201527f456d697373696f6e436f6e74726f6c6c65723a2043616e6e6f74206368616e6760448201527f65206b20616674657220737461727400000000000000000000000000000000006064820152608401610634565b50600755565b60055460009060ff166108ca5760405162461bcd60e51b815260206004820152601f60248201527f456d697373696f6e436f6e74726f6c6c65723a204e6f742073746172746564006044820152606401610634565b600062015180600454846108de9190611312565b6108e89190611329565b9050806000036108fc575050600654919050565b6000670de0b6b3a7640000826007546109159190611312565b61091f9190611329565b9050670de0b6b3a7640000811061093a575060009392505050565b600061094e82670de0b6b3a764000061134b565b90508115610990576000670de0b6b3a764000061096b8480611312565b6109759190611329565b9050610982600282611329565b61098c908361135e565b9150505b670de0b6b3a7640000816006546109a79190611312565b6109b19190611329565b95945050505050565b60006109c581611091565b600280546001600160a01b0384811673ffffffffffffffffffffffffffffffffffffffff1983168117909355604080519190921680825260208201939093527fc431a12aa1787fe0c47dab44c6bda485c7375b649776516db5da84215b65b346910161071f565b7f4b0ad04e4cfd06668c08542d3af105a3fa4b1a2813040bbb694bfecf2e5f5240610a5681611091565b60055460ff16610aa85760405162461bcd60e51b815260206004820152601f60248201527f456d697373696f6e436f6e74726f6c6c65723a204e6f742073746172746564006044820152606401610634565b60008281526008602052604090205460ff1615610b2d5760405162461bcd60e51b815260206004820152602b60248201527f456d697373696f6e436f6e74726f6c6c65723a2045706f636820616c7265616460448201527f792070726f6365737365640000000000000000000000000000000000000000006064820152608401610634565b6000610b3883610875565b905060008111610bb05760405162461bcd60e51b815260206004820152602160248201527f456d697373696f6e436f6e74726f6c6c65723a205a65726f20656d697373696f60448201527f6e000000000000000000000000000000000000000000000000000000000000006064820152608401610634565b6000612710610bc1610dac84611312565b610bcb9190611329565b90506000612710610bde610fa085611312565b610be89190611329565b90506000612710610bfb61070886611312565b610c059190611329565b90506000612710610c186102bc87611312565b610c229190611329565b6000888152600960205260408120859055600254919250906001600160a01b0316610c6d577f0000000000000000000000000000000000000000000000000000000000000000610c7a565b6002546001600160a01b03165b60408051600280825260608201835292935060009290916020830190803683375050604080516002808252606082018352939450600093909250906020830190803683370190505090507f000000000000000000000000000000000000000000000000000000000000000082600081518110610cf857610cf8611371565b6001600160a01b0390921660209283029190910190910152610d1a858861135e565b81600081518110610d2d57610d2d611371565b6020026020010181815250508282600181518110610d4d57610d4d611371565b60200260200101906001600160a01b031690816001600160a01b0316815250508381600181518110610d8157610d81611371565b60209081029190910101526040517f685731070000000000000000000000000000000000000000000000000000000081526001600160a01b037f00000000000000000000000000000000000000000000000000000000000000001690636857310790610df39085908590600401611387565b600060405180830381600087803b158015610e0d57600080fd5b505af1158015610e21573d6000803e3d6000fd5b50505060008b815260086020908152604091829020805460ff1916600117905581518d81529081018b9052908101899052606081018890526080810187905260a081018690527f2518caa0216d93d1101233ff8f841886ad4828028040ef048948016b1d8f45e9915060c00160405180910390a150505050505050505050565b6000610eac81611091565b60055460ff1615610f255760405162461bcd60e51b815260206004820152602360248201527f456d697373696f6e436f6e74726f6c6c65723a20416c7265616479207374617260448201527f74656400000000000000000000000000000000000000000000000000000000006064820152608401610634565b60008211610f9b5760405162461bcd60e51b815260206004820152603060248201527f456d697373696f6e436f6e74726f6c6c65723a204530206d757374206265206760448201527f726561746572207468616e207a65726f000000000000000000000000000000006064820152608401610634565b60068290554260038190556005805460ff1916600117905560075460408051928352602083018590528201527fa5070e99edd98e4038d988d53032ab30c5ab97ca9dbe3f4e1dc5013e9eb16cf49060600160405180910390a15050565b60055460009060ff1661104d5760405162461bcd60e51b815260206004820152601f60248201527f456d697373696f6e436f6e74726f6c6c65723a204e6f742073746172746564006044820152606401610634565b60045460035461105d904261134b565b6110679190611329565b905090565b60008281526020819052604090206001015461108781611091565b6107518383611148565b61109b81336111cb565b50565b6000828152602081815260408083206001600160a01b038516845290915281205460ff16611140576000838152602081815260408083206001600160a01b03861684529091529020805460ff191660011790556110f83390565b6001600160a01b0316826001600160a01b0316847f2f8788117e7eff1d82e926ec794901d17c78024a50270940304540a733656f0d60405160405180910390a45060016105ab565b5060006105ab565b6000828152602081815260408083206001600160a01b038516845290915281205460ff1615611140576000838152602081815260408083206001600160a01b0386168085529252808320805460ff1916905551339286917ff6391f5c32d9c69d2a47ea670b442974b53935d1edc7fd64eb21e047a839171b9190a45060016105ab565b6000828152602081815260408083206001600160a01b038516845290915290205460ff166107e7576040517fe2517d3f0000000000000000000000000000000000000000000000000000000081526001600160a01b038216600482015260248101839052604401610634565b60006020828403121561124957600080fd5b81357fffffffff000000000000000000000000000000000000000000000000000000008116811461127957600080fd5b9392505050565b60006020828403121561129257600080fd5b5035919050565b80356001600160a01b03811681146112b057600080fd5b919050565b6000602082840312156112c757600080fd5b61127982611299565b600080604083850312156112e357600080fd5b823591506112f360208401611299565b90509250929050565b634e487b7160e01b600052601160045260246000fd5b80820281158282048414176105ab576105ab6112fc565b60008261134657634e487b7160e01b600052601260045260246000fd5b500490565b818103818111156105ab576105ab6112fc565b808201808211156105ab576105ab6112fc565b634e487b7160e01b600052603260045260246000fd5b6040808252835190820181905260009060208501906060840190835b818110156113ca5783516001600160a01b03168352602093840193909201916001016113a3565b50508381036020808601919091528551808352918101925085019060005b818110156114065782518452602093840193909201916001016113e8565b5091969550505050505056fea26469706673582212203962558941d9317de47649630b0f829d835195cee7f5f8ddaedd4efe9f6b142d64736f6c634300081c0033","opcodes":"PUSH1 0xC0 PUSH1 0x40 MSTORE CALLVALUE DUP1 ISZERO PUSH2 0x10 JUMPI PUSH1 0x0 DUP1 REVERT JUMPDEST POP PUSH1 0x40 MLOAD PUSH2 0x1776 CODESIZE SUB DUP1 PUSH2 0x1776 DUP4 CODECOPY DUP2 ADD PUSH1 0x40 DUP2 SWAP1 MSTORE PUSH2 0x2F SWAP2 PUSH2 0x2A9 JUMP JUMPDEST PUSH1 0x1 PUSH1 0x1 PUSH1 0xA0 SHL SUB DUP5 AND PUSH2 0x94 JUMPI PUSH1 0x40 MLOAD PUSH3 0x461BCD PUSH1 0xE5 SHL DUP2 MSTORE PUSH1 0x20 PUSH1 0x4 DUP3 ADD MSTORE PUSH1 0x21 PUSH1 0x24 DUP3 ADD MSTORE PUSH32 0x456D697373696F6E436F6E74726F6C6C65723A20496E76616C696420746F6B65 PUSH1 0x44 DUP3 ADD MSTORE PUSH1 0x37 PUSH1 0xF9 SHL PUSH1 0x64 DUP3 ADD MSTORE PUSH1 0x84 ADD JUMPDEST PUSH1 0x40 MLOAD DUP1 SWAP2 SUB SWAP1 REVERT JUMPDEST PUSH1 0x1 PUSH1 0x1 PUSH1 0xA0 SHL SUB DUP4 AND PUSH2 0xF6 JUMPI PUSH1 0x40 MLOAD PUSH3 0x461BCD PUSH1 0xE5 SHL DUP2 MSTORE PUSH1 0x20 PUSH1 0x4 DUP3 ADD MSTORE PUSH1 0x24 DUP1 DUP3 ADD MSTORE PUSH32 0x456D697373696F6E436F6E74726F6C6C65723A20496E76616C69642074726561 PUSH1 0x44 DUP3 ADD MSTORE PUSH4 0x73757279 PUSH1 0xE0 SHL PUSH1 0x64 DUP3 ADD MSTORE PUSH1 0x84 ADD PUSH2 0x8B JUMP JUMPDEST PUSH1 0x0 DUP2 GT PUSH2 0x159 JUMPI PUSH1 0x40 MLOAD PUSH3 0x461BCD PUSH1 0xE5 SHL DUP2 MSTORE PUSH1 0x20 PUSH1 0x4 DUP3 ADD MSTORE PUSH1 0x2A PUSH1 0x24 DUP3 ADD MSTORE PUSH32 0x456D697373696F6E436F6E74726F6C6C65723A20496E76616C69642065706F63 PUSH1 0x44 DUP3 ADD MSTORE PUSH10 0x3410323AB930BA34B7B7 PUSH1 0xB1 SHL PUSH1 0x64 DUP3 ADD MSTORE PUSH1 0x84 ADD PUSH2 0x8B JUMP JUMPDEST PUSH1 0x1 PUSH1 0x1 PUSH1 0xA0 SHL SUB DUP1 DUP6 AND PUSH1 0x80 MSTORE DUP4 DUP2 AND PUSH1 0xA0 MSTORE PUSH1 0x4 DUP3 SWAP1 SSTORE DUP3 AND ISZERO PUSH2 0x195 JUMPI PUSH1 0x1 DUP1 SLOAD PUSH1 0x1 PUSH1 0x1 PUSH1 0xA0 SHL SUB NOT AND PUSH1 0x1 PUSH1 0x1 PUSH1 0xA0 SHL SUB DUP5 AND OR SWAP1 SSTORE JUMPDEST PUSH2 0x1A0 PUSH1 0x0 CALLER PUSH2 0x1E1 JUMP JUMPDEST POP PUSH2 0x1CB PUSH32 0x4B0AD04E4CFD06668C08542D3AF105A3FA4B1A2813040BBB694BFECF2E5F5240 CALLER PUSH2 0x1E1 JUMP JUMPDEST POP POP PUSH7 0xAA87BEE538000 PUSH1 0x7 SSTORE POP PUSH2 0x2F4 SWAP2 POP POP JUMP JUMPDEST PUSH1 0x0 DUP3 DUP2 MSTORE PUSH1 0x20 DUP2 DUP2 MSTORE PUSH1 0x40 DUP1 DUP4 KECCAK256 PUSH1 0x1 PUSH1 0x1 PUSH1 0xA0 SHL SUB DUP6 AND DUP5 MSTORE SWAP1 SWAP2 MSTORE DUP2 KECCAK256 SLOAD PUSH1 0xFF AND PUSH2 0x283 JUMPI PUSH1 0x0 DUP4 DUP2 MSTORE PUSH1 0x20 DUP2 DUP2 MSTORE PUSH1 0x40 DUP1 DUP4 KECCAK256 PUSH1 0x1 PUSH1 0x1 PUSH1 0xA0 SHL SUB DUP7 AND DUP5 MSTORE SWAP1 SWAP2 MSTORE SWAP1 KECCAK256 DUP1 SLOAD PUSH1 0xFF NOT AND PUSH1 0x1 OR SWAP1 SSTORE PUSH2 0x23B CALLER SWAP1 JUMP JUMPDEST PUSH1 0x1 PUSH1 0x1 PUSH1 0xA0 SHL SUB AND DUP3 PUSH1 0x1 PUSH1 0x1 PUSH1 0xA0 SHL SUB AND DUP5 PUSH32 0x2F8788117E7EFF1D82E926EC794901D17C78024A50270940304540A733656F0D PUSH1 0x40 MLOAD PUSH1 0x40 MLOAD DUP1 SWAP2 SUB SWAP1 LOG4 POP PUSH1 0x1 PUSH2 0x287 JUMP JUMPDEST POP PUSH1 0x0 JUMPDEST SWAP3 SWAP2 POP POP JUMP JUMPDEST DUP1 MLOAD PUSH1 0x1 PUSH1 0x1 PUSH1 0xA0 SHL SUB DUP2 AND DUP2 EQ PUSH2 0x2A4 JUMPI PUSH1 0x0 DUP1 REVERT JUMPDEST SWAP2 SWAP1 POP JUMP JUMPDEST PUSH1 0x0 DUP1 PUSH1 0x0 DUP1 PUSH1 0x80 DUP6 DUP8 SUB SLT ISZERO PUSH2 0x2BF JUMPI PUSH1 0x0 DUP1 REVERT JUMPDEST PUSH2 0x2C8 DUP6 PUSH2 0x28D JUMP JUMPDEST SWAP4 POP PUSH2 0x2D6 PUSH1 0x20 DUP7 ADD PUSH2 0x28D JUMP JUMPDEST SWAP3 POP PUSH2 0x2E4 PUSH1 0x40 DUP7 ADD PUSH2 0x28D JUMP JUMPDEST PUSH1 0x60 SWAP6 SWAP1 SWAP6 ADD MLOAD SWAP4 SWAP7 SWAP3 SWAP6 POP POP POP JUMP JUMPDEST PUSH1 0x80 MLOAD PUSH1 0xA0 MLOAD PUSH2 0x1448 PUSH2 0x32E PUSH1 0x0 CODECOPY PUSH1 0x0 DUP2 DUP2 PUSH2 0x3B8 ADD MSTORE DUP2 DUP2 PUSH2 0xC49 ADD MSTORE PUSH2 0xCC6 ADD MSTORE PUSH1 0x0 DUP2 DUP2 PUSH2 0x4F6 ADD MSTORE PUSH2 0xDBC ADD MSTORE PUSH2 0x1448 PUSH1 0x0 RETURN INVALID PUSH1 0x80 PUSH1 0x40 MSTORE CALLVALUE DUP1 ISZERO PUSH2 0x10 JUMPI PUSH1 0x0 DUP1 REVERT JUMPDEST POP PUSH1 0x4 CALLDATASIZE LT PUSH2 0x20B JUMPI PUSH1 0x0 CALLDATALOAD PUSH1 0xE0 SHR DUP1 PUSH4 0x6031A8D6 GT PUSH2 0x12A JUMPI DUP1 PUSH4 0x95DDABFA GT PUSH2 0xBD JUMPI DUP1 PUSH4 0xD547741F GT PUSH2 0x8C JUMPI DUP1 PUSH4 0xE6FD48BC GT PUSH2 0x71 JUMPI DUP1 PUSH4 0xE6FD48BC EQ PUSH2 0x4C8 JUMPI DUP1 PUSH4 0xF7F3EA81 EQ PUSH2 0x4D1 JUMPI DUP1 PUSH4 0xFC0C546A EQ PUSH2 0x4F1 JUMPI PUSH1 0x0 DUP1 REVERT JUMPDEST DUP1 PUSH4 0xD547741F EQ PUSH2 0x4AC JUMPI DUP1 PUSH4 0xD98AA23D EQ PUSH2 0x4BF JUMPI PUSH1 0x0 DUP1 REVERT JUMPDEST DUP1 PUSH4 0x95DDABFA EQ PUSH2 0x470 JUMPI DUP1 PUSH4 0xA217FDDF EQ PUSH2 0x493 JUMPI DUP1 PUSH4 0xB4F40C61 EQ PUSH2 0x49B JUMPI DUP1 PUSH4 0xB97DD9E2 EQ PUSH2 0x4A4 JUMPI PUSH1 0x0 DUP1 REVERT JUMPDEST DUP1 PUSH4 0x899F6235 GT PUSH2 0xF9 JUMPI DUP1 PUSH4 0x899F6235 EQ PUSH2 0x400 JUMPI DUP1 PUSH4 0x8B9F9AF8 EQ PUSH2 0x413 JUMPI DUP1 PUSH4 0x8F22374F EQ PUSH2 0x426 JUMPI DUP1 PUSH4 0x91D14854 EQ PUSH2 0x439 JUMPI PUSH1 0x0 DUP1 REVERT JUMPDEST DUP1 PUSH4 0x6031A8D6 EQ PUSH2 0x3AA JUMPI DUP1 PUSH4 0x61D027B3 EQ PUSH2 0x3B3 JUMPI DUP1 PUSH4 0x621485D9 EQ PUSH2 0x3DA JUMPI DUP1 PUSH4 0x62EC17C2 EQ PUSH2 0x3ED JUMPI PUSH1 0x0 DUP1 REVERT JUMPDEST DUP1 PUSH4 0x36568ABE GT PUSH2 0x1A2 JUMPI DUP1 PUSH4 0x4C25D197 GT PUSH2 0x171 JUMPI DUP1 PUSH4 0x4C25D197 EQ PUSH2 0x378 JUMPI DUP1 PUSH4 0x4FF0876A EQ PUSH2 0x381 JUMPI DUP1 PUSH4 0x58161A29 EQ PUSH2 0x38A JUMPI DUP1 PUSH4 0x5ADF0021 EQ PUSH2 0x39D JUMPI PUSH1 0x0 DUP1 REVERT JUMPDEST DUP1 PUSH4 0x36568ABE EQ PUSH2 0x334 JUMPI DUP1 PUSH4 0x426D021C EQ PUSH2 0x347 JUMPI DUP1 PUSH4 0x45E7519F EQ PUSH2 0x367 JUMPI DUP1 PUSH4 0x492393AF EQ PUSH2 0x36F JUMPI PUSH1 0x0 DUP1 REVERT JUMPDEST DUP1 PUSH4 0x23EC8D57 GT PUSH2 0x1DE JUMPI DUP1 PUSH4 0x23EC8D57 EQ PUSH2 0x2CA JUMPI DUP1 PUSH4 0x248A9CA3 EQ PUSH2 0x2D3 JUMPI DUP1 PUSH4 0x2D88BF98 EQ PUSH2 0x2F6 JUMPI DUP1 PUSH4 0x2F2FF15D EQ PUSH2 0x321 JUMPI PUSH1 0x0 DUP1 REVERT JUMPDEST DUP1 PUSH4 0x1FFC9A7 EQ PUSH2 0x210 JUMPI DUP1 PUSH4 0x135022C2 EQ PUSH2 0x238 JUMPI DUP1 PUSH4 0x18004B39 EQ PUSH2 0x280 JUMPI DUP1 PUSH4 0x1F9C204D EQ PUSH2 0x2B5 JUMPI JUMPDEST PUSH1 0x0 DUP1 REVERT JUMPDEST PUSH2 0x223 PUSH2 0x21E CALLDATASIZE PUSH1 0x4 PUSH2 0x1237 JUMP JUMPDEST PUSH2 0x518 JUMP JUMPDEST PUSH1 0x40 MLOAD SWAP1 ISZERO ISZERO DUP2 MSTORE PUSH1 0x20 ADD JUMPDEST PUSH1 0x40 MLOAD DUP1 SWAP2 SUB SWAP1 RETURN JUMPDEST PUSH2 0x269 PUSH2 0x246 CALLDATASIZE PUSH1 0x4 PUSH2 0x1280 JUMP JUMPDEST PUSH1 0x0 SWAP1 DUP2 MSTORE PUSH1 0x8 PUSH1 0x20 SWAP1 DUP2 MSTORE PUSH1 0x40 DUP1 DUP4 KECCAK256 SLOAD PUSH1 0x9 SWAP1 SWAP3 MSTORE SWAP1 SWAP2 KECCAK256 SLOAD PUSH1 0xFF SWAP1 SWAP2 AND SWAP2 JUMP JUMPDEST PUSH1 0x40 DUP1 MLOAD SWAP3 ISZERO ISZERO DUP4 MSTORE PUSH1 0x20 DUP4 ADD SWAP2 SWAP1 SWAP2 MSTORE ADD PUSH2 0x22F JUMP JUMPDEST PUSH2 0x2A7 PUSH32 0x4B0AD04E4CFD06668C08542D3AF105A3FA4B1A2813040BBB694BFECF2E5F5240 DUP2 JUMP JUMPDEST PUSH1 0x40 MLOAD SWAP1 DUP2 MSTORE PUSH1 0x20 ADD PUSH2 0x22F JUMP JUMPDEST PUSH2 0x2C8 PUSH2 0x2C3 CALLDATASIZE PUSH1 0x4 PUSH2 0x12B5 JUMP JUMPDEST PUSH2 0x5B1 JUMP JUMPDEST STOP JUMPDEST PUSH2 0x2A7 PUSH2 0xDAC DUP2 JUMP JUMPDEST PUSH2 0x2A7 PUSH2 0x2E1 CALLDATASIZE PUSH1 0x4 PUSH2 0x1280 JUMP JUMPDEST PUSH1 0x0 SWAP1 DUP2 MSTORE PUSH1 0x20 DUP2 SWAP1 MSTORE PUSH1 0x40 SWAP1 KECCAK256 PUSH1 0x1 ADD SLOAD SWAP1 JUMP JUMPDEST PUSH1 0x2 SLOAD PUSH2 0x309 SWAP1 PUSH1 0x1 PUSH1 0x1 PUSH1 0xA0 SHL SUB AND DUP2 JUMP JUMPDEST PUSH1 0x40 MLOAD PUSH1 0x1 PUSH1 0x1 PUSH1 0xA0 SHL SUB SWAP1 SWAP2 AND DUP2 MSTORE PUSH1 0x20 ADD PUSH2 0x22F JUMP JUMPDEST PUSH2 0x2C8 PUSH2 0x32F CALLDATASIZE PUSH1 0x4 PUSH2 0x12D0 JUMP JUMPDEST PUSH2 0x72C JUMP JUMPDEST PUSH2 0x2C8 PUSH2 0x342 CALLDATASIZE PUSH1 0x4 PUSH2 0x12D0 JUMP JUMPDEST PUSH2 0x757 JUMP JUMPDEST PUSH2 0x2A7 PUSH2 0x355 CALLDATASIZE PUSH1 0x4 PUSH2 0x1280 JUMP JUMPDEST PUSH1 0x9 PUSH1 0x20 MSTORE PUSH1 0x0 SWAP1 DUP2 MSTORE PUSH1 0x40 SWAP1 KECCAK256 SLOAD DUP2 JUMP JUMPDEST PUSH2 0x2C8 PUSH2 0x7A8 JUMP JUMPDEST PUSH2 0x2A7 PUSH2 0xFA0 DUP2 JUMP JUMPDEST PUSH2 0x2A7 PUSH2 0x708 DUP2 JUMP JUMPDEST PUSH2 0x2A7 PUSH1 0x4 SLOAD DUP2 JUMP JUMPDEST PUSH2 0x2C8 PUSH2 0x398 CALLDATASIZE PUSH1 0x4 PUSH2 0x1280 JUMP JUMPDEST PUSH2 0x7EB JUMP JUMPDEST PUSH1 0x5 SLOAD PUSH2 0x223 SWAP1 PUSH1 0xFF AND DUP2 JUMP JUMPDEST PUSH2 0x2A7 PUSH1 0x6 SLOAD DUP2 JUMP JUMPDEST PUSH2 0x309 PUSH32 0x0 DUP2 JUMP JUMPDEST PUSH2 0x2A7 PUSH2 0x3E8 CALLDATASIZE PUSH1 0x4 PUSH2 0x1280 JUMP JUMPDEST PUSH2 0x875 JUMP JUMPDEST PUSH2 0x2C8 PUSH2 0x3FB CALLDATASIZE PUSH1 0x4 PUSH2 0x12B5 JUMP JUMPDEST PUSH2 0x9BA JUMP JUMPDEST PUSH2 0x2C8 PUSH2 0x40E CALLDATASIZE PUSH1 0x4 PUSH2 0x1280 JUMP JUMPDEST PUSH2 0xA2C JUMP JUMPDEST PUSH2 0x2C8 PUSH2 0x421 CALLDATASIZE PUSH1 0x4 PUSH2 0x1280 JUMP JUMPDEST PUSH2 0xEA1 JUMP JUMPDEST PUSH1 0x1 SLOAD PUSH2 0x309 SWAP1 PUSH1 0x1 PUSH1 0x1 PUSH1 0xA0 SHL SUB AND DUP2 JUMP JUMPDEST PUSH2 0x223 PUSH2 0x447 CALLDATASIZE PUSH1 0x4 PUSH2 0x12D0 JUMP JUMPDEST PUSH1 0x0 SWAP2 DUP3 MSTORE PUSH1 0x20 DUP3 DUP2 MSTORE PUSH1 0x40 DUP1 DUP5 KECCAK256 PUSH1 0x1 PUSH1 0x1 PUSH1 0xA0 SHL SUB SWAP4 SWAP1 SWAP4 AND DUP5 MSTORE SWAP2 SWAP1 MSTORE SWAP1 KECCAK256 SLOAD PUSH1 0xFF AND SWAP1 JUMP JUMPDEST PUSH2 0x223 PUSH2 0x47E CALLDATASIZE PUSH1 0x4 PUSH2 0x1280 JUMP JUMPDEST PUSH1 0x8 PUSH1 0x20 MSTORE PUSH1 0x0 SWAP1 DUP2 MSTORE PUSH1 0x40 SWAP1 KECCAK256 SLOAD PUSH1 0xFF AND DUP2 JUMP JUMPDEST PUSH2 0x2A7 PUSH1 0x0 DUP2 JUMP JUMPDEST PUSH2 0x2A7 PUSH1 0x7 SLOAD DUP2 JUMP JUMPDEST PUSH2 0x2A7 PUSH2 0xFF8 JUMP JUMPDEST PUSH2 0x2C8 PUSH2 0x4BA CALLDATASIZE PUSH1 0x4 PUSH2 0x12D0 JUMP JUMPDEST PUSH2 0x106C JUMP JUMPDEST PUSH2 0x2A7 PUSH2 0x2BC DUP2 JUMP JUMPDEST PUSH2 0x2A7 PUSH1 0x3 SLOAD DUP2 JUMP JUMPDEST PUSH2 0x2A7 PUSH2 0x4DF CALLDATASIZE PUSH1 0x4 PUSH2 0x1280 JUMP JUMPDEST PUSH1 0x0 SWAP1 DUP2 MSTORE PUSH1 0x9 PUSH1 0x20 MSTORE PUSH1 0x40 SWAP1 KECCAK256 SLOAD SWAP1 JUMP JUMPDEST PUSH2 0x309 PUSH32 0x0 DUP2 JUMP JUMPDEST PUSH1 0x0 PUSH32 0xFFFFFFFF00000000000000000000000000000000000000000000000000000000 DUP3 AND PUSH32 0x7965DB0B00000000000000000000000000000000000000000000000000000000 EQ DUP1 PUSH2 0x5AB JUMPI POP PUSH32 0x1FFC9A700000000000000000000000000000000000000000000000000000000 PUSH32 0xFFFFFFFF00000000000000000000000000000000000000000000000000000000 DUP4 AND EQ JUMPDEST SWAP3 SWAP2 POP POP JUMP JUMPDEST PUSH1 0x0 PUSH2 0x5BC DUP2 PUSH2 0x1091 JUMP JUMPDEST PUSH1 0x1 PUSH1 0x1 PUSH1 0xA0 SHL SUB DUP3 AND PUSH2 0x63D JUMPI PUSH1 0x40 MLOAD PUSH3 0x461BCD PUSH1 0xE5 SHL DUP2 MSTORE PUSH1 0x20 PUSH1 0x4 DUP3 ADD MSTORE PUSH1 0x29 PUSH1 0x24 DUP3 ADD MSTORE PUSH32 0x456D697373696F6E436F6E74726F6C6C65723A20496E76616C6964206D65726B PUSH1 0x44 DUP3 ADD MSTORE PUSH32 0x6C65526577617264730000000000000000000000000000000000000000000000 PUSH1 0x64 DUP3 ADD MSTORE PUSH1 0x84 ADD JUMPDEST PUSH1 0x40 MLOAD DUP1 SWAP2 SUB SWAP1 REVERT JUMPDEST PUSH1 0x1 SLOAD PUSH1 0x1 PUSH1 0x1 PUSH1 0xA0 SHL SUB AND ISZERO PUSH2 0x6BC JUMPI PUSH1 0x40 MLOAD PUSH3 0x461BCD PUSH1 0xE5 SHL DUP2 MSTORE PUSH1 0x20 PUSH1 0x4 DUP3 ADD MSTORE PUSH1 0x2D PUSH1 0x24 DUP3 ADD MSTORE PUSH32 0x456D697373696F6E436F6E74726F6C6C65723A204D65726B6C65526577617264 PUSH1 0x44 DUP3 ADD MSTORE PUSH32 0x7320616C72656164792073657400000000000000000000000000000000000000 PUSH1 0x64 DUP3 ADD MSTORE PUSH1 0x84 ADD PUSH2 0x634 JUMP JUMPDEST PUSH1 0x1 DUP1 SLOAD PUSH1 0x1 PUSH1 0x1 PUSH1 0xA0 SHL SUB DUP5 DUP2 AND PUSH20 0xFFFFFFFFFFFFFFFFFFFFFFFFFFFFFFFFFFFFFFFF NOT DUP4 AND DUP2 OR SWAP1 SWAP4 SSTORE PUSH1 0x40 DUP1 MLOAD SWAP2 SWAP1 SWAP3 AND DUP1 DUP3 MSTORE PUSH1 0x20 DUP3 ADD SWAP4 SWAP1 SWAP4 MSTORE PUSH32 0xCFE2EF902B6065D8DB93AECB1DB9D0BDBD762266A120F21E83952D09E4B961B7 SWAP2 ADD JUMPDEST PUSH1 0x40 MLOAD DUP1 SWAP2 SUB SWAP1 LOG1 POP POP POP JUMP JUMPDEST PUSH1 0x0 DUP3 DUP2 MSTORE PUSH1 0x20 DUP2 SWAP1 MSTORE PUSH1 0x40 SWAP1 KECCAK256 PUSH1 0x1 ADD SLOAD PUSH2 0x747 DUP2 PUSH2 0x1091 JUMP JUMPDEST PUSH2 0x751 DUP4 DUP4 PUSH2 0x109E JUMP JUMPDEST POP POP POP POP JUMP JUMPDEST PUSH1 0x1 PUSH1 0x1 PUSH1 0xA0 SHL SUB DUP2 AND CALLER EQ PUSH2 0x799 JUMPI PUSH1 0x40 MLOAD PUSH32 0x6697B23200000000000000000000000000000000000000000000000000000000 DUP2 MSTORE PUSH1 0x4 ADD PUSH1 0x40 MLOAD DUP1 SWAP2 SUB SWAP1 REVERT JUMPDEST PUSH2 0x7A3 DUP3 DUP3 PUSH2 0x1148 JUMP JUMPDEST POP POP POP JUMP JUMPDEST PUSH32 0x4B0AD04E4CFD06668C08542D3AF105A3FA4B1A2813040BBB694BFECF2E5F5240 PUSH2 0x7D2 DUP2 PUSH2 0x1091 JUMP JUMPDEST PUSH1 0x0 PUSH2 0x7DC PUSH2 0xFF8 JUMP JUMPDEST SWAP1 POP PUSH2 0x7E7 DUP2 PUSH2 0xA2C JUMP JUMPDEST POP POP JUMP JUMPDEST PUSH1 0x0 PUSH2 0x7F6 DUP2 PUSH2 0x1091 JUMP JUMPDEST PUSH1 0x5 SLOAD PUSH1 0xFF AND ISZERO PUSH2 0x86F JUMPI PUSH1 0x40 MLOAD PUSH3 0x461BCD PUSH1 0xE5 SHL DUP2 MSTORE PUSH1 0x20 PUSH1 0x4 DUP3 ADD MSTORE PUSH1 0x2F PUSH1 0x24 DUP3 ADD MSTORE PUSH32 0x456D697373696F6E436F6E74726F6C6C65723A2043616E6E6F74206368616E67 PUSH1 0x44 DUP3 ADD MSTORE PUSH32 0x65206B2061667465722073746172740000000000000000000000000000000000 PUSH1 0x64 DUP3 ADD MSTORE PUSH1 0x84 ADD PUSH2 0x634 JUMP JUMPDEST POP PUSH1 0x7 SSTORE JUMP JUMPDEST PUSH1 0x5 SLOAD PUSH1 0x0 SWAP1 PUSH1 0xFF AND PUSH2 0x8CA JUMPI PUSH1 0x40 MLOAD PUSH3 0x461BCD PUSH1 0xE5 SHL DUP2 MSTORE PUSH1 0x20 PUSH1 0x4 DUP3 ADD MSTORE PUSH1 0x1F PUSH1 0x24 DUP3 ADD MSTORE PUSH32 0x456D697373696F6E436F6E74726F6C6C65723A204E6F74207374617274656400 PUSH1 0x44 DUP3 ADD MSTORE PUSH1 0x64 ADD PUSH2 0x634 JUMP JUMPDEST PUSH1 0x0 PUSH3 0x15180 PUSH1 0x4 SLOAD DUP5 PUSH2 0x8DE SWAP2 SWAP1 PUSH2 0x1312 JUMP JUMPDEST PUSH2 0x8E8 SWAP2 SWAP1 PUSH2 0x1329 JUMP JUMPDEST SWAP1 POP DUP1 PUSH1 0x0 SUB PUSH2 0x8FC JUMPI POP POP PUSH1 0x6 SLOAD SWAP2 SWAP1 POP JUMP JUMPDEST PUSH1 0x0 PUSH8 0xDE0B6B3A7640000 DUP3 PUSH1 0x7 SLOAD PUSH2 0x915 SWAP2 SWAP1 PUSH2 0x1312 JUMP JUMPDEST PUSH2 0x91F SWAP2 SWAP1 PUSH2 0x1329 JUMP JUMPDEST SWAP1 POP PUSH8 0xDE0B6B3A7640000 DUP2 LT PUSH2 0x93A JUMPI POP PUSH1 0x0 SWAP4 SWAP3 POP POP POP JUMP JUMPDEST PUSH1 0x0 PUSH2 0x94E DUP3 PUSH8 0xDE0B6B3A7640000 PUSH2 0x134B JUMP JUMPDEST SWAP1 POP DUP2 ISZERO PUSH2 0x990 JUMPI PUSH1 0x0 PUSH8 0xDE0B6B3A7640000 PUSH2 0x96B DUP5 DUP1 PUSH2 0x1312 JUMP JUMPDEST PUSH2 0x975 SWAP2 SWAP1 PUSH2 0x1329 JUMP JUMPDEST SWAP1 POP PUSH2 0x982 PUSH1 0x2 DUP3 PUSH2 0x1329 JUMP JUMPDEST PUSH2 0x98C SWAP1 DUP4 PUSH2 0x135E JUMP JUMPDEST SWAP2 POP POP JUMPDEST PUSH8 0xDE0B6B3A7640000 DUP2 PUSH1 0x6 SLOAD PUSH2 0x9A7 SWAP2 SWAP1 PUSH2 0x1312 JUMP JUMPDEST PUSH2 0x9B1 SWAP2 SWAP1 PUSH2 0x1329 JUMP JUMPDEST SWAP6 SWAP5 POP POP POP POP POP JUMP JUMPDEST PUSH1 0x0 PUSH2 0x9C5 DUP2 PUSH2 0x1091 JUMP JUMPDEST PUSH1 0x2 DUP1 SLOAD PUSH1 0x1 PUSH1 0x1 PUSH1 0xA0 SHL SUB DUP5 DUP2 AND PUSH20 0xFFFFFFFFFFFFFFFFFFFFFFFFFFFFFFFFFFFFFFFF NOT DUP4 AND DUP2 OR SWAP1 SWAP4 SSTORE PUSH1 0x40 DUP1 MLOAD SWAP2 SWAP1 SWAP3 AND DUP1 DUP3 MSTORE PUSH1 0x20 DUP3 ADD SWAP4 SWAP1 SWAP4 MSTORE PUSH32 0xC431A12AA1787FE0C47DAB44C6BDA485C7375B649776516DB5DA84215B65B346 SWAP2 ADD PUSH2 0x71F JUMP JUMPDEST PUSH32 0x4B0AD04E4CFD06668C08542D3AF105A3FA4B1A2813040BBB694BFECF2E5F5240 PUSH2 0xA56 DUP2 PUSH2 0x1091 JUMP JUMPDEST PUSH1 0x5 SLOAD PUSH1 0xFF AND PUSH2 0xAA8 JUMPI PUSH1 0x40 MLOAD PUSH3 0x461BCD PUSH1 0xE5 SHL DUP2 MSTORE PUSH1 0x20 PUSH1 0x4 DUP3 ADD MSTORE PUSH1 0x1F PUSH1 0x24 DUP3 ADD MSTORE PUSH32 0x456D697373696F6E436F6E74726F6C6C65723A204E6F74207374617274656400 PUSH1 0x44 DUP3 ADD MSTORE PUSH1 0x64 ADD PUSH2 0x634 JUMP JUMPDEST PUSH1 0x0 DUP3 DUP2 MSTORE PUSH1 0x8 PUSH1 0x20 MSTORE PUSH1 0x40 SWAP1 KECCAK256 SLOAD PUSH1 0xFF AND ISZERO PUSH2 0xB2D JUMPI PUSH1 0x40 MLOAD PUSH3 0x461BCD PUSH1 0xE5 SHL DUP2 MSTORE PUSH1 0x20 PUSH1 0x4 DUP3 ADD MSTORE PUSH1 0x2B PUSH1 0x24 DUP3 ADD MSTORE PUSH32 0x456D697373696F6E436F6E74726F6C6C65723A2045706F636820616C72656164 PUSH1 0x44 DUP3 ADD MSTORE PUSH32 0x792070726F636573736564000000000000000000000000000000000000000000 PUSH1 0x64 DUP3 ADD MSTORE PUSH1 0x84 ADD PUSH2 0x634 JUMP JUMPDEST PUSH1 0x0 PUSH2 0xB38 DUP4 PUSH2 0x875 JUMP JUMPDEST SWAP1 POP PUSH1 0x0 DUP2 GT PUSH2 0xBB0 JUMPI PUSH1 0x40 MLOAD PUSH3 0x461BCD PUSH1 0xE5 SHL DUP2 MSTORE PUSH1 0x20 PUSH1 0x4 DUP3 ADD MSTORE PUSH1 0x21 PUSH1 0x24 DUP3 ADD MSTORE PUSH32 0x456D697373696F6E436F6E74726F6C6C65723A205A65726F20656D697373696F PUSH1 0x44 DUP3 ADD MSTORE PUSH32 0x6E00000000000000000000000000000000000000000000000000000000000000 PUSH1 0x64 DUP3 ADD MSTORE PUSH1 0x84 ADD PUSH2 0x634 JUMP JUMPDEST PUSH1 0x0 PUSH2 0x2710 PUSH2 0xBC1 PUSH2 0xDAC DUP5 PUSH2 0x1312 JUMP JUMPDEST PUSH2 0xBCB SWAP2 SWAP1 PUSH2 0x1329 JUMP JUMPDEST SWAP1 POP PUSH1 0x0 PUSH2 0x2710 PUSH2 0xBDE PUSH2 0xFA0 DUP6 PUSH2 0x1312 JUMP JUMPDEST PUSH2 0xBE8 SWAP2 SWAP1 PUSH2 0x1329 JUMP JUMPDEST SWAP1 POP PUSH1 0x0 PUSH2 0x2710 PUSH2 0xBFB PUSH2 0x708 DUP7 PUSH2 0x1312 JUMP JUMPDEST PUSH2 0xC05 SWAP2 SWAP1 PUSH2 0x1329 JUMP JUMPDEST SWAP1 POP PUSH1 0x0 PUSH2 0x2710 PUSH2 0xC18 PUSH2 0x2BC DUP8 PUSH2 0x1312 JUMP JUMPDEST PUSH2 0xC22 SWAP2 SWAP1 PUSH2 0x1329 JUMP JUMPDEST PUSH1 0x0 DUP9 DUP2 MSTORE PUSH1 0x9 PUSH1 0x20 MSTORE PUSH1 0x40 DUP2 KECCAK256 DUP6 SWAP1 SSTORE PUSH1 0x2 SLOAD SWAP2 SWAP3 POP SWAP1 PUSH1 0x1 PUSH1 0x1 PUSH1 0xA0 SHL SUB AND PUSH2 0xC6D JUMPI PUSH32 0x0 PUSH2 0xC7A JUMP JUMPDEST PUSH1 0x2 SLOAD PUSH1 0x1 PUSH1 0x1 PUSH1 0xA0 SHL SUB AND JUMPDEST PUSH1 0x40 DUP1 MLOAD PUSH1 0x2 DUP1 DUP3 MSTORE PUSH1 0x60 DUP3 ADD DUP4 MSTORE SWAP3 SWAP4 POP PUSH1 0x0 SWAP3 SWAP1 SWAP2 PUSH1 0x20 DUP4 ADD SWAP1 DUP1 CALLDATASIZE DUP4 CALLDATACOPY POP POP PUSH1 0x40 DUP1 MLOAD PUSH1 0x2 DUP1 DUP3 MSTORE PUSH1 0x60 DUP3 ADD DUP4 MSTORE SWAP4 SWAP5 POP PUSH1 0x0 SWAP4 SWAP1 SWAP3 POP SWAP1 PUSH1 0x20 DUP4 ADD SWAP1 DUP1 CALLDATASIZE DUP4 CALLDATACOPY ADD SWAP1 POP POP SWAP1 POP PUSH32 0x0 DUP3 PUSH1 0x0 DUP2 MLOAD DUP2 LT PUSH2 0xCF8 JUMPI PUSH2 0xCF8 PUSH2 0x1371 JUMP JUMPDEST PUSH1 0x1 PUSH1 0x1 PUSH1 0xA0 SHL SUB SWAP1 SWAP3 AND PUSH1 0x20 SWAP3 DUP4 MUL SWAP2 SWAP1 SWAP2 ADD SWAP1 SWAP2 ADD MSTORE PUSH2 0xD1A DUP6 DUP9 PUSH2 0x135E JUMP JUMPDEST DUP2 PUSH1 0x0 DUP2 MLOAD DUP2 LT PUSH2 0xD2D JUMPI PUSH2 0xD2D PUSH2 0x1371 JUMP JUMPDEST PUSH1 0x20 MUL PUSH1 0x20 ADD ADD DUP2 DUP2 MSTORE POP POP DUP3 DUP3 PUSH1 0x1 DUP2 MLOAD DUP2 LT PUSH2 0xD4D JUMPI PUSH2 0xD4D PUSH2 0x1371 JUMP JUMPDEST PUSH1 0x20 MUL PUSH1 0x20 ADD ADD SWAP1 PUSH1 0x1 PUSH1 0x1 PUSH1 0xA0 SHL SUB AND SWAP1 DUP2 PUSH1 0x1 PUSH1 0x1 PUSH1 0xA0 SHL SUB AND DUP2 MSTORE POP POP DUP4 DUP2 PUSH1 0x1 DUP2 MLOAD DUP2 LT PUSH2 0xD81 JUMPI PUSH2 0xD81 PUSH2 0x1371 JUMP JUMPDEST PUSH1 0x20 SWAP1 DUP2 MUL SWAP2 SWAP1 SWAP2 ADD ADD MSTORE PUSH1 0x40 MLOAD PUSH32 0x6857310700000000000000000000000000000000000000000000000000000000 DUP2 MSTORE PUSH1 0x1 PUSH1 0x1 PUSH1 0xA0 SHL SUB PUSH32 0x0 AND SWAP1 PUSH4 0x68573107 SWAP1 PUSH2 0xDF3 SWAP1 DUP6 SWAP1 DUP6 SWAP1 PUSH1 0x4 ADD PUSH2 0x1387 JUMP JUMPDEST PUSH1 0x0 PUSH1 0x40 MLOAD DUP1 DUP4 SUB DUP2 PUSH1 0x0 DUP8 DUP1 EXTCODESIZE ISZERO DUP1 ISZERO PUSH2 0xE0D JUMPI PUSH1 0x0 DUP1 REVERT JUMPDEST POP GAS CALL ISZERO DUP1 ISZERO PUSH2 0xE21 JUMPI RETURNDATASIZE PUSH1 0x0 DUP1 RETURNDATACOPY RETURNDATASIZE PUSH1 0x0 REVERT JUMPDEST POP POP POP PUSH1 0x0 DUP12 DUP2 MSTORE PUSH1 0x8 PUSH1 0x20 SWAP1 DUP2 MSTORE PUSH1 0x40 SWAP2 DUP3 SWAP1 KECCAK256 DUP1 SLOAD PUSH1 0xFF NOT AND PUSH1 0x1 OR SWAP1 SSTORE DUP2 MLOAD DUP14 DUP2 MSTORE SWAP1 DUP2 ADD DUP12 SWAP1 MSTORE SWAP1 DUP2 ADD DUP10 SWAP1 MSTORE PUSH1 0x60 DUP2 ADD DUP9 SWAP1 MSTORE PUSH1 0x80 DUP2 ADD DUP8 SWAP1 MSTORE PUSH1 0xA0 DUP2 ADD DUP7 SWAP1 MSTORE PUSH32 0x2518CAA0216D93D1101233FF8F841886AD4828028040EF048948016B1D8F45E9 SWAP2 POP PUSH1 0xC0 ADD PUSH1 0x40 MLOAD DUP1 SWAP2 SUB SWAP1 LOG1 POP POP POP POP POP POP POP POP POP POP JUMP JUMPDEST PUSH1 0x0 PUSH2 0xEAC DUP2 PUSH2 0x1091 JUMP JUMPDEST PUSH1 0x5 SLOAD PUSH1 0xFF AND ISZERO PUSH2 0xF25 JUMPI PUSH1 0x40 MLOAD PUSH3 0x461BCD PUSH1 0xE5 SHL DUP2 MSTORE PUSH1 0x20 PUSH1 0x4 DUP3 ADD MSTORE PUSH1 0x23 PUSH1 0x24 DUP3 ADD MSTORE PUSH32 0x456D697373696F6E436F6E74726F6C6C65723A20416C72656164792073746172 PUSH1 0x44 DUP3 ADD MSTORE PUSH32 0x7465640000000000000000000000000000000000000000000000000000000000 PUSH1 0x64 DUP3 ADD MSTORE PUSH1 0x84 ADD PUSH2 0x634 JUMP JUMPDEST PUSH1 0x0 DUP3 GT PUSH2 0xF9B JUMPI PUSH1 0x40 MLOAD PUSH3 0x461BCD PUSH1 0xE5 SHL DUP2 MSTORE PUSH1 0x20 PUSH1 0x4 DUP3 ADD MSTORE PUSH1 0x30 PUSH1 0x24 DUP3 ADD MSTORE PUSH32 0x456D697373696F6E436F6E74726F6C6C65723A204530206D7573742062652067 PUSH1 0x44 DUP3 ADD MSTORE PUSH32 0x726561746572207468616E207A65726F00000000000000000000000000000000 PUSH1 0x64 DUP3 ADD MSTORE PUSH1 0x84 ADD PUSH2 0x634 JUMP JUMPDEST PUSH1 0x6 DUP3 SWAP1 SSTORE TIMESTAMP PUSH1 0x3 DUP2 SWAP1 SSTORE PUSH1 0x5 DUP1 SLOAD PUSH1 0xFF NOT AND PUSH1 0x1 OR SWAP1 SSTORE PUSH1 0x7 SLOAD PUSH1 0x40 DUP1 MLOAD SWAP3 DUP4 MSTORE PUSH1 0x20 DUP4 ADD DUP6 SWAP1 MSTORE DUP3 ADD MSTORE PUSH32 0xA5070E99EDD98E4038D988D53032AB30C5AB97CA9DBE3F4E1DC5013E9EB16CF4 SWAP1 PUSH1 0x60 ADD PUSH1 0x40 MLOAD DUP1 SWAP2 SUB SWAP1 LOG1 POP POP JUMP JUMPDEST PUSH1 0x5 SLOAD PUSH1 0x0 SWAP1 PUSH1 0xFF AND PUSH2 0x104D JUMPI PUSH1 0x40 MLOAD PUSH3 0x461BCD PUSH1 0xE5 SHL DUP2 MSTORE PUSH1 0x20 PUSH1 0x4 DUP3 ADD MSTORE PUSH1 0x1F PUSH1 0x24 DUP3 ADD MSTORE PUSH32 0x456D697373696F6E436F6E74726F6C6C65723A204E6F74207374617274656400 PUSH1 0x44 DUP3 ADD MSTORE PUSH1 0x64 ADD PUSH2 0x634 JUMP JUMPDEST PUSH1 0x4 SLOAD PUSH1 0x3 SLOAD PUSH2 0x105D SWAP1 TIMESTAMP PUSH2 0x134B JUMP JUMPDEST PUSH2 0x1067 SWAP2 SWAP1 PUSH2 0x1329 JUMP JUMPDEST SWAP1 POP SWAP1 JUMP JUMPDEST PUSH1 0x0 DUP3 DUP2 MSTORE PUSH1 0x20 DUP2 SWAP1 MSTORE PUSH1 0x40 SWAP1 KECCAK256 PUSH1 0x1 ADD SLOAD PUSH2 0x1087 DUP2 PUSH2 0x1091 JUMP JUMPDEST PUSH2 0x751 DUP4 DUP4 PUSH2 0x1148 JUMP JUMPDEST PUSH2 0x109B DUP2 CALLER PUSH2 0x11CB JUMP JUMPDEST POP JUMP JUMPDEST PUSH1 0x0 DUP3 DUP2 MSTORE PUSH1 0x20 DUP2 DUP2 MSTORE PUSH1 0x40 DUP1 DUP4 KECCAK256 PUSH1 0x1 PUSH1 0x1 PUSH1 0xA0 SHL SUB DUP6 AND DUP5 MSTORE SWAP1 SWAP2 MSTORE DUP2 KECCAK256 SLOAD PUSH1 0xFF AND PUSH2 0x1140 JUMPI PUSH1 0x0 DUP4 DUP2 MSTORE PUSH1 0x20 DUP2 DUP2 MSTORE PUSH1 0x40 DUP1 DUP4 KECCAK256 PUSH1 0x1 PUSH1 0x1 PUSH1 0xA0 SHL SUB DUP7 AND DUP5 MSTORE SWAP1 SWAP2 MSTORE SWAP1 KECCAK256 DUP1 SLOAD PUSH1 0xFF NOT AND PUSH1 0x1 OR SWAP1 SSTORE PUSH2 0x10F8 CALLER SWAP1 JUMP JUMPDEST PUSH1 0x1 PUSH1 0x1 PUSH1 0xA0 SHL SUB AND DUP3 PUSH1 0x1 PUSH1 0x1 PUSH1 0xA0 SHL SUB AND DUP5 PUSH32 0x2F8788117E7EFF1D82E926EC794901D17C78024A50270940304540A733656F0D PUSH1 0x40 MLOAD PUSH1 0x40 MLOAD DUP1 SWAP2 SUB SWAP1 LOG4 POP PUSH1 0x1 PUSH2 0x5AB JUMP JUMPDEST POP PUSH1 0x0 PUSH2 0x5AB JUMP JUMPDEST PUSH1 0x0 DUP3 DUP2 MSTORE PUSH1 0x20 DUP2 DUP2 MSTORE PUSH1 0x40 DUP1 DUP4 KECCAK256 PUSH1 0x1 PUSH1 0x1 PUSH1 0xA0 SHL SUB DUP6 AND DUP5 MSTORE SWAP1 SWAP2 MSTORE DUP2 KECCAK256 SLOAD PUSH1 0xFF AND ISZERO PUSH2 0x1140 JUMPI PUSH1 0x0 DUP4 DUP2 MSTORE PUSH1 0x20 DUP2 DUP2 MSTORE PUSH1 0x40 DUP1 DUP4 KECCAK256 PUSH1 0x1 PUSH1 0x1 PUSH1 0xA0 SHL SUB DUP7 AND DUP1 DUP6 MSTORE SWAP3 MSTORE DUP1 DUP4 KECCAK256 DUP1 SLOAD PUSH1 0xFF NOT AND SWAP1 SSTORE MLOAD CALLER SWAP3 DUP7 SWAP2 PUSH32 0xF6391F5C32D9C69D2A47EA670B442974B53935D1EDC7FD64EB21E047A839171B SWAP2 SWAP1 LOG4 POP PUSH1 0x1 PUSH2 0x5AB JUMP JUMPDEST PUSH1 0x0 DUP3 DUP2 MSTORE PUSH1 0x20 DUP2 DUP2 MSTORE PUSH1 0x40 DUP1 DUP4 KECCAK256 PUSH1 0x1 PUSH1 0x1 PUSH1 0xA0 SHL SUB DUP6 AND DUP5 MSTORE SWAP1 SWAP2 MSTORE SWAP1 KECCAK256 SLOAD PUSH1 0xFF AND PUSH2 0x7E7 JUMPI PUSH1 0x40 MLOAD PUSH32 0xE2517D3F00000000000000000000000000000000000000000000000000000000 DUP2 MSTORE PUSH1 0x1 PUSH1 0x1 PUSH1 0xA0 SHL SUB DUP3 AND PUSH1 0x4 DUP3 ADD MSTORE PUSH1 0x24 DUP2 ADD DUP4 SWAP1 MSTORE PUSH1 0x44 ADD PUSH2 0x634 JUMP JUMPDEST PUSH1 0x0 PUSH1 0x20 DUP3 DUP5 SUB SLT ISZERO PUSH2 0x1249 JUMPI PUSH1 0x0 DUP1 REVERT JUMPDEST DUP2 CALLDATALOAD PUSH32 0xFFFFFFFF00000000000000000000000000000000000000000000000000000000 DUP2 AND DUP2 EQ PUSH2 0x1279 JUMPI PUSH1 0x0 DUP1 REVERT JUMPDEST SWAP4 SWAP3 POP POP POP JUMP JUMPDEST PUSH1 0x0 PUSH1 0x20 DUP3 DUP5 SUB SLT ISZERO PUSH2 0x1292 JUMPI PUSH1 0x0 DUP1 REVERT JUMPDEST POP CALLDATALOAD SWAP2 SWAP1 POP JUMP JUMPDEST DUP1 CALLDATALOAD PUSH1 0x1 PUSH1 0x1 PUSH1 0xA0 SHL SUB DUP2 AND DUP2 EQ PUSH2 0x12B0 JUMPI PUSH1 0x0 DUP1 REVERT JUMPDEST SWAP2 SWAP1 POP JUMP JUMPDEST PUSH1 0x0 PUSH1 0x20 DUP3 DUP5 SUB SLT ISZERO PUSH2 0x12C7 JUMPI PUSH1 0x0 DUP1 REVERT JUMPDEST PUSH2 0x1279 DUP3 PUSH2 0x1299 JUMP JUMPDEST PUSH1 0x0 DUP1 PUSH1 0x40 DUP4 DUP6 SUB SLT ISZERO PUSH2 0x12E3 JUMPI PUSH1 0x0 DUP1 REVERT JUMPDEST DUP3 CALLDATALOAD SWAP2 POP PUSH2 0x12F3 PUSH1 0x20 DUP5 ADD PUSH2 0x1299 JUMP JUMPDEST SWAP1 POP SWAP3 POP SWAP3 SWAP1 POP JUMP JUMPDEST PUSH4 0x4E487B71 PUSH1 0xE0 SHL PUSH1 0x0 MSTORE PUSH1 0x11 PUSH1 0x4 MSTORE PUSH1 0x24 PUSH1 0x0 REVERT JUMPDEST DUP1 DUP3 MUL DUP2 ISZERO DUP3 DUP3 DIV DUP5 EQ OR PUSH2 0x5AB JUMPI PUSH2 0x5AB PUSH2 0x12FC JUMP JUMPDEST PUSH1 0x0 DUP3 PUSH2 0x1346 JUMPI PUSH4 0x4E487B71 PUSH1 0xE0 SHL PUSH1 0x0 MSTORE PUSH1 0x12 PUSH1 0x4 MSTORE PUSH1 0x24 PUSH1 0x0 REVERT JUMPDEST POP DIV SWAP1 JUMP JUMPDEST DUP2 DUP2 SUB DUP2 DUP2 GT ISZERO PUSH2 0x5AB JUMPI PUSH2 0x5AB PUSH2 0x12FC JUMP JUMPDEST DUP1 DUP3 ADD DUP1 DUP3 GT ISZERO PUSH2 0x5AB JUMPI PUSH2 0x5AB PUSH2 0x12FC JUMP JUMPDEST PUSH4 0x4E487B71 PUSH1 0xE0 SHL PUSH1 0x0 MSTORE PUSH1 0x32 PUSH1 0x4 MSTORE PUSH1 0x24 PUSH1 0x0 REVERT JUMPDEST PUSH1 0x40 DUP1 DUP3 MSTORE DUP4 MLOAD SWAP1 DUP3 ADD DUP2 SWAP1 MSTORE PUSH1 0x0 SWAP1 PUSH1 0x20 DUP6 ADD SWAP1 PUSH1 0x60 DUP5 ADD SWAP1 DUP4 JUMPDEST DUP2 DUP2 LT ISZERO PUSH2 0x13CA JUMPI DUP4 MLOAD PUSH1 0x1 PUSH1 0x1 PUSH1 0xA0 SHL SUB AND DUP4 MSTORE PUSH1 0x20 SWAP4 DUP5 ADD SWAP4 SWAP1 SWAP3 ADD SWAP2 PUSH1 0x1 ADD PUSH2 0x13A3 JUMP JUMPDEST POP POP DUP4 DUP2 SUB PUSH1 0x20 DUP1 DUP7 ADD SWAP2 SWAP1 SWAP2 MSTORE DUP6 MLOAD DUP1 DUP4 MSTORE SWAP2 DUP2 ADD SWAP3 POP DUP6 ADD SWAP1 PUSH1 0x0 JUMPDEST DUP2 DUP2 LT ISZERO PUSH2 0x1406 JUMPI DUP3 MLOAD DUP5 MSTORE PUSH1 0x20 SWAP4 DUP5 ADD SWAP4 SWAP1 SWAP3 ADD SWAP2 PUSH1 0x1 ADD PUSH2 0x13E8 JUMP JUMPDEST POP SWAP2 SWAP7 SWAP6 POP POP POP POP POP POP JUMP INVALID LOG2 PUSH5 0x6970667358 0x22 SLT KECCAK256 CODECOPY PUSH3 0x558941 0xD9 BALANCE PUSH30 0xE47649630B0F829D835195CEE7F5F8DDAEDD4EFE9F6B142D64736F6C6343 STOP ADDMOD SHR STOP CALLER "},"methodIdentifiers":{"DEFAULT_ADMIN_ROLE()":"a217fddf","E0()":"6031a8d6","EMITTER_ROLE()":"18004b39","GOVERNANCE_BPS()":"d98aa23d","POUW_BPS()":"492393af","TREASURY_BPS()":"4c25d197","VALIDATORS_BPS()":"23ec8d57","calculateEmission(uint256)":"621485d9","emissionsStarted()":"5adf0021","epochDuration()":"4ff0876a","epochProcessed(uint256)":"95ddabfa","getCurrentEpoch()":"b97dd9e2","getEpochInfo(uint256)":"135022c2","getPouwBudget(uint256)":"f7f3ea81","getRoleAdmin(bytes32)":"248a9ca3","governanceIncentives()":"2d88bf98","grantRole(bytes32,address)":"2f2ff15d","hasRole(bytes32,address)":"91d14854","k()":"b4f40c61","merkleRewards()":"8f22374f","pouwBudget(uint256)":"426d021c","processCurrentEpoch()":"45e7519f","processEpoch(uint256)":"899f6235","renounceRole(bytes32,address)":"36568abe","revokeRole(bytes32,address)":"d547741f","setDecayConstant(uint256)":"58161a29","setGovernanceIncentives(address)":"62ec17c2","setMerkleRewards(address)":"1f9c204d","startEmissions(uint256)":"8b9f9af8","startTimestamp()":"e6fd48bc","supportsInterface(bytes4)":"01ffc9a7","token()":"fc0c546a","treasury()":"61d027b3"}}}}}