{"contracts/EmissionController.sol":{"EmissionController":{"abi":[{"inputs":[{"internalType":"address","name":"_token","type":"address"},{"internalType":"address","name":"_treasury","type":"address"},{"internalType":"address","name":"_merkleRewards","type":"address"},{"internalType":"uint256","name":"_epochDuration","type":"uint256"}],"stateMutability":"nonpayable","type":"constructor"},{"inputs":[],"name":"AccessControlBadConfirmation","type":"error"},{"inputs":[{"internalType":"address","name":"account","type":"address"},{"internalType":"bytes32","name":"neededRole","type":"bytes32"}],"name":"AccessControlUnauthorizedAccount","type":"error"},{"anonymous":false,"inputs":[{"indexed":false,"internalType":"uint256","name":"startTimestamp","type":"uint256"},{"indexed":false,"internalType":"uint256","name":"E0","type":"uint256"},{"indexed":false,"internalType":"uint256","name":"k","type":"uint256"}],"name":"EmissionsStarted","type":"event"},{"anonymous":false,"inputs":[{"indexed":false,"internalType":"uint256","name":"epoch","type":"uint256"},{"indexed":false,"internalType":"uint256","name":"totalEmission","type":"uint256"},{"indexed":false,"internalType":"uint256","name":"validatorsAmount","type":"uint256"},{"indexed":false,"internalType":"uint256","name":"pouwBudget","type":"uint256"},{"indexed":false,"internalType":"uint256","name":"treasuryAmount","type":"uint256"},{"indexed":false,"internalType":"uint256","name":"governanceAmount","type":"uint256"}],"name":"EpochProcessed","type":"event"},{"anonymous":false,"inputs":[{"indexed":false,"internalType":"address","name":"oldAddress","type":"address"},{"indexed":false,"internalType":"address","name":"newAddress","type":"address"}],"name":"GovernanceIncentivesUpdated","type":"event"},{"anonymous":false,"inputs":[{"indexed":false,"internalType":"address","name":"oldAddress","type":"address"},{"indexed":false,"internalType":"address","name":"newAddress","type":"address"}],"name":"MerkleRewardsUpdated","type":"event"},{"anonymous":false,"inputs":[{"indexed":true,"internalType":"bytes32","name":"role","type":"bytes32"},{"indexed":true,"internalType":"bytes32","name":"previousAdminRole","type":"bytes32"},{"indexed":true,"internalType":"bytes32","name":"newAdminRole","type":"bytes32"}],"name":"RoleAdminChanged","type":"event"},{"anonymous":false,"inputs":[{"indexed":true,"internalType":"bytes32","name":"role","type":"bytes32"},{"indexed":true,"internalType":"address","name":"account","type":"address"},{"indexed":true,"internalType":"address","name":"sender","type":"address"}],"name":"RoleGranted","type":"event"},{"anonymous":false,"inputs":[{"indexed":true,"internalType":"bytes32","name":"role","type":"bytes32"},{"indexed":true,"internalType":"address","name":"account","type":"address"},{"indexed":true,"internalType":"address","name":"sender","type":"address"}],"name":"RoleRevoked","type":"event"},{"inputs":[],"name":"DEFAULT_ADMIN_ROLE","outputs":[{"internalType":"bytes32","name":"","type":"bytes32"}],"stateMutability":"view","type":"function"},{"inputs":[],"name":"E0","outputs":[{"internalType":"uint256","name":"","type":"uint256"}],"stateMutability":"view","type":"function"},{"inputs":[],"name":"EMITTER_ROLE","outputs":[{"internalType":"bytes32","name":"","type":"bytes32"}],"stateMutability":"view","type":"function"},{"inputs":[],"name":"GOVERNANCE_BPS","outputs":[{"internalType":"uint256","name":"","type":"uint256"}],"stateMutability":"view","type":"function"},{"inputs":[],"name":"POUW_BPS","outputs":[{"internalType":"uint256","name":"","type":"uint256"}],"stateMutability":"view","type":"function"},{"inputs":[],"name":"TREASURY_BPS","outputs":[{"internalType":"uint256","name":"","type":"uint256"}],"stateMutability":"view","type":"function"},{"inputs":[],"name":"VALIDATORS_BPS","outputs":[{"internalType":"uint256","name":"","type":"uint256"}],"stateMutability":"view","type":"function"},{"inputs":[{"internalType":"uint256","name":"epoch","type":"uint256"}],"name":"calculateEmission","outputs":[{"internalType":"uint256","name":"","type":"uint256"}],"stateMutability":"view","type":"function"},{"inputs":[],"name":"emissionsStarted","outputs":[{"internalType":"bool","name":"","type":"bool"}],"stateMutability":"view","type":"function"},{"inputs":[],"name":"epochDuration","outputs":[{"internalType":"uint256","name":"","type":"uint256"}],"stateMutability":"view","type":"function"},{"inputs":[{"internalType":"uint256","name":"","type":"uint256"}],"name":"epochProcessed","outputs":[{"internalType":"bool","name":"","type":"bool"}],"stateMutability":"view","type":"function"},{"inputs":[],"name":"getCurrentEpoch","outputs":[{"internalType":"uint256","name":"","type":"uint256"}],"stateMutability":"view","type":"function"},{"inputs":[{"internalType":"uint256","name":"epoch","type":"uint256"}],"name":"getPouwBudget","outputs":[{"internalType":"uint256","name":"","type":"uint256"}],"stateMutability":"view","type":"function"},{"inputs":[{"internalType":"bytes32","name":"role","type":"bytes32"}],"name":"getRoleAdmin","outputs":[{"internalType":"bytes32","name":"","type":"bytes32"}],"stateMutability":"view","type":"function"},{"inputs":[],"name":"governanceIncentives","outputs":[{"internalType":"address","name":"","type":"address"}],"stateMutability":"view","type":"function"},{"inputs":[{"internalType":"bytes32","name":"role","type":"bytes32"},{"internalType":"address","name":"account","type":"address"}],"name":"grantRole","outputs":[],"stateMutability":"nonpayable","type":"function"},{"inputs":[{"internalType":"bytes32","name":"role","type":"bytes32"},{"internalType":"address","name":"account","type":"address"}],"name":"hasRole","outputs":[{"internalType":"bool","name":"","type":"bool"}],"stateMutability":"view","type":"function"},{"inputs":[],"name":"k","outputs":[{"internalType":"uint256","name":"","type":"uint256"}],"stateMutability":"view","type":"function"},{"inputs":[],"name":"merkleRewards","outputs":[{"internalType":"contract MerkleRewardsPoUW","name":"","type":"address"}],"stateMutability":"view","type":"function"},{"inputs":[{"internalType":"uint256","name":"","type":"uint256"}],"name":"pouwBudget","outputs":[{"internalType":"uint256","name":"","type":"uint256"}],"stateMutability":"view","type":"function"},{"inputs":[],"name":"processCurrentEpoch","outputs":[],"stateMutability":"nonpayable","type":"function"},{"inputs":[{"internalType":"uint256","name":"epoch","type":"uint256"}],"name":"processEpoch","outputs":[],"stateMutability":"nonpayable","type":"function"},{"inputs":[{"internalType":"bytes32","name":"role","type":"bytes32"},{"internalType":"address","name":"callerConfirmation","type":"address"}],"name":"renounceRole","outputs":[],"stateMutability":"nonpayable","type":"function"},{"inputs":[{"internalType":"bytes32","name":"role","type":"bytes32"},{"internalType":"address","name":"account","type":"address"}],"name":"revokeRole","outputs":[],"stateMutability":"nonpayable","type":"function"},{"inputs":[{"internalType":"uint256","name":"_k","type":"uint256"}],"name":"setDecayConstant","outputs":[],"stateMutability":"nonpayable","type":"function"},{"inputs":[{"internalType":"address","name":"_governanceIncentives","type":"address"}],"name":"setGovernanceIncentives","outputs":[],"stateMutability":"nonpayable","type":"function"},{"inputs":[{"internalType":"address","name":"_merkleRewards","type":"address"}],"name":"setMerkleRewards","outputs":[],"stateMutability":"nonpayable","type":"function"},{"inputs":[{"internalType":"uint256","name":"_E0","type":"uint256"}],"name":"startEmissions","outputs":[],"stateMutability":"nonpayable","type":"function"},{"inputs":[],"name":"startTimestamp","outputs":[{"internalType":"uint256","name":"","type":"uint256"}],"stateMutability":"view","type":"function"},{"inputs":[{"internalType":"bytes4","name":"interfaceId","type":"bytes4"}],"name":"supportsInterface","outputs":[{"internalType":"bool","name":"","type":"bool"}],"stateMutability":"view","type":"function"},{"inputs":[],"name":"token","outputs":[{"internalType":"contract CLDToken","name":"","type":"address"}],"stateMutability":"view","type":"function"},{"inputs":[],"name":"treasury","outputs":[{"internalType":"contract Treasury","name":"","type":"address"}],"stateMutability":"view","type":"function"}],"evm":{"bytecode":{"linkReferences":{},"object":"60c060405234801561001057600080fd5b5060405161172438038061172483398101604081905261002f916102a9565b6001600160a01b0384166100945760405162461bcd60e51b815260206004820152602160248201527f456d697373696f6e436f6e74726f6c6c65723a20496e76616c696420746f6b656044820152603760f91b60648201526084015b60405180910390fd5b6001600160a01b0383166100f65760405162461bcd60e51b8152602060048201526024808201527f456d697373696f6e436f6e74726f6c6c65723a20496e76616c696420747265616044820152637375727960e01b606482015260840161008b565b600081116101595760405162461bcd60e51b815260206004820152602a60248201527f456d697373696f6e436f6e74726f6c6c65723a20496e76616c69642065706f636044820152693410323ab930ba34b7b760b11b606482015260840161008b565b6001600160a01b0380851660805283811660a052600482905582161561019557600180546001600160a01b0319166001600160a01b0384161790555b6101a06000336101e1565b506101cb7f4b0ad04e4cfd06668c08542d3af105a3fa4b1a2813040bbb694bfecf2e5f5240336101e1565b5050660aa87bee538000600755506102f4915050565b6000828152602081815260408083206001600160a01b038516845290915281205460ff16610283576000838152602081815260408083206001600160a01b03861684529091529020805460ff1916600117905561023b3390565b6001600160a01b0316826001600160a01b0316847f2f8788117e7eff1d82e926ec794901d17c78024a50270940304540a733656f0d60405160405180910390a4506001610287565b5060005b92915050565b80516001600160a01b03811681146102a457600080fd5b919050565b600080600080608085870312156102bf57600080fd5b6102c88561028d565b93506102d66020860161028d565b92506102e46040860161028d565b6060959095015193969295505050565b60805160a0516113da61034a6000396000818161035501528181610bd601528181610c8d0152610dcf01526000818161049301528181610c0801528181610cbc01528181610d550152610dfe01526113da6000f3fe608060405234801561001057600080fd5b50600436106101f05760003560e01c806361d027b31161010f578063a217fddf116100a2578063d98aa23d11610071578063d98aa23d1461045c578063e6fd48bc14610465578063f7f3ea811461046e578063fc0c546a1461048e57600080fd5b8063a217fddf14610430578063b4f40c6114610438578063b97dd9e214610441578063d547741f1461044957600080fd5b80638b9f9af8116100de5780638b9f9af8146103b05780638f22374f146103c357806391d14854146103d657806395ddabfa1461040d57600080fd5b806361d027b314610350578063621485d91461037757806362ec17c21461038a578063899f62351461039d57600080fd5b8063426d021c116101875780634ff0876a116101565780634ff0876a1461031e57806358161a29146103275780635adf00211461033a5780636031a8d61461034757600080fd5b8063426d021c146102e457806345e7519f14610304578063492393af1461030c5780634c25d1971461031557600080fd5b8063248a9ca3116101c3578063248a9ca3146102705780632d88bf98146102935780632f2ff15d146102be57806336568abe146102d157600080fd5b806301ffc9a7146101f557806318004b391461021d5780631f9c204d1461025257806323ec8d5714610267575b600080fd5b61020861020336600461126a565b6104b5565b60405190151581526020015b60405180910390f35b6102447f4b0ad04e4cfd06668c08542d3af105a3fa4b1a2813040bbb694bfecf2e5f524081565b604051908152602001610214565b6102656102603660046112cf565b61054e565b005b610244610dac81565b61024461027e3660046112ea565b60009081526020819052604090206001015490565b6002546102a6906001600160a01b031681565b6040516001600160a01b039091168152602001610214565b6102656102cc366004611303565b6106c9565b6102656102df366004611303565b6106f4565b6102446102f23660046112ea565b60096020526000908152604090205481565b610265610745565b610244610fa081565b61024461070881565b61024460045481565b6102656103353660046112ea565b610788565b6005546102089060ff1681565b61024460065481565b6102a67f000000000000000000000000000000000000000000000000000000000000000081565b6102446103853660046112ea565b610812565b6102656103983660046112cf565b610957565b6102656103ab3660046112ea565b6109c9565b6102656103be3660046112ea565b610ed4565b6001546102a6906001600160a01b031681565b6102086103e4366004611303565b6000918252602082815260408084206001600160a01b0393909316845291905290205460ff1690565b61020861041b3660046112ea565b60086020526000908152604090205460ff1681565b610244600081565b61024460075481565b61024461102b565b610265610457366004611303565b61109f565b6102446102bc81565b61024460035481565b61024461047c3660046112ea565b60009081526009602052604090205490565b6102a67f000000000000000000000000000000000000000000000000000000000000000081565b60007fffffffff0000000000000000000000000000000000000000000000000000000082167f7965db0b00000000000000000000000000000000000000000000000000000000148061054857507f01ffc9a7000000000000000000000000000000000000000000000000000000007fffffffff000000000000000000000000000000000000000000000000000000008316145b92915050565b6000610559816110c4565b6001600160a01b0382166105da5760405162461bcd60e51b815260206004820152602960248201527f456d697373696f6e436f6e74726f6c6c65723a20496e76616c6964206d65726b60448201527f6c6552657761726473000000000000000000000000000000000000000000000060648201526084015b60405180910390fd5b6001546001600160a01b0316156106595760405162461bcd60e51b815260206004820152602d60248201527f456d697373696f6e436f6e74726f6c6c65723a204d65726b6c6552657761726460448201527f7320616c7265616479207365740000000000000000000000000000000000000060648201526084016105d1565b600180546001600160a01b0384811673ffffffffffffffffffffffffffffffffffffffff1983168117909355604080519190921680825260208201939093527fcfe2ef902b6065d8db93aecb1db9d0bdbd762266a120f21e83952d09e4b961b791015b60405180910390a1505050565b6000828152602081905260409020600101546106e4816110c4565b6106ee83836110d1565b50505050565b6001600160a01b0381163314610736576040517f6697b23200000000000000000000000000000000000000000000000000000000815260040160405180910390fd5b610740828261117b565b505050565b7f4b0ad04e4cfd06668c08542d3af105a3fa4b1a2813040bbb694bfecf2e5f524061076f816110c4565b600061077961102b565b9050610784816109c9565b5050565b6000610793816110c4565b60055460ff161561080c5760405162461bcd60e51b815260206004820152602f60248201527f456d697373696f6e436f6e74726f6c6c65723a2043616e6e6f74206368616e6760448201527f65206b206166746572207374617274000000000000000000000000000000000060648201526084016105d1565b50600755565b60055460009060ff166108675760405162461bcd60e51b815260206004820152601f60248201527f456d697373696f6e436f6e74726f6c6c65723a204e6f7420737461727465640060448201526064016105d1565b6000620151806004548461087b9190611345565b610885919061135c565b905080600003610899575050600654919050565b6000670de0b6b3a7640000826007546108b29190611345565b6108bc919061135c565b9050670de0b6b3a764000081106108d7575060009392505050565b60006108eb82670de0b6b3a764000061137e565b9050811561092d576000670de0b6b3a76400006109088480611345565b610912919061135c565b905061091f60028261135c565b6109299083611391565b9150505b670de0b6b3a7640000816006546109449190611345565b61094e919061135c565b95945050505050565b6000610962816110c4565b600280546001600160a01b0384811673ffffffffffffffffffffffffffffffffffffffff1983168117909355604080519190921680825260208201939093527fc431a12aa1787fe0c47dab44c6bda485c7375b649776516db5da84215b65b34691016106bc565b7f4b0ad04e4cfd06668c08542d3af105a3fa4b1a2813040bbb694bfecf2e5f52406109f3816110c4565b60055460ff16610a455760405162461bcd60e51b815260206004820152601f60248201527f456d697373696f6e436f6e74726f6c6c65723a204e6f7420737461727465640060448201526064016105d1565b60008281526008602052604090205460ff1615610aca5760405162461bcd60e51b815260206004820152602b60248201527f456d697373696f6e436f6e74726f6c6c65723a2045706f636820616c7265616460448201527f792070726f63657373656400000000000000000000000000000000000000000060648201526084016105d1565b6000610ad583610812565b905060008111610b4d5760405162461bcd60e51b815260206004820152602160248201527f456d697373696f6e436f6e74726f6c6c65723a205a65726f20656d697373696f60448201527f6e0000000000000000000000000000000000000000000000000000000000000060648201526084016105d1565b6000612710610b5e610dac84611345565b610b68919061135c565b90506000612710610b7b610fa085611345565b610b85919061135c565b90506000612710610b9861070886611345565b610ba2919061135c565b90506000612710610bb56102bc87611345565b610bbf919061135c565b6040516340c10f1960e01b81526001600160a01b037f000000000000000000000000000000000000000000000000000000000000000081166004830152602482018790529192507f0000000000000000000000000000000000000000000000000000000000000000909116906340c10f1990604401600060405180830381600087803b158015610c4e57600080fd5b505af1158015610c62573d6000803e3d6000fd5b50505060008881526009602052604090819020859055516340c10f1960e01b81526001600160a01b037f000000000000000000000000000000000000000000000000000000000000000081166004830152602482018590527f00000000000000000000000000000000000000000000000000000000000000001691506340c10f1990604401600060405180830381600087803b158015610d0157600080fd5b505af1158015610d15573d6000803e3d6000fd5b50506002546001600160a01b0316159150610db89050576002546040516340c10f1960e01b81526001600160a01b039182166004820152602481018390527f0000000000000000000000000000000000000000000000000000000000000000909116906340c10f1990604401600060405180830381600087803b158015610d9b57600080fd5b505af1158015610daf573d6000803e3d6000fd5b50505050610e5b565b6040516340c10f1960e01b81526001600160a01b037f000000000000000000000000000000000000000000000000000000000000000081166004830152602482018390527f000000000000000000000000000000000000000000000000000000000000000016906340c10f1990604401600060405180830381600087803b158015610e4257600080fd5b505af1158015610e56573d6000803e3d6000fd5b505050505b600087815260086020908152604091829020805460ff191660011790558151898152908101879052908101859052606081018490526080810183905260a081018290527f2518caa0216d93d1101233ff8f841886ad4828028040ef048948016b1d8f45e99060c00160405180910390a150505050505050565b6000610edf816110c4565b60055460ff1615610f585760405162461bcd60e51b815260206004820152602360248201527f456d697373696f6e436f6e74726f6c6c65723a20416c7265616479207374617260448201527f746564000000000000000000000000000000000000000000000000000000000060648201526084016105d1565b60008211610fce5760405162461bcd60e51b815260206004820152603060248201527f456d697373696f6e436f6e74726f6c6c65723a204530206d757374206265206760448201527f726561746572207468616e207a65726f0000000000000000000000000000000060648201526084016105d1565b60068290554260038190556005805460ff1916600117905560075460408051928352602083018590528201527fa5070e99edd98e4038d988d53032ab30c5ab97ca9dbe3f4e1dc5013e9eb16cf49060600160405180910390a15050565b60055460009060ff166110805760405162461bcd60e51b815260206004820152601f60248201527f456d697373696f6e436f6e74726f6c6c65723a204e6f7420737461727465640060448201526064016105d1565b600454600354611090904261137e565b61109a919061135c565b905090565b6000828152602081905260409020600101546110ba816110c4565b6106ee838361117b565b6110ce81336111fe565b50565b6000828152602081815260408083206001600160a01b038516845290915281205460ff16611173576000838152602081815260408083206001600160a01b03861684529091529020805460ff1916600117905561112b3390565b6001600160a01b0316826001600160a01b0316847f2f8788117e7eff1d82e926ec794901d17c78024a50270940304540a733656f0d60405160405180910390a4506001610548565b506000610548565b6000828152602081815260408083206001600160a01b038516845290915281205460ff1615611173576000838152602081815260408083206001600160a01b0386168085529252808320805460ff1916905551339286917ff6391f5c32d9c69d2a47ea670b442974b53935d1edc7fd64eb21e047a839171b9190a4506001610548565b6000828152602081815260408083206001600160a01b038516845290915290205460ff16610784576040517fe2517d3f0000000000000000000000000000000000000000000000000000000081526001600160a01b0382166004820152602481018390526044016105d1565b60006020828403121561127c57600080fd5b81357fffffffff00000000000000000000000000000000000000000000000000000000811681146112ac57600080fd5b9392505050565b80356001600160a01b03811681146112ca57600080fd5b919050565b6000602082840312156112e157600080fd5b6112ac826112b3565b6000602082840312156112fc57600080fd5b5035919050565b6000806040838503121561131657600080fd5b82359150611326602084016112b3565b90509250929050565b634e487b7160e01b600052601160045260246000fd5b80820281158282048414176105485761054861132f565b60008261137957634e487b7160e01b600052601260045260246000fd5b500490565b818103818111156105485761054861132f565b808201808211156105485761054861132f56fea26469706673582212208e1584ea82327914ed93fc897f368f99a5da734558c7bd80370539cd5792938064736f6c634300081c0033","opcodes":"PUSH1 0xC0 PUSH1 0x40 MSTORE CALLVALUE DUP1 ISZERO PUSH2 0x10 JUMPI PUSH1 0x0 DUP1 REVERT JUMPDEST POP PUSH1 0x40 MLOAD PUSH2 0x1724 CODESIZE SUB DUP1 PUSH2 0x1724 DUP4 CODECOPY DUP2 ADD PUSH1 0x40 DUP2 SWAP1 MSTORE PUSH2 0x2F SWAP2 PUSH2 0x2A9 JUMP JUMPDEST PUSH1 0x1 PUSH1 0x1 PUSH1 0xA0 SHL SUB DUP5 AND PUSH2 0x94 JUMPI PUSH1 0x40 MLOAD PUSH3 0x461BCD PUSH1 0xE5 SHL DUP2 MSTORE PUSH1 0x20 PUSH1 0x4 DUP3 ADD MSTORE PUSH1 0x21 PUSH1 0x24 DUP3 ADD MSTORE PUSH32 0x456D697373696F6E436F6E74726F6C6C65723A20496E76616C696420746F6B65 PUSH1 0x44 DUP3 ADD MSTORE PUSH1 0x37 PUSH1 0xF9 SHL PUSH1 0x64 DUP3 ADD MSTORE PUSH1 0x84 ADD JUMPDEST PUSH1 0x40 MLOAD DUP1 SWAP2 SUB SWAP1 REVERT JUMPDEST PUSH1 0x1 PUSH1 0x1 PUSH1 0xA0 SHL SUB DUP4 AND PUSH2 0xF6 JUMPI PUSH1 0x40 MLOAD PUSH3 0x461BCD PUSH1 0xE5 SHL DUP2 MSTORE PUSH1 0x20 PUSH1 0x4 DUP3 ADD MSTORE PUSH1 0x24 DUP1 DUP3 ADD MSTORE PUSH32 0x456D697373696F6E436F6E74726F6C6C65723A20496E76616C69642074726561 PUSH1 0x44 DUP3 ADD MSTORE PUSH4 0x73757279 PUSH1 0xE0 SHL PUSH1 0x64 DUP3 ADD MSTORE PUSH1 0x84 ADD PUSH2 0x8B JUMP JUMPDEST PUSH1 0x0 DUP2 GT PUSH2 0x159 JUMPI PUSH1 0x40 MLOAD PUSH3 0x461BCD PUSH1 0xE5 SHL DUP2 MSTORE PUSH1 0x20 PUSH1 0x4 DUP3 ADD MSTORE PUSH1 0x2A PUSH1 0x24 DUP3 ADD MSTORE PUSH32 0x456D697373696F6E436F6E74726F6C6C65723A20496E76616C69642065706F63 PUSH1 0x44 DUP3 ADD MSTORE PUSH10 0x3410323AB930BA34B7B7 PUSH1 0xB1 SHL PUSH1 0x64 DUP3 ADD MSTORE PUSH1 0x84 ADD PUSH2 0x8B JUMP JUMPDEST PUSH1 0x1 PUSH1 0x1 PUSH1 0xA0 SHL SUB DUP1 DUP6 AND PUSH1 0x80 MSTORE DUP4 DUP2 AND PUSH1 0xA0 MSTORE PUSH1 0x4 DUP3 SWAP1 SSTORE DUP3 AND ISZERO PUSH2 0x195 JUMPI PUSH1 0x1 DUP1 SLOAD PUSH1 0x1 PUSH1 0x1 PUSH1 0xA0 SHL SUB NOT AND PUSH1 0x1 PUSH1 0x1 PUSH1 0xA0 SHL SUB DUP5 AND OR SWAP1 SSTORE JUMPDEST PUSH2 0x1A0 PUSH1 0x0 CALLER PUSH2 0x1E1 JUMP JUMPDEST POP PUSH2 0x1CB PUSH32 0x4B0AD04E4CFD06668C08542D3AF105A3FA4B1A2813040BBB694BFECF2E5F5240 CALLER PUSH2 0x1E1 JUMP JUMPDEST POP POP PUSH7 0xAA87BEE538000 PUSH1 0x7 SSTORE POP PUSH2 0x2F4 SWAP2 POP POP JUMP JUMPDEST PUSH1 0x0 DUP3 DUP2 MSTORE PUSH1 0x20 DUP2 DUP2 MSTORE PUSH1 0x40 DUP1 DUP4 KECCAK256 PUSH1 0x1 PUSH1 0x1 PUSH1 0xA0 SHL SUB DUP6 AND DUP5 MSTORE SWAP1 SWAP2 MSTORE DUP2 KECCAK256 SLOAD PUSH1 0xFF AND PUSH2 0x283 JUMPI PUSH1 0x0 DUP4 DUP2 MSTORE PUSH1 0x20 DUP2 DUP2 MSTORE PUSH1 0x40 DUP1 DUP4 KECCAK256 PUSH1 0x1 PUSH1 0x1 PUSH1 0xA0 SHL SUB DUP7 AND DUP5 MSTORE SWAP1 SWAP2 MSTORE SWAP1 KECCAK256 DUP1 SLOAD PUSH1 0xFF NOT AND PUSH1 0x1 OR SWAP1 SSTORE PUSH2 0x23B CALLER SWAP1 JUMP JUMPDEST PUSH1 0x1 PUSH1 0x1 PUSH1 0xA0 SHL SUB AND DUP3 PUSH1 0x1 PUSH1 0x1 PUSH1 0xA0 SHL SUB AND DUP5 PUSH32 0x2F8788117E7EFF1D82E926EC794901D17C78024A50270940304540A733656F0D PUSH1 0x40 MLOAD PUSH1 0x40 MLOAD DUP1 SWAP2 SUB SWAP1 LOG4 POP PUSH1 0x1 PUSH2 0x287 JUMP JUMPDEST POP PUSH1 0x0 JUMPDEST SWAP3 SWAP2 POP POP JUMP JUMPDEST DUP1 MLOAD PUSH1 0x1 PUSH1 0x1 PUSH1 0xA0 SHL SUB DUP2 AND DUP2 EQ PUSH2 0x2A4 JUMPI PUSH1 0x0 DUP1 REVERT JUMPDEST SWAP2 SWAP1 POP JUMP JUMPDEST PUSH1 0x0 DUP1 PUSH1 0x0 DUP1 PUSH1 0x80 DUP6 DUP8 SUB SLT ISZERO PUSH2 0x2BF JUMPI PUSH1 0x0 DUP1 REVERT JUMPDEST PUSH2 0x2C8 DUP6 PUSH2 0x28D JUMP JUMPDEST SWAP4 POP PUSH2 0x2D6 PUSH1 0x20 DUP7 ADD PUSH2 0x28D JUMP JUMPDEST SWAP3 POP PUSH2 0x2E4 PUSH1 0x40 DUP7 ADD PUSH2 0x28D JUMP JUMPDEST PUSH1 0x60 SWAP6 SWAP1 SWAP6 ADD MLOAD SWAP4 SWAP7 SWAP3 SWAP6 POP POP POP JUMP JUMPDEST PUSH1 0x80 MLOAD PUSH1 0xA0 MLOAD PUSH2 0x13DA PUSH2 0x34A PUSH1 0x0 CODECOPY PUSH1 0x0 DUP2 DUP2 PUSH2 0x355 ADD MSTORE DUP2 DUP2 PUSH2 0xBD6 ADD MSTORE DUP2 DUP2 PUSH2 0xC8D ADD MSTORE PUSH2 0xDCF ADD MSTORE PUSH1 0x0 DUP2 DUP2 PUSH2 0x493 ADD MSTORE DUP2 DUP2 PUSH2 0xC08 ADD MSTORE DUP2 DUP2 PUSH2 0xCBC ADD MSTORE DUP2 DUP2 PUSH2 0xD55 ADD MSTORE PUSH2 0xDFE ADD MSTORE PUSH2 0x13DA PUSH1 0x0 RETURN INVALID PUSH1 0x80 PUSH1 0x40 MSTORE CALLVALUE DUP1 ISZERO PUSH2 0x10 JUMPI PUSH1 0x0 DUP1 REVERT JUMPDEST POP PUSH1 0x4 CALLDATASIZE LT PUSH2 0x1F0 JUMPI PUSH1 0x0 CALLDATALOAD PUSH1 0xE0 SHR DUP1 PUSH4 0x61D027B3 GT PUSH2 0x10F JUMPI DUP1 PUSH4 0xA217FDDF GT PUSH2 0xA2 JUMPI DUP1 PUSH4 0xD98AA23D GT PUSH2 0x71 JUMPI DUP1 PUSH4 0xD98AA23D EQ PUSH2 0x45C JUMPI DUP1 PUSH4 0xE6FD48BC EQ PUSH2 0x465 JUMPI DUP1 PUSH4 0xF7F3EA81 EQ PUSH2 0x46E JUMPI DUP1 PUSH4 0xFC0C546A EQ PUSH2 0x48E JUMPI PUSH1 0x0 DUP1 REVERT JUMPDEST DUP1 PUSH4 0xA217FDDF EQ PUSH2 0x430 JUMPI DUP1 PUSH4 0xB4F40C61 EQ PUSH2 0x438 JUMPI DUP1 PUSH4 0xB97DD9E2 EQ PUSH2 0x441 JUMPI DUP1 PUSH4 0xD547741F EQ PUSH2 0x449 JUMPI PUSH1 0x0 DUP1 REVERT JUMPDEST DUP1 PUSH4 0x8B9F9AF8 GT PUSH2 0xDE JUMPI DUP1 PUSH4 0x8B9F9AF8 EQ PUSH2 0x3B0 JUMPI DUP1 PUSH4 0x8F22374F EQ PUSH2 0x3C3 JUMPI DUP1 PUSH4 0x91D14854 EQ PUSH2 0x3D6 JUMPI DUP1 PUSH4 0x95DDABFA EQ PUSH2 0x40D JUMPI PUSH1 0x0 DUP1 REVERT JUMPDEST DUP1 PUSH4 0x61D027B3 EQ PUSH2 0x350 JUMPI DUP1 PUSH4 0x621485D9 EQ PUSH2 0x377 JUMPI DUP1 PUSH4 0x62EC17C2 EQ PUSH2 0x38A JUMPI DUP1 PUSH4 0x899F6235 EQ PUSH2 0x39D JUMPI PUSH1 0x0 DUP1 REVERT JUMPDEST DUP1 PUSH4 0x426D021C GT PUSH2 0x187 JUMPI DUP1 PUSH4 0x4FF0876A GT PUSH2 0x156 JUMPI DUP1 PUSH4 0x4FF0876A EQ PUSH2 0x31E JUMPI DUP1 PUSH4 0x58161A29 EQ PUSH2 0x327 JUMPI DUP1 PUSH4 0x5ADF0021 EQ PUSH2 0x33A JUMPI DUP1 PUSH4 0x6031A8D6 EQ PUSH2 0x347 JUMPI PUSH1 0x0 DUP1 REVERT JUMPDEST DUP1 PUSH4 0x426D021C EQ PUSH2 0x2E4 JUMPI DUP1 PUSH4 0x45E7519F EQ PUSH2 0x304 JUMPI DUP1 PUSH4 0x492393AF EQ PUSH2 0x30C JUMPI DUP1 PUSH4 0x4C25D197 EQ PUSH2 0x315 JUMPI PUSH1 0x0 DUP1 REVERT JUMPDEST DUP1 PUSH4 0x248A9CA3 GT PUSH2 0x1C3 JUMPI DUP1 PUSH4 0x248A9CA3 EQ PUSH2 0x270 JUMPI DUP1 PUSH4 0x2D88BF98 EQ PUSH2 0x293 JUMPI DUP1 PUSH4 0x2F2FF15D EQ PUSH2 0x2BE JUMPI DUP1 PUSH4 0x36568ABE EQ PUSH2 0x2D1 JUMPI PUSH1 0x0 DUP1 REVERT JUMPDEST DUP1 PUSH4 0x1FFC9A7 EQ PUSH2 0x1F5 JUMPI DUP1 PUSH4 0x18004B39 EQ PUSH2 0x21D JUMPI DUP1 PUSH4 0x1F9C204D EQ PUSH2 0x252 JUMPI DUP1 PUSH4 0x23EC8D57 EQ PUSH2 0x267 JUMPI JUMPDEST PUSH1 0x0 DUP1 REVERT JUMPDEST PUSH2 0x208 PUSH2 0x203 CALLDATASIZE PUSH1 0x4 PUSH2 0x126A JUMP JUMPDEST PUSH2 0x4B5 JUMP JUMPDEST PUSH1 0x40 MLOAD SWAP1 ISZERO ISZERO DUP2 MSTORE PUSH1 0x20 ADD JUMPDEST PUSH1 0x40 MLOAD DUP1 SWAP2 SUB SWAP1 RETURN JUMPDEST PUSH2 0x244 PUSH32 0x4B0AD04E4CFD06668C08542D3AF105A3FA4B1A2813040BBB694BFECF2E5F5240 DUP2 JUMP JUMPDEST PUSH1 0x40 MLOAD SWAP1 DUP2 MSTORE PUSH1 0x20 ADD PUSH2 0x214 JUMP JUMPDEST PUSH2 0x265 PUSH2 0x260 CALLDATASIZE PUSH1 0x4 PUSH2 0x12CF JUMP JUMPDEST PUSH2 0x54E JUMP JUMPDEST STOP JUMPDEST PUSH2 0x244 PUSH2 0xDAC DUP2 JUMP JUMPDEST PUSH2 0x244 PUSH2 0x27E CALLDATASIZE PUSH1 0x4 PUSH2 0x12EA JUMP JUMPDEST PUSH1 0x0 SWAP1 DUP2 MSTORE PUSH1 0x20 DUP2 SWAP1 MSTORE PUSH1 0x40 SWAP1 KECCAK256 PUSH1 0x1 ADD SLOAD SWAP1 JUMP JUMPDEST PUSH1 0x2 SLOAD PUSH2 0x2A6 SWAP1 PUSH1 0x1 PUSH1 0x1 PUSH1 0xA0 SHL SUB AND DUP2 JUMP JUMPDEST PUSH1 0x40 MLOAD PUSH1 0x1 PUSH1 0x1 PUSH1 0xA0 SHL SUB SWAP1 SWAP2 AND DUP2 MSTORE PUSH1 0x20 ADD PUSH2 0x214 JUMP JUMPDEST PUSH2 0x265 PUSH2 0x2CC CALLDATASIZE PUSH1 0x4 PUSH2 0x1303 JUMP JUMPDEST PUSH2 0x6C9 JUMP JUMPDEST PUSH2 0x265 PUSH2 0x2DF CALLDATASIZE PUSH1 0x4 PUSH2 0x1303 JUMP JUMPDEST PUSH2 0x6F4 JUMP JUMPDEST PUSH2 0x244 PUSH2 0x2F2 CALLDATASIZE PUSH1 0x4 PUSH2 0x12EA JUMP JUMPDEST PUSH1 0x9 PUSH1 0x20 MSTORE PUSH1 0x0 SWAP1 DUP2 MSTORE PUSH1 0x40 SWAP1 KECCAK256 SLOAD DUP2 JUMP JUMPDEST PUSH2 0x265 PUSH2 0x745 JUMP JUMPDEST PUSH2 0x244 PUSH2 0xFA0 DUP2 JUMP JUMPDEST PUSH2 0x244 PUSH2 0x708 DUP2 JUMP JUMPDEST PUSH2 0x244 PUSH1 0x4 SLOAD DUP2 JUMP JUMPDEST PUSH2 0x265 PUSH2 0x335 CALLDATASIZE PUSH1 0x4 PUSH2 0x12EA JUMP JUMPDEST PUSH2 0x788 JUMP JUMPDEST PUSH1 0x5 SLOAD PUSH2 0x208 SWAP1 PUSH1 0xFF AND DUP2 JUMP JUMPDEST PUSH2 0x244 PUSH1 0x6 SLOAD DUP2 JUMP JUMPDEST PUSH2 0x2A6 PUSH32 0x0 DUP2 JUMP JUMPDEST PUSH2 0x244 PUSH2 0x385 CALLDATASIZE PUSH1 0x4 PUSH2 0x12EA JUMP JUMPDEST PUSH2 0x812 JUMP JUMPDEST PUSH2 0x265 PUSH2 0x398 CALLDATASIZE PUSH1 0x4 PUSH2 0x12CF JUMP JUMPDEST PUSH2 0x957 JUMP JUMPDEST PUSH2 0x265 PUSH2 0x3AB CALLDATASIZE PUSH1 0x4 PUSH2 0x12EA JUMP JUMPDEST PUSH2 0x9C9 JUMP JUMPDEST PUSH2 0x265 PUSH2 0x3BE CALLDATASIZE PUSH1 0x4 PUSH2 0x12EA JUMP JUMPDEST PUSH2 0xED4 JUMP JUMPDEST PUSH1 0x1 SLOAD PUSH2 0x2A6 SWAP1 PUSH1 0x1 PUSH1 0x1 PUSH1 0xA0 SHL SUB AND DUP2 JUMP JUMPDEST PUSH2 0x208 PUSH2 0x3E4 CALLDATASIZE PUSH1 0x4 PUSH2 0x1303 JUMP JUMPDEST PUSH1 0x0 SWAP2 DUP3 MSTORE PUSH1 0x20 DUP3 DUP2 MSTORE PUSH1 0x40 DUP1 DUP5 KECCAK256 PUSH1 0x1 PUSH1 0x1 PUSH1 0xA0 SHL SUB SWAP4 SWAP1 SWAP4 AND DUP5 MSTORE SWAP2 SWAP1 MSTORE SWAP1 KECCAK256 SLOAD PUSH1 0xFF AND SWAP1 JUMP JUMPDEST PUSH2 0x208 PUSH2 0x41B CALLDATASIZE PUSH1 0x4 PUSH2 0x12EA JUMP JUMPDEST PUSH1 0x8 PUSH1 0x20 MSTORE PUSH1 0x0 SWAP1 DUP2 MSTORE PUSH1 0x40 SWAP1 KECCAK256 SLOAD PUSH1 0xFF AND DUP2 JUMP JUMPDEST PUSH2 0x244 PUSH1 0x0 DUP2 JUMP JUMPDEST PUSH2 0x244 PUSH1 0x7 SLOAD DUP2 JUMP JUMPDEST PUSH2 0x244 PUSH2 0x102B JUMP JUMPDEST PUSH2 0x265 PUSH2 0x457 CALLDATASIZE PUSH1 0x4 PUSH2 0x1303 JUMP JUMPDEST PUSH2 0x109F JUMP JUMPDEST PUSH2 0x244 PUSH2 0x2BC DUP2 JUMP JUMPDEST PUSH2 0x244 PUSH1 0x3 SLOAD DUP2 JUMP JUMPDEST PUSH2 0x244 PUSH2 0x47C CALLDATASIZE PUSH1 0x4 PUSH2 0x12EA JUMP JUMPDEST PUSH1 0x0 SWAP1 DUP2 MSTORE PUSH1 0x9 PUSH1 0x20 MSTORE PUSH1 0x40 SWAP1 KECCAK256 SLOAD SWAP1 JUMP JUMPDEST PUSH2 0x2A6 PUSH32 0x0 DUP2 JUMP JUMPDEST PUSH1 0x0 PUSH32 0xFFFFFFFF00000000000000000000000000000000000000000000000000000000 DUP3 AND PUSH32 0x7965DB0B00000000000000000000000000000000000000000000000000000000 EQ DUP1 PUSH2 0x548 JUMPI POP PUSH32 0x1FFC9A700000000000000000000000000000000000000000000000000000000 PUSH32 0xFFFFFFFF00000000000000000000000000000000000000000000000000000000 DUP4 AND EQ JUMPDEST SWAP3 SWAP2 POP POP JUMP JUMPDEST PUSH1 0x0 PUSH2 0x559 DUP2 PUSH2 0x10C4 JUMP JUMPDEST PUSH1 0x1 PUSH1 0x1 PUSH1 0xA0 SHL SUB DUP3 AND PUSH2 0x5DA JUMPI PUSH1 0x40 MLOAD PUSH3 0x461BCD PUSH1 0xE5 SHL DUP2 MSTORE PUSH1 0x20 PUSH1 0x4 DUP3 ADD MSTORE PUSH1 0x29 PUSH1 0x24 DUP3 ADD MSTORE PUSH32 0x456D697373696F6E436F6E74726F6C6C65723A20496E76616C6964206D65726B PUSH1 0x44 DUP3 ADD MSTORE PUSH32 0x6C65526577617264730000000000000000000000000000000000000000000000 PUSH1 0x64 DUP3 ADD MSTORE PUSH1 0x84 ADD JUMPDEST PUSH1 0x40 MLOAD DUP1 SWAP2 SUB SWAP1 REVERT JUMPDEST PUSH1 0x1 SLOAD PUSH1 0x1 PUSH1 0x1 PUSH1 0xA0 SHL SUB AND ISZERO PUSH2 0x659 JUMPI PUSH1 0x40 MLOAD PUSH3 0x461BCD PUSH1 0xE5 SHL DUP2 MSTORE PUSH1 0x20 PUSH1 0x4 DUP3 ADD MSTORE PUSH1 0x2D PUSH1 0x24 DUP3 ADD MSTORE PUSH32 0x456D697373696F6E436F6E74726F6C6C65723A204D65726B6C65526577617264 PUSH1 0x44 DUP3 ADD MSTORE PUSH32 0x7320616C72656164792073657400000000000000000000000000000000000000 PUSH1 0x64 DUP3 ADD MSTORE PUSH1 0x84 ADD PUSH2 0x5D1 JUMP JUMPDEST PUSH1 0x1 DUP1 SLOAD PUSH1 0x1 PUSH1 0x1 PUSH1 0xA0 SHL SUB DUP5 DUP2 AND PUSH20 0xFFFFFFFFFFFFFFFFFFFFFFFFFFFFFFFFFFFFFFFF NOT DUP4 AND DUP2 OR SWAP1 SWAP4 SSTORE PUSH1 0x40 DUP1 MLOAD SWAP2 SWAP1 SWAP3 AND DUP1 DUP3 MSTORE PUSH1 0x20 DUP3 ADD SWAP4 SWAP1 SWAP4 MSTORE PUSH32 0xCFE2EF902B6065D8DB93AECB1DB9D0BDBD762266A120F21E83952D09E4B961B7 SWAP2 ADD JUMPDEST PUSH1 0x40 MLOAD DUP1 SWAP2 SUB SWAP1 LOG1 POP POP POP JUMP JUMPDEST PUSH1 0x0 DUP3 DUP2 MSTORE PUSH1 0x20 DUP2 SWAP1 MSTORE PUSH1 0x40 SWAP1 KECCAK256 PUSH1 0x1 ADD SLOAD PUSH2 0x6E4 DUP2 PUSH2 0x10C4 JUMP JUMPDEST PUSH2 0x6EE DUP4 DUP4 PUSH2 0x10D1 JUMP JUMPDEST POP POP POP POP JUMP JUMPDEST PUSH1 0x1 PUSH1 0x1 PUSH1 0xA0 SHL SUB DUP2 AND CALLER EQ PUSH2 0x736 JUMPI PUSH1 0x40 MLOAD PUSH32 0x6697B23200000000000000000000000000000000000000000000000000000000 DUP2 MSTORE PUSH1 0x4 ADD PUSH1 0x40 MLOAD DUP1 SWAP2 SUB SWAP1 REVERT JUMPDEST PUSH2 0x740 DUP3 DUP3 PUSH2 0x117B JUMP JUMPDEST POP POP POP JUMP JUMPDEST PUSH32 0x4B0AD04E4CFD06668C08542D3AF105A3FA4B1A2813040BBB694BFECF2E5F5240 PUSH2 0x76F DUP2 PUSH2 0x10C4 JUMP JUMPDEST PUSH1 0x0 PUSH2 0x779 PUSH2 0x102B JUMP JUMPDEST SWAP1 POP PUSH2 0x784 DUP2 PUSH2 0x9C9 JUMP JUMPDEST POP POP JUMP JUMPDEST PUSH1 0x0 PUSH2 0x793 DUP2 PUSH2 0x10C4 JUMP JUMPDEST PUSH1 0x5 SLOAD PUSH1 0xFF AND ISZERO PUSH2 0x80C JUMPI PUSH1 0x40 MLOAD PUSH3 0x461BCD PUSH1 0xE5 SHL DUP2 MSTORE PUSH1 0x20 PUSH1 0x4 DUP3 ADD MSTORE PUSH1 0x2F PUSH1 0x24 DUP3 ADD MSTORE PUSH32 0x456D697373696F6E436F6E74726F6C6C65723A2043616E6E6F74206368616E67 PUSH1 0x44 DUP3 ADD MSTORE PUSH32 0x65206B2061667465722073746172740000000000000000000000000000000000 PUSH1 0x64 DUP3 ADD MSTORE PUSH1 0x84 ADD PUSH2 0x5D1 JUMP JUMPDEST POP PUSH1 0x7 SSTORE JUMP JUMPDEST PUSH1 0x5 SLOAD PUSH1 0x0 SWAP1 PUSH1 0xFF AND PUSH2 0x867 JUMPI PUSH1 0x40 MLOAD PUSH3 0x461BCD PUSH1 0xE5 SHL DUP2 MSTORE PUSH1 0x20 PUSH1 0x4 DUP3 ADD MSTORE PUSH1 0x1F PUSH1 0x24 DUP3 ADD MSTORE PUSH32 0x456D697373696F6E436F6E74726F6C6C65723A204E6F74207374617274656400 PUSH1 0x44 DUP3 ADD MSTORE PUSH1 0x64 ADD PUSH2 0x5D1 JUMP JUMPDEST PUSH1 0x0 PUSH3 0x15180 PUSH1 0x4 SLOAD DUP5 PUSH2 0x87B SWAP2 SWAP1 PUSH2 0x1345 JUMP JUMPDEST PUSH2 0x885 SWAP2 SWAP1 PUSH2 0x135C JUMP JUMPDEST SWAP1 POP DUP1 PUSH1 0x0 SUB PUSH2 0x899 JUMPI POP POP PUSH1 0x6 SLOAD SWAP2 SWAP1 POP JUMP JUMPDEST PUSH1 0x0 PUSH8 0xDE0B6B3A7640000 DUP3 PUSH1 0x7 SLOAD PUSH2 0x8B2 SWAP2 SWAP1 PUSH2 0x1345 JUMP JUMPDEST PUSH2 0x8BC SWAP2 SWAP1 PUSH2 0x135C JUMP JUMPDEST SWAP1 POP PUSH8 0xDE0B6B3A7640000 DUP2 LT PUSH2 0x8D7 JUMPI POP PUSH1 0x0 SWAP4 SWAP3 POP POP POP JUMP JUMPDEST PUSH1 0x0 PUSH2 0x8EB DUP3 PUSH8 0xDE0B6B3A7640000 PUSH2 0x137E JUMP JUMPDEST SWAP1 POP DUP2 ISZERO PUSH2 0x92D JUMPI PUSH1 0x0 PUSH8 0xDE0B6B3A7640000 PUSH2 0x908 DUP5 DUP1 PUSH2 0x1345 JUMP JUMPDEST PUSH2 0x912 SWAP2 SWAP1 PUSH2 0x135C JUMP JUMPDEST SWAP1 POP PUSH2 0x91F PUSH1 0x2 DUP3 PUSH2 0x135C JUMP JUMPDEST PUSH2 0x929 SWAP1 DUP4 PUSH2 0x1391 JUMP JUMPDEST SWAP2 POP POP JUMPDEST PUSH8 0xDE0B6B3A7640000 DUP2 PUSH1 0x6 SLOAD PUSH2 0x944 SWAP2 SWAP1 PUSH2 0x1345 JUMP JUMPDEST PUSH2 0x94E SWAP2 SWAP1 PUSH2 0x135C JUMP JUMPDEST SWAP6 SWAP5 POP POP POP POP POP JUMP JUMPDEST PUSH1 0x0 PUSH2 0x962 DUP2 PUSH2 0x10C4 JUMP JUMPDEST PUSH1 0x2 DUP1 SLOAD PUSH1 0x1 PUSH1 0x1 PUSH1 0xA0 SHL SUB DUP5 DUP2 AND PUSH20 0xFFFFFFFFFFFFFFFFFFFFFFFFFFFFFFFFFFFFFFFF NOT DUP4 AND DUP2 OR SWAP1 SWAP4 SSTORE PUSH1 0x40 DUP1 MLOAD SWAP2 SWAP1 SWAP3 AND DUP1 DUP3 MSTORE PUSH1 0x20 DUP3 ADD SWAP4 SWAP1 SWAP4 MSTORE PUSH32 0xC431A12AA1787FE0C47DAB44C6BDA485C7375B649776516DB5DA84215B65B346 SWAP2 ADD PUSH2 0x6BC JUMP JUMPDEST PUSH32 0x4B0AD04E4CFD06668C08542D3AF105A3FA4B1A2813040BBB694BFECF2E5F5240 PUSH2 0x9F3 DUP2 PUSH2 0x10C4 JUMP JUMPDEST PUSH1 0x5 SLOAD PUSH1 0xFF AND PUSH2 0xA45 JUMPI PUSH1 0x40 MLOAD PUSH3 0x461BCD PUSH1 0xE5 SHL DUP2 MSTORE PUSH1 0x20 PUSH1 0x4 DUP3 ADD MSTORE PUSH1 0x1F PUSH1 0x24 DUP3 ADD MSTORE PUSH32 0x456D697373696F6E436F6E74726F6C6C65723A204E6F74207374617274656400 PUSH1 0x44 DUP3 ADD MSTORE PUSH1 0x64 ADD PUSH2 0x5D1 JUMP JUMPDEST PUSH1 0x0 DUP3 DUP2 MSTORE PUSH1 0x8 PUSH1 0x20 MSTORE PUSH1 0x40 SWAP1 KECCAK256 SLOAD PUSH1 0xFF AND ISZERO PUSH2 0xACA JUMPI PUSH1 0x40 MLOAD PUSH3 0x461BCD PUSH1 0xE5 SHL DUP2 MSTORE PUSH1 0x20 PUSH1 0x4 DUP3 ADD MSTORE PUSH1 0x2B PUSH1 0x24 DUP3 ADD MSTORE PUSH32 0x456D697373696F6E436F6E74726F6C6C65723A2045706F636820616C72656164 PUSH1 0x44 DUP3 ADD MSTORE PUSH32 0x792070726F636573736564000000000000000000000000000000000000000000 PUSH1 0x64 DUP3 ADD MSTORE PUSH1 0x84 ADD PUSH2 0x5D1 JUMP JUMPDEST PUSH1 0x0 PUSH2 0xAD5 DUP4 PUSH2 0x812 JUMP JUMPDEST SWAP1 POP PUSH1 0x0 DUP2 GT PUSH2 0xB4D JUMPI PUSH1 0x40 MLOAD PUSH3 0x461BCD PUSH1 0xE5 SHL DUP2 MSTORE PUSH1 0x20 PUSH1 0x4 DUP3 ADD MSTORE PUSH1 0x21 PUSH1 0x24 DUP3 ADD MSTORE PUSH32 0x456D697373696F6E436F6E74726F6C6C65723A205A65726F20656D697373696F PUSH1 0x44 DUP3 ADD MSTORE PUSH32 0x6E00000000000000000000000000000000000000000000000000000000000000 PUSH1 0x64 DUP3 ADD MSTORE PUSH1 0x84 ADD PUSH2 0x5D1 JUMP JUMPDEST PUSH1 0x0 PUSH2 0x2710 PUSH2 0xB5E PUSH2 0xDAC DUP5 PUSH2 0x1345 JUMP JUMPDEST PUSH2 0xB68 SWAP2 SWAP1 PUSH2 0x135C JUMP JUMPDEST SWAP1 POP PUSH1 0x0 PUSH2 0x2710 PUSH2 0xB7B PUSH2 0xFA0 DUP6 PUSH2 0x1345 JUMP JUMPDEST PUSH2 0xB85 SWAP2 SWAP1 PUSH2 0x135C JUMP JUMPDEST SWAP1 POP PUSH1 0x0 PUSH2 0x2710 PUSH2 0xB98 PUSH2 0x708 DUP7 PUSH2 0x1345 JUMP JUMPDEST PUSH2 0xBA2 SWAP2 SWAP1 PUSH2 0x135C JUMP JUMPDEST SWAP1 POP PUSH1 0x0 PUSH2 0x2710 PUSH2 0xBB5 PUSH2 0x2BC DUP8 PUSH2 0x1345 JUMP JUMPDEST PUSH2 0xBBF SWAP2 SWAP1 PUSH2 0x135C JUMP JUMPDEST PUSH1 0x40 MLOAD PUSH4 0x40C10F19 PUSH1 0xE0 SHL DUP2 MSTORE PUSH1 0x1 PUSH1 0x1 PUSH1 0xA0 SHL SUB PUSH32 0x0 DUP2 AND PUSH1 0x4 DUP4 ADD MSTORE PUSH1 0x24 DUP3 ADD DUP8 SWAP1 MSTORE SWAP2 SWAP3 POP PUSH32 0x0 SWAP1 SWAP2 AND SWAP1 PUSH4 0x40C10F19 SWAP1 PUSH1 0x44 ADD PUSH1 0x0 PUSH1 0x40 MLOAD DUP1 DUP4 SUB DUP2 PUSH1 0x0 DUP8 DUP1 EXTCODESIZE ISZERO DUP1 ISZERO PUSH2 0xC4E JUMPI PUSH1 0x0 DUP1 REVERT JUMPDEST POP GAS CALL ISZERO DUP1 ISZERO PUSH2 0xC62 JUMPI RETURNDATASIZE PUSH1 0x0 DUP1 RETURNDATACOPY RETURNDATASIZE PUSH1 0x0 REVERT JUMPDEST POP POP POP PUSH1 0x0 DUP9 DUP2 MSTORE PUSH1 0x9 PUSH1 0x20 MSTORE PUSH1 0x40 SWAP1 DUP2 SWAP1 KECCAK256 DUP6 SWAP1 SSTORE MLOAD PUSH4 0x40C10F19 PUSH1 0xE0 SHL DUP2 MSTORE PUSH1 0x1 PUSH1 0x1 PUSH1 0xA0 SHL SUB PUSH32 0x0 DUP2 AND PUSH1 0x4 DUP4 ADD MSTORE PUSH1 0x24 DUP3 ADD DUP6 SWAP1 MSTORE PUSH32 0x0 AND SWAP2 POP PUSH4 0x40C10F19 SWAP1 PUSH1 0x44 ADD PUSH1 0x0 PUSH1 0x40 MLOAD DUP1 DUP4 SUB DUP2 PUSH1 0x0 DUP8 DUP1 EXTCODESIZE ISZERO DUP1 ISZERO PUSH2 0xD01 JUMPI PUSH1 0x0 DUP1 REVERT JUMPDEST POP GAS CALL ISZERO DUP1 ISZERO PUSH2 0xD15 JUMPI RETURNDATASIZE PUSH1 0x0 DUP1 RETURNDATACOPY RETURNDATASIZE PUSH1 0x0 REVERT JUMPDEST POP POP PUSH1 0x2 SLOAD PUSH1 0x1 PUSH1 0x1 PUSH1 0xA0 SHL SUB AND ISZERO SWAP2 POP PUSH2 0xDB8 SWAP1 POP JUMPI PUSH1 0x2 SLOAD PUSH1 0x40 MLOAD PUSH4 0x40C10F19 PUSH1 0xE0 SHL DUP2 MSTORE PUSH1 0x1 PUSH1 0x1 PUSH1 0xA0 SHL SUB SWAP2 DUP3 AND PUSH1 0x4 DUP3 ADD MSTORE PUSH1 0x24 DUP2 ADD DUP4 SWAP1 MSTORE PUSH32 0x0 SWAP1 SWAP2 AND SWAP1 PUSH4 0x40C10F19 SWAP1 PUSH1 0x44 ADD PUSH1 0x0 PUSH1 0x40 MLOAD DUP1 DUP4 SUB DUP2 PUSH1 0x0 DUP8 DUP1 EXTCODESIZE ISZERO DUP1 ISZERO PUSH2 0xD9B JUMPI PUSH1 0x0 DUP1 REVERT JUMPDEST POP GAS CALL ISZERO DUP1 ISZERO PUSH2 0xDAF JUMPI RETURNDATASIZE PUSH1 0x0 DUP1 RETURNDATACOPY RETURNDATASIZE PUSH1 0x0 REVERT JUMPDEST POP POP POP POP PUSH2 0xE5B JUMP JUMPDEST PUSH1 0x40 MLOAD PUSH4 0x40C10F19 PUSH1 0xE0 SHL DUP2 MSTORE PUSH1 0x1 PUSH1 0x1 PUSH1 0xA0 SHL SUB PUSH32 0x0 DUP2 AND PUSH1 0x4 DUP4 ADD MSTORE PUSH1 0x24 DUP3 ADD DUP4 SWAP1 MSTORE PUSH32 0x0 AND SWAP1 PUSH4 0x40C10F19 SWAP1 PUSH1 0x44 ADD PUSH1 0x0 PUSH1 0x40 MLOAD DUP1 DUP4 SUB DUP2 PUSH1 0x0 DUP8 DUP1 EXTCODESIZE ISZERO DUP1 ISZERO PUSH2 0xE42 JUMPI PUSH1 0x0 DUP1 REVERT JUMPDEST POP GAS CALL ISZERO DUP1 ISZERO PUSH2 0xE56 JUMPI RETURNDATASIZE PUSH1 0x0 DUP1 RETURNDATACOPY RETURNDATASIZE PUSH1 0x0 REVERT JUMPDEST POP POP POP POP JUMPDEST PUSH1 0x0 DUP8 DUP2 MSTORE PUSH1 0x8 PUSH1 0x20 SWAP1 DUP2 MSTORE PUSH1 0x40 SWAP2 DUP3 SWAP1 KECCAK256 DUP1 SLOAD PUSH1 0xFF NOT AND PUSH1 0x1 OR SWAP1 SSTORE DUP2 MLOAD DUP10 DUP2 MSTORE SWAP1 DUP2 ADD DUP8 SWAP1 MSTORE SWAP1 DUP2 ADD DUP6 SWAP1 MSTORE PUSH1 0x60 DUP2 ADD DUP5 SWAP1 MSTORE PUSH1 0x80 DUP2 ADD DUP4 SWAP1 MSTORE PUSH1 0xA0 DUP2 ADD DUP3 SWAP1 MSTORE PUSH32 0x2518CAA0216D93D1101233FF8F841886AD4828028040EF048948016B1D8F45E9 SWAP1 PUSH1 0xC0 ADD PUSH1 0x40 MLOAD DUP1 SWAP2 SUB SWAP1 LOG1 POP POP POP POP POP POP POP JUMP JUMPDEST PUSH1 0x0 PUSH2 0xEDF DUP2 PUSH2 0x10C4 JUMP JUMPDEST PUSH1 0x5 SLOAD PUSH1 0xFF AND ISZERO PUSH2 0xF58 JUMPI PUSH1 0x40 MLOAD PUSH3 0x461BCD PUSH1 0xE5 SHL DUP2 MSTORE PUSH1 0x20 PUSH1 0x4 DUP3 ADD MSTORE PUSH1 0x23 PUSH1 0x24 DUP3 ADD MSTORE PUSH32 0x456D697373696F6E436F6E74726F6C6C65723A20416C72656164792073746172 PUSH1 0x44 DUP3 ADD MSTORE PUSH32 0x7465640000000000000000000000000000000000000000000000000000000000 PUSH1 0x64 DUP3 ADD MSTORE PUSH1 0x84 ADD PUSH2 0x5D1 JUMP JUMPDEST PUSH1 0x0 DUP3 GT PUSH2 0xFCE JUMPI PUSH1 0x40 MLOAD PUSH3 0x461BCD PUSH1 0xE5 SHL DUP2 MSTORE PUSH1 0x20 PUSH1 0x4 DUP3 ADD MSTORE PUSH1 0x30 PUSH1 0x24 DUP3 ADD MSTORE PUSH32 0x456D697373696F6E436F6E74726F6C6C65723A204530206D7573742062652067 PUSH1 0x44 DUP3 ADD MSTORE PUSH32 0x726561746572207468616E207A65726F00000000000000000000000000000000 PUSH1 0x64 DUP3 ADD MSTORE PUSH1 0x84 ADD PUSH2 0x5D1 JUMP JUMPDEST PUSH1 0x6 DUP3 SWAP1 SSTORE TIMESTAMP PUSH1 0x3 DUP2 SWAP1 SSTORE PUSH1 0x5 DUP1 SLOAD PUSH1 0xFF NOT AND PUSH1 0x1 OR SWAP1 SSTORE PUSH1 0x7 SLOAD PUSH1 0x40 DUP1 MLOAD SWAP3 DUP4 MSTORE PUSH1 0x20 DUP4 ADD DUP6 SWAP1 MSTORE DUP3 ADD MSTORE PUSH32 0xA5070E99EDD98E4038D988D53032AB30C5AB97CA9DBE3F4E1DC5013E9EB16CF4 SWAP1 PUSH1 0x60 ADD PUSH1 0x40 MLOAD DUP1 SWAP2 SUB SWAP1 LOG1 POP POP JUMP JUMPDEST PUSH1 0x5 SLOAD PUSH1 0x0 SWAP1 PUSH1 0xFF AND PUSH2 0x1080 JUMPI PUSH1 0x40 MLOAD PUSH3 0x461BCD PUSH1 0xE5 SHL DUP2 MSTORE PUSH1 0x20 PUSH1 0x4 DUP3 ADD MSTORE PUSH1 0x1F PUSH1 0x24 DUP3 ADD MSTORE PUSH32 0x456D697373696F6E436F6E74726F6C6C65723A204E6F74207374617274656400 PUSH1 0x44 DUP3 ADD MSTORE PUSH1 0x64 ADD PUSH2 0x5D1 JUMP JUMPDEST PUSH1 0x4 SLOAD PUSH1 0x3 SLOAD PUSH2 0x1090 SWAP1 TIMESTAMP PUSH2 0x137E JUMP JUMPDEST PUSH2 0x109A SWAP2 SWAP1 PUSH2 0x135C JUMP JUMPDEST SWAP1 POP SWAP1 JUMP JUMPDEST PUSH1 0x0 DUP3 DUP2 MSTORE PUSH1 0x20 DUP2 SWAP1 MSTORE PUSH1 0x40 SWAP1 KECCAK256 PUSH1 0x1 ADD SLOAD PUSH2 0x10BA DUP2 PUSH2 0x10C4 JUMP JUMPDEST PUSH2 0x6EE DUP4 DUP4 PUSH2 0x117B JUMP JUMPDEST PUSH2 0x10CE DUP2 CALLER PUSH2 0x11FE JUMP JUMPDEST POP JUMP JUMPDEST PUSH1 0x0 DUP3 DUP2 MSTORE PUSH1 0x20 DUP2 DUP2 MSTORE PUSH1 0x40 DUP1 DUP4 KECCAK256 PUSH1 0x1 PUSH1 0x1 PUSH1 0xA0 SHL SUB DUP6 AND DUP5 MSTORE SWAP1 SWAP2 MSTORE DUP2 KECCAK256 SLOAD PUSH1 0xFF AND PUSH2 0x1173 JUMPI PUSH1 0x0 DUP4 DUP2 MSTORE PUSH1 0x20 DUP2 DUP2 MSTORE PUSH1 0x40 DUP1 DUP4 KECCAK256 PUSH1 0x1 PUSH1 0x1 PUSH1 0xA0 SHL SUB DUP7 AND DUP5 MSTORE SWAP1 SWAP2 MSTORE SWAP1 KECCAK256 DUP1 SLOAD PUSH1 0xFF NOT AND PUSH1 0x1 OR SWAP1 SSTORE PUSH2 0x112B CALLER SWAP1 JUMP JUMPDEST PUSH1 0x1 PUSH1 0x1 PUSH1 0xA0 SHL SUB AND DUP3 PUSH1 0x1 PUSH1 0x1 PUSH1 0xA0 SHL SUB AND DUP5 PUSH32 0x2F8788117E7EFF1D82E926EC794901D17C78024A50270940304540A733656F0D PUSH1 0x40 MLOAD PUSH1 0x40 MLOAD DUP1 SWAP2 SUB SWAP1 LOG4 POP PUSH1 0x1 PUSH2 0x548 JUMP JUMPDEST POP PUSH1 0x0 PUSH2 0x548 JUMP JUMPDEST PUSH1 0x0 DUP3 DUP2 MSTORE PUSH1 0x20 DUP2 DUP2 MSTORE PUSH1 0x40 DUP1 DUP4 KECCAK256 PUSH1 0x1 PUSH1 0x1 PUSH1 0xA0 SHL SUB DUP6 AND DUP5 MSTORE SWAP1 SWAP2 MSTORE DUP2 KECCAK256 SLOAD PUSH1 0xFF AND ISZERO PUSH2 0x1173 JUMPI PUSH1 0x0 DUP4 DUP2 MSTORE PUSH1 0x20 DUP2 DUP2 MSTORE PUSH1 0x40 DUP1 DUP4 KECCAK256 PUSH1 0x1 PUSH1 0x1 PUSH1 0xA0 SHL SUB DUP7 AND DUP1 DUP6 MSTORE SWAP3 MSTORE DUP1 DUP4 KECCAK256 DUP1 SLOAD PUSH1 0xFF NOT AND SWAP1 SSTORE MLOAD CALLER SWAP3 DUP7 SWAP2 PUSH32 0xF6391F5C32D9C69D2A47EA670B442974B53935D1EDC7FD64EB21E047A839171B SWAP2 SWAP1 LOG4 POP PUSH1 0x1 PUSH2 0x548 JUMP JUMPDEST PUSH1 0x0 DUP3 DUP2 MSTORE PUSH1 0x20 DUP2 DUP2 MSTORE PUSH1 0x40 DUP1 DUP4 KECCAK256 PUSH1 0x1 PUSH1 0x1 PUSH1 0xA0 SHL SUB DUP6 AND DUP5 MSTORE SWAP1 SWAP2 MSTORE SWAP1 KECCAK256 SLOAD PUSH1 0xFF AND PUSH2 0x784 JUMPI PUSH1 0x40 MLOAD PUSH32 0xE2517D3F00000000000000000000000000000000000000000000000000000000 DUP2 MSTORE PUSH1 0x1 PUSH1 0x1 PUSH1 0xA0 SHL SUB DUP3 AND PUSH1 0x4 DUP3 ADD MSTORE PUSH1 0x24 DUP2 ADD DUP4 SWAP1 MSTORE PUSH1 0x44 ADD PUSH2 0x5D1 JUMP JUMPDEST PUSH1 0x0 PUSH1 0x20 DUP3 DUP5 SUB SLT ISZERO PUSH2 0x127C JUMPI PUSH1 0x0 DUP1 REVERT JUMPDEST DUP2 CALLDATALOAD PUSH32 0xFFFFFFFF00000000000000000000000000000000000000000000000000000000 DUP2 AND DUP2 EQ PUSH2 0x12AC JUMPI PUSH1 0x0 DUP1 REVERT JUMPDEST SWAP4 SWAP3 POP POP POP JUMP JUMPDEST DUP1 CALLDATALOAD PUSH1 0x1 PUSH1 0x1 PUSH1 0xA0 SHL SUB DUP2 AND DUP2 EQ PUSH2 0x12CA JUMPI PUSH1 0x0 DUP1 REVERT JUMPDEST SWAP2 SWAP1 POP JUMP JUMPDEST PUSH1 0x0 PUSH1 0x20 DUP3 DUP5 SUB SLT ISZERO PUSH2 0x12E1 JUMPI PUSH1 0x0 DUP1 REVERT JUMPDEST PUSH2 0x12AC DUP3 PUSH2 0x12B3 JUMP JUMPDEST PUSH1 0x0 PUSH1 0x20 DUP3 DUP5 SUB SLT ISZERO PUSH2 0x12FC JUMPI PUSH1 0x0 DUP1 REVERT JUMPDEST POP CALLDATALOAD SWAP2 SWAP1 POP JUMP JUMPDEST PUSH1 0x0 DUP1 PUSH1 0x40 DUP4 DUP6 SUB SLT ISZERO PUSH2 0x1316 JUMPI PUSH1 0x0 DUP1 REVERT JUMPDEST DUP3 CALLDATALOAD SWAP2 POP PUSH2 0x1326 PUSH1 0x20 DUP5 ADD PUSH2 0x12B3 JUMP JUMPDEST SWAP1 POP SWAP3 POP SWAP3 SWAP1 POP JUMP JUMPDEST PUSH4 0x4E487B71 PUSH1 0xE0 SHL PUSH1 0x0 MSTORE PUSH1 0x11 PUSH1 0x4 MSTORE PUSH1 0x24 PUSH1 0x0 REVERT JUMPDEST DUP1 DUP3 MUL DUP2 ISZERO DUP3 DUP3 DIV DUP5 EQ OR PUSH2 0x548 JUMPI PUSH2 0x548 PUSH2 0x132F JUMP JUMPDEST PUSH1 0x0 DUP3 PUSH2 0x1379 JUMPI PUSH4 0x4E487B71 PUSH1 0xE0 SHL PUSH1 0x0 MSTORE PUSH1 0x12 PUSH1 0x4 MSTORE PUSH1 0x24 PUSH1 0x0 REVERT JUMPDEST POP DIV SWAP1 JUMP JUMPDEST DUP2 DUP2 SUB DUP2 DUP2 GT ISZERO PUSH2 0x548 JUMPI PUSH2 0x548 PUSH2 0x132F JUMP JUMPDEST DUP1 DUP3 ADD DUP1 DUP3 GT ISZERO PUSH2 0x548 JUMPI PUSH2 0x548 PUSH2 0x132F JUMP INVALID LOG2 PUSH5 0x6970667358 0x22 SLT KECCAK256 DUP15 ISZERO DUP5 0xEA DUP3 ORIGIN PUSH26 0x14ED93FC897F368F99A5DA734558C7BD80370539CD5792938064 PUSH20 0x6F6C634300081C00330000000000000000000000 "},"methodIdentifiers":{"DEFAULT_ADMIN_ROLE()":"a217fddf","E0()":"6031a8d6","EMITTER_ROLE()":"18004b39","GOVERNANCE_BPS()":"d98aa23d","POUW_BPS()":"492393af","TREASURY_BPS()":"4c25d197","VALIDATORS_BPS()":"23ec8d57","calculateEmission(uint256)":"621485d9","emissionsStarted()":"5adf0021","epochDuration()":"4ff0876a","epochProcessed(uint256)":"95ddabfa","getCurrentEpoch()":"b97dd9e2","getPouwBudget(uint256)":"f7f3ea81","getRoleAdmin(bytes32)":"248a9ca3","governanceIncentives()":"2d88bf98","grantRole(bytes32,address)":"2f2ff15d","hasRole(bytes32,address)":"91d14854","k()":"b4f40c61","merkleRewards()":"8f22374f","pouwBudget(uint256)":"426d021c","processCurrentEpoch()":"45e7519f","processEpoch(uint256)":"899f6235","renounceRole(bytes32,address)":"36568abe","revokeRole(bytes32,address)":"d547741f","setDecayConstant(uint256)":"58161a29","setGovernanceIncentives(address)":"62ec17c2","setMerkleRewards(address)":"1f9c204d","startEmissions(uint256)":"8b9f9af8","startTimestamp()":"e6fd48bc","supportsInterface(bytes4)":"01ffc9a7","token()":"fc0c546a","treasury()":"61d027b3"}}}}}