{
  "_format": "hh-sol-artifact-1",
  "contractName": "ProviderRegistry",
  "sourceName": "contracts/ProviderRegistry.sol",
  "abi": [
    {
      "inputs": [
        {
          "internalType": "address",
          "name": "_cldToken",
          "type": "address"
        },
        {
          "internalType": "address",
          "name": "_teamWallet",
          "type": "address"
        },
        {
          "internalType": "address",
          "name": "_treasuryWallet",
          "type": "address"
        }
      ],
      "stateMutability": "nonpayable",
      "type": "constructor"
    },
    {
      "inputs": [],
      "name": "AccessControlBadConfirmation",
      "type": "error"
    },
    {
      "inputs": [
        {
          "internalType": "address",
          "name": "account",
          "type": "address"
        },
        {
          "internalType": "bytes32",
          "name": "neededRole",
          "type": "bytes32"
        }
      ],
      "name": "AccessControlUnauthorizedAccount",
      "type": "error"
    },
    {
      "inputs": [
        {
          "internalType": "uint256",
          "name": "required",
          "type": "uint256"
        },
        {
          "internalType": "uint256",
          "name": "allowance",
          "type": "uint256"
        }
      ],
      "name": "InsufficientAllowance",
      "type": "error"
    },
    {
      "inputs": [
        {
          "internalType": "uint256",
          "name": "required",
          "type": "uint256"
        },
        {
          "internalType": "uint256",
          "name": "available",
          "type": "uint256"
        }
      ],
      "name": "InsufficientBalance",
      "type": "error"
    },
    {
      "inputs": [],
      "name": "InvalidIPFSCID",
      "type": "error"
    },
    {
      "inputs": [],
      "name": "InvalidPubKeyHash",
      "type": "error"
    },
    {
      "inputs": [
        {
          "internalType": "address",
          "name": "owner",
          "type": "address"
        }
      ],
      "name": "MaxProvidersReached",
      "type": "error"
    },
    {
      "inputs": [
        {
          "internalType": "address",
          "name": "caller",
          "type": "address"
        },
        {
          "internalType": "address",
          "name": "owner",
          "type": "address"
        }
      ],
      "name": "NotProviderOwner",
      "type": "error"
    },
    {
      "inputs": [
        {
          "internalType": "bytes32",
          "name": "pubKeyHash",
          "type": "bytes32"
        }
      ],
      "name": "ProviderAlreadyExists",
      "type": "error"
    },
    {
      "inputs": [
        {
          "internalType": "bytes32",
          "name": "pubKeyHash",
          "type": "bytes32"
        }
      ],
      "name": "ProviderNotFound",
      "type": "error"
    },
    {
      "anonymous": false,
      "inputs": [
        {
          "indexed": true,
          "internalType": "address",
          "name": "owner",
          "type": "address"
        },
        {
          "indexed": true,
          "internalType": "bytes32",
          "name": "pubKeyHash",
          "type": "bytes32"
        },
        {
          "indexed": false,
          "internalType": "string",
          "name": "ipfsCID",
          "type": "string"
        },
        {
          "indexed": false,
          "internalType": "uint256",
          "name": "bondAmount",
          "type": "uint256"
        }
      ],
      "name": "ProviderRegistered",
      "type": "event"
    },
    {
      "anonymous": false,
      "inputs": [
        {
          "indexed": true,
          "internalType": "bytes32",
          "name": "pubKeyHash",
          "type": "bytes32"
        },
        {
          "indexed": false,
          "internalType": "enum ProviderRegistry.ProviderStatus",
          "name": "status",
          "type": "uint8"
        }
      ],
      "name": "ProviderStatusUpdated",
      "type": "event"
    },
    {
      "anonymous": false,
      "inputs": [
        {
          "indexed": true,
          "internalType": "bytes32",
          "name": "role",
          "type": "bytes32"
        },
        {
          "indexed": true,
          "internalType": "bytes32",
          "name": "previousAdminRole",
          "type": "bytes32"
        },
        {
          "indexed": true,
          "internalType": "bytes32",
          "name": "newAdminRole",
          "type": "bytes32"
        }
      ],
      "name": "RoleAdminChanged",
      "type": "event"
    },
    {
      "anonymous": false,
      "inputs": [
        {
          "indexed": true,
          "internalType": "bytes32",
          "name": "role",
          "type": "bytes32"
        },
        {
          "indexed": true,
          "internalType": "address",
          "name": "account",
          "type": "address"
        },
        {
          "indexed": true,
          "internalType": "address",
          "name": "sender",
          "type": "address"
        }
      ],
      "name": "RoleGranted",
      "type": "event"
    },
    {
      "anonymous": false,
      "inputs": [
        {
          "indexed": true,
          "internalType": "bytes32",
          "name": "role",
          "type": "bytes32"
        },
        {
          "indexed": true,
          "internalType": "address",
          "name": "account",
          "type": "address"
        },
        {
          "indexed": true,
          "internalType": "address",
          "name": "sender",
          "type": "address"
        }
      ],
      "name": "RoleRevoked",
      "type": "event"
    },
    {
      "inputs": [],
      "name": "DEFAULT_ADMIN_ROLE",
      "outputs": [
        {
          "internalType": "bytes32",
          "name": "",
          "type": "bytes32"
        }
      ],
      "stateMutability": "view",
      "type": "function"
    },
    {
      "inputs": [],
      "name": "MAX_PROVIDERS_PER_OWNER",
      "outputs": [
        {
          "internalType": "uint8",
          "name": "",
          "type": "uint8"
        }
      ],
      "stateMutability": "view",
      "type": "function"
    },
    {
      "inputs": [],
      "name": "STATIC_BOND",
      "outputs": [
        {
          "internalType": "uint256",
          "name": "",
          "type": "uint256"
        }
      ],
      "stateMutability": "view",
      "type": "function"
    },
    {
      "inputs": [],
      "name": "TEAM_PERCENT",
      "outputs": [
        {
          "internalType": "uint256",
          "name": "",
          "type": "uint256"
        }
      ],
      "stateMutability": "view",
      "type": "function"
    },
    {
      "inputs": [],
      "name": "TREASURY_PERCENT",
      "outputs": [
        {
          "internalType": "uint256",
          "name": "",
          "type": "uint256"
        }
      ],
      "stateMutability": "view",
      "type": "function"
    },
    {
      "inputs": [
        {
          "internalType": "uint256",
          "name": "",
          "type": "uint256"
        }
      ],
      "name": "allProviderKeys",
      "outputs": [
        {
          "internalType": "bytes32",
          "name": "",
          "type": "bytes32"
        }
      ],
      "stateMutability": "view",
      "type": "function"
    },
    {
      "inputs": [],
      "name": "cldToken",
      "outputs": [
        {
          "internalType": "contract CLDToken",
          "name": "",
          "type": "address"
        }
      ],
      "stateMutability": "view",
      "type": "function"
    },
    {
      "inputs": [],
      "name": "getAllProviderKeys",
      "outputs": [
        {
          "internalType": "bytes32[]",
          "name": "",
          "type": "bytes32[]"
        }
      ],
      "stateMutability": "view",
      "type": "function"
    },
    {
      "inputs": [],
      "name": "getBondInfo",
      "outputs": [
        {
          "internalType": "uint256",
          "name": "",
          "type": "uint256"
        }
      ],
      "stateMutability": "pure",
      "type": "function"
    },
    {
      "inputs": [
        {
          "internalType": "address",
          "name": "owner",
          "type": "address"
        }
      ],
      "name": "getMyProviders",
      "outputs": [
        {
          "internalType": "bytes32[]",
          "name": "",
          "type": "bytes32[]"
        }
      ],
      "stateMutability": "view",
      "type": "function"
    },
    {
      "inputs": [
        {
          "internalType": "bytes32",
          "name": "pubKeyHash",
          "type": "bytes32"
        }
      ],
      "name": "getProvider",
      "outputs": [
        {
          "components": [
            {
              "internalType": "address",
              "name": "owner",
              "type": "address"
            },
            {
              "internalType": "bytes32",
              "name": "pubKeyHash",
              "type": "bytes32"
            },
            {
              "internalType": "string",
              "name": "ipfsCID",
              "type": "string"
            },
            {
              "internalType": "uint96",
              "name": "bondAmount",
              "type": "uint96"
            },
            {
              "internalType": "uint64",
              "name": "registeredAt",
              "type": "uint64"
            },
            {
              "internalType": "enum ProviderRegistry.ProviderStatus",
              "name": "status",
              "type": "uint8"
            }
          ],
          "internalType": "struct ProviderRegistry.Provider",
          "name": "",
          "type": "tuple"
        }
      ],
      "stateMutability": "view",
      "type": "function"
    },
    {
      "inputs": [],
      "name": "getProviderCount",
      "outputs": [
        {
          "internalType": "uint256",
          "name": "",
          "type": "uint256"
        }
      ],
      "stateMutability": "view",
      "type": "function"
    },
    {
      "inputs": [
        {
          "internalType": "bytes32",
          "name": "role",
          "type": "bytes32"
        }
      ],
      "name": "getRoleAdmin",
      "outputs": [
        {
          "internalType": "bytes32",
          "name": "",
          "type": "bytes32"
        }
      ],
      "stateMutability": "view",
      "type": "function"
    },
    {
      "inputs": [
        {
          "internalType": "bytes32",
          "name": "role",
          "type": "bytes32"
        },
        {
          "internalType": "address",
          "name": "account",
          "type": "address"
        }
      ],
      "name": "grantRole",
      "outputs": [],
      "stateMutability": "nonpayable",
      "type": "function"
    },
    {
      "inputs": [
        {
          "internalType": "bytes32",
          "name": "role",
          "type": "bytes32"
        },
        {
          "internalType": "address",
          "name": "account",
          "type": "address"
        }
      ],
      "name": "hasRole",
      "outputs": [
        {
          "internalType": "bool",
          "name": "",
          "type": "bool"
        }
      ],
      "stateMutability": "view",
      "type": "function"
    },
    {
      "inputs": [
        {
          "internalType": "address",
          "name": "",
          "type": "address"
        },
        {
          "internalType": "uint256",
          "name": "",
          "type": "uint256"
        }
      ],
      "name": "ownerNodes",
      "outputs": [
        {
          "internalType": "bytes32",
          "name": "",
          "type": "bytes32"
        }
      ],
      "stateMutability": "view",
      "type": "function"
    },
    {
      "inputs": [
        {
          "internalType": "bytes32",
          "name": "",
          "type": "bytes32"
        }
      ],
      "name": "providers",
      "outputs": [
        {
          "internalType": "address",
          "name": "owner",
          "type": "address"
        },
        {
          "internalType": "bytes32",
          "name": "pubKeyHash",
          "type": "bytes32"
        },
        {
          "internalType": "string",
          "name": "ipfsCID",
          "type": "string"
        },
        {
          "internalType": "uint96",
          "name": "bondAmount",
          "type": "uint96"
        },
        {
          "internalType": "uint64",
          "name": "registeredAt",
          "type": "uint64"
        },
        {
          "internalType": "enum ProviderRegistry.ProviderStatus",
          "name": "status",
          "type": "uint8"
        }
      ],
      "stateMutability": "view",
      "type": "function"
    },
    {
      "inputs": [
        {
          "internalType": "bytes32",
          "name": "pubKeyHash",
          "type": "bytes32"
        },
        {
          "internalType": "string",
          "name": "ipfsCID",
          "type": "string"
        }
      ],
      "name": "registerProvider",
      "outputs": [],
      "stateMutability": "nonpayable",
      "type": "function"
    },
    {
      "inputs": [
        {
          "internalType": "bytes32",
          "name": "role",
          "type": "bytes32"
        },
        {
          "internalType": "address",
          "name": "callerConfirmation",
          "type": "address"
        }
      ],
      "name": "renounceRole",
      "outputs": [],
      "stateMutability": "nonpayable",
      "type": "function"
    },
    {
      "inputs": [
        {
          "internalType": "bytes32",
          "name": "role",
          "type": "bytes32"
        },
        {
          "internalType": "address",
          "name": "account",
          "type": "address"
        }
      ],
      "name": "revokeRole",
      "outputs": [],
      "stateMutability": "nonpayable",
      "type": "function"
    },
    {
      "inputs": [
        {
          "internalType": "bytes4",
          "name": "interfaceId",
          "type": "bytes4"
        }
      ],
      "name": "supportsInterface",
      "outputs": [
        {
          "internalType": "bool",
          "name": "",
          "type": "bool"
        }
      ],
      "stateMutability": "view",
      "type": "function"
    },
    {
      "inputs": [],
      "name": "teamWallet",
      "outputs": [
        {
          "internalType": "address",
          "name": "",
          "type": "address"
        }
      ],
      "stateMutability": "view",
      "type": "function"
    },
    {
      "inputs": [],
      "name": "treasuryWallet",
      "outputs": [
        {
          "internalType": "address",
          "name": "",
          "type": "address"
        }
      ],
      "stateMutability": "view",
      "type": "function"
    },
    {
      "inputs": [
        {
          "internalType": "bytes32",
          "name": "pubKeyHash",
          "type": "bytes32"
        },
        {
          "internalType": "enum ProviderRegistry.ProviderStatus",
          "name": "status",
          "type": "uint8"
        }
      ],
      "name": "updateProviderStatus",
      "outputs": [],
      "stateMutability": "nonpayable",
      "type": "function"
    }
  ],
  "bytecode": "0x60e06040523480156200001157600080fd5b50604051620018373803806200183783398101604081905262000034916200012c565b6200004160003362000060565b506001600160a01b0392831660805290821660a0521660c05262000176565b6000828152602081815260408083206001600160a01b038516845290915281205460ff1662000105576000838152602081815260408083206001600160a01b03861684529091529020805460ff19166001179055620000bc3390565b6001600160a01b0316826001600160a01b0316847f2f8788117e7eff1d82e926ec794901d17c78024a50270940304540a733656f0d60405160405180910390a450600162000109565b5060005b92915050565b80516001600160a01b03811681146200012757600080fd5b919050565b6000806000606084860312156200014257600080fd5b6200014d846200010f565b92506200015d602085016200010f565b91506200016d604085016200010f565b90509250925092565b60805160a05160c051611660620001d7600039600081816102ad01526108c4015260008181610300015261080b0152600081816101f50152818161058a01528181610659015281816107340152818161083d01526108f301526116606000f3fe608060405234801561001057600080fd5b50600436106101585760003560e01c80634c186197116100c357806383d5e7261161007c57806383d5e7261461034c57806391d1485414610355578063a217fddf14610368578063a4b104b814610370578063d5070b3e14610383578063d547741f1461039257600080fd5b80634c186197146102d757806351d164d3146102e057806355a84093146102f357806359927044146102fb5780636597c96a146103225780637c546fe11461033c57600080fd5b806333440cb61161011557806333440cb61461024257806333c0950a1461025557806336568abe1461027557806345159fb9146102885780634626402b146102a857806346ce4175146102cf57600080fd5b806301ffc9a71461015d5780631acc050e146101855780632298b16a146101aa578063248a9ca3146101bf578063285922e7146101f05780632f2ff15d1461022f575b600080fd5b61017061016b3660046110df565b6103a5565b60405190151581526020015b60405180910390f35b610198610193366004611110565b6103dc565b60405161017c969594939291906111a7565b6101bd6101b8366004611207565b6104c2565b005b6101e26101cd366004611110565b60009081526020819052604090206001015490565b60405190815260200161017c565b6102177f000000000000000000000000000000000000000000000000000000000000000081565b6040516001600160a01b03909116815260200161017c565b6101bd61023d36600461129f565b610b3f565b6101bd6102503660046112cb565b610b6a565b610268610263366004611110565b610c5f565b60405161017c91906112ff565b6101bd61028336600461129f565b610dfc565b61029b61029636600461137a565b610e34565b60405161017c9190611395565b6102177f000000000000000000000000000000000000000000000000000000000000000081565b6003546101e2565b6101e26107d081565b6101e26102ee366004611110565b610ea0565b61029b610ec1565b6102177f000000000000000000000000000000000000000000000000000000000000000081565b61032a600a81565b60405160ff909116815260200161017c565b6101e2683635c9adc5dea0000081565b6101e2611f4081565b61017061036336600461129f565b610f19565b6101e2600081565b6101e261037e3660046113d9565b610f42565b683635c9adc5dea000006101e2565b6101bd6103a036600461129f565b610f73565b60006001600160e01b03198216637965db0b60e01b14806103d657506301ffc9a760e01b6001600160e01b03198316145b92915050565b60016020819052600091825260409091208054918101546002820180546001600160a01b039094169391929161041190611403565b80601f016020809104026020016040519081016040528092919081815260200182805461043d90611403565b801561048a5780601f1061045f5761010080835404028352916020019161048a565b820191906000526020600020905b81548152906001019060200180831161046d57829003601f168201915b505050600390930154919250506001600160601b0381169067ffffffffffffffff600160601b8204169060ff600160a01b9091041686565b826104e0576040516356b6133160e11b815260040160405180910390fd5b6000838152600160205260409020546001600160a01b03161561051e576040516366adec8b60e11b8152600481018490526024015b60405180910390fd5b33600090815260026020526040902054600a1161055057604051632cd5fbe560e01b8152336004820152602401610515565b6000819003610572576040516321d094fb60e21b815260040160405180910390fd5b6040516370a0823160e01b81523360048201526000907f00000000000000000000000000000000000000000000000000000000000000006001600160a01b0316906370a0823190602401602060405180830381865afa1580156105d9573d6000803e3d6000fd5b505050506040513d601f19601f820116820180604052508101906105fd919061143d565b9050683635c9adc5dea0000081101561063b5760405163cf47918160e01b8152683635c9adc5dea00000600482015260248101829052604401610515565b604051636eb1769f60e11b81523360048201523060248201526000907f00000000000000000000000000000000000000000000000000000000000000006001600160a01b03169063dd62ed3e90604401602060405180830381865afa1580156106a8573d6000803e3d6000fd5b505050506040513d601f19601f820116820180604052508101906106cc919061143d565b9050683635c9adc5dea0000081101561070a5760405163054365bb60e31b8152683635c9adc5dea00000600482015260248101829052604401610515565b6040516323b872dd60e01b8152336004820152306024820152683635c9adc5dea0000060448201527f00000000000000000000000000000000000000000000000000000000000000006001600160a01b0316906323b872dd906064016020604051808303816000875af1158015610785573d6000803e3d6000fd5b505050506040513d601f19601f820116820180604052508101906107a99190611456565b5060006127106107c46107d0683635c9adc5dea00000611478565b6107ce919061149d565b905060006127106107ea611f40683635c9adc5dea00000611478565b6107f4919061149d565b60405163a9059cbb60e01b81526001600160a01b037f000000000000000000000000000000000000000000000000000000000000000081166004830152602482018590529192507f00000000000000000000000000000000000000000000000000000000000000009091169063a9059cbb906044016020604051808303816000875af1158015610888573d6000803e3d6000fd5b505050506040513d601f19601f820116820180604052508101906108ac9190611456565b5060405163a9059cbb60e01b81526001600160a01b037f000000000000000000000000000000000000000000000000000000000000000081166004830152602482018390527f0000000000000000000000000000000000000000000000000000000000000000169063a9059cbb906044016020604051808303816000875af115801561093c573d6000803e3d6000fd5b505050506040513d601f19601f820116820180604052508101906109609190611456565b506040518060c00160405280336001600160a01b0316815260200188815260200187878080601f01602080910402602001604051908101604052809392919081815260200183838082843760009201829052509385525050683635c9adc5dea0000060208401525067ffffffffffffffff42166040830152606090910152600088815260016020818152604092839020845181546001600160a01b0319166001600160a01b039091161781559084015191810191909155908201516002820190610a2a9082611523565b506060820151600382018054608085015167ffffffffffffffff16600160601b026001600160a01b03199091166001600160601b03909316929092179190911780825560a0840151919060ff60a01b1916600160a01b836002811115610a9257610a9261116f565b0217905550503360008181526002602090815260408083208054600181810183559185529284209092018c90556003805492830181559092527fc2575a0e9e593c00f959f8c92f12db2869c3395a3b0502d05e2516446f71f85b018a9055518992507f3f4e827ee92482a65532180c155eeac340ba8e5a5658b7bf601147f8df65d5b390610b2e908a908a90683635c9adc5dea00000906115e3565b60405180910390a350505050505050565b600082815260208190526040902060010154610b5a81610f98565b610b648383610fa5565b50505050565b600082815260016020526040902080546001600160a01b0316610ba25760405162b4805560e71b815260048101849052602401610515565b80546001600160a01b03163314801590610bc45750610bc2600033610f19565b155b15610bf6578054604051635a3c9c3b60e11b81523360048201526001600160a01b039091166024820152604401610515565b60038101805483919060ff60a01b1916600160a01b836002811115610c1d57610c1d61116f565b0217905550827f8f917e90a32b378f51e4c96a66565e19160e427fb0878310a6c52aeb9c32bf3983604051610c52919061161c565b60405180910390a2505050565b610c966040805160c0810182526000808252602082018190526060928201839052918101829052608081018290529060a082015290565b6000828152600160205260409020546001600160a01b0316610ccd5760405162b4805560e71b815260048101839052602401610515565b600082815260016020818152604092839020835160c08101855281546001600160a01b0316815292810154918301919091526002810180549293919291840191610d1690611403565b80601f0160208091040260200160405190810160405280929190818152602001828054610d4290611403565b8015610d8f5780601f10610d6457610100808354040283529160200191610d8f565b820191906000526020600020905b815481529060010190602001808311610d7257829003601f168201915b505050918352505060038201546001600160601b0381166020830152600160601b810467ffffffffffffffff166040830152606090910190600160a01b900460ff166002811115610de257610de261116f565b6002811115610df357610df361116f565b90525092915050565b6001600160a01b0381163314610e255760405163334bd91960e11b815260040160405180910390fd5b610e2f8282611037565b505050565b6001600160a01b038116600090815260026020908152604091829020805483518184028101840190945280845260609392830182828015610e9457602002820191906000526020600020905b815481526020019060010190808311610e80575b50505050509050919050565b60038181548110610eb057600080fd5b600091825260209091200154905081565b60606003805480602002602001604051908101604052809291908181526020018280548015610f0f57602002820191906000526020600020905b815481526020019060010190808311610efb575b5050505050905090565b6000918252602082815260408084206001600160a01b0393909316845291905290205460ff1690565b60026020528160005260406000208181548110610f5e57600080fd5b90600052602060002001600091509150505481565b600082815260208190526040902060010154610f8e81610f98565b610b648383611037565b610fa281336110a2565b50565b6000610fb18383610f19565b61102f576000838152602081815260408083206001600160a01b03861684529091529020805460ff19166001179055610fe73390565b6001600160a01b0316826001600160a01b0316847f2f8788117e7eff1d82e926ec794901d17c78024a50270940304540a733656f0d60405160405180910390a45060016103d6565b5060006103d6565b60006110438383610f19565b1561102f576000838152602081815260408083206001600160a01b0386168085529252808320805460ff1916905551339286917ff6391f5c32d9c69d2a47ea670b442974b53935d1edc7fd64eb21e047a839171b9190a45060016103d6565b6110ac8282610f19565b6110db5760405163e2517d3f60e01b81526001600160a01b038216600482015260248101839052604401610515565b5050565b6000602082840312156110f157600080fd5b81356001600160e01b03198116811461110957600080fd5b9392505050565b60006020828403121561112257600080fd5b5035919050565b6000815180845260005b8181101561114f57602081850181015186830182015201611133565b506000602082860101526020601f19601f83011685010191505092915050565b634e487b7160e01b600052602160045260246000fd5b600381106111a357634e487b7160e01b600052602160045260246000fd5b9052565b60018060a01b038716815285602082015260c0604082015260006111ce60c0830187611129565b90506001600160601b038516606083015267ffffffffffffffff841660808301526111fc60a0830184611185565b979650505050505050565b60008060006040848603121561121c57600080fd5b83359250602084013567ffffffffffffffff8082111561123b57600080fd5b818601915086601f83011261124f57600080fd5b81358181111561125e57600080fd5b87602082850101111561127057600080fd5b6020830194508093505050509250925092565b80356001600160a01b038116811461129a57600080fd5b919050565b600080604083850312156112b257600080fd5b823591506112c260208401611283565b90509250929050565b600080604083850312156112de57600080fd5b823591506020830135600381106112f457600080fd5b809150509250929050565b6020815260018060a01b038251166020820152602082015160408201526000604083015160c0606084015261133760e0840182611129565b90506001600160601b03606085015116608084015267ffffffffffffffff60808501511660a084015260a084015161137260c0850182611185565b509392505050565b60006020828403121561138c57600080fd5b61110982611283565b6020808252825182820181905260009190848201906040850190845b818110156113cd578351835292840192918401916001016113b1565b50909695505050505050565b600080604083850312156113ec57600080fd5b6113f583611283565b946020939093013593505050565b600181811c9082168061141757607f821691505b60208210810361143757634e487b7160e01b600052602260045260246000fd5b50919050565b60006020828403121561144f57600080fd5b5051919050565b60006020828403121561146857600080fd5b8151801515811461110957600080fd5b80820281158282048414176103d657634e487b7160e01b600052601160045260246000fd5b6000826114ba57634e487b7160e01b600052601260045260246000fd5b500490565b634e487b7160e01b600052604160045260246000fd5b601f821115610e2f57600081815260208120601f850160051c810160208610156114fc5750805b601f850160051c820191505b8181101561151b57828155600101611508565b505050505050565b815167ffffffffffffffff81111561153d5761153d6114bf565b6115518161154b8454611403565b846114d5565b602080601f831160018114611586576000841561156e5750858301515b600019600386901b1c1916600185901b17855561151b565b600085815260208120601f198616915b828110156115b557888601518255948401946001909101908401611596565b50858210156115d35787850151600019600388901b60f8161c191681555b5050505050600190811b01905550565b604081528260408201528284606083013760006060848301015260006060601f19601f8601168301019050826020830152949350505050565b602081016103d6828461118556fea264697066735822122014d689a527bdee9bef22e70a416631dab7594b9f20e33be8176410664db05d3c64736f6c63430008140033",
  "linkReferences": {},
  "deployedLinkReferences": {}
}