{
  "_format": "hh-sol-artifact-1",
  "contractName": "ProviderRegistry",
  "sourceName": "contracts/ProviderRegistry.sol",
  "abi": [
    {
      "inputs": [
        {
          "internalType": "address",
          "name": "_cldToken",
          "type": "address"
        },
        {
          "internalType": "address",
          "name": "_teamWallet",
          "type": "address"
        },
        {
          "internalType": "address",
          "name": "_treasuryWallet",
          "type": "address"
        }
      ],
      "stateMutability": "nonpayable",
      "type": "constructor"
    },
    {
      "inputs": [],
      "name": "AccessControlBadConfirmation",
      "type": "error"
    },
    {
      "inputs": [
        {
          "internalType": "address",
          "name": "account",
          "type": "address"
        },
        {
          "internalType": "bytes32",
          "name": "neededRole",
          "type": "bytes32"
        }
      ],
      "name": "AccessControlUnauthorizedAccount",
      "type": "error"
    },
    {
      "inputs": [
        {
          "internalType": "uint256",
          "name": "required",
          "type": "uint256"
        },
        {
          "internalType": "uint256",
          "name": "allowance",
          "type": "uint256"
        }
      ],
      "name": "InsufficientAllowance",
      "type": "error"
    },
    {
      "inputs": [
        {
          "internalType": "uint256",
          "name": "required",
          "type": "uint256"
        },
        {
          "internalType": "uint256",
          "name": "available",
          "type": "uint256"
        }
      ],
      "name": "InsufficientBalance",
      "type": "error"
    },
    {
      "inputs": [],
      "name": "InvalidCapacity",
      "type": "error"
    },
    {
      "inputs": [],
      "name": "InvalidHardwareTier",
      "type": "error"
    },
    {
      "inputs": [],
      "name": "InvalidRegion",
      "type": "error"
    },
    {
      "inputs": [],
      "name": "Invalidproviderkey",
      "type": "error"
    },
    {
      "inputs": [
        {
          "internalType": "address",
          "name": "owner",
          "type": "address"
        }
      ],
      "name": "MaxProvidersReached",
      "type": "error"
    },
    {
      "inputs": [
        {
          "internalType": "address",
          "name": "caller",
          "type": "address"
        },
        {
          "internalType": "address",
          "name": "owner",
          "type": "address"
        }
      ],
      "name": "NotProviderOwner",
      "type": "error"
    },
    {
      "inputs": [
        {
          "internalType": "bytes32",
          "name": "providerkey",
          "type": "bytes32"
        }
      ],
      "name": "ProviderAlreadyExists",
      "type": "error"
    },
    {
      "inputs": [
        {
          "internalType": "bytes32",
          "name": "providerkey",
          "type": "bytes32"
        }
      ],
      "name": "ProviderNotFound",
      "type": "error"
    },
    {
      "anonymous": false,
      "inputs": [
        {
          "indexed": true,
          "internalType": "bytes32",
          "name": "providerkey",
          "type": "bytes32"
        },
        {
          "indexed": false,
          "internalType": "uint64",
          "name": "timestamp",
          "type": "uint64"
        }
      ],
      "name": "AgentHeartbeat",
      "type": "event"
    },
    {
      "anonymous": false,
      "inputs": [
        {
          "indexed": true,
          "internalType": "address",
          "name": "owner",
          "type": "address"
        },
        {
          "indexed": true,
          "internalType": "bytes32",
          "name": "providerkey",
          "type": "bytes32"
        },
        {
          "indexed": false,
          "internalType": "string",
          "name": "region",
          "type": "string"
        },
        {
          "indexed": false,
          "internalType": "uint8",
          "name": "hardwareTier",
          "type": "uint8"
        },
        {
          "indexed": false,
          "internalType": "uint8",
          "name": "capacity",
          "type": "uint8"
        },
        {
          "indexed": false,
          "internalType": "uint256",
          "name": "bondAmount",
          "type": "uint256"
        }
      ],
      "name": "ProviderRegistered",
      "type": "event"
    },
    {
      "anonymous": false,
      "inputs": [
        {
          "indexed": true,
          "internalType": "bytes32",
          "name": "providerkey",
          "type": "bytes32"
        },
        {
          "indexed": false,
          "internalType": "enum ProviderRegistry.ProviderStatus",
          "name": "status",
          "type": "uint8"
        }
      ],
      "name": "ProviderStatusUpdated",
      "type": "event"
    },
    {
      "anonymous": false,
      "inputs": [
        {
          "indexed": true,
          "internalType": "bytes32",
          "name": "role",
          "type": "bytes32"
        },
        {
          "indexed": true,
          "internalType": "bytes32",
          "name": "previousAdminRole",
          "type": "bytes32"
        },
        {
          "indexed": true,
          "internalType": "bytes32",
          "name": "newAdminRole",
          "type": "bytes32"
        }
      ],
      "name": "RoleAdminChanged",
      "type": "event"
    },
    {
      "anonymous": false,
      "inputs": [
        {
          "indexed": true,
          "internalType": "bytes32",
          "name": "role",
          "type": "bytes32"
        },
        {
          "indexed": true,
          "internalType": "address",
          "name": "account",
          "type": "address"
        },
        {
          "indexed": true,
          "internalType": "address",
          "name": "sender",
          "type": "address"
        }
      ],
      "name": "RoleGranted",
      "type": "event"
    },
    {
      "anonymous": false,
      "inputs": [
        {
          "indexed": true,
          "internalType": "bytes32",
          "name": "role",
          "type": "bytes32"
        },
        {
          "indexed": true,
          "internalType": "address",
          "name": "account",
          "type": "address"
        },
        {
          "indexed": true,
          "internalType": "address",
          "name": "sender",
          "type": "address"
        }
      ],
      "name": "RoleRevoked",
      "type": "event"
    },
    {
      "inputs": [],
      "name": "DEAD_ADDRESS",
      "outputs": [
        {
          "internalType": "address",
          "name": "",
          "type": "address"
        }
      ],
      "stateMutability": "view",
      "type": "function"
    },
    {
      "inputs": [],
      "name": "DEFAULT_ADMIN_ROLE",
      "outputs": [
        {
          "internalType": "bytes32",
          "name": "",
          "type": "bytes32"
        }
      ],
      "stateMutability": "view",
      "type": "function"
    },
    {
      "inputs": [],
      "name": "MAX_PROVIDERS_PER_OWNER",
      "outputs": [
        {
          "internalType": "uint8",
          "name": "",
          "type": "uint8"
        }
      ],
      "stateMutability": "view",
      "type": "function"
    },
    {
      "inputs": [],
      "name": "STATIC_BOND",
      "outputs": [
        {
          "internalType": "uint256",
          "name": "",
          "type": "uint256"
        }
      ],
      "stateMutability": "view",
      "type": "function"
    },
    {
      "inputs": [],
      "name": "TEAM_PERCENT",
      "outputs": [
        {
          "internalType": "uint256",
          "name": "",
          "type": "uint256"
        }
      ],
      "stateMutability": "view",
      "type": "function"
    },
    {
      "inputs": [],
      "name": "TREASURY_PERCENT",
      "outputs": [
        {
          "internalType": "uint256",
          "name": "",
          "type": "uint256"
        }
      ],
      "stateMutability": "view",
      "type": "function"
    },
    {
      "inputs": [
        {
          "internalType": "bytes32",
          "name": "",
          "type": "bytes32"
        }
      ],
      "name": "agentHeartbeats",
      "outputs": [
        {
          "internalType": "uint64",
          "name": "",
          "type": "uint64"
        }
      ],
      "stateMutability": "view",
      "type": "function"
    },
    {
      "inputs": [],
      "name": "cldToken",
      "outputs": [
        {
          "internalType": "contract CLDToken",
          "name": "",
          "type": "address"
        }
      ],
      "stateMutability": "view",
      "type": "function"
    },
    {
      "inputs": [],
      "name": "getBondInfo",
      "outputs": [
        {
          "internalType": "uint256",
          "name": "",
          "type": "uint256"
        }
      ],
      "stateMutability": "pure",
      "type": "function"
    },
    {
      "inputs": [
        {
          "internalType": "address",
          "name": "owner",
          "type": "address"
        }
      ],
      "name": "getMyProviders",
      "outputs": [
        {
          "internalType": "bytes32[]",
          "name": "",
          "type": "bytes32[]"
        }
      ],
      "stateMutability": "view",
      "type": "function"
    },
    {
      "inputs": [
        {
          "internalType": "bytes32",
          "name": "providerkey",
          "type": "bytes32"
        }
      ],
      "name": "getProvider",
      "outputs": [
        {
          "components": [
            {
              "internalType": "address",
              "name": "owner",
              "type": "address"
            },
            {
              "internalType": "bytes32",
              "name": "providerkey",
              "type": "bytes32"
            },
            {
              "internalType": "string",
              "name": "region",
              "type": "string"
            },
            {
              "internalType": "uint8",
              "name": "hardwareTier",
              "type": "uint8"
            },
            {
              "internalType": "uint8",
              "name": "capacity",
              "type": "uint8"
            },
            {
              "internalType": "uint96",
              "name": "bondAmount",
              "type": "uint96"
            },
            {
              "internalType": "uint64",
              "name": "registeredAt",
              "type": "uint64"
            },
            {
              "internalType": "enum ProviderRegistry.ProviderStatus",
              "name": "status",
              "type": "uint8"
            }
          ],
          "internalType": "struct ProviderRegistry.Provider",
          "name": "",
          "type": "tuple"
        }
      ],
      "stateMutability": "view",
      "type": "function"
    },
    {
      "inputs": [
        {
          "internalType": "bytes32",
          "name": "role",
          "type": "bytes32"
        }
      ],
      "name": "getRoleAdmin",
      "outputs": [
        {
          "internalType": "bytes32",
          "name": "",
          "type": "bytes32"
        }
      ],
      "stateMutability": "view",
      "type": "function"
    },
    {
      "inputs": [
        {
          "internalType": "bytes32",
          "name": "role",
          "type": "bytes32"
        },
        {
          "internalType": "address",
          "name": "account",
          "type": "address"
        }
      ],
      "name": "grantRole",
      "outputs": [],
      "stateMutability": "nonpayable",
      "type": "function"
    },
    {
      "inputs": [
        {
          "internalType": "bytes32",
          "name": "role",
          "type": "bytes32"
        },
        {
          "internalType": "address",
          "name": "account",
          "type": "address"
        }
      ],
      "name": "hasRole",
      "outputs": [
        {
          "internalType": "bool",
          "name": "",
          "type": "bool"
        }
      ],
      "stateMutability": "view",
      "type": "function"
    },
    {
      "inputs": [
        {
          "internalType": "address",
          "name": "",
          "type": "address"
        },
        {
          "internalType": "uint256",
          "name": "",
          "type": "uint256"
        }
      ],
      "name": "ownerNodes",
      "outputs": [
        {
          "internalType": "bytes32",
          "name": "",
          "type": "bytes32"
        }
      ],
      "stateMutability": "view",
      "type": "function"
    },
    {
      "inputs": [
        {
          "internalType": "bytes32",
          "name": "",
          "type": "bytes32"
        }
      ],
      "name": "providers",
      "outputs": [
        {
          "internalType": "address",
          "name": "owner",
          "type": "address"
        },
        {
          "internalType": "bytes32",
          "name": "providerkey",
          "type": "bytes32"
        },
        {
          "internalType": "string",
          "name": "region",
          "type": "string"
        },
        {
          "internalType": "uint8",
          "name": "hardwareTier",
          "type": "uint8"
        },
        {
          "internalType": "uint8",
          "name": "capacity",
          "type": "uint8"
        },
        {
          "internalType": "uint96",
          "name": "bondAmount",
          "type": "uint96"
        },
        {
          "internalType": "uint64",
          "name": "registeredAt",
          "type": "uint64"
        },
        {
          "internalType": "enum ProviderRegistry.ProviderStatus",
          "name": "status",
          "type": "uint8"
        }
      ],
      "stateMutability": "view",
      "type": "function"
    },
    {
      "inputs": [
        {
          "internalType": "bytes32",
          "name": "providerkey",
          "type": "bytes32"
        },
        {
          "internalType": "string",
          "name": "region",
          "type": "string"
        },
        {
          "internalType": "uint8",
          "name": "hardwareTier",
          "type": "uint8"
        },
        {
          "internalType": "uint8",
          "name": "capacity",
          "type": "uint8"
        }
      ],
      "name": "registerProvider",
      "outputs": [],
      "stateMutability": "nonpayable",
      "type": "function"
    },
    {
      "inputs": [
        {
          "internalType": "bytes32",
          "name": "role",
          "type": "bytes32"
        },
        {
          "internalType": "address",
          "name": "callerConfirmation",
          "type": "address"
        }
      ],
      "name": "renounceRole",
      "outputs": [],
      "stateMutability": "nonpayable",
      "type": "function"
    },
    {
      "inputs": [
        {
          "internalType": "bytes32",
          "name": "role",
          "type": "bytes32"
        },
        {
          "internalType": "address",
          "name": "account",
          "type": "address"
        }
      ],
      "name": "revokeRole",
      "outputs": [],
      "stateMutability": "nonpayable",
      "type": "function"
    },
    {
      "inputs": [
        {
          "internalType": "bytes4",
          "name": "interfaceId",
          "type": "bytes4"
        }
      ],
      "name": "supportsInterface",
      "outputs": [
        {
          "internalType": "bool",
          "name": "",
          "type": "bool"
        }
      ],
      "stateMutability": "view",
      "type": "function"
    },
    {
      "inputs": [],
      "name": "teamWallet",
      "outputs": [
        {
          "internalType": "address",
          "name": "",
          "type": "address"
        }
      ],
      "stateMutability": "view",
      "type": "function"
    },
    {
      "inputs": [],
      "name": "treasuryWallet",
      "outputs": [
        {
          "internalType": "address",
          "name": "",
          "type": "address"
        }
      ],
      "stateMutability": "view",
      "type": "function"
    },
    {
      "inputs": [
        {
          "internalType": "bytes32",
          "name": "providerkey",
          "type": "bytes32"
        },
        {
          "internalType": "enum ProviderRegistry.ProviderStatus",
          "name": "status",
          "type": "uint8"
        }
      ],
      "name": "updateProviderStatus",
      "outputs": [],
      "stateMutability": "nonpayable",
      "type": "function"
    }
  ],
  "bytecode": "0x60e06040523480156200001157600080fd5b50604051620019173803806200191783398101604081905262000034916200012c565b6200004160003362000060565b506001600160a01b0392831660805290821660a0521660c05262000176565b6000828152602081815260408083206001600160a01b038516845290915281205460ff1662000105576000838152602081815260408083206001600160a01b03861684529091529020805460ff19166001179055620000bc3390565b6001600160a01b0316826001600160a01b0316847f2f8788117e7eff1d82e926ec794901d17c78024a50270940304540a733656f0d60405160405180910390a450600162000109565b5060005b92915050565b80516001600160a01b03811681146200012757600080fd5b919050565b6000806000606084860312156200014257600080fd5b6200014d846200010f565b92506200015d602085016200010f565b91506200016d604085016200010f565b90509250925092565b60805160a05160c051611740620001d7600039600081816102910152610cd60152600081816102dd0152610c1d0152600081816101d70152818161099c01528181610a6b01528181610b4601528181610c4f0152610d0501526117406000f3fe608060405234801561001057600080fd5b506004361061014d5760003560e01c80634e6fd6c4116100c357806383d5e7261161007c57806383d5e7261461036c57806391d1485414610375578063a217fddf14610388578063a4b104b814610390578063d5070b3e146103a3578063d547741f146103b257600080fd5b80634e6fd6c4146102bc57806354c44318146102c557806359927044146102d85780636597c96a146102ff57806372d5c5d6146103195780637c546fe11461035c57600080fd5b806333440cb61161011557806333440cb61461022657806333c0950a1461023957806336568abe1461025957806345159fb91461026c5780634626402b1461028c5780634c186197146102b357600080fd5b806301ffc9a7146101525780631acc050e1461017a578063248a9ca3146101a1578063285922e7146101d25780632f2ff15d14610211575b600080fd5b61016561016036600461113b565b6103c5565b60405190151581526020015b60405180910390f35b61018d61018836600461116c565b6103fc565b604051610171989796959493929190611203565b6101c46101af36600461116c565b60009081526020819052604090206001015490565b604051908152602001610171565b6101f97f000000000000000000000000000000000000000000000000000000000000000081565b6040516001600160a01b039091168152602001610171565b61022461021f366004611299565b6104f3565b005b6102246102343660046112c5565b61051e565b61024c61024736600461116c565b610618565b60405161017191906112f9565b610224610267366004611299565b6107df565b61027f61027a36600461139e565b610817565b60405161017191906113b9565b6101f97f000000000000000000000000000000000000000000000000000000000000000081565b6101c46107d081565b6101f961dead81565b6102246102d336600461140e565b610883565b6101f97f000000000000000000000000000000000000000000000000000000000000000081565b610307600a81565b60405160ff9091168152602001610171565b61034361032736600461116c565b60036020526000908152604090205467ffffffffffffffff1681565b60405167ffffffffffffffff9091168152602001610171565b6101c4683635c9adc5dea0000081565b6101c4611f4081565b610165610383366004611299565b610f75565b6101c4600081565b6101c461039e3660046114ac565b610f9e565b683635c9adc5dea000006101c4565b6102246103c0366004611299565b610fcf565b60006001600160e01b03198216637965db0b60e01b14806103f657506301ffc9a760e01b6001600160e01b03198316145b92915050565b60016020819052600091825260409091208054918101546002820180546001600160a01b0390941693919291610431906114d6565b80601f016020809104026020016040519081016040528092919081815260200182805461045d906114d6565b80156104aa5780601f1061047f576101008083540402835291602001916104aa565b820191906000526020600020905b81548152906001019060200180831161048d57829003601f168201915b5050506003909301549192505060ff8082169161010081048216916001600160601b03620100008304169167ffffffffffffffff600160701b82041691600160b01b9091041688565b60008281526020819052604090206001015461050e81610ff4565b6105188383611001565b50505050565b600082815260016020526040902080546001600160a01b031661055b5760405162b4805560e71b8152600481018490526024015b60405180910390fd5b80546001600160a01b0316331480159061057d575061057b600033610f75565b155b156105af578054604051635a3c9c3b60e11b81523360048201526001600160a01b039091166024820152604401610552565b60038101805483919060ff60b01b1916600160b01b8360028111156105d6576105d66111cb565b0217905550827f8f917e90a32b378f51e4c96a66565e19160e427fb0878310a6c52aeb9c32bf398360405161060b9190611510565b60405180910390a2505050565b61065e604080516101008101825260008082526020820181905260609282018390529181018290526080810182905260a0810182905260c081018290529060e082015290565b6000828152600160205260409020546001600160a01b03166106955760405162b4805560e71b815260048101839052602401610552565b60008281526001602081815260409283902083516101008101855281546001600160a01b03168152928101549183019190915260028101805492939192918401916106df906114d6565b80601f016020809104026020016040519081016040528092919081815260200182805461070b906114d6565b80156107585780601f1061072d57610100808354040283529160200191610758565b820191906000526020600020905b81548152906001019060200180831161073b57829003601f168201915b5050509183525050600382015460ff80821660208401526101008204811660408401526001600160601b0362010000830416606084015267ffffffffffffffff600160701b830416608084015260a090920191600160b01b9091041660028111156107c5576107c56111cb565b60028111156107d6576107d66111cb565b90525092915050565b6001600160a01b03811633146108085760405163334bd91960e11b815260040160405180910390fd5b6108128282611093565b505050565b6001600160a01b03811660009081526002602090815260409182902080548351818402810184019094528084526060939283018282801561087757602002820191906000526020600020905b815481526020019060010190808311610863575b50505050509050919050565b846108a1576040516302015da160e41b815260040160405180910390fd5b6000858152600160205260409020546001600160a01b0316156108da576040516366adec8b60e11b815260048101869052602401610552565b33600090815260026020526040902054600a1161090c57604051632cd5fbe560e01b8152336004820152602401610552565b600083900361092e576040516397fa436960e01b815260040160405180910390fd5b60028260ff1611156109535760405163b7c2f30760e01b815260040160405180910390fd5b60ff811615806109665750600a8160ff16115b15610984576040516331278a8760e01b815260040160405180910390fd5b6040516370a0823160e01b81523360048201526000907f00000000000000000000000000000000000000000000000000000000000000006001600160a01b0316906370a0823190602401602060405180830381865afa1580156109eb573d6000803e3d6000fd5b505050506040513d601f19601f82011682018060405250810190610a0f919061151e565b9050683635c9adc5dea00000811015610a4d5760405163cf47918160e01b8152683635c9adc5dea00000600482015260248101829052604401610552565b604051636eb1769f60e11b81523360048201523060248201526000907f00000000000000000000000000000000000000000000000000000000000000006001600160a01b03169063dd62ed3e90604401602060405180830381865afa158015610aba573d6000803e3d6000fd5b505050506040513d601f19601f82011682018060405250810190610ade919061151e565b9050683635c9adc5dea00000811015610b1c5760405163054365bb60e31b8152683635c9adc5dea00000600482015260248101829052604401610552565b6040516323b872dd60e01b8152336004820152306024820152683635c9adc5dea0000060448201527f00000000000000000000000000000000000000000000000000000000000000006001600160a01b0316906323b872dd906064016020604051808303816000875af1158015610b97573d6000803e3d6000fd5b505050506040513d601f19601f82011682018060405250810190610bbb9190611537565b506000612710610bd66107d0683635c9adc5dea00000611559565b610be0919061157e565b90506000612710610bfc611f40683635c9adc5dea00000611559565b610c06919061157e565b60405163a9059cbb60e01b81526001600160a01b037f000000000000000000000000000000000000000000000000000000000000000081166004830152602482018590529192507f00000000000000000000000000000000000000000000000000000000000000009091169063a9059cbb906044016020604051808303816000875af1158015610c9a573d6000803e3d6000fd5b505050506040513d601f19601f82011682018060405250810190610cbe9190611537565b5060405163a9059cbb60e01b81526001600160a01b037f000000000000000000000000000000000000000000000000000000000000000081166004830152602482018390527f0000000000000000000000000000000000000000000000000000000000000000169063a9059cbb906044016020604051808303816000875af1158015610d4e573d6000803e3d6000fd5b505050506040513d601f19601f82011682018060405250810190610d729190611537565b50604051806101000160405280336001600160a01b031681526020018a815260200189898080601f016020809104026020016040519081016040528093929190818152602001838380828437600092018290525093855250505060ff808a16602084015288166040830152683635c9adc5dea00000606083015267ffffffffffffffff4216608083015260a09091015260008a815260016020818152604092839020845181546001600160a01b0319166001600160a01b039091161781559084015191810191909155908201516002820190610e4e9082611604565b506060820151600382018054608085015160a086015160c087015167ffffffffffffffff16600160701b0267ffffffffffffffff60701b196001600160601b0390921662010000029190911662010000600160b01b031960ff9384166101000261ffff1990951693909616929092179290921793909316929092179190911780825560e0840151919060ff60b01b1916600160b01b836002811115610ef557610ef56111cb565b021790555050336000818152600260209081526040808320805460018101825590845291909220018c9055518b92507f3c75c128b2193df16f28526805f22bdabf7596567e2bf6438aa4b5ced8cebbcc90610f62908c908c908c908c90683635c9adc5dea00000906116c4565b60405180910390a3505050505050505050565b6000918252602082815260408084206001600160a01b0393909316845291905290205460ff1690565b60026020528160005260406000208181548110610fba57600080fd5b90600052602060002001600091509150505481565b600082815260208190526040902060010154610fea81610ff4565b6105188383611093565b610ffe81336110fe565b50565b600061100d8383610f75565b61108b576000838152602081815260408083206001600160a01b03861684529091529020805460ff191660011790556110433390565b6001600160a01b0316826001600160a01b0316847f2f8788117e7eff1d82e926ec794901d17c78024a50270940304540a733656f0d60405160405180910390a45060016103f6565b5060006103f6565b600061109f8383610f75565b1561108b576000838152602081815260408083206001600160a01b0386168085529252808320805460ff1916905551339286917ff6391f5c32d9c69d2a47ea670b442974b53935d1edc7fd64eb21e047a839171b9190a45060016103f6565b6111088282610f75565b6111375760405163e2517d3f60e01b81526001600160a01b038216600482015260248101839052604401610552565b5050565b60006020828403121561114d57600080fd5b81356001600160e01b03198116811461116557600080fd5b9392505050565b60006020828403121561117e57600080fd5b5035919050565b6000815180845260005b818110156111ab5760208185018101518683018201520161118f565b506000602082860101526020601f19601f83011685010191505092915050565b634e487b7160e01b600052602160045260246000fd5b600381106111ff57634e487b7160e01b600052602160045260246000fd5b9052565b6001600160a01b0389168152602081018890526101006040820181905260009061122f8382018a611185565b91505060ff8716606083015260ff861660808301526001600160601b03851660a083015267ffffffffffffffff841660c083015261127060e08301846111e1565b9998505050505050505050565b80356001600160a01b038116811461129457600080fd5b919050565b600080604083850312156112ac57600080fd5b823591506112bc6020840161127d565b90509250929050565b600080604083850312156112d857600080fd5b823591506020830135600381106112ee57600080fd5b809150509250929050565b6020815260018060a01b0382511660208201526020820151604082015260006040830151610100806060850152611334610120850183611185565b915060ff6060860151166080850152608085015161135760a086018260ff169052565b5060a08501516001600160601b03811660c08601525060c085015167ffffffffffffffff811660e08601525060e0850151611394828601826111e1565b5090949350505050565b6000602082840312156113b057600080fd5b6111658261127d565b6020808252825182820181905260009190848201906040850190845b818110156113f1578351835292840192918401916001016113d5565b50909695505050505050565b803560ff8116811461129457600080fd5b60008060008060006080868803121561142657600080fd5b85359450602086013567ffffffffffffffff8082111561144557600080fd5b818801915088601f83011261145957600080fd5b81358181111561146857600080fd5b89602082850101111561147a57600080fd5b602083019650809550505050611492604087016113fd565b91506114a0606087016113fd565b90509295509295909350565b600080604083850312156114bf57600080fd5b6114c88361127d565b946020939093013593505050565b600181811c908216806114ea57607f821691505b60208210810361150a57634e487b7160e01b600052602260045260246000fd5b50919050565b602081016103f682846111e1565b60006020828403121561153057600080fd5b5051919050565b60006020828403121561154957600080fd5b8151801515811461116557600080fd5b80820281158282048414176103f657634e487b7160e01b600052601160045260246000fd5b60008261159b57634e487b7160e01b600052601260045260246000fd5b500490565b634e487b7160e01b600052604160045260246000fd5b601f82111561081257600081815260208120601f850160051c810160208610156115dd5750805b601f850160051c820191505b818110156115fc578281556001016115e9565b505050505050565b815167ffffffffffffffff81111561161e5761161e6115a0565b6116328161162c84546114d6565b846115b6565b602080601f831160018114611667576000841561164f5750858301515b600019600386901b1c1916600185901b1785556115fc565b600085815260208120601f198616915b8281101561169657888601518255948401946001909101908401611677565b50858210156116b45787850151600019600388901b60f8161c191681555b5050505050600190811b01905550565b60808152846080820152848660a0830137600060a086830181019190915260ff94851660208301529290931660408401526060830152601f909201601f1916010191905056fea2646970667358221220725529ddb034d3f7ce3538926173cb0434e9ebafc940a017a96fe1221d365b5564736f6c63430008140033",
  "linkReferences": {},
  "deployedLinkReferences": {}
}