{
  "_format": "hh-sol-artifact-1",
  "contractName": "ProviderRegistry",
  "sourceName": "contracts/ProviderRegistry.sol",
  "abi": [
    {
      "inputs": [
        {
          "internalType": "address",
          "name": "_cldToken",
          "type": "address"
        },
        {
          "internalType": "address",
          "name": "_teamWallet",
          "type": "address"
        },
        {
          "internalType": "address",
          "name": "_treasuryWallet",
          "type": "address"
        }
      ],
      "stateMutability": "nonpayable",
      "type": "constructor"
    },
    {
      "inputs": [],
      "name": "AccessControlBadConfirmation",
      "type": "error"
    },
    {
      "inputs": [
        {
          "internalType": "address",
          "name": "account",
          "type": "address"
        },
        {
          "internalType": "bytes32",
          "name": "neededRole",
          "type": "bytes32"
        }
      ],
      "name": "AccessControlUnauthorizedAccount",
      "type": "error"
    },
    {
      "inputs": [
        {
          "internalType": "uint256",
          "name": "required",
          "type": "uint256"
        },
        {
          "internalType": "uint256",
          "name": "allowance",
          "type": "uint256"
        }
      ],
      "name": "InsufficientAllowance",
      "type": "error"
    },
    {
      "inputs": [
        {
          "internalType": "uint256",
          "name": "required",
          "type": "uint256"
        },
        {
          "internalType": "uint256",
          "name": "available",
          "type": "uint256"
        }
      ],
      "name": "InsufficientBalance",
      "type": "error"
    },
    {
      "inputs": [],
      "name": "InvalidCapacity",
      "type": "error"
    },
    {
      "inputs": [],
      "name": "InvalidHardwareTier",
      "type": "error"
    },
    {
      "inputs": [],
      "name": "InvalidRegion",
      "type": "error"
    },
    {
      "inputs": [],
      "name": "Invalidproviderkey",
      "type": "error"
    },
    {
      "inputs": [
        {
          "internalType": "address",
          "name": "owner",
          "type": "address"
        }
      ],
      "name": "MaxProvidersReached",
      "type": "error"
    },
    {
      "inputs": [
        {
          "internalType": "address",
          "name": "caller",
          "type": "address"
        },
        {
          "internalType": "address",
          "name": "owner",
          "type": "address"
        }
      ],
      "name": "NotProviderOwner",
      "type": "error"
    },
    {
      "inputs": [
        {
          "internalType": "bytes32",
          "name": "providerkey",
          "type": "bytes32"
        }
      ],
      "name": "ProviderAlreadyExists",
      "type": "error"
    },
    {
      "inputs": [
        {
          "internalType": "bytes32",
          "name": "providerkey",
          "type": "bytes32"
        }
      ],
      "name": "ProviderNotFound",
      "type": "error"
    },
    {
      "anonymous": false,
      "inputs": [
        {
          "indexed": true,
          "internalType": "bytes32",
          "name": "providerkey",
          "type": "bytes32"
        },
        {
          "indexed": false,
          "internalType": "uint64",
          "name": "timestamp",
          "type": "uint64"
        }
      ],
      "name": "AgentHeartbeat",
      "type": "event"
    },
    {
      "anonymous": false,
      "inputs": [
        {
          "indexed": true,
          "internalType": "address",
          "name": "owner",
          "type": "address"
        },
        {
          "indexed": true,
          "internalType": "bytes32",
          "name": "providerkey",
          "type": "bytes32"
        },
        {
          "indexed": false,
          "internalType": "string",
          "name": "region",
          "type": "string"
        },
        {
          "indexed": false,
          "internalType": "uint8",
          "name": "hardwareTier",
          "type": "uint8"
        },
        {
          "indexed": false,
          "internalType": "uint8",
          "name": "capacity",
          "type": "uint8"
        },
        {
          "indexed": false,
          "internalType": "uint256",
          "name": "bondAmount",
          "type": "uint256"
        }
      ],
      "name": "ProviderRegistered",
      "type": "event"
    },
    {
      "anonymous": false,
      "inputs": [
        {
          "indexed": true,
          "internalType": "bytes32",
          "name": "providerkey",
          "type": "bytes32"
        },
        {
          "indexed": false,
          "internalType": "enum ProviderRegistry.ProviderStatus",
          "name": "status",
          "type": "uint8"
        }
      ],
      "name": "ProviderStatusUpdated",
      "type": "event"
    },
    {
      "anonymous": false,
      "inputs": [
        {
          "indexed": true,
          "internalType": "bytes32",
          "name": "role",
          "type": "bytes32"
        },
        {
          "indexed": true,
          "internalType": "bytes32",
          "name": "previousAdminRole",
          "type": "bytes32"
        },
        {
          "indexed": true,
          "internalType": "bytes32",
          "name": "newAdminRole",
          "type": "bytes32"
        }
      ],
      "name": "RoleAdminChanged",
      "type": "event"
    },
    {
      "anonymous": false,
      "inputs": [
        {
          "indexed": true,
          "internalType": "bytes32",
          "name": "role",
          "type": "bytes32"
        },
        {
          "indexed": true,
          "internalType": "address",
          "name": "account",
          "type": "address"
        },
        {
          "indexed": true,
          "internalType": "address",
          "name": "sender",
          "type": "address"
        }
      ],
      "name": "RoleGranted",
      "type": "event"
    },
    {
      "anonymous": false,
      "inputs": [
        {
          "indexed": true,
          "internalType": "bytes32",
          "name": "role",
          "type": "bytes32"
        },
        {
          "indexed": true,
          "internalType": "address",
          "name": "account",
          "type": "address"
        },
        {
          "indexed": true,
          "internalType": "address",
          "name": "sender",
          "type": "address"
        }
      ],
      "name": "RoleRevoked",
      "type": "event"
    },
    {
      "inputs": [],
      "name": "DEAD_ADDRESS",
      "outputs": [
        {
          "internalType": "address",
          "name": "",
          "type": "address"
        }
      ],
      "stateMutability": "view",
      "type": "function"
    },
    {
      "inputs": [],
      "name": "DEFAULT_ADMIN_ROLE",
      "outputs": [
        {
          "internalType": "bytes32",
          "name": "",
          "type": "bytes32"
        }
      ],
      "stateMutability": "view",
      "type": "function"
    },
    {
      "inputs": [],
      "name": "MAX_PROVIDERS_PER_OWNER",
      "outputs": [
        {
          "internalType": "uint8",
          "name": "",
          "type": "uint8"
        }
      ],
      "stateMutability": "view",
      "type": "function"
    },
    {
      "inputs": [],
      "name": "STATIC_BOND",
      "outputs": [
        {
          "internalType": "uint256",
          "name": "",
          "type": "uint256"
        }
      ],
      "stateMutability": "view",
      "type": "function"
    },
    {
      "inputs": [],
      "name": "TEAM_PERCENT",
      "outputs": [
        {
          "internalType": "uint256",
          "name": "",
          "type": "uint256"
        }
      ],
      "stateMutability": "view",
      "type": "function"
    },
    {
      "inputs": [],
      "name": "TREASURY_PERCENT",
      "outputs": [
        {
          "internalType": "uint256",
          "name": "",
          "type": "uint256"
        }
      ],
      "stateMutability": "view",
      "type": "function"
    },
    {
      "inputs": [
        {
          "internalType": "bytes32",
          "name": "",
          "type": "bytes32"
        }
      ],
      "name": "agentHeartbeats",
      "outputs": [
        {
          "internalType": "uint64",
          "name": "",
          "type": "uint64"
        }
      ],
      "stateMutability": "view",
      "type": "function"
    },
    {
      "inputs": [],
      "name": "cldToken",
      "outputs": [
        {
          "internalType": "contract CLDToken",
          "name": "",
          "type": "address"
        }
      ],
      "stateMutability": "view",
      "type": "function"
    },
    {
      "inputs": [
        {
          "internalType": "address",
          "name": "owner",
          "type": "address"
        }
      ],
      "name": "getMyProviders",
      "outputs": [
        {
          "internalType": "bytes32[]",
          "name": "",
          "type": "bytes32[]"
        }
      ],
      "stateMutability": "view",
      "type": "function"
    },
    {
      "inputs": [
        {
          "internalType": "bytes32",
          "name": "providerkey",
          "type": "bytes32"
        }
      ],
      "name": "getProvider",
      "outputs": [
        {
          "components": [
            {
              "internalType": "address",
              "name": "owner",
              "type": "address"
            },
            {
              "internalType": "bytes32",
              "name": "providerkey",
              "type": "bytes32"
            },
            {
              "internalType": "string",
              "name": "region",
              "type": "string"
            },
            {
              "internalType": "uint8",
              "name": "hardwareTier",
              "type": "uint8"
            },
            {
              "internalType": "uint8",
              "name": "capacity",
              "type": "uint8"
            },
            {
              "internalType": "uint96",
              "name": "bondAmount",
              "type": "uint96"
            },
            {
              "internalType": "uint64",
              "name": "registeredAt",
              "type": "uint64"
            },
            {
              "internalType": "enum ProviderRegistry.ProviderStatus",
              "name": "status",
              "type": "uint8"
            }
          ],
          "internalType": "struct ProviderRegistry.Provider",
          "name": "",
          "type": "tuple"
        }
      ],
      "stateMutability": "view",
      "type": "function"
    },
    {
      "inputs": [
        {
          "internalType": "bytes32",
          "name": "role",
          "type": "bytes32"
        }
      ],
      "name": "getRoleAdmin",
      "outputs": [
        {
          "internalType": "bytes32",
          "name": "",
          "type": "bytes32"
        }
      ],
      "stateMutability": "view",
      "type": "function"
    },
    {
      "inputs": [
        {
          "internalType": "bytes32",
          "name": "role",
          "type": "bytes32"
        },
        {
          "internalType": "address",
          "name": "account",
          "type": "address"
        }
      ],
      "name": "grantRole",
      "outputs": [],
      "stateMutability": "nonpayable",
      "type": "function"
    },
    {
      "inputs": [
        {
          "internalType": "bytes32",
          "name": "role",
          "type": "bytes32"
        },
        {
          "internalType": "address",
          "name": "account",
          "type": "address"
        }
      ],
      "name": "hasRole",
      "outputs": [
        {
          "internalType": "bool",
          "name": "",
          "type": "bool"
        }
      ],
      "stateMutability": "view",
      "type": "function"
    },
    {
      "inputs": [
        {
          "internalType": "address",
          "name": "",
          "type": "address"
        },
        {
          "internalType": "uint256",
          "name": "",
          "type": "uint256"
        }
      ],
      "name": "ownerNodes",
      "outputs": [
        {
          "internalType": "bytes32",
          "name": "",
          "type": "bytes32"
        }
      ],
      "stateMutability": "view",
      "type": "function"
    },
    {
      "inputs": [
        {
          "internalType": "bytes32",
          "name": "",
          "type": "bytes32"
        }
      ],
      "name": "providers",
      "outputs": [
        {
          "internalType": "address",
          "name": "owner",
          "type": "address"
        },
        {
          "internalType": "bytes32",
          "name": "providerkey",
          "type": "bytes32"
        },
        {
          "internalType": "string",
          "name": "region",
          "type": "string"
        },
        {
          "internalType": "uint8",
          "name": "hardwareTier",
          "type": "uint8"
        },
        {
          "internalType": "uint8",
          "name": "capacity",
          "type": "uint8"
        },
        {
          "internalType": "uint96",
          "name": "bondAmount",
          "type": "uint96"
        },
        {
          "internalType": "uint64",
          "name": "registeredAt",
          "type": "uint64"
        },
        {
          "internalType": "enum ProviderRegistry.ProviderStatus",
          "name": "status",
          "type": "uint8"
        }
      ],
      "stateMutability": "view",
      "type": "function"
    },
    {
      "inputs": [
        {
          "internalType": "bytes32",
          "name": "providerkey",
          "type": "bytes32"
        },
        {
          "internalType": "string",
          "name": "region",
          "type": "string"
        },
        {
          "internalType": "uint8",
          "name": "hardwareTier",
          "type": "uint8"
        },
        {
          "internalType": "uint8",
          "name": "capacity",
          "type": "uint8"
        }
      ],
      "name": "registerProvider",
      "outputs": [],
      "stateMutability": "nonpayable",
      "type": "function"
    },
    {
      "inputs": [
        {
          "internalType": "bytes32",
          "name": "role",
          "type": "bytes32"
        },
        {
          "internalType": "address",
          "name": "callerConfirmation",
          "type": "address"
        }
      ],
      "name": "renounceRole",
      "outputs": [],
      "stateMutability": "nonpayable",
      "type": "function"
    },
    {
      "inputs": [
        {
          "internalType": "bytes32",
          "name": "role",
          "type": "bytes32"
        },
        {
          "internalType": "address",
          "name": "account",
          "type": "address"
        }
      ],
      "name": "revokeRole",
      "outputs": [],
      "stateMutability": "nonpayable",
      "type": "function"
    },
    {
      "inputs": [
        {
          "internalType": "bytes4",
          "name": "interfaceId",
          "type": "bytes4"
        }
      ],
      "name": "supportsInterface",
      "outputs": [
        {
          "internalType": "bool",
          "name": "",
          "type": "bool"
        }
      ],
      "stateMutability": "view",
      "type": "function"
    },
    {
      "inputs": [],
      "name": "teamWallet",
      "outputs": [
        {
          "internalType": "address",
          "name": "",
          "type": "address"
        }
      ],
      "stateMutability": "view",
      "type": "function"
    },
    {
      "inputs": [],
      "name": "treasuryWallet",
      "outputs": [
        {
          "internalType": "address",
          "name": "",
          "type": "address"
        }
      ],
      "stateMutability": "view",
      "type": "function"
    },
    {
      "inputs": [
        {
          "internalType": "bytes32",
          "name": "providerkey",
          "type": "bytes32"
        },
        {
          "internalType": "enum ProviderRegistry.ProviderStatus",
          "name": "status",
          "type": "uint8"
        }
      ],
      "name": "updateProviderStatus",
      "outputs": [],
      "stateMutability": "nonpayable",
      "type": "function"
    }
  ],
  "bytecode": "0x60e06040523480156200001157600080fd5b50604051620018fd380380620018fd83398101604081905262000034916200012c565b6200004160003362000060565b506001600160a01b0392831660805290821660a0521660c05262000176565b6000828152602081815260408083206001600160a01b038516845290915281205460ff1662000105576000838152602081815260408083206001600160a01b03861684529091529020805460ff19166001179055620000bc3390565b6001600160a01b0316826001600160a01b0316847f2f8788117e7eff1d82e926ec794901d17c78024a50270940304540a733656f0d60405160405180910390a450600162000109565b5060005b92915050565b80516001600160a01b03811681146200012757600080fd5b919050565b6000806000606084860312156200014257600080fd5b6200014d846200010f565b92506200015d602085016200010f565b91506200016d604085016200010f565b90509250925092565b60805160a05160c051611726620001d7600039600081816102860152610cbc0152600081816102d20152610c030152600081816101cc0152818161098201528181610a5101528181610b2c01528181610c350152610ceb01526117266000f3fe608060405234801561001057600080fd5b50600436106101425760003560e01c80634e6fd6c4116100b85780637c546fe11161007c5780637c546fe11461035157806383d5e7261461036157806391d148541461036a578063a217fddf1461037d578063a4b104b814610385578063d547741f1461039857600080fd5b80634e6fd6c4146102b157806354c44318146102ba57806359927044146102cd5780636597c96a146102f457806372d5c5d61461030e57600080fd5b806333440cb61161010a57806333440cb61461021b57806333c0950a1461022e57806336568abe1461024e57806345159fb9146102615780634626402b146102815780634c186197146102a857600080fd5b806301ffc9a7146101475780631acc050e1461016f578063248a9ca314610196578063285922e7146101c75780632f2ff15d14610206575b600080fd5b61015a610155366004611121565b6103ab565b60405190151581526020015b60405180910390f35b61018261017d366004611152565b6103e2565b6040516101669897969594939291906111e9565b6101b96101a4366004611152565b60009081526020819052604090206001015490565b604051908152602001610166565b6101ee7f000000000000000000000000000000000000000000000000000000000000000081565b6040516001600160a01b039091168152602001610166565b61021961021436600461127f565b6104d9565b005b6102196102293660046112ab565b610504565b61024161023c366004611152565b6105fe565b60405161016691906112df565b61021961025c36600461127f565b6107c5565b61027461026f366004611384565b6107fd565b604051610166919061139f565b6101ee7f000000000000000000000000000000000000000000000000000000000000000081565b6101b96107d081565b6101ee61dead81565b6102196102c83660046113f4565b610869565b6101ee7f000000000000000000000000000000000000000000000000000000000000000081565b6102fc600a81565b60405160ff9091168152602001610166565b61033861031c366004611152565b60036020526000908152604090205467ffffffffffffffff1681565b60405167ffffffffffffffff9091168152602001610166565b6101b9683635c9adc5dea0000081565b6101b9611f4081565b61015a61037836600461127f565b610f5b565b6101b9600081565b6101b9610393366004611492565b610f84565b6102196103a636600461127f565b610fb5565b60006001600160e01b03198216637965db0b60e01b14806103dc57506301ffc9a760e01b6001600160e01b03198316145b92915050565b60016020819052600091825260409091208054918101546002820180546001600160a01b0390941693919291610417906114bc565b80601f0160208091040260200160405190810160405280929190818152602001828054610443906114bc565b80156104905780601f1061046557610100808354040283529160200191610490565b820191906000526020600020905b81548152906001019060200180831161047357829003601f168201915b5050506003909301549192505060ff8082169161010081048216916001600160601b03620100008304169167ffffffffffffffff600160701b82041691600160b01b9091041688565b6000828152602081905260409020600101546104f481610fda565b6104fe8383610fe7565b50505050565b600082815260016020526040902080546001600160a01b03166105415760405162b4805560e71b8152600481018490526024015b60405180910390fd5b80546001600160a01b031633148015906105635750610561600033610f5b565b155b15610595578054604051635a3c9c3b60e11b81523360048201526001600160a01b039091166024820152604401610538565b60038101805483919060ff60b01b1916600160b01b8360028111156105bc576105bc6111b1565b0217905550827f8f917e90a32b378f51e4c96a66565e19160e427fb0878310a6c52aeb9c32bf39836040516105f191906114f6565b60405180910390a2505050565b610644604080516101008101825260008082526020820181905260609282018390529181018290526080810182905260a0810182905260c081018290529060e082015290565b6000828152600160205260409020546001600160a01b031661067b5760405162b4805560e71b815260048101839052602401610538565b60008281526001602081815260409283902083516101008101855281546001600160a01b03168152928101549183019190915260028101805492939192918401916106c5906114bc565b80601f01602080910402602001604051908101604052809291908181526020018280546106f1906114bc565b801561073e5780601f106107135761010080835404028352916020019161073e565b820191906000526020600020905b81548152906001019060200180831161072157829003601f168201915b5050509183525050600382015460ff80821660208401526101008204811660408401526001600160601b0362010000830416606084015267ffffffffffffffff600160701b830416608084015260a090920191600160b01b9091041660028111156107ab576107ab6111b1565b60028111156107bc576107bc6111b1565b90525092915050565b6001600160a01b03811633146107ee5760405163334bd91960e11b815260040160405180910390fd5b6107f88282611079565b505050565b6001600160a01b03811660009081526002602090815260409182902080548351818402810184019094528084526060939283018282801561085d57602002820191906000526020600020905b815481526020019060010190808311610849575b50505050509050919050565b84610887576040516302015da160e41b815260040160405180910390fd5b6000858152600160205260409020546001600160a01b0316156108c0576040516366adec8b60e11b815260048101869052602401610538565b33600090815260026020526040902054600a116108f257604051632cd5fbe560e01b8152336004820152602401610538565b6000839003610914576040516397fa436960e01b815260040160405180910390fd5b60028260ff1611156109395760405163b7c2f30760e01b815260040160405180910390fd5b60ff8116158061094c5750600a8160ff16115b1561096a576040516331278a8760e01b815260040160405180910390fd5b6040516370a0823160e01b81523360048201526000907f00000000000000000000000000000000000000000000000000000000000000006001600160a01b0316906370a0823190602401602060405180830381865afa1580156109d1573d6000803e3d6000fd5b505050506040513d601f19601f820116820180604052508101906109f59190611504565b9050683635c9adc5dea00000811015610a335760405163cf47918160e01b8152683635c9adc5dea00000600482015260248101829052604401610538565b604051636eb1769f60e11b81523360048201523060248201526000907f00000000000000000000000000000000000000000000000000000000000000006001600160a01b03169063dd62ed3e90604401602060405180830381865afa158015610aa0573d6000803e3d6000fd5b505050506040513d601f19601f82011682018060405250810190610ac49190611504565b9050683635c9adc5dea00000811015610b025760405163054365bb60e31b8152683635c9adc5dea00000600482015260248101829052604401610538565b6040516323b872dd60e01b8152336004820152306024820152683635c9adc5dea0000060448201527f00000000000000000000000000000000000000000000000000000000000000006001600160a01b0316906323b872dd906064016020604051808303816000875af1158015610b7d573d6000803e3d6000fd5b505050506040513d601f19601f82011682018060405250810190610ba1919061151d565b506000612710610bbc6107d0683635c9adc5dea0000061153f565b610bc69190611564565b90506000612710610be2611f40683635c9adc5dea0000061153f565b610bec9190611564565b60405163a9059cbb60e01b81526001600160a01b037f000000000000000000000000000000000000000000000000000000000000000081166004830152602482018590529192507f00000000000000000000000000000000000000000000000000000000000000009091169063a9059cbb906044016020604051808303816000875af1158015610c80573d6000803e3d6000fd5b505050506040513d601f19601f82011682018060405250810190610ca4919061151d565b5060405163a9059cbb60e01b81526001600160a01b037f000000000000000000000000000000000000000000000000000000000000000081166004830152602482018390527f0000000000000000000000000000000000000000000000000000000000000000169063a9059cbb906044016020604051808303816000875af1158015610d34573d6000803e3d6000fd5b505050506040513d601f19601f82011682018060405250810190610d58919061151d565b50604051806101000160405280336001600160a01b031681526020018a815260200189898080601f016020809104026020016040519081016040528093929190818152602001838380828437600092018290525093855250505060ff808a16602084015288166040830152683635c9adc5dea00000606083015267ffffffffffffffff4216608083015260a09091015260008a815260016020818152604092839020845181546001600160a01b0319166001600160a01b039091161781559084015191810191909155908201516002820190610e3490826115ea565b506060820151600382018054608085015160a086015160c087015167ffffffffffffffff16600160701b0267ffffffffffffffff60701b196001600160601b0390921662010000029190911662010000600160b01b031960ff9384166101000261ffff1990951693909616929092179290921793909316929092179190911780825560e0840151919060ff60b01b1916600160b01b836002811115610edb57610edb6111b1565b021790555050336000818152600260209081526040808320805460018101825590845291909220018c9055518b92507f3c75c128b2193df16f28526805f22bdabf7596567e2bf6438aa4b5ced8cebbcc90610f48908c908c908c908c90683635c9adc5dea00000906116aa565b60405180910390a3505050505050505050565b6000918252602082815260408084206001600160a01b0393909316845291905290205460ff1690565b60026020528160005260406000208181548110610fa057600080fd5b90600052602060002001600091509150505481565b600082815260208190526040902060010154610fd081610fda565b6104fe8383611079565b610fe481336110e4565b50565b6000610ff38383610f5b565b611071576000838152602081815260408083206001600160a01b03861684529091529020805460ff191660011790556110293390565b6001600160a01b0316826001600160a01b0316847f2f8788117e7eff1d82e926ec794901d17c78024a50270940304540a733656f0d60405160405180910390a45060016103dc565b5060006103dc565b60006110858383610f5b565b15611071576000838152602081815260408083206001600160a01b0386168085529252808320805460ff1916905551339286917ff6391f5c32d9c69d2a47ea670b442974b53935d1edc7fd64eb21e047a839171b9190a45060016103dc565b6110ee8282610f5b565b61111d5760405163e2517d3f60e01b81526001600160a01b038216600482015260248101839052604401610538565b5050565b60006020828403121561113357600080fd5b81356001600160e01b03198116811461114b57600080fd5b9392505050565b60006020828403121561116457600080fd5b5035919050565b6000815180845260005b8181101561119157602081850181015186830182015201611175565b506000602082860101526020601f19601f83011685010191505092915050565b634e487b7160e01b600052602160045260246000fd5b600381106111e557634e487b7160e01b600052602160045260246000fd5b9052565b6001600160a01b038916815260208101889052610100604082018190526000906112158382018a61116b565b91505060ff8716606083015260ff861660808301526001600160601b03851660a083015267ffffffffffffffff841660c083015261125660e08301846111c7565b9998505050505050505050565b80356001600160a01b038116811461127a57600080fd5b919050565b6000806040838503121561129257600080fd5b823591506112a260208401611263565b90509250929050565b600080604083850312156112be57600080fd5b823591506020830135600381106112d457600080fd5b809150509250929050565b6020815260018060a01b038251166020820152602082015160408201526000604083015161010080606085015261131a61012085018361116b565b915060ff6060860151166080850152608085015161133d60a086018260ff169052565b5060a08501516001600160601b03811660c08601525060c085015167ffffffffffffffff811660e08601525060e085015161137a828601826111c7565b5090949350505050565b60006020828403121561139657600080fd5b61114b82611263565b6020808252825182820181905260009190848201906040850190845b818110156113d7578351835292840192918401916001016113bb565b50909695505050505050565b803560ff8116811461127a57600080fd5b60008060008060006080868803121561140c57600080fd5b85359450602086013567ffffffffffffffff8082111561142b57600080fd5b818801915088601f83011261143f57600080fd5b81358181111561144e57600080fd5b89602082850101111561146057600080fd5b602083019650809550505050611478604087016113e3565b9150611486606087016113e3565b90509295509295909350565b600080604083850312156114a557600080fd5b6114ae83611263565b946020939093013593505050565b600181811c908216806114d057607f821691505b6020821081036114f057634e487b7160e01b600052602260045260246000fd5b50919050565b602081016103dc82846111c7565b60006020828403121561151657600080fd5b5051919050565b60006020828403121561152f57600080fd5b8151801515811461114b57600080fd5b80820281158282048414176103dc57634e487b7160e01b600052601160045260246000fd5b60008261158157634e487b7160e01b600052601260045260246000fd5b500490565b634e487b7160e01b600052604160045260246000fd5b601f8211156107f857600081815260208120601f850160051c810160208610156115c35750805b601f850160051c820191505b818110156115e2578281556001016115cf565b505050505050565b815167ffffffffffffffff81111561160457611604611586565b6116188161161284546114bc565b8461159c565b602080601f83116001811461164d57600084156116355750858301515b600019600386901b1c1916600185901b1785556115e2565b600085815260208120601f198616915b8281101561167c5788860151825594840194600190910190840161165d565b508582101561169a5787850151600019600388901b60f8161c191681555b5050505050600190811b01905550565b60808152846080820152848660a0830137600060a086830181019190915260ff94851660208301529290931660408401526060830152601f909201601f1916010191905056fea2646970667358221220b5b6927e9c8a66226a220e67eada2d79eed44d4aa059b5382e36454dae7f0c0f64736f6c63430008140033",
  "linkReferences": {},
  "deployedLinkReferences": {}
}