{
  "_format": "hh-sol-artifact-1",
  "contractName": "ProviderRegistry",
  "sourceName": "contracts/ProviderRegistry.sol",
  "abi": [
    {
      "inputs": [
        {
          "internalType": "address",
          "name": "_config",
          "type": "address"
        }
      ],
      "stateMutability": "nonpayable",
      "type": "constructor"
    },
    {
      "inputs": [],
      "name": "AccessControlBadConfirmation",
      "type": "error"
    },
    {
      "inputs": [
        {
          "internalType": "address",
          "name": "account",
          "type": "address"
        },
        {
          "internalType": "bytes32",
          "name": "neededRole",
          "type": "bytes32"
        }
      ],
      "name": "AccessControlUnauthorizedAccount",
      "type": "error"
    },
    {
      "inputs": [],
      "name": "ReentrancyGuardReentrantCall",
      "type": "error"
    },
    {
      "anonymous": false,
      "inputs": [
        {
          "indexed": true,
          "internalType": "address",
          "name": "provider",
          "type": "address"
        }
      ],
      "name": "AutoRewardDisabled",
      "type": "event"
    },
    {
      "anonymous": false,
      "inputs": [
        {
          "indexed": true,
          "internalType": "address",
          "name": "provider",
          "type": "address"
        },
        {
          "indexed": false,
          "internalType": "uint256",
          "name": "gasDeposit",
          "type": "uint256"
        }
      ],
      "name": "AutoRewardEnabled",
      "type": "event"
    },
    {
      "anonymous": false,
      "inputs": [
        {
          "indexed": true,
          "internalType": "address",
          "name": "provider",
          "type": "address"
        }
      ],
      "name": "ProviderDeactivated",
      "type": "event"
    },
    {
      "anonymous": false,
      "inputs": [
        {
          "indexed": true,
          "internalType": "address",
          "name": "provider",
          "type": "address"
        },
        {
          "indexed": false,
          "internalType": "uint256",
          "name": "amount",
          "type": "uint256"
        }
      ],
      "name": "ProviderDeposited",
      "type": "event"
    },
    {
      "anonymous": false,
      "inputs": [
        {
          "indexed": true,
          "internalType": "address",
          "name": "provider",
          "type": "address"
        },
        {
          "indexed": false,
          "internalType": "uint256",
          "name": "depositAmount",
          "type": "uint256"
        }
      ],
      "name": "ProviderRegistered",
      "type": "event"
    },
    {
      "anonymous": false,
      "inputs": [
        {
          "indexed": true,
          "internalType": "address",
          "name": "provider",
          "type": "address"
        },
        {
          "indexed": false,
          "internalType": "uint256",
          "name": "amount",
          "type": "uint256"
        }
      ],
      "name": "ProviderWithdrawn",
      "type": "event"
    },
    {
      "anonymous": false,
      "inputs": [
        {
          "indexed": true,
          "internalType": "address",
          "name": "provider",
          "type": "address"
        },
        {
          "indexed": false,
          "internalType": "uint256",
          "name": "epochReward",
          "type": "uint256"
        },
        {
          "indexed": false,
          "internalType": "uint256",
          "name": "jobReward",
          "type": "uint256"
        }
      ],
      "name": "RewardAdded",
      "type": "event"
    },
    {
      "anonymous": false,
      "inputs": [
        {
          "indexed": true,
          "internalType": "address",
          "name": "provider",
          "type": "address"
        },
        {
          "indexed": false,
          "internalType": "uint256",
          "name": "amount",
          "type": "uint256"
        }
      ],
      "name": "RewardClaimed",
      "type": "event"
    },
    {
      "anonymous": false,
      "inputs": [
        {
          "indexed": true,
          "internalType": "bytes32",
          "name": "role",
          "type": "bytes32"
        },
        {
          "indexed": true,
          "internalType": "bytes32",
          "name": "previousAdminRole",
          "type": "bytes32"
        },
        {
          "indexed": true,
          "internalType": "bytes32",
          "name": "newAdminRole",
          "type": "bytes32"
        }
      ],
      "name": "RoleAdminChanged",
      "type": "event"
    },
    {
      "anonymous": false,
      "inputs": [
        {
          "indexed": true,
          "internalType": "bytes32",
          "name": "role",
          "type": "bytes32"
        },
        {
          "indexed": true,
          "internalType": "address",
          "name": "account",
          "type": "address"
        },
        {
          "indexed": true,
          "internalType": "address",
          "name": "sender",
          "type": "address"
        }
      ],
      "name": "RoleGranted",
      "type": "event"
    },
    {
      "anonymous": false,
      "inputs": [
        {
          "indexed": true,
          "internalType": "bytes32",
          "name": "role",
          "type": "bytes32"
        },
        {
          "indexed": true,
          "internalType": "address",
          "name": "account",
          "type": "address"
        },
        {
          "indexed": true,
          "internalType": "address",
          "name": "sender",
          "type": "address"
        }
      ],
      "name": "RoleRevoked",
      "type": "event"
    },
    {
      "inputs": [],
      "name": "DEFAULT_ADMIN_ROLE",
      "outputs": [
        {
          "internalType": "bytes32",
          "name": "",
          "type": "bytes32"
        }
      ],
      "stateMutability": "view",
      "type": "function"
    },
    {
      "inputs": [],
      "name": "VALIDATOR_ROLE",
      "outputs": [
        {
          "internalType": "bytes32",
          "name": "",
          "type": "bytes32"
        }
      ],
      "stateMutability": "view",
      "type": "function"
    },
    {
      "inputs": [
        {
          "internalType": "address",
          "name": "provider",
          "type": "address"
        },
        {
          "internalType": "uint256",
          "name": "epochReward",
          "type": "uint256"
        },
        {
          "internalType": "uint256",
          "name": "jobReward",
          "type": "uint256"
        }
      ],
      "name": "addReward",
      "outputs": [],
      "stateMutability": "nonpayable",
      "type": "function"
    },
    {
      "inputs": [],
      "name": "claimRewards",
      "outputs": [],
      "stateMutability": "nonpayable",
      "type": "function"
    },
    {
      "inputs": [],
      "name": "config",
      "outputs": [
        {
          "internalType": "contract Config",
          "name": "",
          "type": "address"
        }
      ],
      "stateMutability": "view",
      "type": "function"
    },
    {
      "inputs": [
        {
          "internalType": "address",
          "name": "provider",
          "type": "address"
        }
      ],
      "name": "deactivateProvider",
      "outputs": [],
      "stateMutability": "nonpayable",
      "type": "function"
    },
    {
      "inputs": [],
      "name": "disableAutoReward",
      "outputs": [],
      "stateMutability": "nonpayable",
      "type": "function"
    },
    {
      "inputs": [],
      "name": "enableAutoReward",
      "outputs": [],
      "stateMutability": "payable",
      "type": "function"
    },
    {
      "inputs": [
        {
          "internalType": "address",
          "name": "provider",
          "type": "address"
        }
      ],
      "name": "getProvider",
      "outputs": [
        {
          "components": [
            {
              "internalType": "address",
              "name": "providerAddress",
              "type": "address"
            },
            {
              "internalType": "uint128",
              "name": "depositAmount",
              "type": "uint128"
            },
            {
              "internalType": "uint64",
              "name": "registeredAt",
              "type": "uint64"
            },
            {
              "internalType": "uint128",
              "name": "autoRewardGasDeposit",
              "type": "uint128"
            },
            {
              "internalType": "bool",
              "name": "isActive",
              "type": "bool"
            },
            {
              "internalType": "bool",
              "name": "autoRewardEnabled",
              "type": "bool"
            }
          ],
          "internalType": "struct ProviderRegistry.Provider",
          "name": "",
          "type": "tuple"
        }
      ],
      "stateMutability": "view",
      "type": "function"
    },
    {
      "inputs": [],
      "name": "getProviderCount",
      "outputs": [
        {
          "internalType": "uint256",
          "name": "",
          "type": "uint256"
        }
      ],
      "stateMutability": "view",
      "type": "function"
    },
    {
      "inputs": [
        {
          "internalType": "bytes32",
          "name": "role",
          "type": "bytes32"
        }
      ],
      "name": "getRoleAdmin",
      "outputs": [
        {
          "internalType": "bytes32",
          "name": "",
          "type": "bytes32"
        }
      ],
      "stateMutability": "view",
      "type": "function"
    },
    {
      "inputs": [
        {
          "internalType": "address",
          "name": "provider",
          "type": "address"
        }
      ],
      "name": "getTotalRewards",
      "outputs": [
        {
          "internalType": "uint256",
          "name": "",
          "type": "uint256"
        }
      ],
      "stateMutability": "view",
      "type": "function"
    },
    {
      "inputs": [
        {
          "internalType": "bytes32",
          "name": "role",
          "type": "bytes32"
        },
        {
          "internalType": "address",
          "name": "account",
          "type": "address"
        }
      ],
      "name": "grantRole",
      "outputs": [],
      "stateMutability": "nonpayable",
      "type": "function"
    },
    {
      "inputs": [
        {
          "internalType": "bytes32",
          "name": "role",
          "type": "bytes32"
        },
        {
          "internalType": "address",
          "name": "account",
          "type": "address"
        }
      ],
      "name": "hasRole",
      "outputs": [
        {
          "internalType": "bool",
          "name": "",
          "type": "bool"
        }
      ],
      "stateMutability": "view",
      "type": "function"
    },
    {
      "inputs": [
        {
          "internalType": "address",
          "name": "provider",
          "type": "address"
        }
      ],
      "name": "isProviderActive",
      "outputs": [
        {
          "internalType": "bool",
          "name": "",
          "type": "bool"
        }
      ],
      "stateMutability": "view",
      "type": "function"
    },
    {
      "inputs": [
        {
          "internalType": "address",
          "name": "",
          "type": "address"
        }
      ],
      "name": "jobRewards",
      "outputs": [
        {
          "internalType": "uint256",
          "name": "",
          "type": "uint256"
        }
      ],
      "stateMutability": "view",
      "type": "function"
    },
    {
      "inputs": [
        {
          "internalType": "address",
          "name": "",
          "type": "address"
        }
      ],
      "name": "pendingRewards",
      "outputs": [
        {
          "internalType": "uint256",
          "name": "",
          "type": "uint256"
        }
      ],
      "stateMutability": "view",
      "type": "function"
    },
    {
      "inputs": [
        {
          "internalType": "uint256",
          "name": "",
          "type": "uint256"
        }
      ],
      "name": "providerList",
      "outputs": [
        {
          "internalType": "address",
          "name": "",
          "type": "address"
        }
      ],
      "stateMutability": "view",
      "type": "function"
    },
    {
      "inputs": [
        {
          "internalType": "address",
          "name": "",
          "type": "address"
        }
      ],
      "name": "providers",
      "outputs": [
        {
          "internalType": "address",
          "name": "providerAddress",
          "type": "address"
        },
        {
          "internalType": "uint128",
          "name": "depositAmount",
          "type": "uint128"
        },
        {
          "internalType": "uint64",
          "name": "registeredAt",
          "type": "uint64"
        },
        {
          "internalType": "uint128",
          "name": "autoRewardGasDeposit",
          "type": "uint128"
        },
        {
          "internalType": "bool",
          "name": "isActive",
          "type": "bool"
        },
        {
          "internalType": "bool",
          "name": "autoRewardEnabled",
          "type": "bool"
        }
      ],
      "stateMutability": "view",
      "type": "function"
    },
    {
      "inputs": [],
      "name": "register",
      "outputs": [],
      "stateMutability": "payable",
      "type": "function"
    },
    {
      "inputs": [
        {
          "internalType": "bytes32",
          "name": "role",
          "type": "bytes32"
        },
        {
          "internalType": "address",
          "name": "callerConfirmation",
          "type": "address"
        }
      ],
      "name": "renounceRole",
      "outputs": [],
      "stateMutability": "nonpayable",
      "type": "function"
    },
    {
      "inputs": [
        {
          "internalType": "bytes32",
          "name": "role",
          "type": "bytes32"
        },
        {
          "internalType": "address",
          "name": "account",
          "type": "address"
        }
      ],
      "name": "revokeRole",
      "outputs": [],
      "stateMutability": "nonpayable",
      "type": "function"
    },
    {
      "inputs": [
        {
          "internalType": "bytes4",
          "name": "interfaceId",
          "type": "bytes4"
        }
      ],
      "name": "supportsInterface",
      "outputs": [
        {
          "internalType": "bool",
          "name": "",
          "type": "bool"
        }
      ],
      "stateMutability": "view",
      "type": "function"
    }
  ],
  "bytecode": "0x60a060405234801561001057600080fd5b506040516118c93803806118c983398101604081905261002f91610183565b600180556001600160a01b03811661008d5760405162461bcd60e51b815260206004820181905260248201527f50726f766964657252656769737472793a20496e76616c696420636f6e666967604482015260640160405180910390fd5b6001600160a01b0381166080526100a56000336100d7565b506100d07f21702c8af46127c7fa207f89d0b0a8441bb32959a0ac7df790e9ab1a25c98926336100d7565b50506101b3565b6000828152602081815260408083206001600160a01b038516845290915281205460ff16610179576000838152602081815260408083206001600160a01b03861684529091529020805460ff191660011790556101313390565b6001600160a01b0316826001600160a01b0316847f2f8788117e7eff1d82e926ec794901d17c78024a50270940304540a733656f0d60405160405180910390a450600161017d565b5060005b92915050565b60006020828403121561019557600080fd5b81516001600160a01b03811681146101ac57600080fd5b9392505050565b6080516116f46101d56000396000818161059601526107f401526116f46000f3fe6080604052600436106101805760003560e01c806344ea559a116100d657806391d148541161007f578063bcd872b411610059578063bcd872b41461065e578063c49baebe14610666578063d547741f1461069a57600080fd5b806391d14854146105e5578063a217fddf14610629578063bba9dc601461063e57600080fd5b8063696724cb116100b0578063696724cb1461054057806379502c55146105845780637d6e4788146105b857600080fd5b806344ea559a146103bf57806346ce4175146103df57806355f21eb7146103f457600080fd5b80632f2ff15d11610138578063372500ab11610112578063372500ab1461035d578063390bfd3c146103725780633f696415146103aa57600080fd5b80632f2ff15d146102f057806331d7a2621461031057806336568abe1461033d57600080fd5b80631aa3a008116101695780631aa3a00814610288578063248a9ca3146102925780632bcf161c146102d057600080fd5b806301ffc9a7146101855780630787bc27146101ba575b600080fd5b34801561019157600080fd5b506101a56101a0366004611539565b6106ba565b60405190151581526020015b60405180910390f35b3480156101c657600080fd5b506102366101d536600461159e565b60026020819052600091825260409091208054600182015491909201546001600160a01b03909216916001600160801b038083169267ffffffffffffffff600160801b9182900416929182169160ff918104821691600160881b9091041686565b604080516001600160a01b0390971687526001600160801b03958616602088015267ffffffffffffffff90941693860193909352921660608401529015156080830152151560a082015260c0016101b1565b610290610753565b005b34801561029e57600080fd5b506102c26102ad3660046115b9565b60009081526020819052604090206001015490565b6040519081526020016101b1565b3480156102dc57600080fd5b506102c26102eb36600461159e565b610ae6565b3480156102fc57600080fd5b5061029061030b3660046115d2565b610b14565b34801561031c57600080fd5b506102c261032b36600461159e565b60046020526000908152604090205481565b34801561034957600080fd5b506102906103583660046115d2565b610b3f565b34801561036957600080fd5b50610290610b90565b34801561037e57600080fd5b5061039261038d3660046115b9565b610cec565b6040516001600160a01b0390911681526020016101b1565b3480156103b657600080fd5b50610290610d16565b3480156103cb57600080fd5b506102906103da3660046115fe565b610ea3565b3480156103eb57600080fd5b506003546102c2565b34801561040057600080fd5b506104cb61040f36600461159e565b6040805160c081018252600080825260208201819052918101829052606081018290526080810182905260a0810191909152506001600160a01b03908116600090815260026020818152604092839020835160c0810185528154909516855260018101546001600160801b038082169387019390935267ffffffffffffffff600160801b91829004169486019490945290910154908116606084015260ff918104821615156080840152600160881b900416151560a082015290565b6040516101b19190600060c0820190506001600160a01b0383511682526001600160801b03602084015116602083015267ffffffffffffffff60408401511660408301526001600160801b03606084015116606083015260808301511515608083015260a0830151151560a083015292915050565b34801561054c57600080fd5b506101a561055b36600461159e565b6001600160a01b031660009081526002602081905260409091200154600160801b900460ff1690565b34801561059057600080fd5b506103927f000000000000000000000000000000000000000000000000000000000000000081565b3480156105c457600080fd5b506102c26105d336600461159e565b60056020526000908152604090205481565b3480156105f157600080fd5b506101a56106003660046115d2565b6000918252602082815260408084206001600160a01b0393909316845291905290205460ff1690565b34801561063557600080fd5b506102c2600081565b34801561064a57600080fd5b5061029061065936600461159e565b611018565b610290611103565b34801561067257600080fd5b506102c27f21702c8af46127c7fa207f89d0b0a8441bb32959a0ac7df790e9ab1a25c9892681565b3480156106a657600080fd5b506102906106b53660046115d2565b611327565b60007fffffffff0000000000000000000000000000000000000000000000000000000082167f7965db0b00000000000000000000000000000000000000000000000000000000148061074d57507f01ffc9a7000000000000000000000000000000000000000000000000000000007fffffffff000000000000000000000000000000000000000000000000000000008316145b92915050565b61075b61134c565b3360009081526002602081905260409091200154600160801b900460ff16156107f05760405162461bcd60e51b8152602060048201526024808201527f50726f766964657252656769737472793a20416c72656164792072656769737460448201527f657265640000000000000000000000000000000000000000000000000000000060648201526084015b60405180910390fd5b60007f00000000000000000000000000000000000000000000000000000000000000006001600160a01b031663cedb60626040518163ffffffff1660e01b8152600401602060405180830381865afa158015610850573d6000803e3d6000fd5b505050506040513d601f19601f820116820180604052508101906108749190611631565b9050803410156108ec5760405162461bcd60e51b815260206004820152602660248201527f50726f766964657252656769737472793a20496e73756666696369656e74206460448201527f65706f736974000000000000000000000000000000000000000000000000000060648201526084016107e7565b6040805160c081018252338082526001600160801b03808516602080850191825267ffffffffffffffff428116868801908152600060608801818152600160808a0181815260a08b018481528a85526002978890529b84209a518b546001600160a01b03919091167fffffffffffffffffffffffff0000000000000000000000000000000000000000918216178c5597518b830180549651909716600160801b9081027fffffffffffffffff000000000000000000000000000000000000000000000000909716918b1691909117959095179095559051989094018054935199511515600160881b0271ff0000000000000000000000000000000000199a15159093027fffffffffffffffffffffffffffffff000000000000000000000000000000000090941698909616979097179190911796909616959095179091556003805494850181559092527fc2575a0e9e593c00f959f8c92f12db2869c3395a3b0502d05e2516446f71f85b9092018054909116909117905534811015610aa457336108fc610a7a8334611679565b6040518115909202916000818181858888f19350505050158015610aa2573d6000803e3d6000fd5b505b60405181815233907f90c9734131c1e4fb36cde2d71e6feb93fb258f71be8a85411c173d25e1516e80906020015b60405180910390a250610ae460018055565b565b6001600160a01b038116600090815260056020908152604080832054600490925282205461074d919061168c565b600082815260208190526040902060010154610b2f8161138f565b610b39838361139c565b50505050565b6001600160a01b0381163314610b81576040517f6697b23200000000000000000000000000000000000000000000000000000000815260040160405180910390fd5b610b8b8282611446565b505050565b610b9861134c565b3360009081526002602081905260409091200154600160801b900460ff16610c025760405162461bcd60e51b815260206004820181905260248201527f50726f766964657252656769737472793a204e6f74207265676973746572656460448201526064016107e7565b336000908152600560209081526040808320546004909252822054610c27919061168c565b905060008111610c9f5760405162461bcd60e51b815260206004820152602560248201527f50726f766964657252656769737472793a204e6f207265776172647320746f2060448201527f636c61696d00000000000000000000000000000000000000000000000000000060648201526084016107e7565b336000818152600460209081526040808320839055600582528083209290925590518381527f106f923f993c2149d49b4255ff723acafa1f2d94393f561d3eda32ae348f72419101610ad2565b60038181548110610cfc57600080fd5b6000918252602090912001546001600160a01b0316905081565b610d1e61134c565b3360009081526002602081905260409091200154600160801b900460ff16610d885760405162461bcd60e51b815260206004820181905260248201527f50726f766964657252656769737472793a204e6f74207265676973746572656460448201526064016107e7565b3360009081526002602081905260409091200154600160881b900460ff16610df25760405162461bcd60e51b815260206004820152601d60248201527f50726f766964657252656769737472793a204e6f7420656e61626c656400000060448201526064016107e7565b33600090815260026020819052604090912090810180547fffffffffffffffffffffffffffff00ff0000000000000000000000000000000081169091556001600160801b03168015610e6d57604051339082156108fc029083906000818181858888f19350505050158015610e6b573d6000803e3d6000fd5b505b60405133907fbcbe984e6da5956c606998f9d9483974497744e9463715c973ea8a0528bf635c90600090a25050610ae460018055565b7f21702c8af46127c7fa207f89d0b0a8441bb32959a0ac7df790e9ab1a25c98926610ecd8161138f565b6001600160a01b03841660009081526002602081905260409091200154600160801b900460ff16610f665760405162461bcd60e51b815260206004820152602560248201527f50726f766964657252656769737472793a2050726f7669646572206e6f74206160448201527f637469766500000000000000000000000000000000000000000000000000000060648201526084016107e7565b8215610f9a576001600160a01b03841660009081526004602052604081208054859290610f9490849061168c565b90915550505b8115610fce576001600160a01b03841660009081526005602052604081208054849290610fc890849061168c565b90915550505b60408051848152602081018490526001600160a01b038616917f6a6f77044107a33658235d41bedbbaf2fe9ccdceb313143c947a5e76e1ec8474910160405180910390a250505050565b60006110238161138f565b6001600160a01b03821660009081526002602081905260409091200154600160801b900460ff166110965760405162461bcd60e51b815260206004820152601c60248201527f50726f766964657252656769737472793a204e6f74206163746976650000000060448201526064016107e7565b6001600160a01b038216600081815260026020819052604080832090910180547fffffffffffffffffffffffffffffff00ffffffffffffffffffffffffffffffff169055517f3584a4db7306d80246748a1c4bc6188505b8053684afee0c79670dade4db205c9190a25050565b61110b61134c565b3360009081526002602081905260409091200154600160801b900460ff166111755760405162461bcd60e51b815260206004820181905260248201527f50726f766964657252656769737472793a204e6f74207265676973746572656460448201526064016107e7565b3360009081526002602081905260409091200154600160881b900460ff16156112065760405162461bcd60e51b815260206004820152602160248201527f50726f766964657252656769737472793a20416c726561647920656e61626c6560448201527f640000000000000000000000000000000000000000000000000000000000000060648201526084016107e7565b6000341161127c5760405162461bcd60e51b815260206004820152602660248201527f50726f766964657252656769737472793a20476173206465706f73697420726560448201527f717569726564000000000000000000000000000000000000000000000000000060648201526084016107e7565b3360009081526002602081905260408220908101805471ff0000000000000000000000000000000000198116600160881b178255919234926112c89084906001600160801b031661169f565b92506101000a8154816001600160801b0302191690836001600160801b03160217905550336001600160a01b03167fa0b50678b9078c7d5db8fcba884ffb7ee915e388295d8e453b438b66810654a134604051610ad291815260200190565b6000828152602081905260409020600101546113428161138f565b610b398383611446565b600260015403611388576040517f3ee5aeb500000000000000000000000000000000000000000000000000000000815260040160405180910390fd5b6002600155565b61139981336114c9565b50565b6000828152602081815260408083206001600160a01b038516845290915281205460ff1661143e576000838152602081815260408083206001600160a01b03861684529091529020805460ff191660011790556113f63390565b6001600160a01b0316826001600160a01b0316847f2f8788117e7eff1d82e926ec794901d17c78024a50270940304540a733656f0d60405160405180910390a450600161074d565b50600061074d565b6000828152602081815260408083206001600160a01b038516845290915281205460ff161561143e576000838152602081815260408083206001600160a01b0386168085529252808320805460ff1916905551339286917ff6391f5c32d9c69d2a47ea670b442974b53935d1edc7fd64eb21e047a839171b9190a450600161074d565b6000828152602081815260408083206001600160a01b038516845290915290205460ff16611535576040517fe2517d3f0000000000000000000000000000000000000000000000000000000081526001600160a01b0382166004820152602481018390526044016107e7565b5050565b60006020828403121561154b57600080fd5b81357fffffffff000000000000000000000000000000000000000000000000000000008116811461157b57600080fd5b9392505050565b80356001600160a01b038116811461159957600080fd5b919050565b6000602082840312156115b057600080fd5b61157b82611582565b6000602082840312156115cb57600080fd5b5035919050565b600080604083850312156115e557600080fd5b823591506115f560208401611582565b90509250929050565b60008060006060848603121561161357600080fd5b61161c84611582565b95602085013595506040909401359392505050565b60006020828403121561164357600080fd5b5051919050565b7f4e487b7100000000000000000000000000000000000000000000000000000000600052601160045260246000fd5b8181038181111561074d5761074d61164a565b8082018082111561074d5761074d61164a565b6001600160801b03818116838216019081111561074d5761074d61164a56fea2646970667358221220f45c0795938f0d3433678f17bc6961d325e5ea6650c3753bdd9fdef019f1ad3d64736f6c634300081c0033",
  "linkReferences": {},
  "deployedLinkReferences": {}
}