{
  "_format": "hh-sol-artifact-1",
  "contractName": "ProviderRegistry",
  "sourceName": "contracts/ProviderRegistry.sol",
  "abi": [
    {
      "inputs": [
        {
          "internalType": "address",
          "name": "_config",
          "type": "address"
        }
      ],
      "stateMutability": "nonpayable",
      "type": "constructor"
    },
    {
      "inputs": [],
      "name": "AccessControlBadConfirmation",
      "type": "error"
    },
    {
      "inputs": [
        {
          "internalType": "address",
          "name": "account",
          "type": "address"
        },
        {
          "internalType": "bytes32",
          "name": "neededRole",
          "type": "bytes32"
        }
      ],
      "name": "AccessControlUnauthorizedAccount",
      "type": "error"
    },
    {
      "inputs": [],
      "name": "ReentrancyGuardReentrantCall",
      "type": "error"
    },
    {
      "anonymous": false,
      "inputs": [
        {
          "indexed": true,
          "internalType": "address",
          "name": "provider",
          "type": "address"
        }
      ],
      "name": "AutoRewardDisabled",
      "type": "event"
    },
    {
      "anonymous": false,
      "inputs": [
        {
          "indexed": true,
          "internalType": "address",
          "name": "provider",
          "type": "address"
        },
        {
          "indexed": false,
          "internalType": "uint256",
          "name": "gasDeposit",
          "type": "uint256"
        }
      ],
      "name": "AutoRewardEnabled",
      "type": "event"
    },
    {
      "anonymous": false,
      "inputs": [
        {
          "indexed": true,
          "internalType": "address",
          "name": "provider",
          "type": "address"
        }
      ],
      "name": "ProviderDeactivated",
      "type": "event"
    },
    {
      "anonymous": false,
      "inputs": [
        {
          "indexed": true,
          "internalType": "address",
          "name": "provider",
          "type": "address"
        },
        {
          "indexed": false,
          "internalType": "uint256",
          "name": "amount",
          "type": "uint256"
        }
      ],
      "name": "ProviderDeposited",
      "type": "event"
    },
    {
      "anonymous": false,
      "inputs": [
        {
          "indexed": true,
          "internalType": "address",
          "name": "provider",
          "type": "address"
        },
        {
          "indexed": false,
          "internalType": "uint256",
          "name": "depositAmount",
          "type": "uint256"
        }
      ],
      "name": "ProviderRegistered",
      "type": "event"
    },
    {
      "anonymous": false,
      "inputs": [
        {
          "indexed": true,
          "internalType": "address",
          "name": "provider",
          "type": "address"
        },
        {
          "indexed": false,
          "internalType": "uint256",
          "name": "amount",
          "type": "uint256"
        }
      ],
      "name": "ProviderWithdrawn",
      "type": "event"
    },
    {
      "anonymous": false,
      "inputs": [
        {
          "indexed": true,
          "internalType": "address",
          "name": "provider",
          "type": "address"
        },
        {
          "indexed": false,
          "internalType": "uint256",
          "name": "epochReward",
          "type": "uint256"
        },
        {
          "indexed": false,
          "internalType": "uint256",
          "name": "jobReward",
          "type": "uint256"
        }
      ],
      "name": "RewardAdded",
      "type": "event"
    },
    {
      "anonymous": false,
      "inputs": [
        {
          "indexed": true,
          "internalType": "address",
          "name": "provider",
          "type": "address"
        },
        {
          "indexed": false,
          "internalType": "uint256",
          "name": "amount",
          "type": "uint256"
        }
      ],
      "name": "RewardClaimed",
      "type": "event"
    },
    {
      "anonymous": false,
      "inputs": [
        {
          "indexed": true,
          "internalType": "bytes32",
          "name": "role",
          "type": "bytes32"
        },
        {
          "indexed": true,
          "internalType": "bytes32",
          "name": "previousAdminRole",
          "type": "bytes32"
        },
        {
          "indexed": true,
          "internalType": "bytes32",
          "name": "newAdminRole",
          "type": "bytes32"
        }
      ],
      "name": "RoleAdminChanged",
      "type": "event"
    },
    {
      "anonymous": false,
      "inputs": [
        {
          "indexed": true,
          "internalType": "bytes32",
          "name": "role",
          "type": "bytes32"
        },
        {
          "indexed": true,
          "internalType": "address",
          "name": "account",
          "type": "address"
        },
        {
          "indexed": true,
          "internalType": "address",
          "name": "sender",
          "type": "address"
        }
      ],
      "name": "RoleGranted",
      "type": "event"
    },
    {
      "anonymous": false,
      "inputs": [
        {
          "indexed": true,
          "internalType": "bytes32",
          "name": "role",
          "type": "bytes32"
        },
        {
          "indexed": true,
          "internalType": "address",
          "name": "account",
          "type": "address"
        },
        {
          "indexed": true,
          "internalType": "address",
          "name": "sender",
          "type": "address"
        }
      ],
      "name": "RoleRevoked",
      "type": "event"
    },
    {
      "inputs": [],
      "name": "DEFAULT_ADMIN_ROLE",
      "outputs": [
        {
          "internalType": "bytes32",
          "name": "",
          "type": "bytes32"
        }
      ],
      "stateMutability": "view",
      "type": "function"
    },
    {
      "inputs": [],
      "name": "VALIDATOR_ROLE",
      "outputs": [
        {
          "internalType": "bytes32",
          "name": "",
          "type": "bytes32"
        }
      ],
      "stateMutability": "view",
      "type": "function"
    },
    {
      "inputs": [
        {
          "internalType": "address",
          "name": "provider",
          "type": "address"
        },
        {
          "internalType": "uint256",
          "name": "epochReward",
          "type": "uint256"
        },
        {
          "internalType": "uint256",
          "name": "jobReward",
          "type": "uint256"
        }
      ],
      "name": "addReward",
      "outputs": [],
      "stateMutability": "nonpayable",
      "type": "function"
    },
    {
      "inputs": [],
      "name": "claimRewards",
      "outputs": [],
      "stateMutability": "nonpayable",
      "type": "function"
    },
    {
      "inputs": [],
      "name": "config",
      "outputs": [
        {
          "internalType": "contract Config",
          "name": "",
          "type": "address"
        }
      ],
      "stateMutability": "view",
      "type": "function"
    },
    {
      "inputs": [
        {
          "internalType": "address",
          "name": "provider",
          "type": "address"
        }
      ],
      "name": "deactivateProvider",
      "outputs": [],
      "stateMutability": "nonpayable",
      "type": "function"
    },
    {
      "inputs": [],
      "name": "disableAutoReward",
      "outputs": [],
      "stateMutability": "nonpayable",
      "type": "function"
    },
    {
      "inputs": [],
      "name": "enableAutoReward",
      "outputs": [],
      "stateMutability": "payable",
      "type": "function"
    },
    {
      "inputs": [
        {
          "internalType": "address",
          "name": "provider",
          "type": "address"
        }
      ],
      "name": "getProvider",
      "outputs": [
        {
          "components": [
            {
              "internalType": "address",
              "name": "providerAddress",
              "type": "address"
            },
            {
              "internalType": "uint256",
              "name": "depositAmount",
              "type": "uint256"
            },
            {
              "internalType": "uint256",
              "name": "registeredAt",
              "type": "uint256"
            },
            {
              "internalType": "bool",
              "name": "isActive",
              "type": "bool"
            },
            {
              "internalType": "bool",
              "name": "autoRewardEnabled",
              "type": "bool"
            },
            {
              "internalType": "uint256",
              "name": "autoRewardGasDeposit",
              "type": "uint256"
            }
          ],
          "internalType": "struct ProviderRegistry.Provider",
          "name": "",
          "type": "tuple"
        }
      ],
      "stateMutability": "view",
      "type": "function"
    },
    {
      "inputs": [],
      "name": "getProviderCount",
      "outputs": [
        {
          "internalType": "uint256",
          "name": "",
          "type": "uint256"
        }
      ],
      "stateMutability": "view",
      "type": "function"
    },
    {
      "inputs": [
        {
          "internalType": "bytes32",
          "name": "role",
          "type": "bytes32"
        }
      ],
      "name": "getRoleAdmin",
      "outputs": [
        {
          "internalType": "bytes32",
          "name": "",
          "type": "bytes32"
        }
      ],
      "stateMutability": "view",
      "type": "function"
    },
    {
      "inputs": [
        {
          "internalType": "address",
          "name": "provider",
          "type": "address"
        }
      ],
      "name": "getTotalRewards",
      "outputs": [
        {
          "internalType": "uint256",
          "name": "",
          "type": "uint256"
        }
      ],
      "stateMutability": "view",
      "type": "function"
    },
    {
      "inputs": [
        {
          "internalType": "bytes32",
          "name": "role",
          "type": "bytes32"
        },
        {
          "internalType": "address",
          "name": "account",
          "type": "address"
        }
      ],
      "name": "grantRole",
      "outputs": [],
      "stateMutability": "nonpayable",
      "type": "function"
    },
    {
      "inputs": [
        {
          "internalType": "bytes32",
          "name": "role",
          "type": "bytes32"
        },
        {
          "internalType": "address",
          "name": "account",
          "type": "address"
        }
      ],
      "name": "hasRole",
      "outputs": [
        {
          "internalType": "bool",
          "name": "",
          "type": "bool"
        }
      ],
      "stateMutability": "view",
      "type": "function"
    },
    {
      "inputs": [
        {
          "internalType": "address",
          "name": "provider",
          "type": "address"
        }
      ],
      "name": "isProviderActive",
      "outputs": [
        {
          "internalType": "bool",
          "name": "",
          "type": "bool"
        }
      ],
      "stateMutability": "view",
      "type": "function"
    },
    {
      "inputs": [
        {
          "internalType": "address",
          "name": "",
          "type": "address"
        }
      ],
      "name": "jobRewards",
      "outputs": [
        {
          "internalType": "uint256",
          "name": "",
          "type": "uint256"
        }
      ],
      "stateMutability": "view",
      "type": "function"
    },
    {
      "inputs": [
        {
          "internalType": "address",
          "name": "",
          "type": "address"
        }
      ],
      "name": "pendingRewards",
      "outputs": [
        {
          "internalType": "uint256",
          "name": "",
          "type": "uint256"
        }
      ],
      "stateMutability": "view",
      "type": "function"
    },
    {
      "inputs": [
        {
          "internalType": "uint256",
          "name": "",
          "type": "uint256"
        }
      ],
      "name": "providerList",
      "outputs": [
        {
          "internalType": "address",
          "name": "",
          "type": "address"
        }
      ],
      "stateMutability": "view",
      "type": "function"
    },
    {
      "inputs": [
        {
          "internalType": "address",
          "name": "",
          "type": "address"
        }
      ],
      "name": "providers",
      "outputs": [
        {
          "internalType": "address",
          "name": "providerAddress",
          "type": "address"
        },
        {
          "internalType": "uint256",
          "name": "depositAmount",
          "type": "uint256"
        },
        {
          "internalType": "uint256",
          "name": "registeredAt",
          "type": "uint256"
        },
        {
          "internalType": "bool",
          "name": "isActive",
          "type": "bool"
        },
        {
          "internalType": "bool",
          "name": "autoRewardEnabled",
          "type": "bool"
        },
        {
          "internalType": "uint256",
          "name": "autoRewardGasDeposit",
          "type": "uint256"
        }
      ],
      "stateMutability": "view",
      "type": "function"
    },
    {
      "inputs": [],
      "name": "register",
      "outputs": [],
      "stateMutability": "payable",
      "type": "function"
    },
    {
      "inputs": [
        {
          "internalType": "bytes32",
          "name": "role",
          "type": "bytes32"
        },
        {
          "internalType": "address",
          "name": "callerConfirmation",
          "type": "address"
        }
      ],
      "name": "renounceRole",
      "outputs": [],
      "stateMutability": "nonpayable",
      "type": "function"
    },
    {
      "inputs": [
        {
          "internalType": "bytes32",
          "name": "role",
          "type": "bytes32"
        },
        {
          "internalType": "address",
          "name": "account",
          "type": "address"
        }
      ],
      "name": "revokeRole",
      "outputs": [],
      "stateMutability": "nonpayable",
      "type": "function"
    },
    {
      "inputs": [
        {
          "internalType": "bytes4",
          "name": "interfaceId",
          "type": "bytes4"
        }
      ],
      "name": "supportsInterface",
      "outputs": [
        {
          "internalType": "bool",
          "name": "",
          "type": "bool"
        }
      ],
      "stateMutability": "view",
      "type": "function"
    }
  ],
  "bytecode": "0x60a060405234801561001057600080fd5b5060405161170e38038061170e83398101604081905261002f91610183565b600180556001600160a01b03811661008d5760405162461bcd60e51b815260206004820181905260248201527f50726f766964657252656769737472793a20496e76616c696420636f6e666967604482015260640160405180910390fd5b6001600160a01b0381166080526100a56000336100d7565b506100d07f21702c8af46127c7fa207f89d0b0a8441bb32959a0ac7df790e9ab1a25c98926336100d7565b50506101b3565b6000828152602081815260408083206001600160a01b038516845290915281205460ff16610179576000838152602081815260408083206001600160a01b03861684529091529020805460ff191660011790556101313390565b6001600160a01b0316826001600160a01b0316847f2f8788117e7eff1d82e926ec794901d17c78024a50270940304540a733656f0d60405160405180910390a450600161017d565b5060005b92915050565b60006020828403121561019557600080fd5b81516001600160a01b03811681146101ac57600080fd5b9392505050565b6080516115396101d560003960008181610525015261077b01526115396000f3fe6080604052600436106101805760003560e01c806344ea559a116100d657806391d148541161007f578063bcd872b411610059578063bcd872b4146105ed578063c49baebe146105f5578063d547741f1461062957600080fd5b806391d1485414610574578063a217fddf146105b8578063bba9dc60146105cd57600080fd5b8063696724cb116100b0578063696724cb146104d757806379502c55146105135780637d6e47881461054757600080fd5b806344ea559a1461038d57806346ce4175146103ad57806355f21eb7146103c257600080fd5b80632f2ff15d11610138578063372500ab11610112578063372500ab1461032b578063390bfd3c146103405780633f6964151461037857600080fd5b80632f2ff15d146102be57806331d7a262146102de57806336568abe1461030b57600080fd5b80631aa3a008116101695780631aa3a00814610256578063248a9ca3146102605780632bcf161c1461029e57600080fd5b806301ffc9a7146101855780630787bc27146101ba575b600080fd5b34801561019157600080fd5b506101a56101a036600461139d565b610649565b60405190151581526020015b60405180910390f35b3480156101c657600080fd5b5061021b6101d5366004611402565b6002602081905260009182526040909120805460018201549282015460038301546004909301546001600160a01b039092169392909160ff808316926101009004169086565b604080516001600160a01b039097168752602087019590955293850192909252151560608401521515608083015260a082015260c0016101b1565b61025e6106e2565b005b34801561026c57600080fd5b5061029061027b36600461141d565b60009081526020819052604090206001015490565b6040519081526020016101b1565b3480156102aa57600080fd5b506102906102b9366004611402565b6109ed565b3480156102ca57600080fd5b5061025e6102d9366004611436565b610a1b565b3480156102ea57600080fd5b506102906102f9366004611402565b60046020526000908152604090205481565b34801561031757600080fd5b5061025e610326366004611436565b610a46565b34801561033757600080fd5b5061025e610a97565b34801561034c57600080fd5b5061036061035b36600461141d565b610beb565b6040516001600160a01b0390911681526020016101b1565b34801561038457600080fd5b5061025e610c15565b34801561039957600080fd5b5061025e6103a8366004611462565b610d77565b3480156103b957600080fd5b50600354610290565b3480156103ce57600080fd5b5061047e6103dd366004611402565b6040805160c081018252600080825260208201819052918101829052606081018290526080810182905260a0810191909152506001600160a01b03908116600090815260026020818152604092839020835160c081018552815490951685526001810154918501919091529081015491830191909152600381015460ff8082161515606085015261010090910416151560808301526004015460a082015290565b6040516101b19190600060c0820190506001600160a01b038351168252602083015160208301526040830151604083015260608301511515606083015260808301511515608083015260a083015160a083015292915050565b3480156104e357600080fd5b506101a56104f2366004611402565b6001600160a01b031660009081526002602052604090206003015460ff1690565b34801561051f57600080fd5b506103607f000000000000000000000000000000000000000000000000000000000000000081565b34801561055357600080fd5b50610290610562366004611402565b60056020526000908152604090205481565b34801561058057600080fd5b506101a561058f366004611436565b6000918252602082815260408084206001600160a01b0393909316845291905290205460ff1690565b3480156105c457600080fd5b50610290600081565b3480156105d957600080fd5b5061025e6105e8366004611402565b610ee4565b61025e610fa7565b34801561060157600080fd5b506102907f21702c8af46127c7fa207f89d0b0a8441bb32959a0ac7df790e9ab1a25c9892681565b34801561063557600080fd5b5061025e610644366004611436565b61118b565b60007fffffffff0000000000000000000000000000000000000000000000000000000082167f7965db0b0000000000000000000000000000000000000000000000000000000014806106dc57507f01ffc9a7000000000000000000000000000000000000000000000000000000007fffffffff000000000000000000000000000000000000000000000000000000008316145b92915050565b6106ea6111b0565b3360009081526002602052604090206003015460ff16156107775760405162461bcd60e51b8152602060048201526024808201527f50726f766964657252656769737472793a20416c72656164792072656769737460448201527f657265640000000000000000000000000000000000000000000000000000000060648201526084015b60405180910390fd5b60007f00000000000000000000000000000000000000000000000000000000000000006001600160a01b031663cedb60626040518163ffffffff1660e01b8152600401602060405180830381865afa1580156107d7573d6000803e3d6000fd5b505050506040513d601f19601f820116820180604052508101906107fb9190611495565b9050803410156108735760405162461bcd60e51b815260206004820152602660248201527f50726f766964657252656769737472793a20496e73756666696369656e74206460448201527f65706f7369740000000000000000000000000000000000000000000000000000606482015260840161076e565b6040805160c0810182523380825260208083018581524284860190815260016060860181815260006080880181815260a08901828152888352600297889052998220985189546001600160a01b03919091167fffffffffffffffffffffffff0000000000000000000000000000000000000000918216178a559551898501559351958801959095555160038088018054945115156101000261ff00199315159390931661ffff1990951694909417919091179092559551600490950194909455835494850184559290527fc2575a0e9e593c00f959f8c92f12db2869c3395a3b0502d05e2516446f71f85b90920180549091169091179055348110156109ab57336108fc61098183346114dd565b6040518115909202916000818181858888f193505050501580156109a9573d6000803e3d6000fd5b505b60405181815233907f90c9734131c1e4fb36cde2d71e6feb93fb258f71be8a85411c173d25e1516e80906020015b60405180910390a2506109eb60018055565b565b6001600160a01b03811660009081526005602090815260408083205460049092528220546106dc91906114f0565b600082815260208190526040902060010154610a36816111f3565b610a408383611200565b50505050565b6001600160a01b0381163314610a88576040517f6697b23200000000000000000000000000000000000000000000000000000000815260040160405180910390fd5b610a9282826112aa565b505050565b610a9f6111b0565b3360009081526002602052604090206003015460ff16610b015760405162461bcd60e51b815260206004820181905260248201527f50726f766964657252656769737472793a204e6f742072656769737465726564604482015260640161076e565b336000908152600560209081526040808320546004909252822054610b2691906114f0565b905060008111610b9e5760405162461bcd60e51b815260206004820152602560248201527f50726f766964657252656769737472793a204e6f207265776172647320746f2060448201527f636c61696d000000000000000000000000000000000000000000000000000000606482015260840161076e565b336000818152600460209081526040808320839055600582528083209290925590518381527f106f923f993c2149d49b4255ff723acafa1f2d94393f561d3eda32ae348f724191016109d9565b60038181548110610bfb57600080fd5b6000918252602090912001546001600160a01b0316905081565b610c1d6111b0565b3360009081526002602052604090206003015460ff16610c7f5760405162461bcd60e51b815260206004820181905260248201527f50726f766964657252656769737472793a204e6f742072656769737465726564604482015260640161076e565b33600090815260026020526040902060030154610100900460ff16610ce65760405162461bcd60e51b815260206004820152601d60248201527f50726f766964657252656769737472793a204e6f7420656e61626c6564000000604482015260640161076e565b3360009081526002602052604081206004810180546003909201805461ff0019169055919091558015610d4257604051339082156108fc029083906000818181858888f19350505050158015610d40573d6000803e3d6000fd5b505b60405133907fbcbe984e6da5956c606998f9d9483974497744e9463715c973ea8a0528bf635c90600090a2506109eb60018055565b7f21702c8af46127c7fa207f89d0b0a8441bb32959a0ac7df790e9ab1a25c98926610da1816111f3565b6001600160a01b03841660009081526002602052604090206003015460ff16610e325760405162461bcd60e51b815260206004820152602560248201527f50726f766964657252656769737472793a2050726f7669646572206e6f74206160448201527f6374697665000000000000000000000000000000000000000000000000000000606482015260840161076e565b8215610e66576001600160a01b03841660009081526004602052604081208054859290610e609084906114f0565b90915550505b8115610e9a576001600160a01b03841660009081526005602052604081208054849290610e949084906114f0565b90915550505b60408051848152602081018490526001600160a01b038616917f6a6f77044107a33658235d41bedbbaf2fe9ccdceb313143c947a5e76e1ec8474910160405180910390a250505050565b6000610eef816111f3565b6001600160a01b03821660009081526002602052604090206003015460ff16610f5a5760405162461bcd60e51b815260206004820152601c60248201527f50726f766964657252656769737472793a204e6f742061637469766500000000604482015260640161076e565b6001600160a01b038216600081815260026020526040808220600301805460ff19169055517f3584a4db7306d80246748a1c4bc6188505b8053684afee0c79670dade4db205c9190a25050565b610faf6111b0565b3360009081526002602052604090206003015460ff166110115760405162461bcd60e51b815260206004820181905260248201527f50726f766964657252656769737472793a204e6f742072656769737465726564604482015260640161076e565b33600090815260026020526040902060030154610100900460ff161561109f5760405162461bcd60e51b815260206004820152602160248201527f50726f766964657252656769737472793a20416c726561647920656e61626c6560448201527f6400000000000000000000000000000000000000000000000000000000000000606482015260840161076e565b600034116111155760405162461bcd60e51b815260206004820152602660248201527f50726f766964657252656769737472793a20476173206465706f73697420726560448201527f7175697265640000000000000000000000000000000000000000000000000000606482015260840161076e565b33600090815260026020526040812060038101805461ff00191661010017905560040180543492906111489084906114f0565b909155505060405134815233907fa0b50678b9078c7d5db8fcba884ffb7ee915e388295d8e453b438b66810654a19060200160405180910390a26109eb60018055565b6000828152602081905260409020600101546111a6816111f3565b610a4083836112aa565b6002600154036111ec576040517f3ee5aeb500000000000000000000000000000000000000000000000000000000815260040160405180910390fd5b6002600155565b6111fd813361132d565b50565b6000828152602081815260408083206001600160a01b038516845290915281205460ff166112a2576000838152602081815260408083206001600160a01b03861684529091529020805460ff1916600117905561125a3390565b6001600160a01b0316826001600160a01b0316847f2f8788117e7eff1d82e926ec794901d17c78024a50270940304540a733656f0d60405160405180910390a45060016106dc565b5060006106dc565b6000828152602081815260408083206001600160a01b038516845290915281205460ff16156112a2576000838152602081815260408083206001600160a01b0386168085529252808320805460ff1916905551339286917ff6391f5c32d9c69d2a47ea670b442974b53935d1edc7fd64eb21e047a839171b9190a45060016106dc565b6000828152602081815260408083206001600160a01b038516845290915290205460ff16611399576040517fe2517d3f0000000000000000000000000000000000000000000000000000000081526001600160a01b03821660048201526024810183905260440161076e565b5050565b6000602082840312156113af57600080fd5b81357fffffffff00000000000000000000000000000000000000000000000000000000811681146113df57600080fd5b9392505050565b80356001600160a01b03811681146113fd57600080fd5b919050565b60006020828403121561141457600080fd5b6113df826113e6565b60006020828403121561142f57600080fd5b5035919050565b6000806040838503121561144957600080fd5b82359150611459602084016113e6565b90509250929050565b60008060006060848603121561147757600080fd5b611480846113e6565b95602085013595506040909401359392505050565b6000602082840312156114a757600080fd5b5051919050565b7f4e487b7100000000000000000000000000000000000000000000000000000000600052601160045260246000fd5b818103818111156106dc576106dc6114ae565b808201808211156106dc576106dc6114ae56fea26469706673582212207dc8c484a0f7872db4c9702ab9c7655ccec9fe3b87701d1804c66f06a9d2222164736f6c634300081c0033",
  "linkReferences": {},
  "deployedLinkReferences": {}
}