{
  "_format": "hh-sol-artifact-1",
  "contractName": "ProviderRegistry",
  "sourceName": "contracts/ProviderRegistry.sol",
  "abi": [
    {
      "inputs": [
        {
          "internalType": "address",
          "name": "_cldToken",
          "type": "address"
        },
        {
          "internalType": "address",
          "name": "_teamWallet",
          "type": "address"
        },
        {
          "internalType": "address",
          "name": "_treasuryWallet",
          "type": "address"
        }
      ],
      "stateMutability": "nonpayable",
      "type": "constructor"
    },
    {
      "inputs": [],
      "name": "AccessControlBadConfirmation",
      "type": "error"
    },
    {
      "inputs": [
        {
          "internalType": "address",
          "name": "account",
          "type": "address"
        },
        {
          "internalType": "bytes32",
          "name": "neededRole",
          "type": "bytes32"
        }
      ],
      "name": "AccessControlUnauthorizedAccount",
      "type": "error"
    },
    {
      "inputs": [
        {
          "internalType": "uint256",
          "name": "required",
          "type": "uint256"
        },
        {
          "internalType": "uint256",
          "name": "allowance",
          "type": "uint256"
        }
      ],
      "name": "InsufficientAllowance",
      "type": "error"
    },
    {
      "inputs": [
        {
          "internalType": "uint256",
          "name": "required",
          "type": "uint256"
        },
        {
          "internalType": "uint256",
          "name": "available",
          "type": "uint256"
        }
      ],
      "name": "InsufficientBalance",
      "type": "error"
    },
    {
      "inputs": [],
      "name": "InvalidIPFSCID",
      "type": "error"
    },
    {
      "inputs": [],
      "name": "InvalidPubKeyHash",
      "type": "error"
    },
    {
      "inputs": [
        {
          "internalType": "address",
          "name": "owner",
          "type": "address"
        }
      ],
      "name": "MaxProvidersReached",
      "type": "error"
    },
    {
      "inputs": [
        {
          "internalType": "address",
          "name": "caller",
          "type": "address"
        },
        {
          "internalType": "address",
          "name": "owner",
          "type": "address"
        }
      ],
      "name": "NotProviderOwner",
      "type": "error"
    },
    {
      "inputs": [
        {
          "internalType": "bytes32",
          "name": "pubKeyHash",
          "type": "bytes32"
        }
      ],
      "name": "ProviderAlreadyExists",
      "type": "error"
    },
    {
      "inputs": [
        {
          "internalType": "bytes32",
          "name": "pubKeyHash",
          "type": "bytes32"
        }
      ],
      "name": "ProviderNotFound",
      "type": "error"
    },
    {
      "anonymous": false,
      "inputs": [
        {
          "indexed": true,
          "internalType": "address",
          "name": "owner",
          "type": "address"
        },
        {
          "indexed": true,
          "internalType": "bytes32",
          "name": "pubKeyHash",
          "type": "bytes32"
        },
        {
          "indexed": false,
          "internalType": "string",
          "name": "ipfsCID",
          "type": "string"
        },
        {
          "indexed": false,
          "internalType": "uint256",
          "name": "bondAmount",
          "type": "uint256"
        }
      ],
      "name": "ProviderRegistered",
      "type": "event"
    },
    {
      "anonymous": false,
      "inputs": [
        {
          "indexed": true,
          "internalType": "bytes32",
          "name": "pubKeyHash",
          "type": "bytes32"
        },
        {
          "indexed": false,
          "internalType": "enum ProviderRegistry.ProviderStatus",
          "name": "status",
          "type": "uint8"
        }
      ],
      "name": "ProviderStatusUpdated",
      "type": "event"
    },
    {
      "anonymous": false,
      "inputs": [
        {
          "indexed": true,
          "internalType": "bytes32",
          "name": "role",
          "type": "bytes32"
        },
        {
          "indexed": true,
          "internalType": "bytes32",
          "name": "previousAdminRole",
          "type": "bytes32"
        },
        {
          "indexed": true,
          "internalType": "bytes32",
          "name": "newAdminRole",
          "type": "bytes32"
        }
      ],
      "name": "RoleAdminChanged",
      "type": "event"
    },
    {
      "anonymous": false,
      "inputs": [
        {
          "indexed": true,
          "internalType": "bytes32",
          "name": "role",
          "type": "bytes32"
        },
        {
          "indexed": true,
          "internalType": "address",
          "name": "account",
          "type": "address"
        },
        {
          "indexed": true,
          "internalType": "address",
          "name": "sender",
          "type": "address"
        }
      ],
      "name": "RoleGranted",
      "type": "event"
    },
    {
      "anonymous": false,
      "inputs": [
        {
          "indexed": true,
          "internalType": "bytes32",
          "name": "role",
          "type": "bytes32"
        },
        {
          "indexed": true,
          "internalType": "address",
          "name": "account",
          "type": "address"
        },
        {
          "indexed": true,
          "internalType": "address",
          "name": "sender",
          "type": "address"
        }
      ],
      "name": "RoleRevoked",
      "type": "event"
    },
    {
      "inputs": [],
      "name": "DEFAULT_ADMIN_ROLE",
      "outputs": [
        {
          "internalType": "bytes32",
          "name": "",
          "type": "bytes32"
        }
      ],
      "stateMutability": "view",
      "type": "function"
    },
    {
      "inputs": [],
      "name": "MAX_PROVIDERS_PER_OWNER",
      "outputs": [
        {
          "internalType": "uint8",
          "name": "",
          "type": "uint8"
        }
      ],
      "stateMutability": "view",
      "type": "function"
    },
    {
      "inputs": [],
      "name": "STATIC_BOND",
      "outputs": [
        {
          "internalType": "uint256",
          "name": "",
          "type": "uint256"
        }
      ],
      "stateMutability": "view",
      "type": "function"
    },
    {
      "inputs": [],
      "name": "TEAM_PERCENT",
      "outputs": [
        {
          "internalType": "uint256",
          "name": "",
          "type": "uint256"
        }
      ],
      "stateMutability": "view",
      "type": "function"
    },
    {
      "inputs": [],
      "name": "TREASURY_PERCENT",
      "outputs": [
        {
          "internalType": "uint256",
          "name": "",
          "type": "uint256"
        }
      ],
      "stateMutability": "view",
      "type": "function"
    },
    {
      "inputs": [],
      "name": "cldToken",
      "outputs": [
        {
          "internalType": "contract CLDToken",
          "name": "",
          "type": "address"
        }
      ],
      "stateMutability": "view",
      "type": "function"
    },
    {
      "inputs": [],
      "name": "getBondInfo",
      "outputs": [
        {
          "internalType": "uint256",
          "name": "",
          "type": "uint256"
        }
      ],
      "stateMutability": "pure",
      "type": "function"
    },
    {
      "inputs": [
        {
          "internalType": "address",
          "name": "owner",
          "type": "address"
        }
      ],
      "name": "getMyProviders",
      "outputs": [
        {
          "internalType": "bytes32[]",
          "name": "",
          "type": "bytes32[]"
        }
      ],
      "stateMutability": "view",
      "type": "function"
    },
    {
      "inputs": [
        {
          "internalType": "bytes32",
          "name": "pubKeyHash",
          "type": "bytes32"
        }
      ],
      "name": "getProvider",
      "outputs": [
        {
          "components": [
            {
              "internalType": "address",
              "name": "owner",
              "type": "address"
            },
            {
              "internalType": "bytes32",
              "name": "pubKeyHash",
              "type": "bytes32"
            },
            {
              "internalType": "string",
              "name": "ipfsCID",
              "type": "string"
            },
            {
              "internalType": "uint96",
              "name": "bondAmount",
              "type": "uint96"
            },
            {
              "internalType": "uint64",
              "name": "registeredAt",
              "type": "uint64"
            },
            {
              "internalType": "enum ProviderRegistry.ProviderStatus",
              "name": "status",
              "type": "uint8"
            }
          ],
          "internalType": "struct ProviderRegistry.Provider",
          "name": "",
          "type": "tuple"
        }
      ],
      "stateMutability": "view",
      "type": "function"
    },
    {
      "inputs": [
        {
          "internalType": "bytes32",
          "name": "role",
          "type": "bytes32"
        }
      ],
      "name": "getRoleAdmin",
      "outputs": [
        {
          "internalType": "bytes32",
          "name": "",
          "type": "bytes32"
        }
      ],
      "stateMutability": "view",
      "type": "function"
    },
    {
      "inputs": [
        {
          "internalType": "bytes32",
          "name": "role",
          "type": "bytes32"
        },
        {
          "internalType": "address",
          "name": "account",
          "type": "address"
        }
      ],
      "name": "grantRole",
      "outputs": [],
      "stateMutability": "nonpayable",
      "type": "function"
    },
    {
      "inputs": [
        {
          "internalType": "bytes32",
          "name": "role",
          "type": "bytes32"
        },
        {
          "internalType": "address",
          "name": "account",
          "type": "address"
        }
      ],
      "name": "hasRole",
      "outputs": [
        {
          "internalType": "bool",
          "name": "",
          "type": "bool"
        }
      ],
      "stateMutability": "view",
      "type": "function"
    },
    {
      "inputs": [
        {
          "internalType": "address",
          "name": "",
          "type": "address"
        },
        {
          "internalType": "uint256",
          "name": "",
          "type": "uint256"
        }
      ],
      "name": "ownerNodes",
      "outputs": [
        {
          "internalType": "bytes32",
          "name": "",
          "type": "bytes32"
        }
      ],
      "stateMutability": "view",
      "type": "function"
    },
    {
      "inputs": [
        {
          "internalType": "bytes32",
          "name": "",
          "type": "bytes32"
        }
      ],
      "name": "providers",
      "outputs": [
        {
          "internalType": "address",
          "name": "owner",
          "type": "address"
        },
        {
          "internalType": "bytes32",
          "name": "pubKeyHash",
          "type": "bytes32"
        },
        {
          "internalType": "string",
          "name": "ipfsCID",
          "type": "string"
        },
        {
          "internalType": "uint96",
          "name": "bondAmount",
          "type": "uint96"
        },
        {
          "internalType": "uint64",
          "name": "registeredAt",
          "type": "uint64"
        },
        {
          "internalType": "enum ProviderRegistry.ProviderStatus",
          "name": "status",
          "type": "uint8"
        }
      ],
      "stateMutability": "view",
      "type": "function"
    },
    {
      "inputs": [
        {
          "internalType": "bytes32",
          "name": "pubKeyHash",
          "type": "bytes32"
        },
        {
          "internalType": "string",
          "name": "ipfsCID",
          "type": "string"
        }
      ],
      "name": "registerProvider",
      "outputs": [],
      "stateMutability": "nonpayable",
      "type": "function"
    },
    {
      "inputs": [
        {
          "internalType": "bytes32",
          "name": "role",
          "type": "bytes32"
        },
        {
          "internalType": "address",
          "name": "callerConfirmation",
          "type": "address"
        }
      ],
      "name": "renounceRole",
      "outputs": [],
      "stateMutability": "nonpayable",
      "type": "function"
    },
    {
      "inputs": [
        {
          "internalType": "bytes32",
          "name": "role",
          "type": "bytes32"
        },
        {
          "internalType": "address",
          "name": "account",
          "type": "address"
        }
      ],
      "name": "revokeRole",
      "outputs": [],
      "stateMutability": "nonpayable",
      "type": "function"
    },
    {
      "inputs": [
        {
          "internalType": "bytes4",
          "name": "interfaceId",
          "type": "bytes4"
        }
      ],
      "name": "supportsInterface",
      "outputs": [
        {
          "internalType": "bool",
          "name": "",
          "type": "bool"
        }
      ],
      "stateMutability": "view",
      "type": "function"
    },
    {
      "inputs": [],
      "name": "teamWallet",
      "outputs": [
        {
          "internalType": "address",
          "name": "",
          "type": "address"
        }
      ],
      "stateMutability": "view",
      "type": "function"
    },
    {
      "inputs": [],
      "name": "treasuryWallet",
      "outputs": [
        {
          "internalType": "address",
          "name": "",
          "type": "address"
        }
      ],
      "stateMutability": "view",
      "type": "function"
    },
    {
      "inputs": [
        {
          "internalType": "bytes32",
          "name": "pubKeyHash",
          "type": "bytes32"
        },
        {
          "internalType": "enum ProviderRegistry.ProviderStatus",
          "name": "status",
          "type": "uint8"
        }
      ],
      "name": "updateProviderStatus",
      "outputs": [],
      "stateMutability": "nonpayable",
      "type": "function"
    }
  ],
  "bytecode": "0x60e06040523480156200001157600080fd5b50604051620017473803806200174783398101604081905262000034916200012c565b6200004160003362000060565b506001600160a01b0392831660805290821660a0521660c05262000176565b6000828152602081815260408083206001600160a01b038516845290915281205460ff1662000105576000838152602081815260408083206001600160a01b03861684529091529020805460ff19166001179055620000bc3390565b6001600160a01b0316826001600160a01b0316847f2f8788117e7eff1d82e926ec794901d17c78024a50270940304540a733656f0d60405160405180910390a450600162000109565b5060005b92915050565b80516001600160a01b03811681146200012757600080fd5b919050565b6000806000606084860312156200014257600080fd5b6200014d846200010f565b92506200015d602085016200010f565b91506200016d604085016200010f565b90509250925092565b60805160a05160c051611570620001d76000396000818161028c01526108800152600081816102bc01526107c70152600081816101d40152818161054601528181610615015281816106f0015281816107f901526108af01526115706000f3fe608060405234801561001057600080fd5b50600436106101375760003560e01c80634626402b116100b857806383d5e7261161007c57806383d5e7261461030857806391d1485414610311578063a217fddf14610324578063a4b104b81461032c578063d5070b3e1461033f578063d547741f1461034e57600080fd5b80634626402b146102875780634c186197146102ae57806359927044146102b75780636597c96a146102de5780637c546fe1146102f857600080fd5b80632f2ff15d116100ff5780632f2ff15d1461020e57806333440cb61461022157806333c0950a1461023457806336568abe1461025457806345159fb91461026757600080fd5b806301ffc9a71461013c5780631acc050e146101645780632298b16a14610189578063248a9ca31461019e578063285922e7146101cf575b600080fd5b61014f61014a366004610fef565b610361565b60405190151581526020015b60405180910390f35b610177610172366004611020565b610398565b60405161015b969594939291906110b7565b61019c610197366004611117565b61047e565b005b6101c16101ac366004611020565b60009081526020819052604090206001015490565b60405190815260200161015b565b6101f67f000000000000000000000000000000000000000000000000000000000000000081565b6040516001600160a01b03909116815260200161015b565b61019c61021c3660046111af565b610ac8565b61019c61022f3660046111db565b610af3565b610247610242366004611020565b610be8565b60405161015b919061120f565b61019c6102623660046111af565b610d85565b61027a61027536600461128a565b610dbd565b60405161015b91906112a5565b6101f67f000000000000000000000000000000000000000000000000000000000000000081565b6101c16107d081565b6101f67f000000000000000000000000000000000000000000000000000000000000000081565b6102e6600a81565b60405160ff909116815260200161015b565b6101c1683635c9adc5dea0000081565b6101c1611f4081565b61014f61031f3660046111af565b610e29565b6101c1600081565b6101c161033a3660046112e9565b610e52565b683635c9adc5dea000006101c1565b61019c61035c3660046111af565b610e83565b60006001600160e01b03198216637965db0b60e01b148061039257506301ffc9a760e01b6001600160e01b03198316145b92915050565b60016020819052600091825260409091208054918101546002820180546001600160a01b03909416939192916103cd90611313565b80601f01602080910402602001604051908101604052809291908181526020018280546103f990611313565b80156104465780601f1061041b57610100808354040283529160200191610446565b820191906000526020600020905b81548152906001019060200180831161042957829003601f168201915b505050600390930154919250506001600160601b0381169067ffffffffffffffff600160601b8204169060ff600160a01b9091041686565b8261049c576040516356b6133160e11b815260040160405180910390fd5b6000838152600160205260409020546001600160a01b0316156104da576040516366adec8b60e11b8152600481018490526024015b60405180910390fd5b33600090815260026020526040902054600a1161050c57604051632cd5fbe560e01b81523360048201526024016104d1565b600081900361052e576040516321d094fb60e21b815260040160405180910390fd5b6040516370a0823160e01b81523360048201526000907f00000000000000000000000000000000000000000000000000000000000000006001600160a01b0316906370a0823190602401602060405180830381865afa158015610595573d6000803e3d6000fd5b505050506040513d601f19601f820116820180604052508101906105b9919061134d565b9050683635c9adc5dea000008110156105f75760405163cf47918160e01b8152683635c9adc5dea000006004820152602481018290526044016104d1565b604051636eb1769f60e11b81523360048201523060248201526000907f00000000000000000000000000000000000000000000000000000000000000006001600160a01b03169063dd62ed3e90604401602060405180830381865afa158015610664573d6000803e3d6000fd5b505050506040513d601f19601f82011682018060405250810190610688919061134d565b9050683635c9adc5dea000008110156106c65760405163054365bb60e31b8152683635c9adc5dea000006004820152602481018290526044016104d1565b6040516323b872dd60e01b8152336004820152306024820152683635c9adc5dea0000060448201527f00000000000000000000000000000000000000000000000000000000000000006001600160a01b0316906323b872dd906064016020604051808303816000875af1158015610741573d6000803e3d6000fd5b505050506040513d601f19601f820116820180604052508101906107659190611366565b5060006127106107806107d0683635c9adc5dea00000611388565b61078a91906113ad565b905060006127106107a6611f40683635c9adc5dea00000611388565b6107b091906113ad565b60405163a9059cbb60e01b81526001600160a01b037f000000000000000000000000000000000000000000000000000000000000000081166004830152602482018590529192507f00000000000000000000000000000000000000000000000000000000000000009091169063a9059cbb906044016020604051808303816000875af1158015610844573d6000803e3d6000fd5b505050506040513d601f19601f820116820180604052508101906108689190611366565b5060405163a9059cbb60e01b81526001600160a01b037f000000000000000000000000000000000000000000000000000000000000000081166004830152602482018390527f0000000000000000000000000000000000000000000000000000000000000000169063a9059cbb906044016020604051808303816000875af11580156108f8573d6000803e3d6000fd5b505050506040513d601f19601f8201168201806040525081019061091c9190611366565b506040518060c00160405280336001600160a01b0316815260200188815260200187878080601f01602080910402602001604051908101604052809392919081815260200183838082843760009201829052509385525050683635c9adc5dea0000060208401525067ffffffffffffffff42166040830152606090910152600088815260016020818152604092839020845181546001600160a01b0319166001600160a01b0390911617815590840151918101919091559082015160028201906109e69082611433565b506060820151600382018054608085015167ffffffffffffffff16600160601b026001600160a01b03199091166001600160601b03909316929092179190911780825560a0840151919060ff60a01b1916600160a01b836002811115610a4e57610a4e61107f565b021790555050336000818152600260209081526040808320805460018101825590845291909220018a9055518992507f3f4e827ee92482a65532180c155eeac340ba8e5a5658b7bf601147f8df65d5b390610ab7908a908a90683635c9adc5dea00000906114f3565b60405180910390a350505050505050565b600082815260208190526040902060010154610ae381610ea8565b610aed8383610eb5565b50505050565b600082815260016020526040902080546001600160a01b0316610b2b5760405162b4805560e71b8152600481018490526024016104d1565b80546001600160a01b03163314801590610b4d5750610b4b600033610e29565b155b15610b7f578054604051635a3c9c3b60e11b81523360048201526001600160a01b0390911660248201526044016104d1565b60038101805483919060ff60a01b1916600160a01b836002811115610ba657610ba661107f565b0217905550827f8f917e90a32b378f51e4c96a66565e19160e427fb0878310a6c52aeb9c32bf3983604051610bdb919061152c565b60405180910390a2505050565b610c1f6040805160c0810182526000808252602082018190526060928201839052918101829052608081018290529060a082015290565b6000828152600160205260409020546001600160a01b0316610c565760405162b4805560e71b8152600481018390526024016104d1565b600082815260016020818152604092839020835160c08101855281546001600160a01b0316815292810154918301919091526002810180549293919291840191610c9f90611313565b80601f0160208091040260200160405190810160405280929190818152602001828054610ccb90611313565b8015610d185780601f10610ced57610100808354040283529160200191610d18565b820191906000526020600020905b815481529060010190602001808311610cfb57829003601f168201915b505050918352505060038201546001600160601b0381166020830152600160601b810467ffffffffffffffff166040830152606090910190600160a01b900460ff166002811115610d6b57610d6b61107f565b6002811115610d7c57610d7c61107f565b90525092915050565b6001600160a01b0381163314610dae5760405163334bd91960e11b815260040160405180910390fd5b610db88282610f47565b505050565b6001600160a01b038116600090815260026020908152604091829020805483518184028101840190945280845260609392830182828015610e1d57602002820191906000526020600020905b815481526020019060010190808311610e09575b50505050509050919050565b6000918252602082815260408084206001600160a01b0393909316845291905290205460ff1690565b60026020528160005260406000208181548110610e6e57600080fd5b90600052602060002001600091509150505481565b600082815260208190526040902060010154610e9e81610ea8565b610aed8383610f47565b610eb28133610fb2565b50565b6000610ec18383610e29565b610f3f576000838152602081815260408083206001600160a01b03861684529091529020805460ff19166001179055610ef73390565b6001600160a01b0316826001600160a01b0316847f2f8788117e7eff1d82e926ec794901d17c78024a50270940304540a733656f0d60405160405180910390a4506001610392565b506000610392565b6000610f538383610e29565b15610f3f576000838152602081815260408083206001600160a01b0386168085529252808320805460ff1916905551339286917ff6391f5c32d9c69d2a47ea670b442974b53935d1edc7fd64eb21e047a839171b9190a4506001610392565b610fbc8282610e29565b610feb5760405163e2517d3f60e01b81526001600160a01b0382166004820152602481018390526044016104d1565b5050565b60006020828403121561100157600080fd5b81356001600160e01b03198116811461101957600080fd5b9392505050565b60006020828403121561103257600080fd5b5035919050565b6000815180845260005b8181101561105f57602081850181015186830182015201611043565b506000602082860101526020601f19601f83011685010191505092915050565b634e487b7160e01b600052602160045260246000fd5b600381106110b357634e487b7160e01b600052602160045260246000fd5b9052565b60018060a01b038716815285602082015260c0604082015260006110de60c0830187611039565b90506001600160601b038516606083015267ffffffffffffffff8416608083015261110c60a0830184611095565b979650505050505050565b60008060006040848603121561112c57600080fd5b83359250602084013567ffffffffffffffff8082111561114b57600080fd5b818601915086601f83011261115f57600080fd5b81358181111561116e57600080fd5b87602082850101111561118057600080fd5b6020830194508093505050509250925092565b80356001600160a01b03811681146111aa57600080fd5b919050565b600080604083850312156111c257600080fd5b823591506111d260208401611193565b90509250929050565b600080604083850312156111ee57600080fd5b8235915060208301356003811061120457600080fd5b809150509250929050565b6020815260018060a01b038251166020820152602082015160408201526000604083015160c0606084015261124760e0840182611039565b90506001600160601b03606085015116608084015267ffffffffffffffff60808501511660a084015260a084015161128260c0850182611095565b509392505050565b60006020828403121561129c57600080fd5b61101982611193565b6020808252825182820181905260009190848201906040850190845b818110156112dd578351835292840192918401916001016112c1565b50909695505050505050565b600080604083850312156112fc57600080fd5b61130583611193565b946020939093013593505050565b600181811c9082168061132757607f821691505b60208210810361134757634e487b7160e01b600052602260045260246000fd5b50919050565b60006020828403121561135f57600080fd5b5051919050565b60006020828403121561137857600080fd5b8151801515811461101957600080fd5b808202811582820484141761039257634e487b7160e01b600052601160045260246000fd5b6000826113ca57634e487b7160e01b600052601260045260246000fd5b500490565b634e487b7160e01b600052604160045260246000fd5b601f821115610db857600081815260208120601f850160051c8101602086101561140c5750805b601f850160051c820191505b8181101561142b57828155600101611418565b505050505050565b815167ffffffffffffffff81111561144d5761144d6113cf565b6114618161145b8454611313565b846113e5565b602080601f831160018114611496576000841561147e5750858301515b600019600386901b1c1916600185901b17855561142b565b600085815260208120601f198616915b828110156114c5578886015182559484019460019091019084016114a6565b50858210156114e35787850151600019600388901b60f8161c191681555b5050505050600190811b01905550565b604081528260408201528284606083013760006060848301015260006060601f19601f8601168301019050826020830152949350505050565b60208101610392828461109556fea26469706673582212203dc9673ca871e93ffe9b0df9c91dcf876d5aea820c1d5e285d90417db7c8642664736f6c63430008140033",
  "linkReferences": {},
  "deployedLinkReferences": {}
}