{
  "_format": "hh-sol-artifact-1",
  "contractName": "ProviderRegistry",
  "sourceName": "contracts/ProviderRegistry.sol",
  "abi": [
    {
      "inputs": [
        {
          "internalType": "address",
          "name": "_cldToken",
          "type": "address"
        }
      ],
      "stateMutability": "nonpayable",
      "type": "constructor"
    },
    {
      "inputs": [],
      "name": "AccessControlBadConfirmation",
      "type": "error"
    },
    {
      "inputs": [
        {
          "internalType": "address",
          "name": "account",
          "type": "address"
        },
        {
          "internalType": "bytes32",
          "name": "neededRole",
          "type": "bytes32"
        }
      ],
      "name": "AccessControlUnauthorizedAccount",
      "type": "error"
    },
    {
      "inputs": [],
      "name": "InvalidBurnAmount",
      "type": "error"
    },
    {
      "inputs": [
        {
          "internalType": "address",
          "name": "caller",
          "type": "address"
        },
        {
          "internalType": "address",
          "name": "owner",
          "type": "address"
        }
      ],
      "name": "NotProviderOwner",
      "type": "error"
    },
    {
      "inputs": [
        {
          "internalType": "address",
          "name": "provider",
          "type": "address"
        }
      ],
      "name": "ProviderAlreadyRegistered",
      "type": "error"
    },
    {
      "inputs": [
        {
          "internalType": "address",
          "name": "provider",
          "type": "address"
        }
      ],
      "name": "ProviderNotRegistered",
      "type": "error"
    },
    {
      "anonymous": false,
      "inputs": [
        {
          "indexed": true,
          "internalType": "address",
          "name": "owner",
          "type": "address"
        },
        {
          "indexed": true,
          "internalType": "bytes32",
          "name": "metaHash",
          "type": "bytes32"
        }
      ],
      "name": "ProviderMetaUpdated",
      "type": "event"
    },
    {
      "anonymous": false,
      "inputs": [
        {
          "indexed": true,
          "internalType": "address",
          "name": "owner",
          "type": "address"
        },
        {
          "indexed": true,
          "internalType": "bytes32",
          "name": "metaHash",
          "type": "bytes32"
        },
        {
          "indexed": false,
          "internalType": "uint256",
          "name": "burnedAmount",
          "type": "uint256"
        }
      ],
      "name": "ProviderRegistered",
      "type": "event"
    },
    {
      "anonymous": false,
      "inputs": [
        {
          "indexed": true,
          "internalType": "address",
          "name": "owner",
          "type": "address"
        },
        {
          "indexed": false,
          "internalType": "bool",
          "name": "active",
          "type": "bool"
        }
      ],
      "name": "ProviderStatusChanged",
      "type": "event"
    },
    {
      "anonymous": false,
      "inputs": [
        {
          "indexed": true,
          "internalType": "bytes32",
          "name": "role",
          "type": "bytes32"
        },
        {
          "indexed": true,
          "internalType": "bytes32",
          "name": "previousAdminRole",
          "type": "bytes32"
        },
        {
          "indexed": true,
          "internalType": "bytes32",
          "name": "newAdminRole",
          "type": "bytes32"
        }
      ],
      "name": "RoleAdminChanged",
      "type": "event"
    },
    {
      "anonymous": false,
      "inputs": [
        {
          "indexed": true,
          "internalType": "bytes32",
          "name": "role",
          "type": "bytes32"
        },
        {
          "indexed": true,
          "internalType": "address",
          "name": "account",
          "type": "address"
        },
        {
          "indexed": true,
          "internalType": "address",
          "name": "sender",
          "type": "address"
        }
      ],
      "name": "RoleGranted",
      "type": "event"
    },
    {
      "anonymous": false,
      "inputs": [
        {
          "indexed": true,
          "internalType": "bytes32",
          "name": "role",
          "type": "bytes32"
        },
        {
          "indexed": true,
          "internalType": "address",
          "name": "account",
          "type": "address"
        },
        {
          "indexed": true,
          "internalType": "address",
          "name": "sender",
          "type": "address"
        }
      ],
      "name": "RoleRevoked",
      "type": "event"
    },
    {
      "inputs": [],
      "name": "DEFAULT_ADMIN_ROLE",
      "outputs": [
        {
          "internalType": "bytes32",
          "name": "",
          "type": "bytes32"
        }
      ],
      "stateMutability": "view",
      "type": "function"
    },
    {
      "inputs": [],
      "name": "cldToken",
      "outputs": [
        {
          "internalType": "contract CLDToken",
          "name": "",
          "type": "address"
        }
      ],
      "stateMutability": "view",
      "type": "function"
    },
    {
      "inputs": [
        {
          "internalType": "address",
          "name": "owner",
          "type": "address"
        }
      ],
      "name": "getProvider",
      "outputs": [
        {
          "components": [
            {
              "internalType": "address",
              "name": "owner",
              "type": "address"
            },
            {
              "internalType": "bool",
              "name": "active",
              "type": "bool"
            },
            {
              "internalType": "bytes32",
              "name": "metaHash",
              "type": "bytes32"
            },
            {
              "internalType": "uint64",
              "name": "createdAt",
              "type": "uint64"
            }
          ],
          "internalType": "struct ProviderRegistry.Provider",
          "name": "",
          "type": "tuple"
        }
      ],
      "stateMutability": "view",
      "type": "function"
    },
    {
      "inputs": [
        {
          "internalType": "bytes32",
          "name": "role",
          "type": "bytes32"
        }
      ],
      "name": "getRoleAdmin",
      "outputs": [
        {
          "internalType": "bytes32",
          "name": "",
          "type": "bytes32"
        }
      ],
      "stateMutability": "view",
      "type": "function"
    },
    {
      "inputs": [
        {
          "internalType": "bytes32",
          "name": "role",
          "type": "bytes32"
        },
        {
          "internalType": "address",
          "name": "account",
          "type": "address"
        }
      ],
      "name": "grantRole",
      "outputs": [],
      "stateMutability": "nonpayable",
      "type": "function"
    },
    {
      "inputs": [
        {
          "internalType": "bytes32",
          "name": "role",
          "type": "bytes32"
        },
        {
          "internalType": "address",
          "name": "account",
          "type": "address"
        }
      ],
      "name": "hasRole",
      "outputs": [
        {
          "internalType": "bool",
          "name": "",
          "type": "bool"
        }
      ],
      "stateMutability": "view",
      "type": "function"
    },
    {
      "inputs": [
        {
          "internalType": "address",
          "name": "",
          "type": "address"
        }
      ],
      "name": "providers",
      "outputs": [
        {
          "internalType": "address",
          "name": "owner",
          "type": "address"
        },
        {
          "internalType": "bool",
          "name": "active",
          "type": "bool"
        },
        {
          "internalType": "bytes32",
          "name": "metaHash",
          "type": "bytes32"
        },
        {
          "internalType": "uint64",
          "name": "createdAt",
          "type": "uint64"
        }
      ],
      "stateMutability": "view",
      "type": "function"
    },
    {
      "inputs": [
        {
          "internalType": "bytes32",
          "name": "metaHash",
          "type": "bytes32"
        }
      ],
      "name": "registerProvider",
      "outputs": [],
      "stateMutability": "nonpayable",
      "type": "function"
    },
    {
      "inputs": [
        {
          "internalType": "bytes32",
          "name": "metaHash",
          "type": "bytes32"
        },
        {
          "internalType": "uint256",
          "name": "burnAmount",
          "type": "uint256"
        }
      ],
      "name": "registerProviderWithBurn",
      "outputs": [],
      "stateMutability": "nonpayable",
      "type": "function"
    },
    {
      "inputs": [
        {
          "internalType": "bytes32",
          "name": "role",
          "type": "bytes32"
        },
        {
          "internalType": "address",
          "name": "callerConfirmation",
          "type": "address"
        }
      ],
      "name": "renounceRole",
      "outputs": [],
      "stateMutability": "nonpayable",
      "type": "function"
    },
    {
      "inputs": [
        {
          "internalType": "bytes32",
          "name": "role",
          "type": "bytes32"
        },
        {
          "internalType": "address",
          "name": "account",
          "type": "address"
        }
      ],
      "name": "revokeRole",
      "outputs": [],
      "stateMutability": "nonpayable",
      "type": "function"
    },
    {
      "inputs": [
        {
          "internalType": "bool",
          "name": "active",
          "type": "bool"
        }
      ],
      "name": "setProviderActive",
      "outputs": [],
      "stateMutability": "nonpayable",
      "type": "function"
    },
    {
      "inputs": [
        {
          "internalType": "bytes4",
          "name": "interfaceId",
          "type": "bytes4"
        }
      ],
      "name": "supportsInterface",
      "outputs": [
        {
          "internalType": "bool",
          "name": "",
          "type": "bool"
        }
      ],
      "stateMutability": "view",
      "type": "function"
    },
    {
      "inputs": [
        {
          "internalType": "bytes32",
          "name": "metaHash",
          "type": "bytes32"
        }
      ],
      "name": "updateMetaHash",
      "outputs": [],
      "stateMutability": "nonpayable",
      "type": "function"
    }
  ],
  "bytecode": "0x60a060405234801561001057600080fd5b50604051610c58380380610c5883398101604081905261002f916100f8565b61003a60003361004c565b506001600160a01b0316608052610128565b6000828152602081815260408083206001600160a01b038516845290915281205460ff166100ee576000838152602081815260408083206001600160a01b03861684529091529020805460ff191660011790556100a63390565b6001600160a01b0316826001600160a01b0316847f2f8788117e7eff1d82e926ec794901d17c78024a50270940304540a733656f0d60405160405180910390a45060016100f2565b5060005b92915050565b60006020828403121561010a57600080fd5b81516001600160a01b038116811461012157600080fd5b9392505050565b608051610b0e61014a600039600081816101e5015261063a0152610b0e6000f3fe608060405234801561001057600080fd5b50600436106100ea5760003560e01c806336568abe1161008c57806391d148541161006657806391d1485414610347578063a217fddf1461035a578063d547741f14610362578063ed5eac821461037557600080fd5b806336568abe1461024557806338534ce01461025857806355f21eb71461026b57600080fd5b8063248a9ca3116100c8578063248a9ca3146101af578063285922e7146101e05780632c421d911461021f5780632f2ff15d1461023257600080fd5b806301ffc9a7146100ef5780630787bc2714610117578063100ec4e01461019a575b600080fd5b6101026100fd3660046109e7565b610388565b60405190151581526020015b60405180910390f35b610166610125366004610a34565b60016020819052600091825260409091208054918101546002909101546001600160a01b03831692600160a01b900460ff16919067ffffffffffffffff1684565b604080516001600160a01b03909516855292151560208501529183015267ffffffffffffffff16606082015260800161010e565b6101ad6101a8366004610a4f565b6103bf565b005b6101d26101bd366004610a4f565b60009081526020819052604090206001015490565b60405190815260200161010e565b6102077f000000000000000000000000000000000000000000000000000000000000000081565b6040516001600160a01b03909116815260200161010e565b6101ad61022d366004610a4f565b6104cd565b6101ad610240366004610a68565b61057c565b6101ad610253366004610a68565b6105a7565b6101ad610266366004610a94565b6105df565b6102ff610279366004610a34565b604080516080810182526000808252602082018190529181018290526060810191909152506001600160a01b03908116600090815260016020818152604092839020835160808101855281549586168152600160a01b90950460ff1615159185019190915290810154918301919091526002015467ffffffffffffffff16606082015290565b60405161010e919081516001600160a01b031681526020808301511515908201526040808301519082015260609182015167ffffffffffffffff169181019190915260800190565b610102610355366004610a68565b610772565b6101d2600081565b6101ad610370366004610a68565b61079b565b6101ad610383366004610ab6565b6107c0565b60006001600160e01b03198216637965db0b60e01b14806103b957506301ffc9a760e01b6001600160e01b03198316145b92915050565b336000908152600160205260409020546001600160a01b0316156103fd57604051633a7bc11560e11b81523360048201526024015b60405180910390fd5b60408051608081018252338082526001602080840182815284860187815267ffffffffffffffff428116606088019081526000878152948690528885209751885494511515600160a01b026001600160a81b03199095166001600160a01b03919091161793909317875590519386019390935551600290940180549490921667ffffffffffffffff1990941693909317905591518392917fe79965b728023fd0f02e30ae7fae0c4c6e40df837c2f7b2fb755fe08242a174f916104c291815260200190565b60405180910390a350565b33600090815260016020526040902080546001600160a01b031661050657604051631196593d60e11b81523360048201526024016103f4565b80546001600160a01b03163314610544578054604051635a3c9c3b60e11b81523360048201526001600160a01b0390911660248201526044016103f4565b60018101829055604051829033907f48f8d4ae261a470da61a743f69666c8ef55a650d998ca8272baca7673140a2d990600090a35050565b600082815260208190526040902060010154610597816108a0565b6105a183836108ad565b50505050565b6001600160a01b03811633146105d05760405163334bd91960e11b815260040160405180910390fd5b6105da828261093f565b505050565b336000908152600160205260409020546001600160a01b03161561061857604051633a7bc11560e11b81523360048201526024016103f4565b801561069f5760405163079cc67960e41b8152336004820152602481018290527f00000000000000000000000000000000000000000000000000000000000000006001600160a01b0316906379cc679090604401600060405180830381600087803b15801561068657600080fd5b505af115801561069a573d6000803e3d6000fd5b505050505b60408051608081018252338082526001602080840182815284860188815267ffffffffffffffff42811660608801908152600087815294869052938890209651875493511515600160a01b026001600160a81b03199094166001600160a01b039190911617929092178655519285019290925551600290930180549390911667ffffffffffffffff199093169290921790915590518391907fe79965b728023fd0f02e30ae7fae0c4c6e40df837c2f7b2fb755fe08242a174f906107669085815260200190565b60405180910390a35050565b6000918252602082815260408084206001600160a01b0393909316845291905290205460ff1690565b6000828152602081905260409020600101546107b6816108a0565b6105a1838361093f565b33600090815260016020526040902080546001600160a01b03166107f957604051631196593d60e11b81523360048201526024016103f4565b80546001600160a01b0316331480159061081b5750610819600033610772565b155b1561084d578054604051635a3c9c3b60e11b81523360048201526001600160a01b0390911660248201526044016103f4565b805460ff60a01b1916600160a01b83151590810291909117825560405190815233907fba12349dad88aafa71cd9c0327899dbede49c7e7bd250d37de3099a8053d91ec9060200160405180910390a25050565b6108aa81336109aa565b50565b60006108b98383610772565b610937576000838152602081815260408083206001600160a01b03861684529091529020805460ff191660011790556108ef3390565b6001600160a01b0316826001600160a01b0316847f2f8788117e7eff1d82e926ec794901d17c78024a50270940304540a733656f0d60405160405180910390a45060016103b9565b5060006103b9565b600061094b8383610772565b15610937576000838152602081815260408083206001600160a01b0386168085529252808320805460ff1916905551339286917ff6391f5c32d9c69d2a47ea670b442974b53935d1edc7fd64eb21e047a839171b9190a45060016103b9565b6109b48282610772565b6109e35760405163e2517d3f60e01b81526001600160a01b0382166004820152602481018390526044016103f4565b5050565b6000602082840312156109f957600080fd5b81356001600160e01b031981168114610a1157600080fd5b9392505050565b80356001600160a01b0381168114610a2f57600080fd5b919050565b600060208284031215610a4657600080fd5b610a1182610a18565b600060208284031215610a6157600080fd5b5035919050565b60008060408385031215610a7b57600080fd5b82359150610a8b60208401610a18565b90509250929050565b60008060408385031215610aa757600080fd5b50508035926020909101359150565b600060208284031215610ac857600080fd5b81358015158114610a1157600080fdfea26469706673582212201e577ced22db3f496604b5d94c70bc9ad58ee5da29b7701cfb21d182c0ec855864736f6c63430008140033",
  "linkReferences": {},
  "deployedLinkReferences": {}
}