{
  "_format": "hh-sol-artifact-1",
  "contractName": "JobEscrow",
  "sourceName": "contracts/JobEscrow.sol",
  "abi": [
    {
      "inputs": [
        {
          "internalType": "address",
          "name": "_token",
          "type": "address"
        },
        {
          "internalType": "address",
          "name": "_config",
          "type": "address"
        },
        {
          "internalType": "address",
          "name": "_providerRegistry",
          "type": "address"
        }
      ],
      "stateMutability": "nonpayable",
      "type": "constructor"
    },
    {
      "inputs": [],
      "name": "AccessControlBadConfirmation",
      "type": "error"
    },
    {
      "inputs": [
        {
          "internalType": "address",
          "name": "account",
          "type": "address"
        },
        {
          "internalType": "bytes32",
          "name": "neededRole",
          "type": "bytes32"
        }
      ],
      "name": "AccessControlUnauthorizedAccount",
      "type": "error"
    },
    {
      "inputs": [],
      "name": "ReentrancyGuardReentrantCall",
      "type": "error"
    },
    {
      "anonymous": false,
      "inputs": [
        {
          "indexed": true,
          "internalType": "bytes32",
          "name": "jobId",
          "type": "bytes32"
        },
        {
          "indexed": false,
          "internalType": "uint256",
          "name": "amount",
          "type": "uint256"
        },
        {
          "indexed": false,
          "internalType": "uint256",
          "name": "newBalance",
          "type": "uint256"
        }
      ],
      "name": "BalanceDeducted",
      "type": "event"
    },
    {
      "anonymous": false,
      "inputs": [
        {
          "indexed": true,
          "internalType": "bytes32",
          "name": "jobId",
          "type": "bytes32"
        },
        {
          "indexed": true,
          "internalType": "address",
          "name": "user",
          "type": "address"
        },
        {
          "indexed": false,
          "internalType": "uint256",
          "name": "refundAmount",
          "type": "uint256"
        },
        {
          "indexed": false,
          "internalType": "uint256",
          "name": "fee",
          "type": "uint256"
        }
      ],
      "name": "BalanceRefunded",
      "type": "event"
    },
    {
      "anonymous": false,
      "inputs": [
        {
          "indexed": true,
          "internalType": "bytes32",
          "name": "jobId",
          "type": "bytes32"
        },
        {
          "indexed": true,
          "internalType": "address",
          "name": "user",
          "type": "address"
        },
        {
          "indexed": true,
          "internalType": "address",
          "name": "provider",
          "type": "address"
        }
      ],
      "name": "JobCancelled",
      "type": "event"
    },
    {
      "anonymous": false,
      "inputs": [
        {
          "indexed": true,
          "internalType": "bytes32",
          "name": "jobId",
          "type": "bytes32"
        },
        {
          "indexed": true,
          "internalType": "address",
          "name": "user",
          "type": "address"
        },
        {
          "indexed": true,
          "internalType": "address",
          "name": "provider",
          "type": "address"
        }
      ],
      "name": "JobCompleted",
      "type": "event"
    },
    {
      "anonymous": false,
      "inputs": [
        {
          "indexed": true,
          "internalType": "bytes32",
          "name": "jobId",
          "type": "bytes32"
        },
        {
          "indexed": true,
          "internalType": "address",
          "name": "user",
          "type": "address"
        },
        {
          "indexed": true,
          "internalType": "address",
          "name": "provider",
          "type": "address"
        },
        {
          "indexed": false,
          "internalType": "uint256",
          "name": "depositAmount",
          "type": "uint256"
        }
      ],
      "name": "JobCreated",
      "type": "event"
    },
    {
      "anonymous": false,
      "inputs": [
        {
          "indexed": true,
          "internalType": "bytes32",
          "name": "jobId",
          "type": "bytes32"
        },
        {
          "indexed": true,
          "internalType": "address",
          "name": "provider",
          "type": "address"
        },
        {
          "indexed": false,
          "internalType": "uint256",
          "name": "rewardAmount",
          "type": "uint256"
        }
      ],
      "name": "ProviderRewardPaid",
      "type": "event"
    },
    {
      "anonymous": false,
      "inputs": [
        {
          "indexed": true,
          "internalType": "bytes32",
          "name": "role",
          "type": "bytes32"
        },
        {
          "indexed": true,
          "internalType": "bytes32",
          "name": "previousAdminRole",
          "type": "bytes32"
        },
        {
          "indexed": true,
          "internalType": "bytes32",
          "name": "newAdminRole",
          "type": "bytes32"
        }
      ],
      "name": "RoleAdminChanged",
      "type": "event"
    },
    {
      "anonymous": false,
      "inputs": [
        {
          "indexed": true,
          "internalType": "bytes32",
          "name": "role",
          "type": "bytes32"
        },
        {
          "indexed": true,
          "internalType": "address",
          "name": "account",
          "type": "address"
        },
        {
          "indexed": true,
          "internalType": "address",
          "name": "sender",
          "type": "address"
        }
      ],
      "name": "RoleGranted",
      "type": "event"
    },
    {
      "anonymous": false,
      "inputs": [
        {
          "indexed": true,
          "internalType": "bytes32",
          "name": "role",
          "type": "bytes32"
        },
        {
          "indexed": true,
          "internalType": "address",
          "name": "account",
          "type": "address"
        },
        {
          "indexed": true,
          "internalType": "address",
          "name": "sender",
          "type": "address"
        }
      ],
      "name": "RoleRevoked",
      "type": "event"
    },
    {
      "inputs": [],
      "name": "DEFAULT_ADMIN_ROLE",
      "outputs": [
        {
          "internalType": "bytes32",
          "name": "",
          "type": "bytes32"
        }
      ],
      "stateMutability": "view",
      "type": "function"
    },
    {
      "inputs": [],
      "name": "RELAYER_ROLE",
      "outputs": [
        {
          "internalType": "bytes32",
          "name": "",
          "type": "bytes32"
        }
      ],
      "stateMutability": "view",
      "type": "function"
    },
    {
      "inputs": [],
      "name": "VALIDATOR_ROLE",
      "outputs": [
        {
          "internalType": "bytes32",
          "name": "",
          "type": "bytes32"
        }
      ],
      "stateMutability": "view",
      "type": "function"
    },
    {
      "inputs": [
        {
          "internalType": "bytes32",
          "name": "jobId",
          "type": "bytes32"
        }
      ],
      "name": "cancelJob",
      "outputs": [],
      "stateMutability": "nonpayable",
      "type": "function"
    },
    {
      "inputs": [
        {
          "internalType": "bytes32",
          "name": "jobId",
          "type": "bytes32"
        },
        {
          "internalType": "uint256",
          "name": "rewardAmount",
          "type": "uint256"
        }
      ],
      "name": "completeJob",
      "outputs": [],
      "stateMutability": "nonpayable",
      "type": "function"
    },
    {
      "inputs": [],
      "name": "config",
      "outputs": [
        {
          "internalType": "contract Config",
          "name": "",
          "type": "address"
        }
      ],
      "stateMutability": "view",
      "type": "function"
    },
    {
      "inputs": [
        {
          "internalType": "address",
          "name": "provider",
          "type": "address"
        },
        {
          "internalType": "uint256",
          "name": "depositAmount",
          "type": "uint256"
        }
      ],
      "name": "createJob",
      "outputs": [],
      "stateMutability": "nonpayable",
      "type": "function"
    },
    {
      "inputs": [
        {
          "internalType": "bytes32",
          "name": "jobId",
          "type": "bytes32"
        },
        {
          "internalType": "uint256",
          "name": "amount",
          "type": "uint256"
        }
      ],
      "name": "deductBalance",
      "outputs": [],
      "stateMutability": "nonpayable",
      "type": "function"
    },
    {
      "inputs": [
        {
          "internalType": "bytes32",
          "name": "jobId",
          "type": "bytes32"
        }
      ],
      "name": "getJob",
      "outputs": [
        {
          "components": [
            {
              "internalType": "address",
              "name": "user",
              "type": "address"
            },
            {
              "internalType": "address",
              "name": "provider",
              "type": "address"
            },
            {
              "internalType": "uint128",
              "name": "depositAmount",
              "type": "uint128"
            },
            {
              "internalType": "uint128",
              "name": "remainingBalance",
              "type": "uint128"
            },
            {
              "internalType": "uint64",
              "name": "createdAt",
              "type": "uint64"
            },
            {
              "internalType": "bool",
              "name": "isActive",
              "type": "bool"
            },
            {
              "internalType": "bool",
              "name": "isCompleted",
              "type": "bool"
            }
          ],
          "internalType": "struct JobEscrow.Job",
          "name": "",
          "type": "tuple"
        }
      ],
      "stateMutability": "view",
      "type": "function"
    },
    {
      "inputs": [
        {
          "internalType": "address",
          "name": "provider",
          "type": "address"
        }
      ],
      "name": "getProviderJobs",
      "outputs": [
        {
          "internalType": "bytes32[]",
          "name": "",
          "type": "bytes32[]"
        }
      ],
      "stateMutability": "view",
      "type": "function"
    },
    {
      "inputs": [
        {
          "internalType": "bytes32",
          "name": "role",
          "type": "bytes32"
        }
      ],
      "name": "getRoleAdmin",
      "outputs": [
        {
          "internalType": "bytes32",
          "name": "",
          "type": "bytes32"
        }
      ],
      "stateMutability": "view",
      "type": "function"
    },
    {
      "inputs": [
        {
          "internalType": "address",
          "name": "user",
          "type": "address"
        }
      ],
      "name": "getUserJobs",
      "outputs": [
        {
          "internalType": "bytes32[]",
          "name": "",
          "type": "bytes32[]"
        }
      ],
      "stateMutability": "view",
      "type": "function"
    },
    {
      "inputs": [
        {
          "internalType": "bytes32",
          "name": "role",
          "type": "bytes32"
        },
        {
          "internalType": "address",
          "name": "account",
          "type": "address"
        }
      ],
      "name": "grantRole",
      "outputs": [],
      "stateMutability": "nonpayable",
      "type": "function"
    },
    {
      "inputs": [
        {
          "internalType": "bytes32",
          "name": "role",
          "type": "bytes32"
        },
        {
          "internalType": "address",
          "name": "account",
          "type": "address"
        }
      ],
      "name": "hasRole",
      "outputs": [
        {
          "internalType": "bool",
          "name": "",
          "type": "bool"
        }
      ],
      "stateMutability": "view",
      "type": "function"
    },
    {
      "inputs": [],
      "name": "jobCounter",
      "outputs": [
        {
          "internalType": "uint256",
          "name": "",
          "type": "uint256"
        }
      ],
      "stateMutability": "view",
      "type": "function"
    },
    {
      "inputs": [
        {
          "internalType": "bytes32",
          "name": "",
          "type": "bytes32"
        }
      ],
      "name": "jobs",
      "outputs": [
        {
          "internalType": "address",
          "name": "user",
          "type": "address"
        },
        {
          "internalType": "address",
          "name": "provider",
          "type": "address"
        },
        {
          "internalType": "uint128",
          "name": "depositAmount",
          "type": "uint128"
        },
        {
          "internalType": "uint128",
          "name": "remainingBalance",
          "type": "uint128"
        },
        {
          "internalType": "uint64",
          "name": "createdAt",
          "type": "uint64"
        },
        {
          "internalType": "bool",
          "name": "isActive",
          "type": "bool"
        },
        {
          "internalType": "bool",
          "name": "isCompleted",
          "type": "bool"
        }
      ],
      "stateMutability": "view",
      "type": "function"
    },
    {
      "inputs": [
        {
          "internalType": "address",
          "name": "",
          "type": "address"
        },
        {
          "internalType": "uint256",
          "name": "",
          "type": "uint256"
        }
      ],
      "name": "providerJobs",
      "outputs": [
        {
          "internalType": "bytes32",
          "name": "",
          "type": "bytes32"
        }
      ],
      "stateMutability": "view",
      "type": "function"
    },
    {
      "inputs": [],
      "name": "providerRegistry",
      "outputs": [
        {
          "internalType": "contract ProviderRegistry",
          "name": "",
          "type": "address"
        }
      ],
      "stateMutability": "view",
      "type": "function"
    },
    {
      "inputs": [
        {
          "internalType": "bytes32",
          "name": "role",
          "type": "bytes32"
        },
        {
          "internalType": "address",
          "name": "callerConfirmation",
          "type": "address"
        }
      ],
      "name": "renounceRole",
      "outputs": [],
      "stateMutability": "nonpayable",
      "type": "function"
    },
    {
      "inputs": [
        {
          "internalType": "bytes32",
          "name": "role",
          "type": "bytes32"
        },
        {
          "internalType": "address",
          "name": "account",
          "type": "address"
        }
      ],
      "name": "revokeRole",
      "outputs": [],
      "stateMutability": "nonpayable",
      "type": "function"
    },
    {
      "inputs": [
        {
          "internalType": "bytes4",
          "name": "interfaceId",
          "type": "bytes4"
        }
      ],
      "name": "supportsInterface",
      "outputs": [
        {
          "internalType": "bool",
          "name": "",
          "type": "bool"
        }
      ],
      "stateMutability": "view",
      "type": "function"
    },
    {
      "inputs": [],
      "name": "token",
      "outputs": [
        {
          "internalType": "contract CLDToken",
          "name": "",
          "type": "address"
        }
      ],
      "stateMutability": "view",
      "type": "function"
    },
    {
      "inputs": [
        {
          "internalType": "address",
          "name": "",
          "type": "address"
        },
        {
          "internalType": "uint256",
          "name": "",
          "type": "uint256"
        }
      ],
      "name": "userJobs",
      "outputs": [
        {
          "internalType": "bytes32",
          "name": "",
          "type": "bytes32"
        }
      ],
      "stateMutability": "view",
      "type": "function"
    }
  ],
  "bytecode": "0x60e060405234801561001057600080fd5b5060405161222638038061222683398101604081905261002f91610291565b600180556001600160a01b03831661008e5760405162461bcd60e51b815260206004820152601860248201527f4a6f62457363726f773a20496e76616c696420746f6b656e000000000000000060448201526064015b60405180910390fd5b6001600160a01b0382166100e45760405162461bcd60e51b815260206004820152601960248201527f4a6f62457363726f773a20496e76616c696420636f6e666967000000000000006044820152606401610085565b6001600160a01b0381166101465760405162461bcd60e51b8152602060048201526024808201527f4a6f62457363726f773a20496e76616c69642070726f766964657220726567696044820152637374727960e01b6064820152608401610085565b6001600160a01b0380841660805282811660a052811660c05261016a6000336101c9565b506101957f21702c8af46127c7fa207f89d0b0a8441bb32959a0ac7df790e9ab1a25c98926336101c9565b506101c07fe2b7fb3b832174769106daebcfd6d1970523240dda11281102db9363b83b0dc4336101c9565b505050506102d4565b6000828152602081815260408083206001600160a01b038516845290915281205460ff1661026b576000838152602081815260408083206001600160a01b03861684529091529020805460ff191660011790556102233390565b6001600160a01b0316826001600160a01b0316847f2f8788117e7eff1d82e926ec794901d17c78024a50270940304540a733656f0d60405160405180910390a450600161026f565b5060005b92915050565b80516001600160a01b038116811461028c57600080fd5b919050565b6000806000606084860312156102a657600080fd5b6102af84610275565b92506102bd60208501610275565b91506102cb60408501610275565b90509250925092565b60805160a05160c051611edd610349600039600081816103320152818161077001526116810152600081816103840152818161082901528181610ea501528181611246015261173301526000818161059e0152818161093301528181610f720152818161155501526118000152611edd6000f3fe608060405234801561001057600080fd5b506004361061018d5760003560e01c80637c3deeca116100e3578063c17ff9d21161008c578063f2640b5e11610066578063f2640b5e14610492578063f729cf0d146104a5578063fc0c546a1461059957600080fd5b8063c17ff9d214610445578063c49baebe14610458578063d547741f1461047f57600080fd5b8063927a831b116100bd578063927a831b14610417578063a217fddf1461042a578063a874115c1461043257600080fd5b80637c3deeca146103a657806391d14854146103b9578063926d7d7f146103f057600080fd5b80633f2a66f811610145578063545921d91161011f578063545921d91461032d5780635fae14501461036c57806379502c551461037f57600080fd5b80633f2a66f8146102f15780633fa7276c1461030457806350355d761461032457600080fd5b80632f2ff15d116101765780632f2ff15d146101eb57806336568abe1461020057806338ed7cfc1461021357600080fd5b806301ffc9a714610192578063248a9ca3146101ba575b600080fd5b6101a56101a0366004611bee565b6105c0565b60405190151581526020015b60405180910390f35b6101dd6101c8366004611c37565b60009081526020819052604090206001015490565b6040519081526020016101b1565b6101fe6101f9366004611c6c565b610659565b005b6101fe61020e366004611c6c565b610684565b610297610221366004611c37565b600260208190526000918252604090912080546001820154928201546003909201546001600160a01b0391821693909116916001600160801b0380821692600160801b909204169067ffffffffffffffff81169060ff680100000000000000008204811691690100000000000000000090041687565b604080516001600160a01b0398891681529790961660208801526001600160801b039485169587019590955292909116606085015267ffffffffffffffff166080840152151560a0830152151560c082015260e0016101b1565b6101fe6102ff366004611c98565b6106d5565b610317610312366004611cc2565b610cf2565b6040516101b19190611cdd565b6101dd60055481565b6103547f000000000000000000000000000000000000000000000000000000000000000081565b6040516001600160a01b0390911681526020016101b1565b6101fe61037a366004611c37565b610d5e565b6103547f000000000000000000000000000000000000000000000000000000000000000081565b6101fe6103b4366004611d20565b6110d2565b6101a56103c7366004611c6c565b6000918252602082815260408084206001600160a01b0393909316845291905290205460ff1690565b6101dd7fe2b7fb3b832174769106daebcfd6d1970523240dda11281102db9363b83b0dc481565b6101dd610425366004611c98565b611335565b6101dd600081565b6101fe610440366004611d20565b611366565b6101dd610453366004611c98565b61195d565b6101dd7f21702c8af46127c7fa207f89d0b0a8441bb32959a0ac7df790e9ab1a25c9892681565b6101fe61048d366004611c6c565b611979565b6103176104a0366004611cc2565b61199e565b61058c6104b3366004611c37565b6040805160e081018252600080825260208201819052918101829052606081018290526080810182905260a0810182905260c081019190915250600090815260026020818152604092839020835160e08101855281546001600160a01b03908116825260018301541692810192909252918201546001600160801b0380821694830194909452600160801b900490921660608301526003015467ffffffffffffffff8116608083015260ff6801000000000000000082048116151560a0840152690100000000000000000090910416151560c082015290565b6040516101b19190611d42565b6103547f000000000000000000000000000000000000000000000000000000000000000081565b60007fffffffff0000000000000000000000000000000000000000000000000000000082167f7965db0b00000000000000000000000000000000000000000000000000000000148061065357507f01ffc9a7000000000000000000000000000000000000000000000000000000007fffffffff000000000000000000000000000000000000000000000000000000008316145b92915050565b60008281526020819052604090206001015461067481611a08565b61067e8383611a12565b50505050565b6001600160a01b03811633146106c6576040517f6697b23200000000000000000000000000000000000000000000000000000000815260040160405180910390fd5b6106d08282611abc565b505050565b6106dd611b3f565b6001600160a01b0382166107385760405162461bcd60e51b815260206004820152601b60248201527f4a6f62457363726f773a20496e76616c69642070726f7669646572000000000060448201526064015b60405180910390fd5b6040517f696724cb0000000000000000000000000000000000000000000000000000000081526001600160a01b0383811660048301527f0000000000000000000000000000000000000000000000000000000000000000169063696724cb90602401602060405180830381865afa1580156107b7573d6000803e3d6000fd5b505050506040513d601f19601f820116820180604052508101906107db9190611dd2565b6108275760405162461bcd60e51b815260206004820152601e60248201527f4a6f62457363726f773a2050726f7669646572206e6f74206163746976650000604482015260640161072f565b7f00000000000000000000000000000000000000000000000000000000000000006001600160a01b03166383f770016040518163ffffffff1660e01b8152600401602060405180830381865afa158015610885573d6000803e3d6000fd5b505050506040513d601f19601f820116820180604052508101906108a99190611df4565b8110156108f85760405162461bcd60e51b815260206004820152601f60248201527f4a6f62457363726f773a20496e73756666696369656e74206465706f73697400604482015260640161072f565b6040517f23b872dd000000000000000000000000000000000000000000000000000000008152336004820152306024820152604481018290527f00000000000000000000000000000000000000000000000000000000000000006001600160a01b0316906323b872dd906064016020604051808303816000875af1158015610984573d6000803e3d6000fd5b505050506040513d601f19601f820116820180604052508101906109a89190611dd2565b6109f45760405162461bcd60e51b815260206004820152601a60248201527f4a6f62457363726f773a205472616e73666572206661696c6564000000000000604482015260640161072f565b600033834260056000815480929190610a0c90611e23565b909155506040516bffffffffffffffffffffffff19606095861b811660208301529390941b9092166034840152604883015260688201526088016040516020818303038152906040528051906020012090506040518060e00160405280336001600160a01b03168152602001846001600160a01b03168152602001836001600160801b03168152602001836001600160801b031681526020014267ffffffffffffffff168152602001600115158152602001600015158152506002600083815260200190815260200160002060008201518160000160006101000a8154816001600160a01b0302191690836001600160a01b0316021790555060208201518160010160006101000a8154816001600160a01b0302191690836001600160a01b0316021790555060408201518160020160006101000a8154816001600160801b0302191690836001600160801b0316021790555060608201518160020160106101000a8154816001600160801b0302191690836001600160801b0316021790555060808201518160030160006101000a81548167ffffffffffffffff021916908367ffffffffffffffff16021790555060a08201518160030160086101000a81548160ff02191690831515021790555060c08201518160030160096101000a81548160ff02191690831515021790555090505060036000336001600160a01b03166001600160a01b0316815260200190815260200160002081908060018154018082558091505060019003906000526020600020016000909190919091505560046000846001600160a01b03166001600160a01b03168152602001908152602001600020819080600181540180825580915050600190039060005260206000200160009091909190915055826001600160a01b0316336001600160a01b0316827fd4308b56cdccee295e288de7c02585786d44894362fac012f3053072b5257c6a85604051610cdc91815260200190565b60405180910390a450610cee60018055565b5050565b6001600160a01b038116600090815260036020908152604091829020805483518184028101840190945280845260609392830182828015610d5257602002820191906000526020600020905b815481526020019060010190808311610d3e575b50505050509050919050565b610d66611b3f565b6000818152600260205260409020600381015468010000000000000000900460ff16610dd45760405162461bcd60e51b815260206004820152601960248201527f4a6f62457363726f773a204a6f62206e6f742061637469766500000000000000604482015260640161072f565b80546001600160a01b0316331480610e1a57503360009081527f5111aeae4aa79889928e72f88b5872109754de9d419ea9a4e3df5fba21d4d46f602052604090205460ff165b610e665760405162461bcd60e51b815260206004820152601760248201527f4a6f62457363726f773a20556e617574686f72697a6564000000000000000000604482015260640161072f565b60038101805469ffff0000000000000000191690556002810180546001600160801b03808216909255600160801b9004168080156110815760006127107f00000000000000000000000000000000000000000000000000000000000000006001600160a01b031663568952e16040518163ffffffff1660e01b8152600401602060405180830381865afa158015610f01573d6000803e3d6000fd5b505050506040513d601f19601f82011682018060405250810190610f259190611df4565b610f2f9084611e3c565b610f399190611e53565b90506000610f478284611e75565b855460405163a9059cbb60e01b81526001600160a01b039182166004820152602481018390529192507f0000000000000000000000000000000000000000000000000000000000000000169063a9059cbb906044016020604051808303816000875af1158015610fbb573d6000803e3d6000fd5b505050506040513d601f19601f82011682018060405250810190610fdf9190611dd2565b6110355760405162461bcd60e51b815260206004820152602160248201527f4a6f62457363726f773a20526566756e64207472616e73666572206661696c656044820152601960fa1b606482015260840161072f565b845460408051838152602081018590526001600160a01b039092169188917f2c45aa3044525fbf226d24f7757d746e732b36dd2924be37615e5a9973c6d402910160405180910390a350505b600183015483546040516001600160a01b03928316929091169086907ff40fb8a42966019bc3338df71ecabcb95dde399723dd930c228747e094fc27f490600090a45050506110cf60018055565b50565b7f21702c8af46127c7fa207f89d0b0a8441bb32959a0ac7df790e9ab1a25c989266110fc81611a08565b6000838152600260205260409020600381015468010000000000000000900460ff1661116a5760405162461bcd60e51b815260206004820152601960248201527f4a6f62457363726f773a204a6f62206e6f742061637469766500000000000000604482015260640161072f565b6002810154600160801b90046001600160801b0316808411156111d95760405162461bcd60e51b815260206004820152602160248201527f4a6f62457363726f773a20416d6f756e7420657863656564732062616c616e636044820152606560f81b606482015260840161072f565b60006111e58583611e88565b6002840180546001600160801b03908116600160801b9184169182021790915560408051888152602081019290925291925087917f1ee4818fc0925a007082262d9432baa556211abd03356168c6b26943375ff827910160405180910390a27f00000000000000000000000000000000000000000000000000000000000000006001600160a01b03166383f770016040518163ffffffff1660e01b8152600401602060405180830381865afa1580156112a2573d6000803e3d6000fd5b505050506040513d601f19601f820116820180604052508101906112c69190611df4565b816001600160801b0316101561132d5760038301805468ff000000000000000019169055600183015483546040516001600160a01b03928316929091169088907ff40fb8a42966019bc3338df71ecabcb95dde399723dd930c228747e094fc27f490600090a45b505050505050565b6004602052816000526040600020818154811061135157600080fd5b90600052602060002001600091509150505481565b61136e611b3f565b6000828152600260205260409020600381015468010000000000000000900460ff166113dc5760405162461bcd60e51b815260206004820152601960248201527f4a6f62457363726f773a204a6f62206e6f742061637469766500000000000000604482015260640161072f565b80546001600160a01b031633148061142257503360009081527f5111aeae4aa79889928e72f88b5872109754de9d419ea9a4e3df5fba21d4d46f602052604090205460ff165b61146e5760405162461bcd60e51b815260206004820152601760248201527f4a6f62457363726f773a20556e617574686f72697a6564000000000000000000604482015260640161072f565b6002810154600160801b90046001600160801b0316808311156114dd5760405162461bcd60e51b815260206004820152602160248201527f4a6f62457363726f773a2052657761726420657863656564732062616c616e636044820152606560f81b606482015260840161072f565b60038201805469ffff0000000000000000191669010000000000000000001790556002820180546001600160801b039081169091556000906115229085908416611e75565b9050831561172657600183015460405163a9059cbb60e01b81526001600160a01b039182166004820152602481018690527f00000000000000000000000000000000000000000000000000000000000000009091169063a9059cbb906044016020604051808303816000875af11580156115a0573d6000803e3d6000fd5b505050506040513d601f19601f820116820180604052508101906115c49190611dd2565b6116365760405162461bcd60e51b815260206004820152602360248201527f4a6f62457363726f773a2050726f7669646572207472616e736665722066616960448201527f6c65640000000000000000000000000000000000000000000000000000000000606482015260840161072f565b60018301546040517f44ea559a0000000000000000000000000000000000000000000000000000000081526001600160a01b03918216600482015260006024820152604481018690527f0000000000000000000000000000000000000000000000000000000000000000909116906344ea559a90606401600060405180830381600087803b1580156116c757600080fd5b505af11580156116db573d6000803e3d6000fd5b5050505060018301546040518581526001600160a01b039091169086907f4b75effc6b157ef40e22d53df5453e04e543453cb6491df82545af9f17d808689060200160405180910390a35b801561190f5760006127107f00000000000000000000000000000000000000000000000000000000000000006001600160a01b031663568952e16040518163ffffffff1660e01b8152600401602060405180830381865afa15801561178f573d6000803e3d6000fd5b505050506040513d601f19601f820116820180604052508101906117b39190611df4565b6117bd9084611e3c565b6117c79190611e53565b905060006117d58284611e75565b855460405163a9059cbb60e01b81526001600160a01b039182166004820152602481018390529192507f0000000000000000000000000000000000000000000000000000000000000000169063a9059cbb906044016020604051808303816000875af1158015611849573d6000803e3d6000fd5b505050506040513d601f19601f8201168201806040525081019061186d9190611dd2565b6118c35760405162461bcd60e51b815260206004820152602160248201527f4a6f62457363726f773a20526566756e64207472616e73666572206661696c656044820152601960fa1b606482015260840161072f565b845460408051838152602081018590526001600160a01b039092169189917f2c45aa3044525fbf226d24f7757d746e732b36dd2924be37615e5a9973c6d402910160405180910390a350505b600183015483546040516001600160a01b03928316929091169087907f2e247065c5ff1ef156c1c2edc2ca742c324cf3633574513e52849cd098b1cee590600090a4505050610cee60018055565b6003602052816000526040600020818154811061135157600080fd5b60008281526020819052604090206001015461199481611a08565b61067e8383611abc565b6001600160a01b038116600090815260046020908152604091829020805483518184028101840190945280845260609392830182828015610d525760200282019190600052602060002090815481526020019060010190808311610d3e5750505050509050919050565b6110cf8133611b82565b6000828152602081815260408083206001600160a01b038516845290915281205460ff16611ab4576000838152602081815260408083206001600160a01b03861684529091529020805460ff19166001179055611a6c3390565b6001600160a01b0316826001600160a01b0316847f2f8788117e7eff1d82e926ec794901d17c78024a50270940304540a733656f0d60405160405180910390a4506001610653565b506000610653565b6000828152602081815260408083206001600160a01b038516845290915281205460ff1615611ab4576000838152602081815260408083206001600160a01b0386168085529252808320805460ff1916905551339286917ff6391f5c32d9c69d2a47ea670b442974b53935d1edc7fd64eb21e047a839171b9190a4506001610653565b600260015403611b7b576040517f3ee5aeb500000000000000000000000000000000000000000000000000000000815260040160405180910390fd5b6002600155565b6000828152602081815260408083206001600160a01b038516845290915290205460ff16610cee576040517fe2517d3f0000000000000000000000000000000000000000000000000000000081526001600160a01b03821660048201526024810183905260440161072f565b600060208284031215611c0057600080fd5b81357fffffffff0000000000000000000000000000000000000000000000000000000081168114611c3057600080fd5b9392505050565b600060208284031215611c4957600080fd5b5035919050565b80356001600160a01b0381168114611c6757600080fd5b919050565b60008060408385031215611c7f57600080fd5b82359150611c8f60208401611c50565b90509250929050565b60008060408385031215611cab57600080fd5b611cb483611c50565b946020939093013593505050565b600060208284031215611cd457600080fd5b611c3082611c50565b602080825282518282018190526000918401906040840190835b81811015611d15578351835260209384019390920191600101611cf7565b509095945050505050565b60008060408385031215611d3357600080fd5b50508035926020909101359150565b600060e0820190506001600160a01b0383511682526001600160a01b0360208401511660208301526001600160801b0360408401511660408301526001600160801b03606084015116606083015267ffffffffffffffff608084015116608083015260a0830151611db760a084018215159052565b5060c0830151611dcb60c084018215159052565b5092915050565b600060208284031215611de457600080fd5b81518015158114611c3057600080fd5b600060208284031215611e0657600080fd5b5051919050565b634e487b7160e01b600052601160045260246000fd5b600060018201611e3557611e35611e0d565b5060010190565b808202811582820484141761065357610653611e0d565b600082611e7057634e487b7160e01b600052601260045260246000fd5b500490565b8181038181111561065357610653611e0d565b6001600160801b03828116828216039081111561065357610653611e0d56fea2646970667358221220822514a9f525d853c27cee69eabbe2adb0a176dc17444a097ff677bfd75c808e64736f6c634300081c0033",
  "linkReferences": {},
  "deployedLinkReferences": {}
}