{
  "_format": "hh-sol-artifact-1",
  "contractName": "JobEscrow",
  "sourceName": "contracts/JobEscrow.sol",
  "abi": [
    {
      "inputs": [
        {
          "internalType": "address",
          "name": "_cldToken",
          "type": "address"
        },
        {
          "internalType": "address",
          "name": "_providerRegistry",
          "type": "address"
        }
      ],
      "stateMutability": "nonpayable",
      "type": "constructor"
    },
    {
      "inputs": [],
      "name": "AccessControlBadConfirmation",
      "type": "error"
    },
    {
      "inputs": [
        {
          "internalType": "address",
          "name": "account",
          "type": "address"
        },
        {
          "internalType": "bytes32",
          "name": "neededRole",
          "type": "bytes32"
        }
      ],
      "name": "AccessControlUnauthorizedAccount",
      "type": "error"
    },
    {
      "inputs": [
        {
          "internalType": "uint256",
          "name": "deadline",
          "type": "uint256"
        },
        {
          "internalType": "uint256",
          "name": "current",
          "type": "uint256"
        }
      ],
      "name": "DeadlineExceeded",
      "type": "error"
    },
    {
      "inputs": [],
      "name": "ECDSAInvalidSignature",
      "type": "error"
    },
    {
      "inputs": [
        {
          "internalType": "uint256",
          "name": "length",
          "type": "uint256"
        }
      ],
      "name": "ECDSAInvalidSignatureLength",
      "type": "error"
    },
    {
      "inputs": [
        {
          "internalType": "bytes32",
          "name": "s",
          "type": "bytes32"
        }
      ],
      "name": "ECDSAInvalidSignatureS",
      "type": "error"
    },
    {
      "inputs": [
        {
          "internalType": "uint256",
          "name": "required",
          "type": "uint256"
        },
        {
          "internalType": "uint256",
          "name": "available",
          "type": "uint256"
        }
      ],
      "name": "InsufficientDeposit",
      "type": "error"
    },
    {
      "inputs": [
        {
          "internalType": "uint256",
          "name": "expected",
          "type": "uint256"
        },
        {
          "internalType": "uint256",
          "name": "provided",
          "type": "uint256"
        }
      ],
      "name": "InvalidNonce",
      "type": "error"
    },
    {
      "inputs": [
        {
          "internalType": "bytes32",
          "name": "expected",
          "type": "bytes32"
        },
        {
          "internalType": "bytes32",
          "name": "provided",
          "type": "bytes32"
        }
      ],
      "name": "InvalidProvider",
      "type": "error"
    },
    {
      "inputs": [
        {
          "internalType": "uint256",
          "name": "grossCost",
          "type": "uint256"
        },
        {
          "internalType": "uint256",
          "name": "providerEarn",
          "type": "uint256"
        }
      ],
      "name": "InvalidProviderEarn",
      "type": "error"
    },
    {
      "inputs": [],
      "name": "InvalidShortString",
      "type": "error"
    },
    {
      "inputs": [],
      "name": "InvalidSignature",
      "type": "error"
    },
    {
      "inputs": [
        {
          "internalType": "address",
          "name": "expected",
          "type": "address"
        },
        {
          "internalType": "address",
          "name": "provided",
          "type": "address"
        }
      ],
      "name": "InvalidUser",
      "type": "error"
    },
    {
      "inputs": [
        {
          "internalType": "uint256",
          "name": "jobId",
          "type": "uint256"
        }
      ],
      "name": "JobNotFound",
      "type": "error"
    },
    {
      "inputs": [
        {
          "internalType": "uint256",
          "name": "jobId",
          "type": "uint256"
        }
      ],
      "name": "JobNotOpen",
      "type": "error"
    },
    {
      "inputs": [
        {
          "internalType": "address",
          "name": "account",
          "type": "address"
        }
      ],
      "name": "NoCreditToWithdraw",
      "type": "error"
    },
    {
      "inputs": [
        {
          "internalType": "bytes32",
          "name": "providerkey",
          "type": "bytes32"
        }
      ],
      "name": "ProviderNotActive",
      "type": "error"
    },
    {
      "inputs": [],
      "name": "ReentrancyGuardReentrantCall",
      "type": "error"
    },
    {
      "inputs": [
        {
          "internalType": "string",
          "name": "str",
          "type": "string"
        }
      ],
      "name": "StringTooLong",
      "type": "error"
    },
    {
      "inputs": [
        {
          "internalType": "address",
          "name": "caller",
          "type": "address"
        },
        {
          "internalType": "address",
          "name": "user",
          "type": "address"
        },
        {
          "internalType": "bytes32",
          "name": "providerkey",
          "type": "bytes32"
        }
      ],
      "name": "UnauthorizedCloser",
      "type": "error"
    },
    {
      "anonymous": false,
      "inputs": [],
      "name": "EIP712DomainChanged",
      "type": "event"
    },
    {
      "anonymous": false,
      "inputs": [
        {
          "indexed": true,
          "internalType": "uint256",
          "name": "jobId",
          "type": "uint256"
        },
        {
          "indexed": false,
          "internalType": "uint256",
          "name": "remaining",
          "type": "uint256"
        }
      ],
      "name": "JobClosed",
      "type": "event"
    },
    {
      "anonymous": false,
      "inputs": [
        {
          "indexed": true,
          "internalType": "uint256",
          "name": "jobId",
          "type": "uint256"
        },
        {
          "indexed": true,
          "internalType": "address",
          "name": "user",
          "type": "address"
        },
        {
          "indexed": true,
          "internalType": "bytes32",
          "name": "providerkey",
          "type": "bytes32"
        },
        {
          "indexed": false,
          "internalType": "uint256",
          "name": "budgetAmount",
          "type": "uint256"
        }
      ],
      "name": "JobCreated",
      "type": "event"
    },
    {
      "anonymous": false,
      "inputs": [
        {
          "indexed": true,
          "internalType": "uint256",
          "name": "jobId",
          "type": "uint256"
        },
        {
          "indexed": false,
          "internalType": "uint256",
          "name": "amount",
          "type": "uint256"
        }
      ],
      "name": "JobDeposited",
      "type": "event"
    },
    {
      "anonymous": false,
      "inputs": [
        {
          "indexed": true,
          "internalType": "address",
          "name": "provider",
          "type": "address"
        },
        {
          "indexed": false,
          "internalType": "uint256",
          "name": "amount",
          "type": "uint256"
        }
      ],
      "name": "ProviderWithdrawn",
      "type": "event"
    },
    {
      "anonymous": false,
      "inputs": [
        {
          "indexed": true,
          "internalType": "bytes32",
          "name": "role",
          "type": "bytes32"
        },
        {
          "indexed": true,
          "internalType": "bytes32",
          "name": "previousAdminRole",
          "type": "bytes32"
        },
        {
          "indexed": true,
          "internalType": "bytes32",
          "name": "newAdminRole",
          "type": "bytes32"
        }
      ],
      "name": "RoleAdminChanged",
      "type": "event"
    },
    {
      "anonymous": false,
      "inputs": [
        {
          "indexed": true,
          "internalType": "bytes32",
          "name": "role",
          "type": "bytes32"
        },
        {
          "indexed": true,
          "internalType": "address",
          "name": "account",
          "type": "address"
        },
        {
          "indexed": true,
          "internalType": "address",
          "name": "sender",
          "type": "address"
        }
      ],
      "name": "RoleGranted",
      "type": "event"
    },
    {
      "anonymous": false,
      "inputs": [
        {
          "indexed": true,
          "internalType": "bytes32",
          "name": "role",
          "type": "bytes32"
        },
        {
          "indexed": true,
          "internalType": "address",
          "name": "account",
          "type": "address"
        },
        {
          "indexed": true,
          "internalType": "address",
          "name": "sender",
          "type": "address"
        }
      ],
      "name": "RoleRevoked",
      "type": "event"
    },
    {
      "anonymous": false,
      "inputs": [
        {
          "indexed": true,
          "internalType": "uint256",
          "name": "jobId",
          "type": "uint256"
        },
        {
          "indexed": false,
          "internalType": "uint256",
          "name": "grossCost",
          "type": "uint256"
        },
        {
          "indexed": false,
          "internalType": "uint256",
          "name": "providerEarn",
          "type": "uint256"
        },
        {
          "indexed": false,
          "internalType": "uint256",
          "name": "refund",
          "type": "uint256"
        },
        {
          "indexed": false,
          "internalType": "uint256",
          "name": "nonceAfter",
          "type": "uint256"
        }
      ],
      "name": "UsageSubmitted",
      "type": "event"
    },
    {
      "anonymous": false,
      "inputs": [
        {
          "indexed": true,
          "internalType": "address",
          "name": "user",
          "type": "address"
        },
        {
          "indexed": false,
          "internalType": "uint256",
          "name": "amount",
          "type": "uint256"
        }
      ],
      "name": "UserRefundWithdrawn",
      "type": "event"
    },
    {
      "inputs": [],
      "name": "DEFAULT_ADMIN_ROLE",
      "outputs": [
        {
          "internalType": "bytes32",
          "name": "",
          "type": "bytes32"
        }
      ],
      "stateMutability": "view",
      "type": "function"
    },
    {
      "inputs": [],
      "name": "VALIDATOR_ROLE",
      "outputs": [
        {
          "internalType": "bytes32",
          "name": "",
          "type": "bytes32"
        }
      ],
      "stateMutability": "view",
      "type": "function"
    },
    {
      "inputs": [],
      "name": "cldToken",
      "outputs": [
        {
          "internalType": "contract CLDToken",
          "name": "",
          "type": "address"
        }
      ],
      "stateMutability": "view",
      "type": "function"
    },
    {
      "inputs": [
        {
          "internalType": "uint256",
          "name": "jobId",
          "type": "uint256"
        }
      ],
      "name": "closeJob",
      "outputs": [],
      "stateMutability": "nonpayable",
      "type": "function"
    },
    {
      "inputs": [
        {
          "internalType": "bytes32",
          "name": "providerkey",
          "type": "bytes32"
        },
        {
          "internalType": "uint256",
          "name": "budgetAmount",
          "type": "uint256"
        }
      ],
      "name": "createJob",
      "outputs": [
        {
          "internalType": "uint256",
          "name": "jobId",
          "type": "uint256"
        }
      ],
      "stateMutability": "nonpayable",
      "type": "function"
    },
    {
      "inputs": [
        {
          "internalType": "uint256",
          "name": "jobId",
          "type": "uint256"
        },
        {
          "internalType": "uint256",
          "name": "amount",
          "type": "uint256"
        }
      ],
      "name": "deposit",
      "outputs": [],
      "stateMutability": "nonpayable",
      "type": "function"
    },
    {
      "inputs": [],
      "name": "eip712Domain",
      "outputs": [
        {
          "internalType": "bytes1",
          "name": "fields",
          "type": "bytes1"
        },
        {
          "internalType": "string",
          "name": "name",
          "type": "string"
        },
        {
          "internalType": "string",
          "name": "version",
          "type": "string"
        },
        {
          "internalType": "uint256",
          "name": "chainId",
          "type": "uint256"
        },
        {
          "internalType": "address",
          "name": "verifyingContract",
          "type": "address"
        },
        {
          "internalType": "bytes32",
          "name": "salt",
          "type": "bytes32"
        },
        {
          "internalType": "uint256[]",
          "name": "extensions",
          "type": "uint256[]"
        }
      ],
      "stateMutability": "view",
      "type": "function"
    },
    {
      "inputs": [
        {
          "internalType": "bytes32",
          "name": "role",
          "type": "bytes32"
        }
      ],
      "name": "getRoleAdmin",
      "outputs": [
        {
          "internalType": "bytes32",
          "name": "",
          "type": "bytes32"
        }
      ],
      "stateMutability": "view",
      "type": "function"
    },
    {
      "inputs": [
        {
          "internalType": "bytes32",
          "name": "role",
          "type": "bytes32"
        },
        {
          "internalType": "address",
          "name": "account",
          "type": "address"
        }
      ],
      "name": "grantRole",
      "outputs": [],
      "stateMutability": "nonpayable",
      "type": "function"
    },
    {
      "inputs": [
        {
          "internalType": "bytes32",
          "name": "role",
          "type": "bytes32"
        },
        {
          "internalType": "address",
          "name": "account",
          "type": "address"
        }
      ],
      "name": "hasRole",
      "outputs": [
        {
          "internalType": "bool",
          "name": "",
          "type": "bool"
        }
      ],
      "stateMutability": "view",
      "type": "function"
    },
    {
      "inputs": [
        {
          "internalType": "uint256",
          "name": "",
          "type": "uint256"
        }
      ],
      "name": "jobs",
      "outputs": [
        {
          "internalType": "address",
          "name": "user",
          "type": "address"
        },
        {
          "internalType": "bytes32",
          "name": "providerkey",
          "type": "bytes32"
        },
        {
          "internalType": "uint256",
          "name": "deposited",
          "type": "uint256"
        },
        {
          "internalType": "uint256",
          "name": "spent",
          "type": "uint256"
        },
        {
          "internalType": "uint256",
          "name": "nonce",
          "type": "uint256"
        },
        {
          "internalType": "enum JobEscrow.JobStatus",
          "name": "status",
          "type": "uint8"
        },
        {
          "internalType": "uint64",
          "name": "createdAt",
          "type": "uint64"
        },
        {
          "internalType": "uint64",
          "name": "closedAt",
          "type": "uint64"
        }
      ],
      "stateMutability": "view",
      "type": "function"
    },
    {
      "inputs": [],
      "name": "nextJobId",
      "outputs": [
        {
          "internalType": "uint256",
          "name": "",
          "type": "uint256"
        }
      ],
      "stateMutability": "view",
      "type": "function"
    },
    {
      "inputs": [
        {
          "internalType": "address",
          "name": "",
          "type": "address"
        }
      ],
      "name": "providerCredit",
      "outputs": [
        {
          "internalType": "uint256",
          "name": "",
          "type": "uint256"
        }
      ],
      "stateMutability": "view",
      "type": "function"
    },
    {
      "inputs": [],
      "name": "providerRegistry",
      "outputs": [
        {
          "internalType": "contract ProviderRegistry",
          "name": "",
          "type": "address"
        }
      ],
      "stateMutability": "view",
      "type": "function"
    },
    {
      "inputs": [
        {
          "internalType": "bytes32",
          "name": "role",
          "type": "bytes32"
        },
        {
          "internalType": "address",
          "name": "callerConfirmation",
          "type": "address"
        }
      ],
      "name": "renounceRole",
      "outputs": [],
      "stateMutability": "nonpayable",
      "type": "function"
    },
    {
      "inputs": [
        {
          "internalType": "bytes32",
          "name": "role",
          "type": "bytes32"
        },
        {
          "internalType": "address",
          "name": "account",
          "type": "address"
        }
      ],
      "name": "revokeRole",
      "outputs": [],
      "stateMutability": "nonpayable",
      "type": "function"
    },
    {
      "inputs": [
        {
          "components": [
            {
              "internalType": "uint256",
              "name": "jobId",
              "type": "uint256"
            },
            {
              "internalType": "address",
              "name": "user",
              "type": "address"
            },
            {
              "internalType": "bytes32",
              "name": "providerkey",
              "type": "bytes32"
            },
            {
              "internalType": "uint256",
              "name": "grossCost",
              "type": "uint256"
            },
            {
              "internalType": "uint256",
              "name": "providerEarn",
              "type": "uint256"
            },
            {
              "internalType": "uint256",
              "name": "nonce",
              "type": "uint256"
            },
            {
              "internalType": "uint256",
              "name": "deadline",
              "type": "uint256"
            }
          ],
          "internalType": "struct JobEscrow.UsageReport",
          "name": "r",
          "type": "tuple"
        },
        {
          "internalType": "bytes",
          "name": "sig",
          "type": "bytes"
        }
      ],
      "name": "submitUsageReport",
      "outputs": [],
      "stateMutability": "nonpayable",
      "type": "function"
    },
    {
      "inputs": [
        {
          "internalType": "bytes4",
          "name": "interfaceId",
          "type": "bytes4"
        }
      ],
      "name": "supportsInterface",
      "outputs": [
        {
          "internalType": "bool",
          "name": "",
          "type": "bool"
        }
      ],
      "stateMutability": "view",
      "type": "function"
    },
    {
      "inputs": [
        {
          "internalType": "address",
          "name": "",
          "type": "address"
        }
      ],
      "name": "userRefundCredit",
      "outputs": [
        {
          "internalType": "uint256",
          "name": "",
          "type": "uint256"
        }
      ],
      "stateMutability": "view",
      "type": "function"
    },
    {
      "inputs": [],
      "name": "withdrawProvider",
      "outputs": [],
      "stateMutability": "nonpayable",
      "type": "function"
    },
    {
      "inputs": [],
      "name": "withdrawUserRefund",
      "outputs": [],
      "stateMutability": "nonpayable",
      "type": "function"
    }
  ],
  "bytecode": "0x6101a06040523480156200001257600080fd5b5060405162002575380380620025758339810160408190526200003591620002a9565b6040805180820182526011815270436c6f7564616e614a6f62457363726f7760781b60208083019190915282518084019093526001808452603160f81b918401919091528055906200008982600262000159565b610120526200009a81600362000159565b61014052815160208084019190912060e052815190820120610100524660a0526200012860e05161010051604080517f8b73c3c69bb8fe3d512ecc4cf759cc79239f7b179b0ffacaa9a75d522b39400f60208201529081019290925260608201524660808201523060a082015260009060c00160405160208183030381529060405280519060200120905090565b60805250503060c0526200013e60003362000192565b506001600160a01b03918216610160521661018052620004c7565b60006020835110156200017957620001718362000240565b90506200018c565b8162000186848262000386565b5060ff90505b92915050565b6000828152602081815260408083206001600160a01b038516845290915281205460ff1662000237576000838152602081815260408083206001600160a01b03861684529091529020805460ff19166001179055620001ee3390565b6001600160a01b0316826001600160a01b0316847f2f8788117e7eff1d82e926ec794901d17c78024a50270940304540a733656f0d60405160405180910390a45060016200018c565b5060006200018c565b600080829050601f8151111562000277578260405163305a27a960e01b81526004016200026e919062000452565b60405180910390fd5b80516200028482620004a2565b179392505050565b80516001600160a01b0381168114620002a457600080fd5b919050565b60008060408385031215620002bd57600080fd5b620002c8836200028c565b9150620002d8602084016200028c565b90509250929050565b634e487b7160e01b600052604160045260246000fd5b600181811c908216806200030c57607f821691505b6020821081036200032d57634e487b7160e01b600052602260045260246000fd5b50919050565b601f8211156200038157600081815260208120601f850160051c810160208610156200035c5750805b601f850160051c820191505b818110156200037d5782815560010162000368565b5050505b505050565b81516001600160401b03811115620003a257620003a2620002e1565b620003ba81620003b38454620002f7565b8462000333565b602080601f831160018114620003f25760008415620003d95750858301515b600019600386901b1c1916600185901b1785556200037d565b600085815260208120601f198616915b82811015620004235788860151825594840194600190910190840162000402565b5085821015620004425787850151600019600388901b60f8161c191681555b5050505050600190811b01905550565b600060208083528351808285015260005b81811015620004815785810183015185820160400152820162000463565b506000604082860101526040601f19601f8301168501019250505092915050565b805160208083015191908110156200032d5760001960209190910360031b1b16919050565b60805160a05160c05160e051610100516101205161014051610160516101805161200c6200056960003960008181610293015281816104870152818161083a015261124401526000818161022e015281816107020152818161091a01528181610bf40152610da50152600061153701526000611505015260006117760152600061174e015260006116a9015260006116d3015260006116fd015261200c6000f3fe608060405234801561001057600080fd5b50600436106101375760003560e01c806384b0196e116100b8578063c49baebe1161007c578063c49baebe1461032f578063d02721cb14610356578063d547741f1461035e578063e2bbb15814610371578063f26d80ef14610384578063f50c4f3a146103a457600080fd5b806384b0196e146102dd5780638801c928146102f857806391d148541461030b578063a217fddf1461031e578063b0c2aa5e1461032657600080fd5b80632f2ff15d116100ff5780632f2ff15d1461026857806336568abe1461027b578063545921d91461028e57806362d66b0e146102b557806367e6d3f5146102bd57600080fd5b806301ffc9a71461013c578063180aedf3146101645780631e01abca146101e3578063248a9ca3146101f8578063285922e714610229575b600080fd5b61014f61014a366004611a03565b6103b7565b60405190151581526020015b60405180910390f35b6101cf610172366004611a34565b60046020819052600091825260409091208054600182015460028301546003840154948401546005909401546001600160a01b03909316949193909260ff81169067ffffffffffffffff6101008204811691600160481b90041688565b60405161015b989796959493929190611a63565b6101f66101f1366004611a34565b6103ee565b005b61021b610206366004611a34565b60009081526020819052604090206001015490565b60405190815260200161015b565b6102507f000000000000000000000000000000000000000000000000000000000000000081565b6040516001600160a01b03909116815260200161015b565b6101f6610276366004611aed565b61062c565b6101f6610289366004611aed565b610657565b6102507f000000000000000000000000000000000000000000000000000000000000000081565b6101f661068f565b61021b6102cb366004611b1d565b60056020526000908152604090205481565b6102e56107d1565b60405161015b9796959493929190611b8a565b61021b610306366004611c20565b610817565b61014f610319366004611aed565b610b58565b61021b600081565b61021b60075481565b61021b7f21702c8af46127c7fa207f89d0b0a8441bb32959a0ac7df790e9ab1a25c9892681565b6101f6610b81565b6101f661036c366004611aed565b610cb2565b6101f661037f366004611c20565b610cd7565b61021b610392366004611b1d565b60066020526000908152604090205481565b6101f66103b2366004611c42565b610e94565b60006001600160e01b03198216637965db0b60e01b14806103e857506301ffc9a760e01b6001600160e01b03198316145b92915050565b600081815260046020526040902080546001600160a01b031661042c576040516350c83b9560e01b8152600481018390526024015b60405180910390fd5b6000600582015460ff16600181111561044757610447611a4d565b146104685760405163182b3b9960e21b815260048101839052602401610423565b60018101546040516319e04a8560e11b81526000916001600160a01b037f000000000000000000000000000000000000000000000000000000000000000016916333c0950a916104be9160040190815260200190565b600060405180830381865afa1580156104db573d6000803e3d6000fd5b505050506040513d6000823e601f3d908101601f191682016040526105039190810190611dfa565b82549091506000906001600160a01b031633148061052a575081516001600160a01b031633145b8061053b575061053b600033610b58565b90508061057057825460018401546040516389ed5cc360e01b81526104239233926001600160a01b0390911691600401611ed8565b6000836003015484600201546105869190611f12565b905080156105bd5783546001600160a01b0316600090815260066020526040812080548392906105b7908490611f25565b90915550505b60058401805467ffffffffffffffff4216600160481b0270ffffffffffffffff0000000000000000ff1990911617600117905560405181815285907fcdb24df83c7021207b861273a5af108e6c044de970a61ac9d1d897e0ee8ea9019060200160405180910390a25050505050565b600082815260208190526040902060010154610647816113ca565b61065183836113d7565b50505050565b6001600160a01b03811633146106805760405163334bd91960e11b815260040160405180910390fd5b61068a8282611469565b505050565b6106976114d4565b33600090815260066020526040812054908190036106ca57604051632ac23ea160e01b8152336004820152602401610423565b336000818152600660205260408082208290555163a9059cbb60e01b8152600481019290925260248201839052906001600160a01b037f0000000000000000000000000000000000000000000000000000000000000000169063a9059cbb906044016020604051808303816000875af115801561074b573d6000803e3d6000fd5b505050506040513d601f19601f8201168201806040525081019061076f9190611f38565b90508061078e5760405162461bcd60e51b815260040161042390611f5a565b60405182815233907f85ae797aa21efe3619da1ededa72f81c730e43640e5c3a4f1a7fd4a03bd1148b906020015b60405180910390a250506107cf60018055565b565b6000606080600080600060606107e56114fe565b6107ed611530565b60408051600080825260208201909252600f60f81b9b939a50919850469750309650945092509050565b6040516319e04a8560e11b81526004810183905260009081906001600160a01b037f000000000000000000000000000000000000000000000000000000000000000016906333c0950a90602401600060405180830381865afa158015610881573d6000803e3d6000fd5b505050506040513d6000823e601f3d908101601f191682016040526108a99190810190611dfa565b80519091506001600160a01b031615806108d9575060018160e0015160028111156108d6576108d6611a4d565b14155b156108fa5760405163b89ccc6760e01b815260048101859052602401610423565b82156109b7576040516323b872dd60e01b81526000906001600160a01b037f000000000000000000000000000000000000000000000000000000000000000016906323b872dd9061095390339030908990600401611ed8565b6020604051808303816000875af1158015610972573d6000803e3d6000fd5b505050506040513d601f19601f820116820180604052508101906109969190611f38565b9050806109b55760405162461bcd60e51b815260040161042390611f5a565b505b600780549060006109c783611f83565b919050559150604051806101000160405280336001600160a01b03168152602001858152602001848152602001600081526020016000815260200160006001811115610a1557610a15611a4d565b81524267ffffffffffffffff1660208083019190915260006040928301819052858152600480835290839020845181546001600160a01b0319166001600160a01b03909116178155918401516001808401919091559284015160028301556060840151600383015560808401519082015560a083015160058201805492939192909160ff19909116908381811115610aaf57610aaf611a4d565b021790555060c08201516005909101805460e09093015167ffffffffffffffff908116600160481b0270ffffffffffffffff0000000000000000001991909316610100021670ffffffffffffffffffffffffffffffff0019909316929092171790556040518490339084907f737fc62fbb05dd9fb7c799e68796a2d7c8324e310af7b656c0580e7b3cf8bf8a90610b499088815260200190565b60405180910390a45092915050565b6000918252602082815260408084206001600160a01b0393909316845291905290205460ff1690565b610b896114d4565b3360009081526005602052604081205490819003610bbc57604051632ac23ea160e01b8152336004820152602401610423565b336000818152600560205260408082208290555163a9059cbb60e01b8152600481019290925260248201839052906001600160a01b037f0000000000000000000000000000000000000000000000000000000000000000169063a9059cbb906044016020604051808303816000875af1158015610c3d573d6000803e3d6000fd5b505050506040513d601f19601f82011682018060405250810190610c619190611f38565b905080610c805760405162461bcd60e51b815260040161042390611f5a565b60405182815233907f61388fbc2ba003175d3018b8f13b002234cc4e203a332a4a6dadb96bc82c3db2906020016107bc565b600082815260208190526040902060010154610ccd816113ca565b6106518383611469565b600082815260046020526040902080546001600160a01b0316610d10576040516350c83b9560e01b815260048101849052602401610423565b80546001600160a01b03163314610d4f57805460018201546040516389ed5cc360e01b81526104239233926001600160a01b0390911691600401611ed8565b6000600582015460ff166001811115610d6a57610d6a611a4d565b14610d8b5760405163182b3b9960e21b815260048101849052602401610423565b6040516323b872dd60e01b81526000906001600160a01b037f000000000000000000000000000000000000000000000000000000000000000016906323b872dd90610dde90339030908890600401611ed8565b6020604051808303816000875af1158015610dfd573d6000803e3d6000fd5b505050506040513d601f19601f82011682018060405250810190610e219190611f38565b905080610e405760405162461bcd60e51b815260040161042390611f5a565b82826002016000828254610e549190611f25565b909155505060405183815284907f1e79868cb10878b012dc1bb2863f89615a7f52d9a59fdbf66d51d374df83be809060200160405180910390a250505050565b8235600090815260046020526040902080546001600160a01b0316610ecf576040516350c83b9560e01b815284356004820152602401610423565b6000600582015460ff166001811115610eea57610eea611a4d565b14610f0b5760405163182b3b9960e21b815284356004820152602401610423565b610f1b6040850160208601611b1d565b81546001600160a01b03908116911614610f765780546001600160a01b0316610f4a6040860160208701611b1d565b60405163396b359f60e01b81526001600160a01b03928316600482015291166024820152604401610423565b8360400135816001015414610fb05760018101546040805163161c450160e31b815260048101929092528501356024820152604401610423565b8360a00135816004015414610fe8576004818101546040516306427aeb60e01b81529182015260a08501356024820152604401610423565b60008460c00135118015610fff57508360c0013542115b15611029576040516324bf66c560e01b815260c08501356004820152426024820152604401610423565b8060020154846060013582600301546110429190611f25565b1115611083578360600135816003015461105c9190611f25565b60028201546040516312e1fa3760e11b815260048101929092526024820152604401610423565b8360600135846080013511156110bc5760405163018b009960e61b81526060850135600482015260808501356024820152604401610423565b60007f83dec69c40eb454465240ffddbb31ef48ac7bf55bff4cd095eade8915d3be25d85356110f16040880160208901611b1d565b8760400135886060013589608001358a60a001358b60c0013560405160200161115b98979695949392919097885260208801969096526001600160a01b039490941660408701526060860192909252608085015260a084015260c083015260e08201526101000190565b604051602081830303815290604052805190602001209050600061117e8261155d565b905060006111c28287878080601f01602080910402602001604051908101604052809392919081815260200183838082843760009201919091525061158a92505050565b90506111ee7f21702c8af46127c7fa207f89d0b0a8441bb32959a0ac7df790e9ab1a25c9892682610b58565b61120b57604051638baa579f60e01b815260040160405180910390fd5b86606001358460030160008282546112239190611f25565b9091555050604080516319e04a8560e11b81529088013560048201526000907f00000000000000000000000000000000000000000000000000000000000000006001600160a01b0316906333c0950a90602401600060405180830381865afa158015611293573d6000803e3d6000fd5b505050506040513d6000823e601f3d908101601f191682016040526112bb9190810190611dfa565b80516001600160a01b03166000908152600560205260408120805492935060808b0135929091906112ed908490611f25565b909155506000905061130760808a013560608b0135611f12565b9050806006600061131e60408d0160208e01611b1d565b6001600160a01b03166001600160a01b03168152602001908152602001600020600082825461134d9190611f25565b909155505060048601805490600061136483611f83565b90915550506004860154604080516060808d013582526080808e013560208401529282018590528101929092528a35917f89bdaa1acd39c8dca0a62b5fdfd7ae6156d1c2571651eddfed0be52799741382910160405180910390a2505050505050505050565b6113d481336115b4565b50565b60006113e38383610b58565b611461576000838152602081815260408083206001600160a01b03861684529091529020805460ff191660011790556114193390565b6001600160a01b0316826001600160a01b0316847f2f8788117e7eff1d82e926ec794901d17c78024a50270940304540a733656f0d60405160405180910390a45060016103e8565b5060006103e8565b60006114758383610b58565b15611461576000838152602081815260408083206001600160a01b0386168085529252808320805460ff1916905551339286917ff6391f5c32d9c69d2a47ea670b442974b53935d1edc7fd64eb21e047a839171b9190a45060016103e8565b6002600154036114f757604051633ee5aeb560e01b815260040160405180910390fd5b6002600155565b606061152b7f000000000000000000000000000000000000000000000000000000000000000060026115f1565b905090565b606061152b7f000000000000000000000000000000000000000000000000000000000000000060036115f1565b60006103e861156a61169c565b8360405161190160f01b8152600281019290925260228201526042902090565b60008060008061159a86866117c7565b9250925092506115aa8282611814565b5090949350505050565b6115be8282610b58565b6115ed5760405163e2517d3f60e01b81526001600160a01b038216600482015260248101839052604401610423565b5050565b606060ff831461160b57611604836118cd565b90506103e8565b81805461161790611f9c565b80601f016020809104026020016040519081016040528092919081815260200182805461164390611f9c565b80156116905780601f1061166557610100808354040283529160200191611690565b820191906000526020600020905b81548152906001019060200180831161167357829003601f168201915b505050505090506103e8565b6000306001600160a01b037f0000000000000000000000000000000000000000000000000000000000000000161480156116f557507f000000000000000000000000000000000000000000000000000000000000000046145b1561171f57507f000000000000000000000000000000000000000000000000000000000000000090565b61152b604080517f8b73c3c69bb8fe3d512ecc4cf759cc79239f7b179b0ffacaa9a75d522b39400f60208201527f0000000000000000000000000000000000000000000000000000000000000000918101919091527f000000000000000000000000000000000000000000000000000000000000000060608201524660808201523060a082015260009060c00160405160208183030381529060405280519060200120905090565b600080600083516041036118015760208401516040850151606086015160001a6117f38882858561190c565b95509550955050505061180d565b50508151600091506002905b9250925092565b600082600381111561182857611828611a4d565b03611831575050565b600182600381111561184557611845611a4d565b036118635760405163f645eedf60e01b815260040160405180910390fd5b600282600381111561187757611877611a4d565b036118985760405163fce698f760e01b815260048101829052602401610423565b60038260038111156118ac576118ac611a4d565b036115ed576040516335e2f38360e21b815260048101829052602401610423565b606060006118da836119db565b604080516020808252818301909252919250600091906020820181803683375050509182525060208101929092525090565b600080807f7fffffffffffffffffffffffffffffff5d576e7357a4501ddfe92f46681b20a084111561194757506000915060039050826119d1565b604080516000808252602082018084528a905260ff891692820192909252606081018790526080810186905260019060a0016020604051602081039080840390855afa15801561199b573d6000803e3d6000fd5b5050604051601f1901519150506001600160a01b0381166119c7575060009250600191508290506119d1565b9250600091508190505b9450945094915050565b600060ff8216601f8111156103e857604051632cd44ac360e21b815260040160405180910390fd5b600060208284031215611a1557600080fd5b81356001600160e01b031981168114611a2d57600080fd5b9392505050565b600060208284031215611a4657600080fd5b5035919050565b634e487b7160e01b600052602160045260246000fd5b6001600160a01b038916815260208101889052604081018790526060810186905260808101859052610100810160028510611aae57634e487b7160e01b600052602160045260246000fd5b60a082019490945267ffffffffffffffff92831660c0820152911660e09091015295945050505050565b6001600160a01b03811681146113d457600080fd5b60008060408385031215611b0057600080fd5b823591506020830135611b1281611ad8565b809150509250929050565b600060208284031215611b2f57600080fd5b8135611a2d81611ad8565b60005b83811015611b55578181015183820152602001611b3d565b50506000910152565b60008151808452611b76816020860160208601611b3a565b601f01601f19169290920160200192915050565b60ff60f81b881681526000602060e081840152611baa60e084018a611b5e565b8381036040850152611bbc818a611b5e565b606085018990526001600160a01b038816608086015260a0850187905284810360c0860152855180825283870192509083019060005b81811015611c0e57835183529284019291840191600101611bf2565b50909c9b505050505050505050505050565b60008060408385031215611c3357600080fd5b50508035926020909101359150565b6000806000838503610100811215611c5957600080fd5b60e0811215611c6757600080fd5b5083925060e084013567ffffffffffffffff80821115611c8657600080fd5b818601915086601f830112611c9a57600080fd5b813581811115611ca957600080fd5b876020828501011115611cbb57600080fd5b6020830194508093505050509250925092565b634e487b7160e01b600052604160045260246000fd5b604051610100810167ffffffffffffffff81118282101715611d0857611d08611cce565b60405290565b8051611d1981611ad8565b919050565b600082601f830112611d2f57600080fd5b815167ffffffffffffffff80821115611d4a57611d4a611cce565b604051601f8301601f19908116603f01168101908282118183101715611d7257611d72611cce565b81604052838152866020858801011115611d8b57600080fd5b611d9c846020830160208901611b3a565b9695505050505050565b805160ff81168114611d1957600080fd5b80516bffffffffffffffffffffffff81168114611d1957600080fd5b805167ffffffffffffffff81168114611d1957600080fd5b805160038110611d1957600080fd5b600060208284031215611e0c57600080fd5b815167ffffffffffffffff80821115611e2457600080fd5b908301906101008286031215611e3957600080fd5b611e41611ce4565b611e4a83611d0e565b815260208301516020820152604083015182811115611e6857600080fd5b611e7487828601611d1e565b604083015250611e8660608401611da6565b6060820152611e9760808401611da6565b6080820152611ea860a08401611db7565b60a0820152611eb960c08401611dd3565b60c0820152611eca60e08401611deb565b60e082015295945050505050565b6001600160a01b039384168152919092166020820152604081019190915260600190565b634e487b7160e01b600052601160045260246000fd5b818103818111156103e8576103e8611efc565b808201808211156103e8576103e8611efc565b600060208284031215611f4a57600080fd5b81518015158114611a2d57600080fd5b6020808252600f908201526e151c985b9cd9995c8819985a5b1959608a1b604082015260600190565b600060018201611f9557611f95611efc565b5060010190565b600181811c90821680611fb057607f821691505b602082108103611fd057634e487b7160e01b600052602260045260246000fd5b5091905056fea26469706673582212200a3045439b47ade4e376a102cf755d0c04d159deea8e06d7240c7e610147519e64736f6c63430008140033",
  "linkReferences": {},
  "deployedLinkReferences": {}
}