{
  "_format": "hh-sol-artifact-1",
  "contractName": "JobEscrow",
  "sourceName": "contracts/JobEscrow.sol",
  "abi": [
    {
      "inputs": [
        {
          "internalType": "address",
          "name": "_token",
          "type": "address"
        },
        {
          "internalType": "address",
          "name": "_config",
          "type": "address"
        },
        {
          "internalType": "address",
          "name": "_providerRegistry",
          "type": "address"
        }
      ],
      "stateMutability": "nonpayable",
      "type": "constructor"
    },
    {
      "inputs": [],
      "name": "AccessControlBadConfirmation",
      "type": "error"
    },
    {
      "inputs": [
        {
          "internalType": "address",
          "name": "account",
          "type": "address"
        },
        {
          "internalType": "bytes32",
          "name": "neededRole",
          "type": "bytes32"
        }
      ],
      "name": "AccessControlUnauthorizedAccount",
      "type": "error"
    },
    {
      "inputs": [],
      "name": "ReentrancyGuardReentrantCall",
      "type": "error"
    },
    {
      "anonymous": false,
      "inputs": [
        {
          "indexed": true,
          "internalType": "bytes32",
          "name": "jobId",
          "type": "bytes32"
        },
        {
          "indexed": false,
          "internalType": "uint256",
          "name": "amount",
          "type": "uint256"
        },
        {
          "indexed": false,
          "internalType": "uint256",
          "name": "newBalance",
          "type": "uint256"
        }
      ],
      "name": "BalanceDeducted",
      "type": "event"
    },
    {
      "anonymous": false,
      "inputs": [
        {
          "indexed": true,
          "internalType": "bytes32",
          "name": "jobId",
          "type": "bytes32"
        },
        {
          "indexed": true,
          "internalType": "address",
          "name": "user",
          "type": "address"
        },
        {
          "indexed": false,
          "internalType": "uint256",
          "name": "refundAmount",
          "type": "uint256"
        },
        {
          "indexed": false,
          "internalType": "uint256",
          "name": "fee",
          "type": "uint256"
        }
      ],
      "name": "BalanceRefunded",
      "type": "event"
    },
    {
      "anonymous": false,
      "inputs": [
        {
          "indexed": true,
          "internalType": "bytes32",
          "name": "jobId",
          "type": "bytes32"
        },
        {
          "indexed": true,
          "internalType": "address",
          "name": "user",
          "type": "address"
        },
        {
          "indexed": true,
          "internalType": "address",
          "name": "provider",
          "type": "address"
        }
      ],
      "name": "JobCancelled",
      "type": "event"
    },
    {
      "anonymous": false,
      "inputs": [
        {
          "indexed": true,
          "internalType": "bytes32",
          "name": "jobId",
          "type": "bytes32"
        },
        {
          "indexed": true,
          "internalType": "address",
          "name": "user",
          "type": "address"
        },
        {
          "indexed": true,
          "internalType": "address",
          "name": "provider",
          "type": "address"
        }
      ],
      "name": "JobCompleted",
      "type": "event"
    },
    {
      "anonymous": false,
      "inputs": [
        {
          "indexed": true,
          "internalType": "bytes32",
          "name": "jobId",
          "type": "bytes32"
        },
        {
          "indexed": true,
          "internalType": "address",
          "name": "user",
          "type": "address"
        },
        {
          "indexed": true,
          "internalType": "address",
          "name": "provider",
          "type": "address"
        },
        {
          "indexed": false,
          "internalType": "uint256",
          "name": "depositAmount",
          "type": "uint256"
        }
      ],
      "name": "JobCreated",
      "type": "event"
    },
    {
      "anonymous": false,
      "inputs": [
        {
          "indexed": true,
          "internalType": "bytes32",
          "name": "jobId",
          "type": "bytes32"
        },
        {
          "indexed": true,
          "internalType": "address",
          "name": "provider",
          "type": "address"
        },
        {
          "indexed": false,
          "internalType": "uint256",
          "name": "rewardAmount",
          "type": "uint256"
        }
      ],
      "name": "ProviderRewardPaid",
      "type": "event"
    },
    {
      "anonymous": false,
      "inputs": [
        {
          "indexed": true,
          "internalType": "bytes32",
          "name": "role",
          "type": "bytes32"
        },
        {
          "indexed": true,
          "internalType": "bytes32",
          "name": "previousAdminRole",
          "type": "bytes32"
        },
        {
          "indexed": true,
          "internalType": "bytes32",
          "name": "newAdminRole",
          "type": "bytes32"
        }
      ],
      "name": "RoleAdminChanged",
      "type": "event"
    },
    {
      "anonymous": false,
      "inputs": [
        {
          "indexed": true,
          "internalType": "bytes32",
          "name": "role",
          "type": "bytes32"
        },
        {
          "indexed": true,
          "internalType": "address",
          "name": "account",
          "type": "address"
        },
        {
          "indexed": true,
          "internalType": "address",
          "name": "sender",
          "type": "address"
        }
      ],
      "name": "RoleGranted",
      "type": "event"
    },
    {
      "anonymous": false,
      "inputs": [
        {
          "indexed": true,
          "internalType": "bytes32",
          "name": "role",
          "type": "bytes32"
        },
        {
          "indexed": true,
          "internalType": "address",
          "name": "account",
          "type": "address"
        },
        {
          "indexed": true,
          "internalType": "address",
          "name": "sender",
          "type": "address"
        }
      ],
      "name": "RoleRevoked",
      "type": "event"
    },
    {
      "inputs": [],
      "name": "DEFAULT_ADMIN_ROLE",
      "outputs": [
        {
          "internalType": "bytes32",
          "name": "",
          "type": "bytes32"
        }
      ],
      "stateMutability": "view",
      "type": "function"
    },
    {
      "inputs": [],
      "name": "RELAYER_ROLE",
      "outputs": [
        {
          "internalType": "bytes32",
          "name": "",
          "type": "bytes32"
        }
      ],
      "stateMutability": "view",
      "type": "function"
    },
    {
      "inputs": [],
      "name": "VALIDATOR_ROLE",
      "outputs": [
        {
          "internalType": "bytes32",
          "name": "",
          "type": "bytes32"
        }
      ],
      "stateMutability": "view",
      "type": "function"
    },
    {
      "inputs": [
        {
          "internalType": "bytes32",
          "name": "jobId",
          "type": "bytes32"
        }
      ],
      "name": "cancelJob",
      "outputs": [],
      "stateMutability": "nonpayable",
      "type": "function"
    },
    {
      "inputs": [
        {
          "internalType": "bytes32",
          "name": "jobId",
          "type": "bytes32"
        },
        {
          "internalType": "uint256",
          "name": "rewardAmount",
          "type": "uint256"
        }
      ],
      "name": "completeJob",
      "outputs": [],
      "stateMutability": "nonpayable",
      "type": "function"
    },
    {
      "inputs": [],
      "name": "config",
      "outputs": [
        {
          "internalType": "contract Config",
          "name": "",
          "type": "address"
        }
      ],
      "stateMutability": "view",
      "type": "function"
    },
    {
      "inputs": [
        {
          "internalType": "address",
          "name": "provider",
          "type": "address"
        },
        {
          "internalType": "uint256",
          "name": "depositAmount",
          "type": "uint256"
        }
      ],
      "name": "createJob",
      "outputs": [],
      "stateMutability": "nonpayable",
      "type": "function"
    },
    {
      "inputs": [
        {
          "internalType": "bytes32",
          "name": "jobId",
          "type": "bytes32"
        },
        {
          "internalType": "uint256",
          "name": "amount",
          "type": "uint256"
        }
      ],
      "name": "deductBalance",
      "outputs": [],
      "stateMutability": "nonpayable",
      "type": "function"
    },
    {
      "inputs": [
        {
          "internalType": "bytes32",
          "name": "jobId",
          "type": "bytes32"
        }
      ],
      "name": "getJob",
      "outputs": [
        {
          "components": [
            {
              "internalType": "address",
              "name": "user",
              "type": "address"
            },
            {
              "internalType": "address",
              "name": "provider",
              "type": "address"
            },
            {
              "internalType": "uint256",
              "name": "depositAmount",
              "type": "uint256"
            },
            {
              "internalType": "uint256",
              "name": "remainingBalance",
              "type": "uint256"
            },
            {
              "internalType": "uint256",
              "name": "createdAt",
              "type": "uint256"
            },
            {
              "internalType": "bool",
              "name": "isActive",
              "type": "bool"
            },
            {
              "internalType": "bool",
              "name": "isCompleted",
              "type": "bool"
            }
          ],
          "internalType": "struct JobEscrow.Job",
          "name": "",
          "type": "tuple"
        }
      ],
      "stateMutability": "view",
      "type": "function"
    },
    {
      "inputs": [
        {
          "internalType": "address",
          "name": "provider",
          "type": "address"
        }
      ],
      "name": "getProviderJobs",
      "outputs": [
        {
          "internalType": "bytes32[]",
          "name": "",
          "type": "bytes32[]"
        }
      ],
      "stateMutability": "view",
      "type": "function"
    },
    {
      "inputs": [
        {
          "internalType": "bytes32",
          "name": "role",
          "type": "bytes32"
        }
      ],
      "name": "getRoleAdmin",
      "outputs": [
        {
          "internalType": "bytes32",
          "name": "",
          "type": "bytes32"
        }
      ],
      "stateMutability": "view",
      "type": "function"
    },
    {
      "inputs": [
        {
          "internalType": "address",
          "name": "user",
          "type": "address"
        }
      ],
      "name": "getUserJobs",
      "outputs": [
        {
          "internalType": "bytes32[]",
          "name": "",
          "type": "bytes32[]"
        }
      ],
      "stateMutability": "view",
      "type": "function"
    },
    {
      "inputs": [
        {
          "internalType": "bytes32",
          "name": "role",
          "type": "bytes32"
        },
        {
          "internalType": "address",
          "name": "account",
          "type": "address"
        }
      ],
      "name": "grantRole",
      "outputs": [],
      "stateMutability": "nonpayable",
      "type": "function"
    },
    {
      "inputs": [
        {
          "internalType": "bytes32",
          "name": "role",
          "type": "bytes32"
        },
        {
          "internalType": "address",
          "name": "account",
          "type": "address"
        }
      ],
      "name": "hasRole",
      "outputs": [
        {
          "internalType": "bool",
          "name": "",
          "type": "bool"
        }
      ],
      "stateMutability": "view",
      "type": "function"
    },
    {
      "inputs": [],
      "name": "jobCounter",
      "outputs": [
        {
          "internalType": "uint256",
          "name": "",
          "type": "uint256"
        }
      ],
      "stateMutability": "view",
      "type": "function"
    },
    {
      "inputs": [
        {
          "internalType": "bytes32",
          "name": "",
          "type": "bytes32"
        }
      ],
      "name": "jobs",
      "outputs": [
        {
          "internalType": "address",
          "name": "user",
          "type": "address"
        },
        {
          "internalType": "address",
          "name": "provider",
          "type": "address"
        },
        {
          "internalType": "uint256",
          "name": "depositAmount",
          "type": "uint256"
        },
        {
          "internalType": "uint256",
          "name": "remainingBalance",
          "type": "uint256"
        },
        {
          "internalType": "uint256",
          "name": "createdAt",
          "type": "uint256"
        },
        {
          "internalType": "bool",
          "name": "isActive",
          "type": "bool"
        },
        {
          "internalType": "bool",
          "name": "isCompleted",
          "type": "bool"
        }
      ],
      "stateMutability": "view",
      "type": "function"
    },
    {
      "inputs": [
        {
          "internalType": "address",
          "name": "",
          "type": "address"
        },
        {
          "internalType": "uint256",
          "name": "",
          "type": "uint256"
        }
      ],
      "name": "providerJobs",
      "outputs": [
        {
          "internalType": "bytes32",
          "name": "",
          "type": "bytes32"
        }
      ],
      "stateMutability": "view",
      "type": "function"
    },
    {
      "inputs": [],
      "name": "providerRegistry",
      "outputs": [
        {
          "internalType": "contract ProviderRegistry",
          "name": "",
          "type": "address"
        }
      ],
      "stateMutability": "view",
      "type": "function"
    },
    {
      "inputs": [
        {
          "internalType": "bytes32",
          "name": "role",
          "type": "bytes32"
        },
        {
          "internalType": "address",
          "name": "callerConfirmation",
          "type": "address"
        }
      ],
      "name": "renounceRole",
      "outputs": [],
      "stateMutability": "nonpayable",
      "type": "function"
    },
    {
      "inputs": [
        {
          "internalType": "bytes32",
          "name": "role",
          "type": "bytes32"
        },
        {
          "internalType": "address",
          "name": "account",
          "type": "address"
        }
      ],
      "name": "revokeRole",
      "outputs": [],
      "stateMutability": "nonpayable",
      "type": "function"
    },
    {
      "inputs": [
        {
          "internalType": "bytes4",
          "name": "interfaceId",
          "type": "bytes4"
        }
      ],
      "name": "supportsInterface",
      "outputs": [
        {
          "internalType": "bool",
          "name": "",
          "type": "bool"
        }
      ],
      "stateMutability": "view",
      "type": "function"
    },
    {
      "inputs": [],
      "name": "token",
      "outputs": [
        {
          "internalType": "contract CLDToken",
          "name": "",
          "type": "address"
        }
      ],
      "stateMutability": "view",
      "type": "function"
    },
    {
      "inputs": [
        {
          "internalType": "address",
          "name": "",
          "type": "address"
        },
        {
          "internalType": "uint256",
          "name": "",
          "type": "uint256"
        }
      ],
      "name": "userJobs",
      "outputs": [
        {
          "internalType": "bytes32",
          "name": "",
          "type": "bytes32"
        }
      ],
      "stateMutability": "view",
      "type": "function"
    }
  ],
  "bytecode": "0x60e060405234801561001057600080fd5b5060405161204538038061204583398101604081905261002f91610291565b600180556001600160a01b03831661008e5760405162461bcd60e51b815260206004820152601860248201527f4a6f62457363726f773a20496e76616c696420746f6b656e000000000000000060448201526064015b60405180910390fd5b6001600160a01b0382166100e45760405162461bcd60e51b815260206004820152601960248201527f4a6f62457363726f773a20496e76616c696420636f6e666967000000000000006044820152606401610085565b6001600160a01b0381166101465760405162461bcd60e51b8152602060048201526024808201527f4a6f62457363726f773a20496e76616c69642070726f766964657220726567696044820152637374727960e01b6064820152608401610085565b6001600160a01b0380841660805282811660a052811660c05261016a6000336101c9565b506101957f21702c8af46127c7fa207f89d0b0a8441bb32959a0ac7df790e9ab1a25c98926336101c9565b506101c07fe2b7fb3b832174769106daebcfd6d1970523240dda11281102db9363b83b0dc4336101c9565b505050506102d4565b6000828152602081815260408083206001600160a01b038516845290915281205460ff1661026b576000838152602081815260408083206001600160a01b03861684529091529020805460ff191660011790556102233390565b6001600160a01b0316826001600160a01b0316847f2f8788117e7eff1d82e926ec794901d17c78024a50270940304540a733656f0d60405160405180910390a450600161026f565b5060005b92915050565b80516001600160a01b038116811461028c57600080fd5b919050565b6000806000606084860312156102a657600080fd5b6102af84610275565b92506102bd60208501610275565b91506102cb60408501610275565b90509250925092565b60805160a05160c051611cfc610349600039600081816102f60152818161076a01526115500152600081816103480152818161082301528181610dec0152818161116301526116020152600081816105980152818161092d01528181610eb90152818161142401526116cf0152611cfc6000f3fe608060405234801561001057600080fd5b506004361061018d5760003560e01c80637c3deeca116100e3578063c17ff9d21161008c578063f2640b5e11610066578063f2640b5e14610456578063f729cf0d14610469578063fc0c546a1461059357600080fd5b8063c17ff9d214610409578063c49baebe1461041c578063d547741f1461044357600080fd5b8063927a831b116100bd578063927a831b146103db578063a217fddf146103ee578063a874115c146103f657600080fd5b80637c3deeca1461036a57806391d148541461037d578063926d7d7f146103b457600080fd5b80633f2a66f811610145578063545921d91161011f578063545921d9146102f15780635fae14501461033057806379502c551461034357600080fd5b80633f2a66f8146102b55780633fa7276c146102c857806350355d76146102e857600080fd5b80632f2ff15d116101765780632f2ff15d146101eb57806336568abe1461020057806338ed7cfc1461021357600080fd5b806301ffc9a714610192578063248a9ca3146101ba575b600080fd5b6101a56101a0366004611abc565b6105ba565b60405190151581526020015b60405180910390f35b6101dd6101c8366004611b05565b60009081526020819052604090206001015490565b6040519081526020016101b1565b6101fe6101f9366004611b3a565b610653565b005b6101fe61020e366004611b3a565b61067e565b610271610221366004611b05565b60026020819052600091825260409091208054600182015492820154600383015460048401546005909401546001600160a01b039384169590931693919290919060ff8082169161010090041687565b604080516001600160a01b0398891681529790961660208801529486019390935260608501919091526080840152151560a0830152151560c082015260e0016101b1565b6101fe6102c3366004611b66565b6106cf565b6102db6102d6366004611b90565b610c65565b6040516101b19190611bab565b6101dd60055481565b6103187f000000000000000000000000000000000000000000000000000000000000000081565b6040516001600160a01b0390911681526020016101b1565b6101fe61033e366004611b05565b610cd1565b6103187f000000000000000000000000000000000000000000000000000000000000000081565b6101fe610378366004611bee565b611018565b6101a561038b366004611b3a565b6000918252602082815260408084206001600160a01b0393909316845291905290205460ff1690565b6101dd7fe2b7fb3b832174769106daebcfd6d1970523240dda11281102db9363b83b0dc481565b6101dd6103e9366004611b66565b611242565b6101dd600081565b6101fe610404366004611bee565b611273565b6101dd610417366004611b66565b61182b565b6101dd7f21702c8af46127c7fa207f89d0b0a8441bb32959a0ac7df790e9ab1a25c9892681565b6101fe610451366004611b3a565b611847565b6102db610464366004611b90565b61186c565b610527610477366004611b05565b6040805160e081018252600080825260208201819052918101829052606081018290526080810182905260a0810182905260c081019190915250600090815260026020818152604092839020835160e08101855281546001600160a01b03908116825260018301541692810192909252918201549281019290925260038101546060830152600481015460808301526005015460ff808216151560a084015261010090910416151560c082015290565b6040516101b19190600060e0820190506001600160a01b0383511682526001600160a01b03602084015116602083015260408301516040830152606083015160608301526080830151608083015260a0830151151560a083015260c0830151151560c083015292915050565b6103187f000000000000000000000000000000000000000000000000000000000000000081565b60007fffffffff0000000000000000000000000000000000000000000000000000000082167f7965db0b00000000000000000000000000000000000000000000000000000000148061064d57507f01ffc9a7000000000000000000000000000000000000000000000000000000007fffffffff000000000000000000000000000000000000000000000000000000008316145b92915050565b60008281526020819052604090206001015461066e816118d6565b61067883836118e0565b50505050565b6001600160a01b03811633146106c0576040517f6697b23200000000000000000000000000000000000000000000000000000000815260040160405180910390fd5b6106ca828261198a565b505050565b6106d7611a0d565b6001600160a01b0382166107325760405162461bcd60e51b815260206004820152601b60248201527f4a6f62457363726f773a20496e76616c69642070726f7669646572000000000060448201526064015b60405180910390fd5b6040517f696724cb0000000000000000000000000000000000000000000000000000000081526001600160a01b0383811660048301527f0000000000000000000000000000000000000000000000000000000000000000169063696724cb90602401602060405180830381865afa1580156107b1573d6000803e3d6000fd5b505050506040513d601f19601f820116820180604052508101906107d59190611c10565b6108215760405162461bcd60e51b815260206004820152601e60248201527f4a6f62457363726f773a2050726f7669646572206e6f742061637469766500006044820152606401610729565b7f00000000000000000000000000000000000000000000000000000000000000006001600160a01b03166383f770016040518163ffffffff1660e01b8152600401602060405180830381865afa15801561087f573d6000803e3d6000fd5b505050506040513d601f19601f820116820180604052508101906108a39190611c32565b8110156108f25760405162461bcd60e51b815260206004820152601f60248201527f4a6f62457363726f773a20496e73756666696369656e74206465706f736974006044820152606401610729565b6040517f23b872dd000000000000000000000000000000000000000000000000000000008152336004820152306024820152604481018290527f00000000000000000000000000000000000000000000000000000000000000006001600160a01b0316906323b872dd906064016020604051808303816000875af115801561097e573d6000803e3d6000fd5b505050506040513d601f19601f820116820180604052508101906109a29190611c10565b6109ee5760405162461bcd60e51b815260206004820152601a60248201527f4a6f62457363726f773a205472616e73666572206661696c65640000000000006044820152606401610729565b600033834260056000815480929190610a0690611c61565b909155506040516bffffffffffffffffffffffff19606095861b811660208301529390941b9092166034840152604883015260688201526088016040516020818303038152906040528051906020012090506040518060e00160405280336001600160a01b03168152602001846001600160a01b03168152602001838152602001838152602001428152602001600115158152602001600015158152506002600083815260200190815260200160002060008201518160000160006101000a8154816001600160a01b0302191690836001600160a01b0316021790555060208201518160010160006101000a8154816001600160a01b0302191690836001600160a01b0316021790555060408201518160020155606082015181600301556080820151816004015560a08201518160050160006101000a81548160ff02191690831515021790555060c08201518160050160016101000a81548160ff02191690831515021790555090505060036000336001600160a01b03166001600160a01b0316815260200190815260200160002081908060018154018082558091505060019003906000526020600020016000909190919091505560046000846001600160a01b03166001600160a01b03168152602001908152602001600020819080600181540180825580915050600190039060005260206000200160009091909190915055826001600160a01b0316336001600160a01b0316827fd4308b56cdccee295e288de7c02585786d44894362fac012f3053072b5257c6a85604051610c4f91815260200190565b60405180910390a450610c6160018055565b5050565b6001600160a01b038116600090815260036020908152604091829020805483518184028101840190945280845260609392830182828015610cc557602002820191906000526020600020905b815481526020019060010190808311610cb1575b50505050509050919050565b610cd9611a0d565b6000818152600260205260409020600581015460ff16610d3b5760405162461bcd60e51b815260206004820152601960248201527f4a6f62457363726f773a204a6f62206e6f7420616374697665000000000000006044820152606401610729565b80546001600160a01b0316331480610d8157503360009081527f5111aeae4aa79889928e72f88b5872109754de9d419ea9a4e3df5fba21d4d46f602052604090205460ff165b610dcd5760405162461bcd60e51b815260206004820152601760248201527f4a6f62457363726f773a20556e617574686f72697a65640000000000000000006044820152606401610729565b60058101805461ffff1916905560038101548015610fc85760006127107f00000000000000000000000000000000000000000000000000000000000000006001600160a01b031663568952e16040518163ffffffff1660e01b8152600401602060405180830381865afa158015610e48573d6000803e3d6000fd5b505050506040513d601f19601f82011682018060405250810190610e6c9190611c32565b610e769084611c7a565b610e809190611c91565b90506000610e8e8284611cb3565b845460405163a9059cbb60e01b81526001600160a01b039182166004820152602481018390529192507f0000000000000000000000000000000000000000000000000000000000000000169063a9059cbb906044016020604051808303816000875af1158015610f02573d6000803e3d6000fd5b505050506040513d601f19601f82011682018060405250810190610f269190611c10565b610f7c5760405162461bcd60e51b815260206004820152602160248201527f4a6f62457363726f773a20526566756e64207472616e73666572206661696c656044820152601960fa1b6064820152608401610729565b835460408051838152602081018590526001600160a01b039092169187917f2c45aa3044525fbf226d24f7757d746e732b36dd2924be37615e5a9973c6d402910160405180910390a350505b600182015482546040516001600160a01b03928316929091169085907ff40fb8a42966019bc3338df71ecabcb95dde399723dd930c228747e094fc27f490600090a4505061101560018055565b50565b7f21702c8af46127c7fa207f89d0b0a8441bb32959a0ac7df790e9ab1a25c98926611042816118d6565b6000838152600260205260409020600581015460ff166110a45760405162461bcd60e51b815260206004820152601960248201527f4a6f62457363726f773a204a6f62206e6f7420616374697665000000000000006044820152606401610729565b80600301548311156111025760405162461bcd60e51b815260206004820152602160248201527f4a6f62457363726f773a20416d6f756e7420657863656564732062616c616e636044820152606560f81b6064820152608401610729565b828160030160008282546111169190611cb3565b9091555050600381015460405185917f1ee4818fc0925a007082262d9432baa556211abd03356168c6b26943375ff8279161115991878252602082015260400190565b60405180910390a27f00000000000000000000000000000000000000000000000000000000000000006001600160a01b03166383f770016040518163ffffffff1660e01b8152600401602060405180830381865afa1580156111bf573d6000803e3d6000fd5b505050506040513d601f19601f820116820180604052508101906111e39190611c32565b816003015410156106785760058101805460ff19169055600181015481546040516001600160a01b03928316929091169086907ff40fb8a42966019bc3338df71ecabcb95dde399723dd930c228747e094fc27f490600090a450505050565b6004602052816000526040600020818154811061125e57600080fd5b90600052602060002001600091509150505481565b61127b611a0d565b6000828152600260205260409020600581015460ff166112dd5760405162461bcd60e51b815260206004820152601960248201527f4a6f62457363726f773a204a6f62206e6f7420616374697665000000000000006044820152606401610729565b80546001600160a01b031633148061132357503360009081527f5111aeae4aa79889928e72f88b5872109754de9d419ea9a4e3df5fba21d4d46f602052604090205460ff165b61136f5760405162461bcd60e51b815260206004820152601760248201527f4a6f62457363726f773a20556e617574686f72697a65640000000000000000006044820152606401610729565b80600301548211156113cd5760405162461bcd60e51b815260206004820152602160248201527f4a6f62457363726f773a2052657761726420657863656564732062616c616e636044820152606560f81b6064820152608401610729565b60058101805461ffff191661010017905560038101546000906113f1908490611cb3565b905082156115f557600182015460405163a9059cbb60e01b81526001600160a01b039182166004820152602481018590527f00000000000000000000000000000000000000000000000000000000000000009091169063a9059cbb906044016020604051808303816000875af115801561146f573d6000803e3d6000fd5b505050506040513d601f19601f820116820180604052508101906114939190611c10565b6115055760405162461bcd60e51b815260206004820152602360248201527f4a6f62457363726f773a2050726f7669646572207472616e736665722066616960448201527f6c656400000000000000000000000000000000000000000000000000000000006064820152608401610729565b60018201546040517f44ea559a0000000000000000000000000000000000000000000000000000000081526001600160a01b03918216600482015260006024820152604481018590527f0000000000000000000000000000000000000000000000000000000000000000909116906344ea559a90606401600060405180830381600087803b15801561159657600080fd5b505af11580156115aa573d6000803e3d6000fd5b5050505060018201546040518481526001600160a01b039091169085907f4b75effc6b157ef40e22d53df5453e04e543453cb6491df82545af9f17d808689060200160405180910390a35b80156117de5760006127107f00000000000000000000000000000000000000000000000000000000000000006001600160a01b031663568952e16040518163ffffffff1660e01b8152600401602060405180830381865afa15801561165e573d6000803e3d6000fd5b505050506040513d601f19601f820116820180604052508101906116829190611c32565b61168c9084611c7a565b6116969190611c91565b905060006116a48284611cb3565b845460405163a9059cbb60e01b81526001600160a01b039182166004820152602481018390529192507f0000000000000000000000000000000000000000000000000000000000000000169063a9059cbb906044016020604051808303816000875af1158015611718573d6000803e3d6000fd5b505050506040513d601f19601f8201168201806040525081019061173c9190611c10565b6117925760405162461bcd60e51b815260206004820152602160248201527f4a6f62457363726f773a20526566756e64207472616e73666572206661696c656044820152601960fa1b6064820152608401610729565b835460408051838152602081018590526001600160a01b039092169188917f2c45aa3044525fbf226d24f7757d746e732b36dd2924be37615e5a9973c6d402910160405180910390a350505b600182015482546040516001600160a01b03928316929091169086907f2e247065c5ff1ef156c1c2edc2ca742c324cf3633574513e52849cd098b1cee590600090a45050610c6160018055565b6003602052816000526040600020818154811061125e57600080fd5b600082815260208190526040902060010154611862816118d6565b610678838361198a565b6001600160a01b038116600090815260046020908152604091829020805483518184028101840190945280845260609392830182828015610cc55760200282019190600052602060002090815481526020019060010190808311610cb15750505050509050919050565b6110158133611a50565b6000828152602081815260408083206001600160a01b038516845290915281205460ff16611982576000838152602081815260408083206001600160a01b03861684529091529020805460ff1916600117905561193a3390565b6001600160a01b0316826001600160a01b0316847f2f8788117e7eff1d82e926ec794901d17c78024a50270940304540a733656f0d60405160405180910390a450600161064d565b50600061064d565b6000828152602081815260408083206001600160a01b038516845290915281205460ff1615611982576000838152602081815260408083206001600160a01b0386168085529252808320805460ff1916905551339286917ff6391f5c32d9c69d2a47ea670b442974b53935d1edc7fd64eb21e047a839171b9190a450600161064d565b600260015403611a49576040517f3ee5aeb500000000000000000000000000000000000000000000000000000000815260040160405180910390fd5b6002600155565b6000828152602081815260408083206001600160a01b038516845290915290205460ff16610c61576040517fe2517d3f0000000000000000000000000000000000000000000000000000000081526001600160a01b038216600482015260248101839052604401610729565b600060208284031215611ace57600080fd5b81357fffffffff0000000000000000000000000000000000000000000000000000000081168114611afe57600080fd5b9392505050565b600060208284031215611b1757600080fd5b5035919050565b80356001600160a01b0381168114611b3557600080fd5b919050565b60008060408385031215611b4d57600080fd5b82359150611b5d60208401611b1e565b90509250929050565b60008060408385031215611b7957600080fd5b611b8283611b1e565b946020939093013593505050565b600060208284031215611ba257600080fd5b611afe82611b1e565b602080825282518282018190526000918401906040840190835b81811015611be3578351835260209384019390920191600101611bc5565b509095945050505050565b60008060408385031215611c0157600080fd5b50508035926020909101359150565b600060208284031215611c2257600080fd5b81518015158114611afe57600080fd5b600060208284031215611c4457600080fd5b5051919050565b634e487b7160e01b600052601160045260246000fd5b600060018201611c7357611c73611c4b565b5060010190565b808202811582820484141761064d5761064d611c4b565b600082611cae57634e487b7160e01b600052601260045260246000fd5b500490565b8181038181111561064d5761064d611c4b56fea264697066735822122061d609c9e80d421acc2b22eed119066c389ff98d6071b68463dca38b86adfa0064736f6c634300081c0033",
  "linkReferences": {},
  "deployedLinkReferences": {}
}