{
  "_format": "hh-sol-artifact-1",
  "contractName": "JobEscrow",
  "sourceName": "contracts/JobEscrow.sol",
  "abi": [
    {
      "inputs": [
        {
          "internalType": "address",
          "name": "_cldToken",
          "type": "address"
        },
        {
          "internalType": "address",
          "name": "_providerRegistry",
          "type": "address"
        }
      ],
      "stateMutability": "nonpayable",
      "type": "constructor"
    },
    {
      "inputs": [],
      "name": "AccessControlBadConfirmation",
      "type": "error"
    },
    {
      "inputs": [
        {
          "internalType": "address",
          "name": "account",
          "type": "address"
        },
        {
          "internalType": "bytes32",
          "name": "neededRole",
          "type": "bytes32"
        }
      ],
      "name": "AccessControlUnauthorizedAccount",
      "type": "error"
    },
    {
      "inputs": [
        {
          "internalType": "uint256",
          "name": "deadline",
          "type": "uint256"
        },
        {
          "internalType": "uint256",
          "name": "current",
          "type": "uint256"
        }
      ],
      "name": "DeadlineExceeded",
      "type": "error"
    },
    {
      "inputs": [],
      "name": "ECDSAInvalidSignature",
      "type": "error"
    },
    {
      "inputs": [
        {
          "internalType": "uint256",
          "name": "length",
          "type": "uint256"
        }
      ],
      "name": "ECDSAInvalidSignatureLength",
      "type": "error"
    },
    {
      "inputs": [
        {
          "internalType": "bytes32",
          "name": "s",
          "type": "bytes32"
        }
      ],
      "name": "ECDSAInvalidSignatureS",
      "type": "error"
    },
    {
      "inputs": [
        {
          "internalType": "uint256",
          "name": "required",
          "type": "uint256"
        },
        {
          "internalType": "uint256",
          "name": "available",
          "type": "uint256"
        }
      ],
      "name": "InsufficientDeposit",
      "type": "error"
    },
    {
      "inputs": [
        {
          "internalType": "uint256",
          "name": "expected",
          "type": "uint256"
        },
        {
          "internalType": "uint256",
          "name": "provided",
          "type": "uint256"
        }
      ],
      "name": "InvalidNonce",
      "type": "error"
    },
    {
      "inputs": [
        {
          "internalType": "address",
          "name": "expected",
          "type": "address"
        },
        {
          "internalType": "address",
          "name": "provided",
          "type": "address"
        }
      ],
      "name": "InvalidProvider",
      "type": "error"
    },
    {
      "inputs": [
        {
          "internalType": "uint256",
          "name": "grossCost",
          "type": "uint256"
        },
        {
          "internalType": "uint256",
          "name": "providerEarn",
          "type": "uint256"
        }
      ],
      "name": "InvalidProviderEarn",
      "type": "error"
    },
    {
      "inputs": [],
      "name": "InvalidShortString",
      "type": "error"
    },
    {
      "inputs": [],
      "name": "InvalidSignature",
      "type": "error"
    },
    {
      "inputs": [
        {
          "internalType": "address",
          "name": "expected",
          "type": "address"
        },
        {
          "internalType": "address",
          "name": "provided",
          "type": "address"
        }
      ],
      "name": "InvalidUser",
      "type": "error"
    },
    {
      "inputs": [
        {
          "internalType": "uint256",
          "name": "jobId",
          "type": "uint256"
        }
      ],
      "name": "JobNotFound",
      "type": "error"
    },
    {
      "inputs": [
        {
          "internalType": "uint256",
          "name": "jobId",
          "type": "uint256"
        }
      ],
      "name": "JobNotOpen",
      "type": "error"
    },
    {
      "inputs": [
        {
          "internalType": "address",
          "name": "account",
          "type": "address"
        }
      ],
      "name": "NoCreditToWithdraw",
      "type": "error"
    },
    {
      "inputs": [
        {
          "internalType": "address",
          "name": "provider",
          "type": "address"
        }
      ],
      "name": "ProviderNotActive",
      "type": "error"
    },
    {
      "inputs": [],
      "name": "ReentrancyGuardReentrantCall",
      "type": "error"
    },
    {
      "inputs": [
        {
          "internalType": "string",
          "name": "str",
          "type": "string"
        }
      ],
      "name": "StringTooLong",
      "type": "error"
    },
    {
      "inputs": [
        {
          "internalType": "address",
          "name": "caller",
          "type": "address"
        },
        {
          "internalType": "address",
          "name": "user",
          "type": "address"
        },
        {
          "internalType": "address",
          "name": "provider",
          "type": "address"
        }
      ],
      "name": "UnauthorizedCloser",
      "type": "error"
    },
    {
      "anonymous": false,
      "inputs": [],
      "name": "EIP712DomainChanged",
      "type": "event"
    },
    {
      "anonymous": false,
      "inputs": [
        {
          "indexed": true,
          "internalType": "uint256",
          "name": "jobId",
          "type": "uint256"
        },
        {
          "indexed": false,
          "internalType": "uint256",
          "name": "remaining",
          "type": "uint256"
        }
      ],
      "name": "JobClosed",
      "type": "event"
    },
    {
      "anonymous": false,
      "inputs": [
        {
          "indexed": true,
          "internalType": "uint256",
          "name": "jobId",
          "type": "uint256"
        },
        {
          "indexed": true,
          "internalType": "address",
          "name": "user",
          "type": "address"
        },
        {
          "indexed": true,
          "internalType": "address",
          "name": "provider",
          "type": "address"
        },
        {
          "indexed": false,
          "internalType": "uint256",
          "name": "budgetAmount",
          "type": "uint256"
        }
      ],
      "name": "JobCreated",
      "type": "event"
    },
    {
      "anonymous": false,
      "inputs": [
        {
          "indexed": true,
          "internalType": "uint256",
          "name": "jobId",
          "type": "uint256"
        },
        {
          "indexed": false,
          "internalType": "uint256",
          "name": "amount",
          "type": "uint256"
        }
      ],
      "name": "JobDeposited",
      "type": "event"
    },
    {
      "anonymous": false,
      "inputs": [
        {
          "indexed": true,
          "internalType": "address",
          "name": "provider",
          "type": "address"
        },
        {
          "indexed": false,
          "internalType": "uint256",
          "name": "amount",
          "type": "uint256"
        }
      ],
      "name": "ProviderWithdrawn",
      "type": "event"
    },
    {
      "anonymous": false,
      "inputs": [
        {
          "indexed": true,
          "internalType": "bytes32",
          "name": "role",
          "type": "bytes32"
        },
        {
          "indexed": true,
          "internalType": "bytes32",
          "name": "previousAdminRole",
          "type": "bytes32"
        },
        {
          "indexed": true,
          "internalType": "bytes32",
          "name": "newAdminRole",
          "type": "bytes32"
        }
      ],
      "name": "RoleAdminChanged",
      "type": "event"
    },
    {
      "anonymous": false,
      "inputs": [
        {
          "indexed": true,
          "internalType": "bytes32",
          "name": "role",
          "type": "bytes32"
        },
        {
          "indexed": true,
          "internalType": "address",
          "name": "account",
          "type": "address"
        },
        {
          "indexed": true,
          "internalType": "address",
          "name": "sender",
          "type": "address"
        }
      ],
      "name": "RoleGranted",
      "type": "event"
    },
    {
      "anonymous": false,
      "inputs": [
        {
          "indexed": true,
          "internalType": "bytes32",
          "name": "role",
          "type": "bytes32"
        },
        {
          "indexed": true,
          "internalType": "address",
          "name": "account",
          "type": "address"
        },
        {
          "indexed": true,
          "internalType": "address",
          "name": "sender",
          "type": "address"
        }
      ],
      "name": "RoleRevoked",
      "type": "event"
    },
    {
      "anonymous": false,
      "inputs": [
        {
          "indexed": true,
          "internalType": "uint256",
          "name": "jobId",
          "type": "uint256"
        },
        {
          "indexed": false,
          "internalType": "uint256",
          "name": "grossCost",
          "type": "uint256"
        },
        {
          "indexed": false,
          "internalType": "uint256",
          "name": "providerEarn",
          "type": "uint256"
        },
        {
          "indexed": false,
          "internalType": "uint256",
          "name": "refund",
          "type": "uint256"
        },
        {
          "indexed": false,
          "internalType": "uint256",
          "name": "nonceAfter",
          "type": "uint256"
        }
      ],
      "name": "UsageSubmitted",
      "type": "event"
    },
    {
      "anonymous": false,
      "inputs": [
        {
          "indexed": true,
          "internalType": "address",
          "name": "user",
          "type": "address"
        },
        {
          "indexed": false,
          "internalType": "uint256",
          "name": "amount",
          "type": "uint256"
        }
      ],
      "name": "UserRefundWithdrawn",
      "type": "event"
    },
    {
      "inputs": [],
      "name": "DEFAULT_ADMIN_ROLE",
      "outputs": [
        {
          "internalType": "bytes32",
          "name": "",
          "type": "bytes32"
        }
      ],
      "stateMutability": "view",
      "type": "function"
    },
    {
      "inputs": [],
      "name": "VALIDATOR_ROLE",
      "outputs": [
        {
          "internalType": "bytes32",
          "name": "",
          "type": "bytes32"
        }
      ],
      "stateMutability": "view",
      "type": "function"
    },
    {
      "inputs": [],
      "name": "cldToken",
      "outputs": [
        {
          "internalType": "contract CLDToken",
          "name": "",
          "type": "address"
        }
      ],
      "stateMutability": "view",
      "type": "function"
    },
    {
      "inputs": [
        {
          "internalType": "uint256",
          "name": "jobId",
          "type": "uint256"
        }
      ],
      "name": "closeJob",
      "outputs": [],
      "stateMutability": "nonpayable",
      "type": "function"
    },
    {
      "inputs": [
        {
          "internalType": "address",
          "name": "provider",
          "type": "address"
        },
        {
          "internalType": "uint256",
          "name": "budgetAmount",
          "type": "uint256"
        }
      ],
      "name": "createJob",
      "outputs": [
        {
          "internalType": "uint256",
          "name": "jobId",
          "type": "uint256"
        }
      ],
      "stateMutability": "nonpayable",
      "type": "function"
    },
    {
      "inputs": [
        {
          "internalType": "uint256",
          "name": "jobId",
          "type": "uint256"
        },
        {
          "internalType": "uint256",
          "name": "amount",
          "type": "uint256"
        }
      ],
      "name": "deposit",
      "outputs": [],
      "stateMutability": "nonpayable",
      "type": "function"
    },
    {
      "inputs": [],
      "name": "eip712Domain",
      "outputs": [
        {
          "internalType": "bytes1",
          "name": "fields",
          "type": "bytes1"
        },
        {
          "internalType": "string",
          "name": "name",
          "type": "string"
        },
        {
          "internalType": "string",
          "name": "version",
          "type": "string"
        },
        {
          "internalType": "uint256",
          "name": "chainId",
          "type": "uint256"
        },
        {
          "internalType": "address",
          "name": "verifyingContract",
          "type": "address"
        },
        {
          "internalType": "bytes32",
          "name": "salt",
          "type": "bytes32"
        },
        {
          "internalType": "uint256[]",
          "name": "extensions",
          "type": "uint256[]"
        }
      ],
      "stateMutability": "view",
      "type": "function"
    },
    {
      "inputs": [
        {
          "internalType": "bytes32",
          "name": "role",
          "type": "bytes32"
        }
      ],
      "name": "getRoleAdmin",
      "outputs": [
        {
          "internalType": "bytes32",
          "name": "",
          "type": "bytes32"
        }
      ],
      "stateMutability": "view",
      "type": "function"
    },
    {
      "inputs": [
        {
          "internalType": "bytes32",
          "name": "role",
          "type": "bytes32"
        },
        {
          "internalType": "address",
          "name": "account",
          "type": "address"
        }
      ],
      "name": "grantRole",
      "outputs": [],
      "stateMutability": "nonpayable",
      "type": "function"
    },
    {
      "inputs": [
        {
          "internalType": "bytes32",
          "name": "role",
          "type": "bytes32"
        },
        {
          "internalType": "address",
          "name": "account",
          "type": "address"
        }
      ],
      "name": "hasRole",
      "outputs": [
        {
          "internalType": "bool",
          "name": "",
          "type": "bool"
        }
      ],
      "stateMutability": "view",
      "type": "function"
    },
    {
      "inputs": [
        {
          "internalType": "uint256",
          "name": "",
          "type": "uint256"
        }
      ],
      "name": "jobs",
      "outputs": [
        {
          "internalType": "address",
          "name": "user",
          "type": "address"
        },
        {
          "internalType": "address",
          "name": "provider",
          "type": "address"
        },
        {
          "internalType": "uint256",
          "name": "deposited",
          "type": "uint256"
        },
        {
          "internalType": "uint256",
          "name": "spent",
          "type": "uint256"
        },
        {
          "internalType": "uint256",
          "name": "nonce",
          "type": "uint256"
        },
        {
          "internalType": "enum JobEscrow.JobStatus",
          "name": "status",
          "type": "uint8"
        },
        {
          "internalType": "uint64",
          "name": "createdAt",
          "type": "uint64"
        },
        {
          "internalType": "uint64",
          "name": "closedAt",
          "type": "uint64"
        }
      ],
      "stateMutability": "view",
      "type": "function"
    },
    {
      "inputs": [],
      "name": "nextJobId",
      "outputs": [
        {
          "internalType": "uint256",
          "name": "",
          "type": "uint256"
        }
      ],
      "stateMutability": "view",
      "type": "function"
    },
    {
      "inputs": [
        {
          "internalType": "address",
          "name": "",
          "type": "address"
        }
      ],
      "name": "providerCredit",
      "outputs": [
        {
          "internalType": "uint256",
          "name": "",
          "type": "uint256"
        }
      ],
      "stateMutability": "view",
      "type": "function"
    },
    {
      "inputs": [],
      "name": "providerRegistry",
      "outputs": [
        {
          "internalType": "contract ProviderRegistry",
          "name": "",
          "type": "address"
        }
      ],
      "stateMutability": "view",
      "type": "function"
    },
    {
      "inputs": [
        {
          "internalType": "bytes32",
          "name": "role",
          "type": "bytes32"
        },
        {
          "internalType": "address",
          "name": "callerConfirmation",
          "type": "address"
        }
      ],
      "name": "renounceRole",
      "outputs": [],
      "stateMutability": "nonpayable",
      "type": "function"
    },
    {
      "inputs": [
        {
          "internalType": "bytes32",
          "name": "role",
          "type": "bytes32"
        },
        {
          "internalType": "address",
          "name": "account",
          "type": "address"
        }
      ],
      "name": "revokeRole",
      "outputs": [],
      "stateMutability": "nonpayable",
      "type": "function"
    },
    {
      "inputs": [
        {
          "components": [
            {
              "internalType": "uint256",
              "name": "jobId",
              "type": "uint256"
            },
            {
              "internalType": "address",
              "name": "user",
              "type": "address"
            },
            {
              "internalType": "address",
              "name": "provider",
              "type": "address"
            },
            {
              "internalType": "uint256",
              "name": "grossCost",
              "type": "uint256"
            },
            {
              "internalType": "uint256",
              "name": "providerEarn",
              "type": "uint256"
            },
            {
              "internalType": "uint256",
              "name": "nonce",
              "type": "uint256"
            },
            {
              "internalType": "uint256",
              "name": "deadline",
              "type": "uint256"
            }
          ],
          "internalType": "struct JobEscrow.UsageReport",
          "name": "r",
          "type": "tuple"
        },
        {
          "internalType": "bytes",
          "name": "sig",
          "type": "bytes"
        }
      ],
      "name": "submitUsageReport",
      "outputs": [],
      "stateMutability": "nonpayable",
      "type": "function"
    },
    {
      "inputs": [
        {
          "internalType": "bytes4",
          "name": "interfaceId",
          "type": "bytes4"
        }
      ],
      "name": "supportsInterface",
      "outputs": [
        {
          "internalType": "bool",
          "name": "",
          "type": "bool"
        }
      ],
      "stateMutability": "view",
      "type": "function"
    },
    {
      "inputs": [
        {
          "internalType": "address",
          "name": "",
          "type": "address"
        }
      ],
      "name": "userRefundCredit",
      "outputs": [
        {
          "internalType": "uint256",
          "name": "",
          "type": "uint256"
        }
      ],
      "stateMutability": "view",
      "type": "function"
    },
    {
      "inputs": [],
      "name": "withdrawProvider",
      "outputs": [],
      "stateMutability": "nonpayable",
      "type": "function"
    },
    {
      "inputs": [],
      "name": "withdrawUserRefund",
      "outputs": [],
      "stateMutability": "nonpayable",
      "type": "function"
    }
  ],
  "bytecode": "0x6101a06040523480156200001257600080fd5b506040516200234d3803806200234d8339810160408190526200003591620002a9565b6040805180820182526011815270436c6f7564616e614a6f62457363726f7760781b60208083019190915282518084019093526001808452603160f81b918401919091528055906200008982600262000159565b610120526200009a81600362000159565b61014052815160208084019190912060e052815190820120610100524660a0526200012860e05161010051604080517f8b73c3c69bb8fe3d512ecc4cf759cc79239f7b179b0ffacaa9a75d522b39400f60208201529081019290925260608201524660808201523060a082015260009060c00160405160208183030381529060405280519060200120905090565b60805250503060c0526200013e60003362000192565b506001600160a01b03918216610160521661018052620004c7565b60006020835110156200017957620001718362000240565b90506200018c565b8162000186848262000386565b5060ff90505b92915050565b6000828152602081815260408083206001600160a01b038516845290915281205460ff1662000237576000838152602081815260408083206001600160a01b03861684529091529020805460ff19166001179055620001ee3390565b6001600160a01b0316826001600160a01b0316847f2f8788117e7eff1d82e926ec794901d17c78024a50270940304540a733656f0d60405160405180910390a45060016200018c565b5060006200018c565b600080829050601f8151111562000277578260405163305a27a960e01b81526004016200026e919062000452565b60405180910390fd5b80516200028482620004a2565b179392505050565b80516001600160a01b0381168114620002a457600080fd5b919050565b60008060408385031215620002bd57600080fd5b620002c8836200028c565b9150620002d8602084016200028c565b90509250929050565b634e487b7160e01b600052604160045260246000fd5b600181811c908216806200030c57607f821691505b6020821081036200032d57634e487b7160e01b600052602260045260246000fd5b50919050565b601f8211156200038157600081815260208120601f850160051c810160208610156200035c5750805b601f850160051c820191505b818110156200037d5782815560010162000368565b5050505b505050565b81516001600160401b03811115620003a257620003a2620002e1565b620003ba81620003b38454620002f7565b8462000333565b602080601f831160018114620003f25760008415620003d95750858301515b600019600386901b1c1916600185901b1785556200037d565b600085815260208120601f198616915b82811015620004235788860151825594840194600190910190840162000402565b5085821015620004425787850151600019600388901b60f8161c191681555b5050505050600190811b01905550565b600060208083528351808285015260005b81811015620004815785810183015185820160400152820162000463565b506000604082860101526040601f19601f8301168501019250505092915050565b805160208083015191908110156200032d5760001960209190910360031b1b16919050565b60805160a05160c05160e0516101005161012051610140516101605161018051611df26200055b600039600081816102a9015261062601526000818161023101528181610701015281816109c40152818161107201526112390152600061148501526000611453015260006116c40152600061169c015260006115f7015260006116210152600061164b0152611df26000f3fe608060405234801561001057600080fd5b50600436106101375760003560e01c806367e6d3f5116100b8578063b0c2aa5e1161007c578063b0c2aa5e1461033c578063c49baebe14610345578063d02721cb1461036c578063d547741f14610374578063e2bbb15814610387578063f26d80ef1461039a57600080fd5b806367e6d3f5146102d357806384b0196e146102f357806391d148541461030e578063a217fddf14610321578063ad4eed8d1461032957600080fd5b80632f2ff15d116100ff5780632f2ff15d1461026b57806336568abe1461027e5780633f2a66f814610291578063545921d9146102a457806362d66b0e146102cb57600080fd5b806301ffc9a71461013c578063180aedf3146101645780631e01abca146101e6578063248a9ca3146101fb578063285922e71461022c575b600080fd5b61014f61014a366004611951565b6103ba565b60405190151581526020015b60405180910390f35b6101d2610172366004611982565b60046020819052600091825260409091208054600182015460028301546003840154948401546005909401546001600160a01b03938416959290931693909260ff81169067ffffffffffffffff6101008204811691600160481b90041688565b60405161015b9897969594939291906119b1565b6101f96101f4366004611982565b6103f1565b005b61021e610209366004611982565b60009081526020819052604090206001015490565b60405190815260200161015b565b6102537f000000000000000000000000000000000000000000000000000000000000000081565b6040516001600160a01b03909116815260200161015b565b6101f9610279366004611a3c565b61059f565b6101f961028c366004611a3c565b6105ca565b61021e61029f366004611a6c565b610602565b6102537f000000000000000000000000000000000000000000000000000000000000000081565b6101f9610951565b61021e6102e1366004611a98565b60056020526000908152604090205481565b6102fb610a93565b60405161015b9796959493929190611afb565b61014f61031c366004611a3c565b610ad9565b61021e600081565b6101f9610337366004611b91565b610b02565b61021e60075481565b61021e7f21702c8af46127c7fa207f89d0b0a8441bb32959a0ac7df790e9ab1a25c9892681565b6101f9610fff565b6101f9610382366004611a3c565b611130565b6101f9610395366004611c1d565b611155565b61021e6103a8366004611a98565b60066020526000908152604090205481565b60006001600160e01b03198216637965db0b60e01b14806103eb57506301ffc9a760e01b6001600160e01b03198316145b92915050565b600081815260046020526040902080546001600160a01b031661042f576040516350c83b9560e01b8152600481018390526024015b60405180910390fd5b6000600582015460ff16600181111561044a5761044a61199b565b1461046b5760405163182b3b9960e21b815260048101839052602401610426565b80546000906001600160a01b0316331480610492575060018201546001600160a01b031633145b806104a357506104a3600033610ad9565b9050806104e3578154600183015460405163c36d208560e01b81523360048201526001600160a01b03928316602482015291166044820152606401610426565b6000826003015483600201546104f99190611c55565b905080156105305782546001600160a01b03166000908152600660205260408120805483929061052a908490611c68565b90915550505b60058301805467ffffffffffffffff4216600160481b0270ffffffffffffffff0000000000000000ff1990911617600117905560405181815284907fcdb24df83c7021207b861273a5af108e6c044de970a61ac9d1d897e0ee8ea901906020015b60405180910390a250505050565b6000828152602081905260409020600101546105ba81611318565b6105c48383611325565b50505050565b6001600160a01b03811633146105f35760405163334bd91960e11b815260040160405180910390fd5b6105fd82826113b7565b505050565b6040516355f21eb760e01b81526001600160a01b03838116600483015260009182917f000000000000000000000000000000000000000000000000000000000000000016906355f21eb790602401608060405180830381865afa15801561066d573d6000803e3d6000fd5b505050506040513d601f19601f820116820180604052508101906106919190611c90565b80519091506001600160a01b031615806106ad57508060200151155b156106d657604051630e65baf560e21b81526001600160a01b0385166004820152602401610426565b8215610797576040516323b872dd60e01b8152336004820152306024820152604481018490526000907f00000000000000000000000000000000000000000000000000000000000000006001600160a01b0316906323b872dd906064016020604051808303816000875af1158015610752573d6000803e3d6000fd5b505050506040513d601f19601f820116820180604052508101906107769190611d25565b9050806107955760405162461bcd60e51b815260040161042690611d40565b505b600780549060006107a783611d69565b919050559150604051806101000160405280336001600160a01b03168152602001856001600160a01b031681526020018481526020016000815260200160008152602001600060018111156107fe576107fe61199b565b815267ffffffffffffffff421660208083019190915260006040928301819052858152600480835290839020845181546001600160a01b039182166001600160a01b0319918216178355938601516001808401805492909316919095161790559284015160028401556060840151600384015560808401519083015560a08301516005830180549192909160ff191690838181111561089f5761089f61199b565b021790555060c08201516005909101805460e09093015167ffffffffffffffff908116600160481b0270ffffffffffffffff0000000000000000001991909316610100021670ffffffffffffffffffffffffffffffff0019909316929092171790556040516001600160a01b03851690339084907f8f4ee83cefe0dfb2f73fe6057bfa5b233fc43358bbb5f5606f444cbd4c5c4f8c906109429088815260200190565b60405180910390a45092915050565b610959611422565b336000908152600660205260408120549081900361098c57604051632ac23ea160e01b8152336004820152602401610426565b336000818152600660205260408082208290555163a9059cbb60e01b8152600481019290925260248201839052906001600160a01b037f0000000000000000000000000000000000000000000000000000000000000000169063a9059cbb906044016020604051808303816000875af1158015610a0d573d6000803e3d6000fd5b505050506040513d601f19601f82011682018060405250810190610a319190611d25565b905080610a505760405162461bcd60e51b815260040161042690611d40565b60405182815233907f85ae797aa21efe3619da1ededa72f81c730e43640e5c3a4f1a7fd4a03bd1148b906020015b60405180910390a25050610a9160018055565b565b600060608060008060006060610aa761144c565b610aaf61147e565b60408051600080825260208201909252600f60f81b9b939a50919850469750309650945092509050565b6000918252602082815260408084206001600160a01b0393909316845291905290205460ff1690565b8235600090815260046020526040902080546001600160a01b0316610b3d576040516350c83b9560e01b815284356004820152602401610426565b6000600582015460ff166001811115610b5857610b5861199b565b14610b795760405163182b3b9960e21b815284356004820152602401610426565b610b896040850160208601611a98565b81546001600160a01b03908116911614610be45780546001600160a01b0316610bb86040860160208701611a98565b60405163396b359f60e01b81526001600160a01b03928316600482015291166024820152604401610426565b610bf46060850160408601611a98565b60018201546001600160a01b03908116911614610c555760018101546001600160a01b0316610c296060860160408701611a98565b60405163477adcfb60e01b81526001600160a01b03928316600482015291166024820152604401610426565b8360a00135816004015414610c8d576004818101546040516306427aeb60e01b81529182015260a08501356024820152604401610426565b60008460c00135118015610ca457508360c0013542115b15610cce576040516324bf66c560e01b815260c08501356004820152426024820152604401610426565b806002015484606001358260030154610ce79190611c68565b1115610d285783606001358160030154610d019190611c68565b60028201546040516312e1fa3760e11b815260048101929092526024820152604401610426565b836060013584608001351115610d615760405163018b009960e61b81526060850135600482015260808501356024820152604401610426565b60007f63b66d4905309ddd4664c43ca994eb9120307b529a2153d702f67abf1785dad78535610d966040880160208901611a98565b610da66060890160408a01611a98565b886060013589608001358a60a001358b60c00135604051602001610e0e98979695949392919097885260208801969096526001600160a01b039485166040880152929093166060860152608085015260a084019190915260c083015260e08201526101000190565b6040516020818303038152906040528051906020012090506000610e31826114ab565b90506000610e758287878080601f0160208091040260200160405190810160405280939291908181526020018383808284376000920191909152506114d892505050565b9050610ea17f21702c8af46127c7fa207f89d0b0a8441bb32959a0ac7df790e9ab1a25c9892682610ad9565b610ebe57604051638baa579f60e01b815260040160405180910390fd5b8660600135846003016000828254610ed69190611c68565b9091555050608087013560056000610ef460608b0160408c01611a98565b6001600160a01b03166001600160a01b031681526020019081526020016000206000828254610f239190611c68565b9091555060009050610f3d608089013560608a0135611c55565b90508060066000610f5460408c0160208d01611a98565b6001600160a01b03166001600160a01b031681526020019081526020016000206000828254610f839190611c68565b9091555050600485018054906000610f9a83611d69565b90915550506004850154604080516060808c013582526080808d013560208401529282018590528101929092528935917f89bdaa1acd39c8dca0a62b5fdfd7ae6156d1c2571651eddfed0be52799741382910160405180910390a25050505050505050565b611007611422565b336000908152600560205260408120549081900361103a57604051632ac23ea160e01b8152336004820152602401610426565b336000818152600560205260408082208290555163a9059cbb60e01b8152600481019290925260248201839052906001600160a01b037f0000000000000000000000000000000000000000000000000000000000000000169063a9059cbb906044016020604051808303816000875af11580156110bb573d6000803e3d6000fd5b505050506040513d601f19601f820116820180604052508101906110df9190611d25565b9050806110fe5760405162461bcd60e51b815260040161042690611d40565b60405182815233907f61388fbc2ba003175d3018b8f13b002234cc4e203a332a4a6dadb96bc82c3db290602001610a7e565b60008281526020819052604090206001015461114b81611318565b6105c483836113b7565b600082815260046020526040902080546001600160a01b031661118e576040516350c83b9560e01b815260048101849052602401610426565b80546001600160a01b031633146111d8578054600182015460405163c36d208560e01b81523360048201526001600160a01b03928316602482015291166044820152606401610426565b6000600582015460ff1660018111156111f3576111f361199b565b146112145760405163182b3b9960e21b815260048101849052602401610426565b6040516323b872dd60e01b8152336004820152306024820152604481018390526000907f00000000000000000000000000000000000000000000000000000000000000006001600160a01b0316906323b872dd906064016020604051808303816000875af115801561128a573d6000803e3d6000fd5b505050506040513d601f19601f820116820180604052508101906112ae9190611d25565b9050806112cd5760405162461bcd60e51b815260040161042690611d40565b828260020160008282546112e19190611c68565b909155505060405183815284907f1e79868cb10878b012dc1bb2863f89615a7f52d9a59fdbf66d51d374df83be8090602001610591565b6113228133611502565b50565b60006113318383610ad9565b6113af576000838152602081815260408083206001600160a01b03861684529091529020805460ff191660011790556113673390565b6001600160a01b0316826001600160a01b0316847f2f8788117e7eff1d82e926ec794901d17c78024a50270940304540a733656f0d60405160405180910390a45060016103eb565b5060006103eb565b60006113c38383610ad9565b156113af576000838152602081815260408083206001600160a01b0386168085529252808320805460ff1916905551339286917ff6391f5c32d9c69d2a47ea670b442974b53935d1edc7fd64eb21e047a839171b9190a45060016103eb565b60026001540361144557604051633ee5aeb560e01b815260040160405180910390fd5b6002600155565b60606114797f0000000000000000000000000000000000000000000000000000000000000000600261153f565b905090565b60606114797f0000000000000000000000000000000000000000000000000000000000000000600361153f565b60006103eb6114b86115ea565b8360405161190160f01b8152600281019290925260228201526042902090565b6000806000806114e88686611715565b9250925092506114f88282611762565b5090949350505050565b61150c8282610ad9565b61153b5760405163e2517d3f60e01b81526001600160a01b038216600482015260248101839052604401610426565b5050565b606060ff8314611559576115528361181b565b90506103eb565b81805461156590611d82565b80601f016020809104026020016040519081016040528092919081815260200182805461159190611d82565b80156115de5780601f106115b3576101008083540402835291602001916115de565b820191906000526020600020905b8154815290600101906020018083116115c157829003601f168201915b505050505090506103eb565b6000306001600160a01b037f00000000000000000000000000000000000000000000000000000000000000001614801561164357507f000000000000000000000000000000000000000000000000000000000000000046145b1561166d57507f000000000000000000000000000000000000000000000000000000000000000090565b611479604080517f8b73c3c69bb8fe3d512ecc4cf759cc79239f7b179b0ffacaa9a75d522b39400f60208201527f0000000000000000000000000000000000000000000000000000000000000000918101919091527f000000000000000000000000000000000000000000000000000000000000000060608201524660808201523060a082015260009060c00160405160208183030381529060405280519060200120905090565b6000806000835160410361174f5760208401516040850151606086015160001a6117418882858561185a565b95509550955050505061175b565b50508151600091506002905b9250925092565b60008260038111156117765761177661199b565b0361177f575050565b60018260038111156117935761179361199b565b036117b15760405163f645eedf60e01b815260040160405180910390fd5b60028260038111156117c5576117c561199b565b036117e65760405163fce698f760e01b815260048101829052602401610426565b60038260038111156117fa576117fa61199b565b0361153b576040516335e2f38360e21b815260048101829052602401610426565b6060600061182883611929565b604080516020808252818301909252919250600091906020820181803683375050509182525060208101929092525090565b600080807f7fffffffffffffffffffffffffffffff5d576e7357a4501ddfe92f46681b20a0841115611895575060009150600390508261191f565b604080516000808252602082018084528a905260ff891692820192909252606081018790526080810186905260019060a0016020604051602081039080840390855afa1580156118e9573d6000803e3d6000fd5b5050604051601f1901519150506001600160a01b0381166119155750600092506001915082905061191f565b9250600091508190505b9450945094915050565b600060ff8216601f8111156103eb57604051632cd44ac360e21b815260040160405180910390fd5b60006020828403121561196357600080fd5b81356001600160e01b03198116811461197b57600080fd5b9392505050565b60006020828403121561199457600080fd5b5035919050565b634e487b7160e01b600052602160045260246000fd5b6001600160a01b038981168252881660208201526040810187905260608101869052608081018590526101008101600285106119fd57634e487b7160e01b600052602160045260246000fd5b60a082019490945267ffffffffffffffff92831660c0820152911660e09091015295945050505050565b6001600160a01b038116811461132257600080fd5b60008060408385031215611a4f57600080fd5b823591506020830135611a6181611a27565b809150509250929050565b60008060408385031215611a7f57600080fd5b8235611a8a81611a27565b946020939093013593505050565b600060208284031215611aaa57600080fd5b813561197b81611a27565b6000815180845260005b81811015611adb57602081850181015186830182015201611abf565b506000602082860101526020601f19601f83011685010191505092915050565b60ff60f81b881681526000602060e081840152611b1b60e084018a611ab5565b8381036040850152611b2d818a611ab5565b606085018990526001600160a01b038816608086015260a0850187905284810360c0860152855180825283870192509083019060005b81811015611b7f57835183529284019291840191600101611b63565b50909c9b505050505050505050505050565b6000806000838503610100811215611ba857600080fd5b60e0811215611bb657600080fd5b5083925060e084013567ffffffffffffffff80821115611bd557600080fd5b818601915086601f830112611be957600080fd5b813581811115611bf857600080fd5b876020828501011115611c0a57600080fd5b6020830194508093505050509250925092565b60008060408385031215611c3057600080fd5b50508035926020909101359150565b634e487b7160e01b600052601160045260246000fd5b818103818111156103eb576103eb611c3f565b808201808211156103eb576103eb611c3f565b80518015158114611c8b57600080fd5b919050565b600060808284031215611ca257600080fd5b6040516080810167ffffffffffffffff8282108183111715611cd457634e487b7160e01b600052604160045260246000fd5b8160405284519150611ce582611a27565b818352611cf460208601611c7b565b602084015260408501516040840152606085015191508082168214611d1857600080fd5b5060608201529392505050565b600060208284031215611d3757600080fd5b61197b82611c7b565b6020808252600f908201526e151c985b9cd9995c8819985a5b1959608a1b604082015260600190565b600060018201611d7b57611d7b611c3f565b5060010190565b600181811c90821680611d9657607f821691505b602082108103611db657634e487b7160e01b600052602260045260246000fd5b5091905056fea26469706673582212202cf9730501da47ec0928f899237109ee671179a3175bcb169dae9e029708343864736f6c63430008140033",
  "linkReferences": {},
  "deployedLinkReferences": {}
}